{
  "abi": [
    {
      "inputs": [
        {
          "internalType": "address",
          "name": "_locksAddress",
          "type": "address"
        },
        {
          "internalType": "address",
          "name": "_adminAddress",
          "type": "address"
        }
      ],
      "stateMutability": "nonpayable",
      "type": "constructor"
    },
    {
      "inputs": [],
      "name": "DivWadFailed",
      "type": "error"
    },
    {
      "inputs": [],
      "name": "MulWadFailed",
      "type": "error"
    },
    {
      "anonymous": false,
      "inputs": [
        {
          "indexed": true,
          "internalType": "address",
          "name": "user",
          "type": "address"
        },
        {
          "indexed": false,
          "internalType": "uint256",
          "name": "amount",
          "type": "uint256"
        }
      ],
      "name": "Buy",
      "type": "event"
    },
    {
      "anonymous": false,
      "inputs": [
        {
          "indexed": true,
          "internalType": "address",
          "name": "user",
          "type": "address"
        },
        {
          "indexed": false,
          "internalType": "uint256",
          "name": "amount",
          "type": "uint256"
        }
      ],
      "name": "Redeem",
      "type": "event"
    },
    {
      "anonymous": false,
      "inputs": [
        {
          "indexed": true,
          "internalType": "address",
          "name": "user",
          "type": "address"
        },
        {
          "indexed": false,
          "internalType": "uint256",
          "name": "amount",
          "type": "uint256"
        }
      ],
      "name": "Sale",
      "type": "event"
    },
    {
      "inputs": [],
      "name": "adminAddress",
      "outputs": [
        {
          "internalType": "address",
          "name": "",
          "type": "address"
        }
      ],
      "stateMutability": "view",
      "type": "function"
    },
    {
      "inputs": [
        {
          "internalType": "address",
          "name": "_borrowAddress",
          "type": "address"
        }
      ],
      "name": "approveBorrowForHoney",
      "outputs": [],
      "stateMutability": "nonpayable",
      "type": "function"
    },
    {
      "inputs": [
        {
          "internalType": "uint256",
          "name": "_amount",
          "type": "uint256"
        },
        {
          "internalType": "uint256",
          "name": "_maxAmount",
          "type": "uint256"
        }
      ],
      "name": "buy",
      "outputs": [
        {
          "internalType": "uint256",
          "name": "",
          "type": "uint256"
        },
        {
          "internalType": "uint256",
          "name": "",
          "type": "uint256"
        }
      ],
      "stateMutability": "nonpayable",
      "type": "function"
    },
    {
      "inputs": [],
      "name": "floorPrice",
      "outputs": [
        {
          "internalType": "uint256",
          "name": "",
          "type": "uint256"
        }
      ],
      "stateMutability": "view",
      "type": "function"
    },
    {
      "inputs": [],
      "name": "fsl",
      "outputs": [
        {
          "internalType": "uint256",
          "name": "",
          "type": "uint256"
        }
      ],
      "stateMutability": "view",
      "type": "function"
    },
    {
      "inputs": [
        {
          "internalType": "uint256",
          "name": "_fsl",
          "type": "uint256"
        },
        {
          "internalType": "uint256",
          "name": "_psl",
          "type": "uint256"
        }
      ],
      "name": "initialize",
      "outputs": [],
      "stateMutability": "nonpayable",
      "type": "function"
    },
    {
      "inputs": [],
      "name": "lastFloorDecrease",
      "outputs": [
        {
          "internalType": "uint256",
          "name": "",
          "type": "uint256"
        }
      ],
      "stateMutability": "view",
      "type": "function"
    },
    {
      "inputs": [],
      "name": "lastFloorRaise",
      "outputs": [
        {
          "internalType": "uint256",
          "name": "",
          "type": "uint256"
        }
      ],
      "stateMutability": "view",
      "type": "function"
    },
    {
      "inputs": [],
      "name": "locksAddress",
      "outputs": [
        {
          "internalType": "address",
          "name": "",
          "type": "address"
        }
      ],
      "stateMutability": "view",
      "type": "function"
    },
    {
      "inputs": [],
      "name": "marketPrice",
      "outputs": [
        {
          "internalType": "uint256",
          "name": "",
          "type": "uint256"
        }
      ],
      "stateMutability": "view",
      "type": "function"
    },
    {
      "inputs": [],
      "name": "psl",
      "outputs": [
        {
          "internalType": "uint256",
          "name": "",
          "type": "uint256"
        }
      ],
      "stateMutability": "view",
      "type": "function"
    },
    {
      "inputs": [
        {
          "internalType": "uint256",
          "name": "_amount",
          "type": "uint256"
        }
      ],
      "name": "redeem",
      "outputs": [],
      "stateMutability": "nonpayable",
      "type": "function"
    },
    {
      "inputs": [
        {
          "internalType": "uint256",
          "name": "_amount",
          "type": "uint256"
        },
        {
          "internalType": "uint256",
          "name": "_minAmount",
          "type": "uint256"
        }
      ],
      "name": "sell",
      "outputs": [
        {
          "internalType": "uint256",
          "name": "",
          "type": "uint256"
        },
        {
          "internalType": "uint256",
          "name": "",
          "type": "uint256"
        }
      ],
      "stateMutability": "nonpayable",
      "type": "function"
    },
    {
      "inputs": [
        {
          "internalType": "address",
          "name": "_honeyAddress",
          "type": "address"
        }
      ],
      "name": "setHoneyAddress",
      "outputs": [],
      "stateMutability": "nonpayable",
      "type": "function"
    },
    {
      "inputs": [],
      "name": "soladyMarketPrice",
      "outputs": [
        {
          "internalType": "uint256",
          "name": "",
          "type": "uint256"
        }
      ],
      "stateMutability": "view",
      "type": "function"
    },
    {
      "inputs": [],
      "name": "supply",
      "outputs": [
        {
          "internalType": "uint256",
          "name": "",
          "type": "uint256"
        }
      ],
      "stateMutability": "view",
      "type": "function"
    },
    {
      "inputs": [],
      "name": "targetRatio",
      "outputs": [
        {
          "internalType": "uint256",
          "name": "",
          "type": "uint256"
        }
      ],
      "stateMutability": "view",
      "type": "function"
    }
  ],
  "bytecode": {
    "object": "0x60806040526704fefa17b7240000600455683635c9adc5dea0000060055534801561002957600080fd5b50604051611259380380611259833981016040819052610048916100ab565b600180546001600160a01b039384166001600160a01b03199182168117909255600880549390941692811692909217909255600980549091169091179055426006556100de565b80516001600160a01b03811681146100a657600080fd5b919050565b600080604083850312156100be57600080fd5b6100c78361008f565b91506100d56020840161008f565b90509250929050565b61116c806100ed6000396000f3fe608060405234801561001057600080fd5b506004361061010b5760003560e01c8063d054a16f116100a2578063d93f423d11610071578063d93f423d146101d7578063db006a75146101ec578063db9ed213146101ff578063e4a3011614610212578063fc6f94681461022557600080fd5b8063d054a16f1461018a578063d2b478ed14610193578063d6febde81461019c578063d79875eb146101c457600080fd5b80634aff611f116100de5780634aff611f146101685780635a08bd171461017057806380468812146101795780639363c8121461018257600080fd5b8063047fc9aa146101105780631db77a4d1461012c57806345a153881461013557806348757e841461013d575b600080fd5b61011960055481565b6040519081526020015b60405180910390f35b61011960025481565b610119610238565b600954610150906001600160a01b031681565b6040516001600160a01b039091168152602001610123565b610119610250565b61011960045481565b61011960035481565b6101196102c3565b61011960075481565b61011960065481565b6101af6101aa366004610f28565b6102d3565b60408051928352602083019190915201610123565b6101af6101d2366004610f28565b61063c565b6101ea6101e5366004610f4a565b61090c565b005b6101ea6101fa366004610f7a565b6109d7565b6101ea61020d366004610f4a565b610c5c565b6101ea610220366004610f28565b610cc4565b600854610150906001600160a01b031681565b600061024b600254600354600554610d15565b905090565b600080610261600254600554610dbd565b90506000610273600354600554610dbd565b9050600061029260025460035461028a9190610fa9565b600254610dbd565b905060006102a16005836110a0565b905060006102af82856110af565b6102b99086610fa9565b9695505050505050565b600061024b600254600554610e0c565b600554600254600354600092839290918691908480805b670de0b6b3a7640000861061039a57610304858589610d15565b92506103108588610e0c565b915061031c8382610fa9565b9050610330670de0b6b3a764000088610fa9565b965061033d8560326110af565b6103488560646110af565b1061035e576103578386610fa9565b9450610381565b61036882846110c6565b6103729085610fa9565b935061037e8286610fa9565b94505b610393670de0b6b3a7640000876110c6565b95506102ea565b8515610447576103ab858589610d15565b92506103b78588610e0c565b91506103c38387610e21565b6103cd9082610fa9565b90506103d98688610fa9565b96506103e68560326110af565b6103f18560646110af565b10610411576104008387610e21565b61040a9086610fa9565b9450610447565b61042461041e83856110c6565b87610e21565b61042e9085610fa9565b935061043a8287610e21565b6104449086610fa9565b94505b60006104556103e8836110d9565b6104609060036110af565b905061046c8187610fa9565b600255600385905560058890558a6104848284610fa9565b11156104cb5760405162461bcd60e51b8152602060048201526011602482015270746f6f206d75636820736c69707061676560781b60448201526064015b60405180910390fd5b6000546001600160a01b03166323b872dd33306104e88587610fa9565b6040516001600160e01b031960e086901b1681526001600160a01b03938416600482015292909116602483015260448201526064016020604051808303816000875af115801561053c573d6000803e3d6000fd5b505050506040513d601f19601f8201168201806040525081019061056091906110fb565b506001546040516309949e1960e11b8152336004820152602481018e90526001600160a01b03909116906313293c3290604401600060405180830381600087803b1580156105ad57600080fd5b505af11580156105c1573d6000803e3d6000fd5b505050506105cd610e4f565b6040518c815233907fe3d4187f6ca4248660cc0ac8b8056515bac4a8132be2eca31d6d0cc170722a7e9060200160405180910390a261061661060f8288610fa9565b868a610d15565b6106296106238389610fa9565b8a610e0c565b9950995050505050505050509250929050565b600554600254600354600092839290918691908480805b670de0b6b3a764000086106106d65761066d858589610d15565b91506106798588610e0c565b90506106858284610fa9565b925061069181836110c6565b61069b90856110c6565b93506106a781866110c6565b94506106bb670de0b6b3a7640000886110c6565b96506106cf670de0b6b3a7640000876110c6565b9550610653565b8515610747576106e7858589610d15565b91506106f38588610e0c565b90506106ff8287610e21565b6107099084610fa9565b925061071861041e82846110c6565b61072290856110c6565b935061072e8187610e21565b61073890866110c6565b945061074486886110c6565b96505b60006107556103e8856110d9565b6107609060356110af565b90508a61076d82866110c6565b10156107af5760405162461bcd60e51b8152602060048201526011602482015270746f6f206d75636820736c69707061676560781b60448201526064016104c2565b6000546001600160a01b031663a9059cbb336107cb84886110c6565b6040516001600160e01b031960e085901b1681526001600160a01b03909216600483015260248201526044016020604051808303816000875af1158015610816573d6000803e3d6000fd5b505050506040513d601f19601f8201168201806040525081019061083a91906110fb565b506001546040516302c3371760e61b8152336004820152602481018e90526001600160a01b039091169063b0cdc5c090604401600060405180830381600087803b15801561088757600080fd5b505af115801561089b573d6000803e3d6000fd5b5050505080866108ab9190610fa9565b600255600385905560058890556040518c815233907fc6851889326b4ff916523ef06f539b4cf0b81d78fc6e0f97c30e6223d18319909060200160405180910390a26108fe600254600354600554610d15565b610629600254600554610e0c565b6008546001600160a01b031633146109525760405162461bcd60e51b81526020600482015260096024820152683737ba1030b236b4b760b91b60448201526064016104c2565b60005460405163095ea7b360e01b81526001600160a01b0383811660048301526a084595161401484a00000060248301529091169063095ea7b3906044016020604051808303816000875af11580156109af573d6000803e3d6000fd5b505050506040513d601f19601f820116820180604052508101906109d391906110fb565b5050565b60008111610a1c5760405162461bcd60e51b815260206004820152601260248201527163616e6e6f742072656465656d207a65726f60701b60448201526064016104c2565b6009546040516370a0823160e01b815233600482015282916001600160a01b0316906370a0823190602401602060405180830381865afa158015610a64573d6000803e3d6000fd5b505050506040513d601f19601f82011682018060405250810190610a88919061111d565b1015610acd5760405162461bcd60e51b8152602060048201526014602482015273696e73756666696369656e742062616c616e636560601b60448201526064016104c2565b6000670de0b6b3a7640000600554600254670de0b6b3a7640000610af191906110af565b610afb91906110d9565b610b0590846110af565b610b0f91906110d9565b90508160056000828254610b2391906110c6565b925050819055508060026000828254610b3c91906110c6565b90915550506001546040516302c3371760e61b8152336004820152602481018490526001600160a01b039091169063b0cdc5c090604401600060405180830381600087803b158015610b8d57600080fd5b505af1158015610ba1573d6000803e3d6000fd5b505060005460405163a9059cbb60e01b8152336004820152602481018590526001600160a01b03909116925063a9059cbb91506044016020604051808303816000875af1158015610bf6573d6000803e3d6000fd5b505050506040513d601f19601f82011682018060405250810190610c1a91906110fb565b50610c23610e4f565b60405182815233907f222838db2794d11532d940e8dec38ae307ed0b63cd97c233322e221f998767a69060200160405180910390a25050565b6008546001600160a01b03163314610ca25760405162461bcd60e51b81526020600482015260096024820152683737ba1030b236b4b760b91b60448201526064016104c2565b600080546001600160a01b0319166001600160a01b0392909216919091179055565b6009546001600160a01b03163314610d0a5760405162461bcd60e51b81526020600482015260096024820152686e6f74206c6f636b7360b81b60448201526064016104c2565b600291909155600355565b60008082610d28856402540be4006110af565b610d3291906110d9565b9050600085610d418187610fa9565b610d4e90620186a06110af565b610d5891906110d9565b90506000610d676005836110a0565b9050600085610d7e89670de0b6b3a76400006110af565b610d8891906110d9565b905067016345785d8a0000610d9d83866110af565b610da791906110d9565b610db19082610fa9565b98975050505050505050565b60007812725dd1d243aba0e75fe645cc4873f9e65afe688c928e1f218311670de0b6b3a764000002158202610dfa57637c5f487d6000526004601cfd5b50670de0b6b3a7640000919091020490565b6000610e188383610dbd565b90505b92915050565b600081600019048311820215610e3f5763bac65e5b6000526004601cfd5b50670de0b6b3a764000091020490565b600454600254600354610e6a90670de0b6b3a76400006110af565b610e7491906110d9565b10610f26576000670de0b6b3a76400006020600354610e9391906110d9565b600254600354610eab90670de0b6b3a76400006110af565b610eb591906110d9565b610ebf91906110af565b610ec991906110d9565b90508060036000828254610edd91906110c6565b925050819055508060026000828254610ef69190610fa9565b9091555050600454610f0a906032906110d9565b60046000828254610f1b9190610fa9565b909155505042600655505b565b60008060408385031215610f3b57600080fd5b50508035926020909101359150565b600060208284031215610f5c57600080fd5b81356001600160a01b0381168114610f7357600080fd5b9392505050565b600060208284031215610f8c57600080fd5b5035919050565b634e487b7160e01b600052601160045260246000fd5b80820180821115610e1b57610e1b610f93565b600181815b80851115610ff7578160001904821115610fdd57610fdd610f93565b80851615610fea57918102915b93841c9390800290610fc1565b509250929050565b60008261100e57506001610e1b565b8161101b57506000610e1b565b8160018114611031576002811461103b57611057565b6001915050610e1b565b60ff84111561104c5761104c610f93565b50506001821b610e1b565b5060208310610133831016604e8410600b841016171561107a575081810a610e1b565b6110848383610fbc565b806000190482111561109857611098610f93565b029392505050565b6000610e1860ff841683610fff565b8082028115828204841417610e1b57610e1b610f93565b81810381811115610e1b57610e1b610f93565b6000826110f657634e487b7160e01b600052601260045260246000fd5b500490565b60006020828403121561110d57600080fd5b81518015158114610f7357600080fd5b60006020828403121561112f57600080fd5b505191905056fea26469706673582212203659107e464654566e715a152aca101bcc4d528b041ef72f6cce449305537e9c64736f6c63430008130033",
    "linkReferences": {}
  },
  "methodIdentifiers": {
    "adminAddress()": "fc6f9468",
    "approveBorrowForHoney(address)": "d93f423d",
    "buy(uint256,uint256)": "d6febde8",
    "floorPrice()": "9363c812",
    "fsl()": "1db77a4d",
    "initialize(uint256,uint256)": "e4a30116",
    "lastFloorDecrease()": "d054a16f",
    "lastFloorRaise()": "d2b478ed",
    "locksAddress()": "48757e84",
    "marketPrice()": "45a15388",
    "psl()": "80468812",
    "redeem(uint256)": "db006a75",
    "sell(uint256,uint256)": "d79875eb",
    "setHoneyAddress(address)": "db9ed213",
    "soladyMarketPrice()": "4aff611f",
    "supply()": "047fc9aa",
    "targetRatio()": "5a08bd17"
  },
  "id": 13
}