{
  "abi": [
    {
      "inputs": [
        {
          "internalType": "address",
          "name": "_locksAddress",
          "type": "address"
        },
        {
          "internalType": "address",
          "name": "_adminAddress",
          "type": "address"
        }
      ],
      "stateMutability": "nonpayable",
      "type": "constructor"
    },
    {
      "anonymous": false,
      "inputs": [
        {
          "indexed": true,
          "internalType": "address",
          "name": "user",
          "type": "address"
        },
        {
          "indexed": false,
          "internalType": "uint256",
          "name": "amount",
          "type": "uint256"
        }
      ],
      "name": "Buy",
      "type": "event"
    },
    {
      "anonymous": false,
      "inputs": [
        {
          "indexed": true,
          "internalType": "address",
          "name": "user",
          "type": "address"
        },
        {
          "indexed": false,
          "internalType": "uint256",
          "name": "amount",
          "type": "uint256"
        }
      ],
      "name": "Redeem",
      "type": "event"
    },
    {
      "anonymous": false,
      "inputs": [
        {
          "indexed": true,
          "internalType": "address",
          "name": "user",
          "type": "address"
        },
        {
          "indexed": false,
          "internalType": "uint256",
          "name": "amount",
          "type": "uint256"
        }
      ],
      "name": "Sale",
      "type": "event"
    },
    {
      "inputs": [
        {
          "internalType": "uint256",
          "name": "_fsl",
          "type": "uint256"
        },
        {
          "internalType": "uint256",
          "name": "_supply",
          "type": "uint256"
        }
      ],
      "name": "_floorPrice",
      "outputs": [
        {
          "internalType": "uint256",
          "name": "",
          "type": "uint256"
        }
      ],
      "stateMutability": "pure",
      "type": "function"
    },
    {
      "inputs": [
        {
          "internalType": "uint256",
          "name": "_fsl",
          "type": "uint256"
        },
        {
          "internalType": "uint256",
          "name": "_psl",
          "type": "uint256"
        },
        {
          "internalType": "uint256",
          "name": "_supply",
          "type": "uint256"
        }
      ],
      "name": "_marketPrice",
      "outputs": [
        {
          "internalType": "uint256",
          "name": "",
          "type": "uint256"
        }
      ],
      "stateMutability": "pure",
      "type": "function"
    },
    {
      "inputs": [],
      "name": "adminAddress",
      "outputs": [
        {
          "internalType": "address",
          "name": "",
          "type": "address"
        }
      ],
      "stateMutability": "view",
      "type": "function"
    },
    {
      "inputs": [
        {
          "internalType": "address",
          "name": "_borrowAddress",
          "type": "address"
        }
      ],
      "name": "approveBorrowForHoney",
      "outputs": [],
      "stateMutability": "nonpayable",
      "type": "function"
    },
    {
      "inputs": [
        {
          "internalType": "uint256",
          "name": "_amount",
          "type": "uint256"
        },
        {
          "internalType": "uint256",
          "name": "_maxAmount",
          "type": "uint256"
        }
      ],
      "name": "buy",
      "outputs": [
        {
          "internalType": "uint256",
          "name": "",
          "type": "uint256"
        },
        {
          "internalType": "uint256",
          "name": "",
          "type": "uint256"
        }
      ],
      "stateMutability": "nonpayable",
      "type": "function"
    },
    {
      "inputs": [],
      "name": "floorPrice",
      "outputs": [
        {
          "internalType": "uint256",
          "name": "",
          "type": "uint256"
        }
      ],
      "stateMutability": "view",
      "type": "function"
    },
    {
      "inputs": [],
      "name": "fsl",
      "outputs": [
        {
          "internalType": "uint256",
          "name": "",
          "type": "uint256"
        }
      ],
      "stateMutability": "view",
      "type": "function"
    },
    {
      "inputs": [
        {
          "internalType": "uint256",
          "name": "_fsl",
          "type": "uint256"
        },
        {
          "internalType": "uint256",
          "name": "_psl",
          "type": "uint256"
        }
      ],
      "name": "initialize",
      "outputs": [],
      "stateMutability": "nonpayable",
      "type": "function"
    },
    {
      "inputs": [],
      "name": "lastFloorDecrease",
      "outputs": [
        {
          "internalType": "uint256",
          "name": "",
          "type": "uint256"
        }
      ],
      "stateMutability": "view",
      "type": "function"
    },
    {
      "inputs": [],
      "name": "lastFloorRaise",
      "outputs": [
        {
          "internalType": "uint256",
          "name": "",
          "type": "uint256"
        }
      ],
      "stateMutability": "view",
      "type": "function"
    },
    {
      "inputs": [],
      "name": "locksAddress",
      "outputs": [
        {
          "internalType": "address",
          "name": "",
          "type": "address"
        }
      ],
      "stateMutability": "view",
      "type": "function"
    },
    {
      "inputs": [],
      "name": "psl",
      "outputs": [
        {
          "internalType": "uint256",
          "name": "",
          "type": "uint256"
        }
      ],
      "stateMutability": "view",
      "type": "function"
    },
    {
      "inputs": [
        {
          "internalType": "uint256",
          "name": "_amount",
          "type": "uint256"
        }
      ],
      "name": "redeem",
      "outputs": [],
      "stateMutability": "nonpayable",
      "type": "function"
    },
    {
      "inputs": [
        {
          "internalType": "uint256",
          "name": "_amount",
          "type": "uint256"
        },
        {
          "internalType": "uint256",
          "name": "_minAmount",
          "type": "uint256"
        }
      ],
      "name": "sell",
      "outputs": [
        {
          "internalType": "uint256",
          "name": "",
          "type": "uint256"
        },
        {
          "internalType": "uint256",
          "name": "",
          "type": "uint256"
        }
      ],
      "stateMutability": "nonpayable",
      "type": "function"
    },
    {
      "inputs": [
        {
          "internalType": "address",
          "name": "_honeyAddress",
          "type": "address"
        }
      ],
      "name": "setHoneyAddress",
      "outputs": [],
      "stateMutability": "nonpayable",
      "type": "function"
    },
    {
      "inputs": [],
      "name": "supply",
      "outputs": [
        {
          "internalType": "uint256",
          "name": "",
          "type": "uint256"
        }
      ],
      "stateMutability": "view",
      "type": "function"
    },
    {
      "inputs": [],
      "name": "targetRatio",
      "outputs": [
        {
          "internalType": "uint256",
          "name": "",
          "type": "uint256"
        }
      ],
      "stateMutability": "view",
      "type": "function"
    }
  ],
  "bytecode": {
    "object": "0x60806040526704fefa17b7240000600455683635c9adc5dea0000060055534801561002957600080fd5b50604051611226380380611226833981016040819052610048916100ab565b600180546001600160a01b039384166001600160a01b03199182168117909255600880549390941692811692909217909255600980549091169091179055426006556100de565b80516001600160a01b03811681146100a657600080fd5b919050565b600080604083850312156100be57600080fd5b6100c78361008f565b91506100d56020840161008f565b90509250929050565b611139806100ed6000396000f3fe608060405234801561001057600080fd5b506004361061010b5760003560e01c8063d054a16f116100a2578063d93f423d11610071578063d93f423d146101ed578063db006a7514610202578063db9ed21314610215578063e4a3011614610228578063fc6f94681461023b57600080fd5b8063d054a16f146101a0578063d2b478ed146101a9578063d6febde8146101b2578063d79875eb146101da57600080fd5b80635a08bd17116100de5780635a08bd1714610173578063804688121461017c5780639363c812146101855780639fa393fb1461018d57600080fd5b8063047fc9aa146101105780631db77a4d1461012c57806329d2e6871461013557806348757e8414610148575b600080fd5b61011960055481565b6040519081526020015b60405180910390f35b61011960025481565b610119610143366004610ec9565b61024e565b60095461015b906001600160a01b031681565b6040516001600160a01b039091168152602001610123565b61011960045481565b61011960035481565b6101196102f6565b61011961019b366004610ef5565b610320565b61011960075481565b61011960065481565b6101c56101c0366004610ef5565b610348565b60408051928352602083019190915201610123565b6101c56101e8366004610ef5565b6106f8565b6102006101fb366004610f17565b6109e7565b005b610200610210366004610f47565b610ab2565b610200610223366004610f17565b610d37565b610200610236366004610ef5565b610d9f565b60085461015b906001600160a01b031681565b60008082610261856402540be400610f76565b61026b9190610f8d565b905060008561027a8187610faf565b61028790620186a0610f76565b6102919190610f8d565b905060006102a06005836110a6565b90506000856102b789670de0b6b3a7640000610f76565b6102c19190610f8d565b905067016345785d8a00006102d68386610f76565b6102e09190610f8d565b6102ea9082610faf565b98975050505050505050565b6000600554600254670de0b6b3a76400006103119190610f76565b61031b9190610f8d565b905090565b60008161033584670de0b6b3a7640000610f76565b61033f9190610f8d565b90505b92915050565b600554600254600354600092839290918691908480805b670de0b6b3a7640000861061040f5761037985858961024e565b92506103858588610320565b91506103918382610faf565b90506103a5670de0b6b3a764000088610faf565b96506103b2856032610f76565b6103bd856064610f76565b106103d3576103cc8386610faf565b94506103f6565b6103dd82846110b5565b6103e79085610faf565b93506103f38286610faf565b94505b610408670de0b6b3a7640000876110b5565b955061035f565b851561050a5761042085858961024e565b925061042c8588610320565b9150670de0b6b3a76400006104418785610f76565b61044b9190610f8d565b6104559082610faf565b90506104618688610faf565b965061046e856032610f76565b610479856064610f76565b106104ac57670de0b6b3a76400006104918785610f76565b61049b9190610f8d565b6104a59086610faf565b945061050a565b670de0b6b3a7640000866104c084866110b5565b6104ca9190610f76565b6104d49190610f8d565b6104de9085610faf565b9350670de0b6b3a76400006104f38784610f76565b6104fd9190610f8d565b6105079086610faf565b94505b60006105186103e883610f8d565b610523906003610f76565b905061052f8187610faf565b600255600385905560058890558a6105478284610faf565b111561058e5760405162461bcd60e51b8152602060048201526011602482015270746f6f206d75636820736c69707061676560781b60448201526064015b60405180910390fd5b6000546001600160a01b03166323b872dd33306105ab8587610faf565b6040516001600160e01b031960e086901b1681526001600160a01b03938416600482015292909116602483015260448201526064016020604051808303816000875af11580156105ff573d6000803e3d6000fd5b505050506040513d601f19601f8201168201806040525081019061062391906110c8565b506001546040516309949e1960e11b8152336004820152602481018e90526001600160a01b03909116906313293c3290604401600060405180830381600087803b15801561067057600080fd5b505af1158015610684573d6000803e3d6000fd5b50505050610690610df0565b6040518c815233907fe3d4187f6ca4248660cc0ac8b8056515bac4a8132be2eca31d6d0cc170722a7e906020015b60405180910390a26106d760025460035460055461024e565b6106e5600254600554610320565b9950995050505050505050509250929050565b600554600254600354600092839290918691908480805b670de0b6b3a764000086106107925761072985858961024e565b91506107358588610320565b90506107418284610faf565b925061074d81836110b5565b61075790856110b5565b935061076381866110b5565b9450610777670de0b6b3a7640000886110b5565b965061078b670de0b6b3a7640000876110b5565b955061070f565b8515610844576107a385858961024e565b91506107af8588610320565b9050670de0b6b3a76400006107c48784610f76565b6107ce9190610f8d565b6107d89084610faf565b9250670de0b6b3a7640000866107ee83856110b5565b6107f89190610f76565b6108029190610f8d565b61080c90856110b5565b9350670de0b6b3a76400006108218783610f76565b61082b9190610f8d565b61083590866110b5565b945061084186886110b5565b96505b60006108526103e885610f8d565b61085d906035610f76565b90508a61086a8286610faf565b10156108ac5760405162461bcd60e51b8152602060048201526011602482015270746f6f206d75636820736c69707061676560781b6044820152606401610585565b6000546001600160a01b031663a9059cbb336108c884886110b5565b6040516001600160e01b031960e085901b1681526001600160a01b03909216600483015260248201526044016020604051808303816000875af1158015610913573d6000803e3d6000fd5b505050506040513d601f19601f8201168201806040525081019061093791906110c8565b506001546040516302c3371760e61b8152336004820152602481018e90526001600160a01b039091169063b0cdc5c090604401600060405180830381600087803b15801561098457600080fd5b505af1158015610998573d6000803e3d6000fd5b5050505080866109a89190610faf565b600255600385905560058890556040518c815233907fc6851889326b4ff916523ef06f539b4cf0b81d78fc6e0f97c30e6223d1831990906020016106be565b6008546001600160a01b03163314610a2d5760405162461bcd60e51b81526020600482015260096024820152683737ba1030b236b4b760b91b6044820152606401610585565b60005460405163095ea7b360e01b81526001600160a01b0383811660048301526a084595161401484a00000060248301529091169063095ea7b3906044016020604051808303816000875af1158015610a8a573d6000803e3d6000fd5b505050506040513d601f19601f82011682018060405250810190610aae91906110c8565b5050565b60008111610af75760405162461bcd60e51b815260206004820152601260248201527163616e6e6f742072656465656d207a65726f60701b6044820152606401610585565b6009546040516370a0823160e01b815233600482015282916001600160a01b0316906370a0823190602401602060405180830381865afa158015610b3f573d6000803e3d6000fd5b505050506040513d601f19601f82011682018060405250810190610b6391906110ea565b1015610ba85760405162461bcd60e51b8152602060048201526014602482015273696e73756666696369656e742062616c616e636560601b6044820152606401610585565b6000670de0b6b3a7640000600554600254670de0b6b3a7640000610bcc9190610f76565b610bd69190610f8d565b610be09084610f76565b610bea9190610f8d565b6001546040516302c3371760e61b8152336004820152602481018590529192506001600160a01b03169063b0cdc5c090604401600060405180830381600087803b158015610c3757600080fd5b505af1158015610c4b573d6000803e3d6000fd5b505060005460405163a9059cbb60e01b8152336004820152602481018590526001600160a01b03909116925063a9059cbb91506044016020604051808303816000875af1158015610ca0573d6000803e3d6000fd5b505050506040513d601f19601f82011682018060405250810190610cc491906110c8565b508160056000828254610cd791906110b5565b925050819055508060026000828254610cf091906110b5565b90915550610cfe9050610df0565b60405182815233907f222838db2794d11532d940e8dec38ae307ed0b63cd97c233322e221f998767a69060200160405180910390a25050565b6008546001600160a01b03163314610d7d5760405162461bcd60e51b81526020600482015260096024820152683737ba1030b236b4b760b91b6044820152606401610585565b600080546001600160a01b0319166001600160a01b0392909216919091179055565b6009546001600160a01b03163314610de55760405162461bcd60e51b81526020600482015260096024820152686e6f74206c6f636b7360b81b6044820152606401610585565b600291909155600355565b600454600254600354610e0b90670de0b6b3a7640000610f76565b610e159190610f8d565b10610ec7576000670de0b6b3a76400006020600354610e349190610f8d565b600254600354610e4c90670de0b6b3a7640000610f76565b610e569190610f8d565b610e609190610f76565b610e6a9190610f8d565b90508060036000828254610e7e91906110b5565b925050819055508060026000828254610e979190610faf565b9091555050600454610eab90603290610f8d565b60046000828254610ebc9190610faf565b909155505042600655505b565b600080600060608486031215610ede57600080fd5b505081359360208301359350604090920135919050565b60008060408385031215610f0857600080fd5b50508035926020909101359150565b600060208284031215610f2957600080fd5b81356001600160a01b0381168114610f4057600080fd5b9392505050565b600060208284031215610f5957600080fd5b5035919050565b634e487b7160e01b600052601160045260246000fd5b808202811582820484141761034257610342610f60565b600082610faa57634e487b7160e01b600052601260045260246000fd5b500490565b8082018082111561034257610342610f60565b600181815b80851115610ffd578160001904821115610fe357610fe3610f60565b80851615610ff057918102915b93841c9390800290610fc7565b509250929050565b60008261101457506001610342565b8161102157506000610342565b816001811461103757600281146110415761105d565b6001915050610342565b60ff84111561105257611052610f60565b50506001821b610342565b5060208310610133831016604e8410600b8410161715611080575081810a610342565b61108a8383610fc2565b806000190482111561109e5761109e610f60565b029392505050565b600061033f60ff841683611005565b8181038181111561034257610342610f60565b6000602082840312156110da57600080fd5b81518015158114610f4057600080fd5b6000602082840312156110fc57600080fd5b505191905056fea2646970667358221220c061d1be8011f582b9bfd2904b5a3026e2a267e5d8b73b4f83908a0ac1f87dc264736f6c63430008110033",
    "linkReferences": {}
  },
  "methodIdentifiers": {
    "_floorPrice(uint256,uint256)": "9fa393fb",
    "_marketPrice(uint256,uint256,uint256)": "29d2e687",
    "adminAddress()": "fc6f9468",
    "approveBorrowForHoney(address)": "d93f423d",
    "buy(uint256,uint256)": "d6febde8",
    "floorPrice()": "9363c812",
    "fsl()": "1db77a4d",
    "initialize(uint256,uint256)": "e4a30116",
    "lastFloorDecrease()": "d054a16f",
    "lastFloorRaise()": "d2b478ed",
    "locksAddress()": "48757e84",
    "psl()": "80468812",
    "redeem(uint256)": "db006a75",
    "sell(uint256,uint256)": "d79875eb",
    "setHoneyAddress(address)": "db9ed213",
    "supply()": "047fc9aa",
    "targetRatio()": "5a08bd17"
  },
  "id": 12
}