{
  "abi": [
    {
      "inputs": [
        {
          "internalType": "address",
          "name": "_adminAddress",
          "type": "address"
        }
      ],
      "stateMutability": "nonpayable",
      "type": "constructor"
    },
    {
      "anonymous": false,
      "inputs": [
        {
          "indexed": true,
          "internalType": "address",
          "name": "owner",
          "type": "address"
        },
        {
          "indexed": true,
          "internalType": "address",
          "name": "spender",
          "type": "address"
        },
        {
          "indexed": false,
          "internalType": "uint256",
          "name": "value",
          "type": "uint256"
        }
      ],
      "name": "Approval",
      "type": "event"
    },
    {
      "anonymous": false,
      "inputs": [
        {
          "indexed": true,
          "internalType": "address",
          "name": "from",
          "type": "address"
        },
        {
          "indexed": true,
          "internalType": "address",
          "name": "to",
          "type": "address"
        },
        {
          "indexed": false,
          "internalType": "uint256",
          "name": "value",
          "type": "uint256"
        }
      ],
      "name": "Transfer",
      "type": "event"
    },
    {
      "inputs": [],
      "name": "adminAddress",
      "outputs": [
        {
          "internalType": "address",
          "name": "",
          "type": "address"
        }
      ],
      "stateMutability": "view",
      "type": "function"
    },
    {
      "inputs": [
        {
          "internalType": "address",
          "name": "owner",
          "type": "address"
        },
        {
          "internalType": "address",
          "name": "spender",
          "type": "address"
        }
      ],
      "name": "allowance",
      "outputs": [
        {
          "internalType": "uint256",
          "name": "",
          "type": "uint256"
        }
      ],
      "stateMutability": "view",
      "type": "function"
    },
    {
      "inputs": [],
      "name": "ammAddress",
      "outputs": [
        {
          "internalType": "address",
          "name": "",
          "type": "address"
        }
      ],
      "stateMutability": "view",
      "type": "function"
    },
    {
      "inputs": [
        {
          "internalType": "address",
          "name": "_to",
          "type": "address"
        },
        {
          "internalType": "uint256",
          "name": "_amount",
          "type": "uint256"
        }
      ],
      "name": "ammBurn",
      "outputs": [],
      "stateMutability": "nonpayable",
      "type": "function"
    },
    {
      "inputs": [
        {
          "internalType": "address",
          "name": "_to",
          "type": "address"
        },
        {
          "internalType": "uint256",
          "name": "_amount",
          "type": "uint256"
        }
      ],
      "name": "ammMint",
      "outputs": [],
      "stateMutability": "nonpayable",
      "type": "function"
    },
    {
      "inputs": [
        {
          "internalType": "address",
          "name": "spender",
          "type": "address"
        },
        {
          "internalType": "uint256",
          "name": "amount",
          "type": "uint256"
        }
      ],
      "name": "approve",
      "outputs": [
        {
          "internalType": "bool",
          "name": "",
          "type": "bool"
        }
      ],
      "stateMutability": "nonpayable",
      "type": "function"
    },
    {
      "inputs": [
        {
          "internalType": "address",
          "name": "account",
          "type": "address"
        }
      ],
      "name": "balanceOf",
      "outputs": [
        {
          "internalType": "uint256",
          "name": "",
          "type": "uint256"
        }
      ],
      "stateMutability": "view",
      "type": "function"
    },
    {
      "inputs": [
        {
          "internalType": "uint256",
          "name": "_amount",
          "type": "uint256"
        }
      ],
      "name": "contribute",
      "outputs": [],
      "stateMutability": "nonpayable",
      "type": "function"
    },
    {
      "inputs": [],
      "name": "decimals",
      "outputs": [
        {
          "internalType": "uint8",
          "name": "",
          "type": "uint8"
        }
      ],
      "stateMutability": "view",
      "type": "function"
    },
    {
      "inputs": [
        {
          "internalType": "address",
          "name": "spender",
          "type": "address"
        },
        {
          "internalType": "uint256",
          "name": "subtractedValue",
          "type": "uint256"
        }
      ],
      "name": "decreaseAllowance",
      "outputs": [
        {
          "internalType": "bool",
          "name": "",
          "type": "bool"
        }
      ],
      "stateMutability": "nonpayable",
      "type": "function"
    },
    {
      "inputs": [],
      "name": "hardCap",
      "outputs": [
        {
          "internalType": "uint256",
          "name": "",
          "type": "uint256"
        }
      ],
      "stateMutability": "view",
      "type": "function"
    },
    {
      "inputs": [
        {
          "internalType": "address",
          "name": "spender",
          "type": "address"
        },
        {
          "internalType": "uint256",
          "name": "addedValue",
          "type": "uint256"
        }
      ],
      "name": "increaseAllowance",
      "outputs": [
        {
          "internalType": "bool",
          "name": "",
          "type": "bool"
        }
      ],
      "stateMutability": "nonpayable",
      "type": "function"
    },
    {
      "inputs": [],
      "name": "name",
      "outputs": [
        {
          "internalType": "string",
          "name": "",
          "type": "string"
        }
      ],
      "stateMutability": "view",
      "type": "function"
    },
    {
      "inputs": [],
      "name": "porridgeAddress",
      "outputs": [
        {
          "internalType": "address",
          "name": "",
          "type": "address"
        }
      ],
      "stateMutability": "view",
      "type": "function"
    },
    {
      "inputs": [
        {
          "internalType": "address",
          "name": "_to",
          "type": "address"
        },
        {
          "internalType": "uint256",
          "name": "_amount",
          "type": "uint256"
        }
      ],
      "name": "porridgeMint",
      "outputs": [],
      "stateMutability": "nonpayable",
      "type": "function"
    },
    {
      "inputs": [
        {
          "internalType": "address",
          "name": "_ammAddress",
          "type": "address"
        }
      ],
      "name": "setAmmAddress",
      "outputs": [],
      "stateMutability": "nonpayable",
      "type": "function"
    },
    {
      "inputs": [
        {
          "internalType": "address",
          "name": "_honeyAddress",
          "type": "address"
        }
      ],
      "name": "setHoneyAddress",
      "outputs": [],
      "stateMutability": "nonpayable",
      "type": "function"
    },
    {
      "inputs": [
        {
          "internalType": "address",
          "name": "_porridgeAddress",
          "type": "address"
        }
      ],
      "name": "setPorridgeAddress",
      "outputs": [],
      "stateMutability": "nonpayable",
      "type": "function"
    },
    {
      "inputs": [],
      "name": "setup",
      "outputs": [],
      "stateMutability": "nonpayable",
      "type": "function"
    },
    {
      "inputs": [],
      "name": "startTime",
      "outputs": [
        {
          "internalType": "uint256",
          "name": "",
          "type": "uint256"
        }
      ],
      "stateMutability": "view",
      "type": "function"
    },
    {
      "inputs": [],
      "name": "symbol",
      "outputs": [
        {
          "internalType": "string",
          "name": "",
          "type": "string"
        }
      ],
      "stateMutability": "view",
      "type": "function"
    },
    {
      "inputs": [],
      "name": "totalContribution",
      "outputs": [
        {
          "internalType": "uint256",
          "name": "",
          "type": "uint256"
        }
      ],
      "stateMutability": "view",
      "type": "function"
    },
    {
      "inputs": [],
      "name": "totalSupply",
      "outputs": [
        {
          "internalType": "uint256",
          "name": "",
          "type": "uint256"
        }
      ],
      "stateMutability": "view",
      "type": "function"
    },
    {
      "inputs": [
        {
          "internalType": "address",
          "name": "to",
          "type": "address"
        },
        {
          "internalType": "uint256",
          "name": "amount",
          "type": "uint256"
        }
      ],
      "name": "transfer",
      "outputs": [
        {
          "internalType": "bool",
          "name": "",
          "type": "bool"
        }
      ],
      "stateMutability": "nonpayable",
      "type": "function"
    },
    {
      "inputs": [
        {
          "internalType": "address",
          "name": "from",
          "type": "address"
        },
        {
          "internalType": "address",
          "name": "to",
          "type": "address"
        },
        {
          "internalType": "uint256",
          "name": "amount",
          "type": "uint256"
        }
      ],
      "name": "transferFrom",
      "outputs": [
        {
          "internalType": "bool",
          "name": "",
          "type": "bool"
        }
      ],
      "stateMutability": "nonpayable",
      "type": "function"
    },
    {
      "inputs": [
        {
          "internalType": "uint256",
          "name": "_fsl",
          "type": "uint256"
        },
        {
          "internalType": "uint256",
          "name": "_psl",
          "type": "uint256"
        }
      ],
      "name": "transferToAMM",
      "outputs": [],
      "stateMutability": "nonpayable",
      "type": "function"
    }
  ],
  "bytecode": {
    "object": "0x608060405269d3c21bcecceda10000006007553480156200001f57600080fd5b506040516200147d3803806200147d8339810160408190526200004291620000ce565b6040518060400160405280600b81526020016a2637b1b5b9902a37b5b2b760a91b815250604051806040016040528060058152602001644c4f434b5360d81b8152508160039081620000959190620001a5565b506004620000a48282620001a5565b5050600980546001600160a01b0319166001600160a01b0393909316929092179091555062000271565b600060208284031215620000e157600080fd5b81516001600160a01b0381168114620000f957600080fd5b9392505050565b634e487b7160e01b600052604160045260246000fd5b600181811c908216806200012b57607f821691505b6020821081036200014c57634e487b7160e01b600052602260045260246000fd5b50919050565b601f821115620001a057600081815260208120601f850160051c810160208610156200017b5750805b601f850160051c820191505b818110156200019c5782815560010162000187565b5050505b505050565b81516001600160401b03811115620001c157620001c162000100565b620001d981620001d2845462000116565b8462000152565b602080601f831160018114620002115760008415620001f85750858301515b600019600386901b1c1916600185901b1785556200019c565b600085815260208120601f198616915b82811015620002425788860151825594840194600190910190840162000221565b5085821015620002615787850151600019600388901b60f8161c191681555b5050505050600190811b01905550565b6111fc80620002816000396000f3fe608060405234801561001057600080fd5b506004361061018e5760003560e01c806395d89b41116100de578063db0ced4811610097578063f2934a9711610071578063f2934a9714610355578063fb86a40414610368578063fc6f946814610371578063fc7a9cd81461038457600080fd5b8063db0ced481461031c578063db9ed2131461032f578063dd62ed3e1461034257600080fd5b806395d89b41146102c0578063a457c2d7146102c8578063a9059cbb146102db578063b0cdc5c0146102ee578063ba0bba4014610301578063c1cbbca71461030957600080fd5b806323b872dd1161014b5780634837e204116101255780634837e2041461025057806370a082311461027b57806378e97925146102a45780638c2c622c146102ad57600080fd5b806323b872dd1461021b578063313ce5671461022e578063395093511461023d57600080fd5b806306fdde0314610193578063095ea7b3146101b15780630dcf4b8f146101d457806313293c32146101eb57806318160ddd146102005780631f62eec414610208575b600080fd5b61019b610397565b6040516101a89190610f59565b60405180910390f35b6101c46101bf366004610fc3565b610429565b60405190151581526020016101a8565b6101dd60065481565b6040519081526020016101a8565b6101fe6101f9366004610fc3565b610443565b005b6002546101dd565b6101fe610216366004610fc3565b61049a565b6101c4610229366004610fed565b6104e3565b604051601281526020016101a8565b6101c461024b366004610fc3565b610507565b600854610263906001600160a01b031681565b6040516001600160a01b0390911681526020016101a8565b6101dd610289366004611029565b6001600160a01b031660009081526020819052604090205490565b6101dd60055481565b6101fe6102bb366004611029565b610529565b61019b610575565b6101c46102d6366004610fc3565b610584565b6101c46102e9366004610fc3565b6105ff565b6101fe6102fc366004610fc3565b61060d565b6101fe61065b565b6101fe61031736600461104b565b61068b565b6101fe61032a366004611029565b6107ed565b6101fe61033d366004611029565b610839565b6101dd610350366004611064565b610885565b600a54610263906001600160a01b031681565b6101dd60075481565b600954610263906001600160a01b031681565b6101fe610392366004611097565b6108b0565b6060600380546103a6906110b9565b80601f01602080910402602001604051908101604052809291908181526020018280546103d2906110b9565b801561041f5780601f106103f45761010080835404028352916020019161041f565b820191906000526020600020905b81548152906001019060200180831161040257829003601f168201915b5050505050905090565b600033610437818585610a2d565b60019150505b92915050565b6008546001600160a01b0316331461048c5760405162461bcd60e51b81526020600482015260076024820152666e6f7420616d6d60c81b60448201526064015b60405180910390fd5b6104968282610b52565b5050565b600a546001600160a01b0316331461048c5760405162461bcd60e51b815260206004820152600c60248201526b6e6f7420706f72726964676560a01b6044820152606401610483565b6000336104f1858285610c11565b6104fc858585610c8b565b506001949350505050565b60003361043781858561051a8383610885565b6105249190611109565b610a2d565b6009546001600160a01b031633146105535760405162461bcd60e51b81526004016104839061111c565b600a80546001600160a01b0319166001600160a01b0392909216919091179055565b6060600480546103a6906110b9565b600033816105928286610885565b9050838110156105f25760405162461bcd60e51b815260206004820152602560248201527f45524332303a2064656372656173656420616c6c6f77616e63652062656c6f77604482015264207a65726f60d81b6064820152608401610483565b6104fc8286868403610a2d565b600033610437818585610c8b565b6008546001600160a01b031633146106515760405162461bcd60e51b81526020600482015260076024820152666e6f7420616d6d60c81b6044820152606401610483565b6104968282610e2f565b6009546001600160a01b031633146106855760405162461bcd60e51b81526004016104839061111c565b42600555565b6007548160065461069c9190611109565b11156106d85760405162461bcd60e51b815260206004820152600b60248201526a1a185c9918d85c081a1a5d60aa1b6044820152606401610483565b62015180600554426106ea919061113f565b106107375760405162461bcd60e51b815260206004820152601d60248201527f70726573616c652068617320616c726561647920636f6e636c756465640000006044820152606401610483565b80600660008282546107499190611109565b9091555050600b546040516323b872dd60e01b8152336004820152306024820152604481018390526001600160a01b03909116906323b872dd906064016020604051808303816000875af11580156107a5573d6000803e3d6000fd5b505050506040513d601f19601f820116820180604052508101906107c99190611152565b506107ea33600a6107db846009611174565b6107e5919061118b565b610b52565b50565b6009546001600160a01b031633146108175760405162461bcd60e51b81526004016104839061111c565b600880546001600160a01b0319166001600160a01b0392909216919091179055565b6009546001600160a01b031633146108635760405162461bcd60e51b81526004016104839061111c565b600b80546001600160a01b0319166001600160a01b0392909216919091179055565b6001600160a01b03918216600090815260016020908152604080832093909416825291909152205490565b6009546001600160a01b031633146108da5760405162461bcd60e51b81526004016104839061111c565b600854600b546040516370a0823160e01b81523060048201526001600160a01b03928316929091169063a9059cbb90839083906370a0823190602401602060405180830381865afa158015610933573d6000803e3d6000fd5b505050506040513d601f19601f8201168201806040525081019061095791906111ad565b6040516001600160e01b031960e085901b1681526001600160a01b03909216600483015260248201526044016020604051808303816000875af11580156109a2573d6000803e3d6000fd5b505050506040513d601f19601f820116820180604052508101906109c69190611152565b50604051637251808b60e11b815260048101849052602481018390526001600160a01b0382169063e4a3011690604401600060405180830381600087803b158015610a1057600080fd5b505af1158015610a24573d6000803e3d6000fd5b50505050505050565b6001600160a01b038316610a8f5760405162461bcd60e51b8152602060048201526024808201527f45524332303a20617070726f76652066726f6d20746865207a65726f206164646044820152637265737360e01b6064820152608401610483565b6001600160a01b038216610af05760405162461bcd60e51b815260206004820152602260248201527f45524332303a20617070726f766520746f20746865207a65726f206164647265604482015261737360f01b6064820152608401610483565b6001600160a01b0383811660008181526001602090815260408083209487168084529482529182902085905590518481527f8c5be1e5ebec7d5bd14f71427d1e84f3dd0314c0f7b2291e5b200ac8c7c3b92591015b60405180910390a3505050565b6001600160a01b038216610ba85760405162461bcd60e51b815260206004820152601f60248201527f45524332303a206d696e7420746f20746865207a65726f2061646472657373006044820152606401610483565b8060026000828254610bba9190611109565b90915550506001600160a01b038216600081815260208181526040808320805486019055518481527fddf252ad1be2c89b69c2b068fc378daa952ba7f163c4a11628f55a4df523b3ef910160405180910390a35050565b6000610c1d8484610885565b90506000198114610c855781811015610c785760405162461bcd60e51b815260206004820152601d60248201527f45524332303a20696e73756666696369656e7420616c6c6f77616e63650000006044820152606401610483565b610c858484848403610a2d565b50505050565b6001600160a01b038316610cef5760405162461bcd60e51b815260206004820152602560248201527f45524332303a207472616e736665722066726f6d20746865207a65726f206164604482015264647265737360d81b6064820152608401610483565b6001600160a01b038216610d515760405162461bcd60e51b815260206004820152602360248201527f45524332303a207472616e7366657220746f20746865207a65726f206164647260448201526265737360e81b6064820152608401610483565b6001600160a01b03831660009081526020819052604090205481811015610dc95760405162461bcd60e51b815260206004820152602660248201527f45524332303a207472616e7366657220616d6f756e7420657863656564732062604482015265616c616e636560d01b6064820152608401610483565b6001600160a01b03848116600081815260208181526040808320878703905593871680835291849020805487019055925185815290927fddf252ad1be2c89b69c2b068fc378daa952ba7f163c4a11628f55a4df523b3ef910160405180910390a3610c85565b6001600160a01b038216610e8f5760405162461bcd60e51b815260206004820152602160248201527f45524332303a206275726e2066726f6d20746865207a65726f206164647265736044820152607360f81b6064820152608401610483565b6001600160a01b03821660009081526020819052604090205481811015610f035760405162461bcd60e51b815260206004820152602260248201527f45524332303a206275726e20616d6f756e7420657863656564732062616c616e604482015261636560f01b6064820152608401610483565b6001600160a01b0383166000818152602081815260408083208686039055600280548790039055518581529192917fddf252ad1be2c89b69c2b068fc378daa952ba7f163c4a11628f55a4df523b3ef9101610b45565b600060208083528351808285015260005b81811015610f8657858101830151858201604001528201610f6a565b506000604082860101526040601f19601f8301168501019250505092915050565b80356001600160a01b0381168114610fbe57600080fd5b919050565b60008060408385031215610fd657600080fd5b610fdf83610fa7565b946020939093013593505050565b60008060006060848603121561100257600080fd5b61100b84610fa7565b925061101960208501610fa7565b9150604084013590509250925092565b60006020828403121561103b57600080fd5b61104482610fa7565b9392505050565b60006020828403121561105d57600080fd5b5035919050565b6000806040838503121561107757600080fd5b61108083610fa7565b915061108e60208401610fa7565b90509250929050565b600080604083850312156110aa57600080fd5b50508035926020909101359150565b600181811c908216806110cd57607f821691505b6020821081036110ed57634e487b7160e01b600052602260045260246000fd5b50919050565b634e487b7160e01b600052601160045260246000fd5b8082018082111561043d5761043d6110f3565b6020808252600990820152683737ba1030b236b4b760b91b604082015260600190565b8181038181111561043d5761043d6110f3565b60006020828403121561116457600080fd5b8151801515811461104457600080fd5b808202811582820484141761043d5761043d6110f3565b6000826111a857634e487b7160e01b600052601260045260246000fd5b500490565b6000602082840312156111bf57600080fd5b505191905056fea2646970667358221220047733d6b08bf81f084fc5df77e85838c967076fa87e72688b54a6cbe9c7f69264736f6c63430008130033",
    "linkReferences": {}
  },
  "methodIdentifiers": {
    "adminAddress()": "fc6f9468",
    "allowance(address,address)": "dd62ed3e",
    "ammAddress()": "4837e204",
    "ammBurn(address,uint256)": "b0cdc5c0",
    "ammMint(address,uint256)": "13293c32",
    "approve(address,uint256)": "095ea7b3",
    "balanceOf(address)": "70a08231",
    "contribute(uint256)": "c1cbbca7",
    "decimals()": "313ce567",
    "decreaseAllowance(address,uint256)": "a457c2d7",
    "hardCap()": "fb86a404",
    "increaseAllowance(address,uint256)": "39509351",
    "name()": "06fdde03",
    "porridgeAddress()": "f2934a97",
    "porridgeMint(address,uint256)": "1f62eec4",
    "setAmmAddress(address)": "db0ced48",
    "setHoneyAddress(address)": "db9ed213",
    "setPorridgeAddress(address)": "8c2c622c",
    "setup()": "ba0bba40",
    "startTime()": "78e97925",
    "symbol()": "95d89b41",
    "totalContribution()": "0dcf4b8f",
    "totalSupply()": "18160ddd",
    "transfer(address,uint256)": "a9059cbb",
    "transferFrom(address,address,uint256)": "23b872dd",
    "transferToAMM(uint256,uint256)": "fc7a9cd8"
  },
  "id": 17
}