{
  "abi": [
    {
      "inputs": [
        {
          "internalType": "address",
          "name": "_ammAddress",
          "type": "address"
        },
        {
          "internalType": "address",
          "name": "_locksAddress",
          "type": "address"
        },
        {
          "internalType": "address",
          "name": "_borrowAddress",
          "type": "address"
        },
        {
          "internalType": "address",
          "name": "_adminAddress",
          "type": "address"
        }
      ],
      "stateMutability": "nonpayable",
      "type": "constructor"
    },
    {
      "anonymous": false,
      "inputs": [
        {
          "indexed": true,
          "internalType": "address",
          "name": "owner",
          "type": "address"
        },
        {
          "indexed": true,
          "internalType": "address",
          "name": "spender",
          "type": "address"
        },
        {
          "indexed": false,
          "internalType": "uint256",
          "name": "value",
          "type": "uint256"
        }
      ],
      "name": "Approval",
      "type": "event"
    },
    {
      "anonymous": false,
      "inputs": [
        {
          "indexed": true,
          "internalType": "address",
          "name": "from",
          "type": "address"
        },
        {
          "indexed": true,
          "internalType": "address",
          "name": "to",
          "type": "address"
        },
        {
          "indexed": false,
          "internalType": "uint256",
          "name": "value",
          "type": "uint256"
        }
      ],
      "name": "Transfer",
      "type": "event"
    },
    {
      "inputs": [],
      "name": "DAILY_EMISSISIONS",
      "outputs": [
        {
          "internalType": "uint8",
          "name": "",
          "type": "uint8"
        }
      ],
      "stateMutability": "view",
      "type": "function"
    },
    {
      "inputs": [],
      "name": "DAYS_SECONDS",
      "outputs": [
        {
          "internalType": "uint256",
          "name": "",
          "type": "uint256"
        }
      ],
      "stateMutability": "view",
      "type": "function"
    },
    {
      "inputs": [
        {
          "internalType": "address",
          "name": "_user",
          "type": "address"
        }
      ],
      "name": "_calculateYield",
      "outputs": [
        {
          "internalType": "uint256",
          "name": "",
          "type": "uint256"
        }
      ],
      "stateMutability": "view",
      "type": "function"
    },
    {
      "inputs": [],
      "name": "adminAddress",
      "outputs": [
        {
          "internalType": "address",
          "name": "",
          "type": "address"
        }
      ],
      "stateMutability": "view",
      "type": "function"
    },
    {
      "inputs": [
        {
          "internalType": "address",
          "name": "owner",
          "type": "address"
        },
        {
          "internalType": "address",
          "name": "spender",
          "type": "address"
        }
      ],
      "name": "allowance",
      "outputs": [
        {
          "internalType": "uint256",
          "name": "",
          "type": "uint256"
        }
      ],
      "stateMutability": "view",
      "type": "function"
    },
    {
      "inputs": [],
      "name": "ammAddress",
      "outputs": [
        {
          "internalType": "address",
          "name": "",
          "type": "address"
        }
      ],
      "stateMutability": "view",
      "type": "function"
    },
    {
      "inputs": [
        {
          "internalType": "address",
          "name": "spender",
          "type": "address"
        },
        {
          "internalType": "uint256",
          "name": "amount",
          "type": "uint256"
        }
      ],
      "name": "approve",
      "outputs": [
        {
          "internalType": "bool",
          "name": "",
          "type": "bool"
        }
      ],
      "stateMutability": "nonpayable",
      "type": "function"
    },
    {
      "inputs": [
        {
          "internalType": "address",
          "name": "_borrowAddress",
          "type": "address"
        }
      ],
      "name": "approveBorrowForLocks",
      "outputs": [],
      "stateMutability": "nonpayable",
      "type": "function"
    },
    {
      "inputs": [
        {
          "internalType": "address",
          "name": "account",
          "type": "address"
        }
      ],
      "name": "balanceOf",
      "outputs": [
        {
          "internalType": "uint256",
          "name": "",
          "type": "uint256"
        }
      ],
      "stateMutability": "view",
      "type": "function"
    },
    {
      "inputs": [],
      "name": "claim",
      "outputs": [
        {
          "internalType": "uint256",
          "name": "_yield",
          "type": "uint256"
        }
      ],
      "stateMutability": "nonpayable",
      "type": "function"
    },
    {
      "inputs": [],
      "name": "decimals",
      "outputs": [
        {
          "internalType": "uint8",
          "name": "",
          "type": "uint8"
        }
      ],
      "stateMutability": "view",
      "type": "function"
    },
    {
      "inputs": [
        {
          "internalType": "address",
          "name": "spender",
          "type": "address"
        },
        {
          "internalType": "uint256",
          "name": "subtractedValue",
          "type": "uint256"
        }
      ],
      "name": "decreaseAllowance",
      "outputs": [
        {
          "internalType": "bool",
          "name": "",
          "type": "bool"
        }
      ],
      "stateMutability": "nonpayable",
      "type": "function"
    },
    {
      "inputs": [
        {
          "internalType": "address",
          "name": "_user",
          "type": "address"
        }
      ],
      "name": "getStaked",
      "outputs": [
        {
          "internalType": "uint256",
          "name": "",
          "type": "uint256"
        }
      ],
      "stateMutability": "view",
      "type": "function"
    },
    {
      "inputs": [
        {
          "internalType": "address",
          "name": "spender",
          "type": "address"
        },
        {
          "internalType": "uint256",
          "name": "addedValue",
          "type": "uint256"
        }
      ],
      "name": "increaseAllowance",
      "outputs": [
        {
          "internalType": "bool",
          "name": "",
          "type": "bool"
        }
      ],
      "stateMutability": "nonpayable",
      "type": "function"
    },
    {
      "inputs": [],
      "name": "locksAddress",
      "outputs": [
        {
          "internalType": "address",
          "name": "",
          "type": "address"
        }
      ],
      "stateMutability": "view",
      "type": "function"
    },
    {
      "inputs": [],
      "name": "name",
      "outputs": [
        {
          "internalType": "string",
          "name": "",
          "type": "string"
        }
      ],
      "stateMutability": "view",
      "type": "function"
    },
    {
      "inputs": [
        {
          "internalType": "uint256",
          "name": "_amount",
          "type": "uint256"
        }
      ],
      "name": "realize",
      "outputs": [],
      "stateMutability": "nonpayable",
      "type": "function"
    },
    {
      "inputs": [
        {
          "internalType": "address",
          "name": "_honeyAddress",
          "type": "address"
        }
      ],
      "name": "setHoneyAddress",
      "outputs": [],
      "stateMutability": "nonpayable",
      "type": "function"
    },
    {
      "inputs": [
        {
          "internalType": "address",
          "name": "_locksAddress",
          "type": "address"
        }
      ],
      "name": "setLocksAddress",
      "outputs": [],
      "stateMutability": "nonpayable",
      "type": "function"
    },
    {
      "inputs": [
        {
          "internalType": "uint256",
          "name": "_amount",
          "type": "uint256"
        }
      ],
      "name": "stake",
      "outputs": [],
      "stateMutability": "nonpayable",
      "type": "function"
    },
    {
      "inputs": [
        {
          "internalType": "address",
          "name": "",
          "type": "address"
        }
      ],
      "name": "stakeStartTime",
      "outputs": [
        {
          "internalType": "uint256",
          "name": "",
          "type": "uint256"
        }
      ],
      "stateMutability": "view",
      "type": "function"
    },
    {
      "inputs": [
        {
          "internalType": "address",
          "name": "",
          "type": "address"
        }
      ],
      "name": "staked",
      "outputs": [
        {
          "internalType": "uint256",
          "name": "",
          "type": "uint256"
        }
      ],
      "stateMutability": "view",
      "type": "function"
    },
    {
      "inputs": [],
      "name": "symbol",
      "outputs": [
        {
          "internalType": "string",
          "name": "",
          "type": "string"
        }
      ],
      "stateMutability": "view",
      "type": "function"
    },
    {
      "inputs": [],
      "name": "totalSupply",
      "outputs": [
        {
          "internalType": "uint256",
          "name": "",
          "type": "uint256"
        }
      ],
      "stateMutability": "view",
      "type": "function"
    },
    {
      "inputs": [
        {
          "internalType": "address",
          "name": "to",
          "type": "address"
        },
        {
          "internalType": "uint256",
          "name": "amount",
          "type": "uint256"
        }
      ],
      "name": "transfer",
      "outputs": [
        {
          "internalType": "bool",
          "name": "",
          "type": "bool"
        }
      ],
      "stateMutability": "nonpayable",
      "type": "function"
    },
    {
      "inputs": [
        {
          "internalType": "address",
          "name": "from",
          "type": "address"
        },
        {
          "internalType": "address",
          "name": "to",
          "type": "address"
        },
        {
          "internalType": "uint256",
          "name": "amount",
          "type": "uint256"
        }
      ],
      "name": "transferFrom",
      "outputs": [
        {
          "internalType": "bool",
          "name": "",
          "type": "bool"
        }
      ],
      "stateMutability": "nonpayable",
      "type": "function"
    },
    {
      "inputs": [
        {
          "internalType": "uint256",
          "name": "_amount",
          "type": "uint256"
        }
      ],
      "name": "unstake",
      "outputs": [
        {
          "internalType": "uint256",
          "name": "_yield",
          "type": "uint256"
        }
      ],
      "stateMutability": "nonpayable",
      "type": "function"
    }
  ],
  "bytecode": {
    "object": "0x60806040523480156200001157600080fd5b50604051620017c6380380620017c6833981016040819052620000349162000118565b6040518060400160405280600e81526020016d2837b93934b233b2902a37b5b2b760911b8152506040518060400160405280600381526020016250524760e81b81525081600390816200008891906200021a565b5060046200009782826200021a565b5050600780546001600160a01b03199081166001600160a01b03978816908117909255600680548216968816969096179095556008805486169487169490941790935550600b805484169190941617909255600c80549091169091179055620002e6565b80516001600160a01b03811681146200011357600080fd5b919050565b600080600080608085870312156200012f57600080fd5b6200013a85620000fb565b93506200014a60208601620000fb565b92506200015a60408601620000fb565b91506200016a60608601620000fb565b905092959194509250565b634e487b7160e01b600052604160045260246000fd5b600181811c90821680620001a057607f821691505b602082108103620001c157634e487b7160e01b600052602260045260246000fd5b50919050565b601f8211156200021557600081815260208120601f850160051c81016020861015620001f05750805b601f850160051c820191505b818110156200021157828155600101620001fc565b5050505b505050565b81516001600160401b0381111562000236576200023662000175565b6200024e816200024784546200018b565b84620001c7565b602080601f8311600181146200028657600084156200026d5750858301515b600019600386901b1c1916600185901b17855562000211565b600085815260208120601f198616915b82811015620002b75788860151825594840194600190910190840162000296565b5085821015620002d65787850151600019600388901b60f8161c191681555b5050505050600190811b01905550565b6114d080620002f66000396000f3fe608060405234801561001057600080fd5b50600436106101a95760003560e01c806370a08231116100f9578063a9059cbb11610097578063dd62ed3e11610071578063dd62ed3e146103c7578063e7ed48be146103da578063e86eee46146103ed578063fc6f9468146103f557600080fd5b8063a9059cbb1461038e578063b44f9a42146103a1578063db9ed213146103b457600080fd5b806395d89b41116100d357806395d89b411461034057806398807d8414610348578063a457c2d714610368578063a694fc3a1461037b57600080fd5b806370a08231146102f3578063770fc8601461031c578063903d78fb1461032f57600080fd5b8063313ce567116101665780634837e204116101405780634837e2041461028d57806348757e84146102b85780634e71d92d146102cb5780636985e6d8146102d357600080fd5b8063313ce5671461023c5780633950935114610251578063399080ec1461026457600080fd5b806306fdde03146101ae578063095ea7b3146101cc57806318160ddd146101ef5780631cef3fd91461020157806323b872dd146102165780632e17de7814610229575b600080fd5b6101b6610408565b6040516101c3919061125a565b60405180910390f35b6101df6101da3660046112bf565b61049a565b60405190151581526020016101c3565b6002545b6040519081526020016101c3565b61021461020f3660046112e9565b6104b4565b005b6101df61022436600461130b565b610564565b6101f3610237366004611347565b610588565b60125b60405160ff90911681526020016101c3565b6101df61025f3660046112bf565b6107c7565b6101f36102723660046112e9565b6001600160a01b031660009081526009602052604090205490565b600c546102a0906001600160a01b031681565b6040516001600160a01b0390911681526020016101c3565b600d546102a0906001600160a01b031681565b6101f36107e9565b6101f36102e13660046112e9565b600a6020526000908152604090205481565b6101f36103013660046112e9565b6001600160a01b031660009081526020819052604090205490565b61021461032a366004611347565b6107f9565b6101f369124bc0ddd92e5600000081565b6101b66109cf565b6101f36103563660046112e9565b60096020526000908152604090205481565b6101df6103763660046112bf565b6109de565b610214610389366004611347565b610a59565b6101df61039c3660046112bf565b610b2b565b6102146103af3660046112e9565b610b39565b6102146103c23660046112e9565b610b85565b6101f36103d5366004611360565b610bd1565b6101f36103e83660046112e9565b610bfc565b61023f60c881565b600b546102a0906001600160a01b031681565b60606003805461041790611393565b80601f016020809104026020016040519081016040528092919081815260200182805461044390611393565b80156104905780601f1061046557610100808354040283529160200191610490565b820191906000526020600020905b81548152906001019060200180831161047357829003601f168201915b5050505050905090565b6000336104a8818585610c8c565b60019150505b92915050565b600b546001600160a01b031633146104e75760405162461bcd60e51b81526004016104de906113c7565b60405180910390fd5b600d5460405163095ea7b360e01b81526001600160a01b03838116600483015260001960248301529091169063095ea7b3906044015b6020604051808303816000875af115801561053c573d6000803e3d6000fd5b505050506040513d601f19601f8201168201806040525081019061056091906113ea565b5050565b600033610572858285610db1565b61057d858585610e2b565b506001949350505050565b60008082116105cf5760405162461bcd60e51b815260206004820152601360248201527263616e6e6f7420756e7374616b65207a65726f60681b60448201526064016104de565b3360009081526009602052604090205482111561062e5760405162461bcd60e51b815260206004820152601b60248201527f696e73756666696369656e74207374616b65642062616c616e6365000000000060448201526064016104de565b60085460405163bc22fd1b60e01b81523360048201526001600160a01b039091169063bc22fd1b90602401602060405180830381865afa158015610676573d6000803e3d6000fd5b505050506040513d601f19601f8201168201806040525081019061069a919061140c565b336000908152600960205260409020546106b4919061143b565b82111561071a5760405162461bcd60e51b815260206004820152602e60248201527f796f75206172652063757272656e746c7920626f72726f77696e67206167616960448201526d6e737420796f7572206c6f636b7360901b60648201526084016104de565b61072333610fcf565b3360009081526009602052604081208054929350849290919061074790849061143b565b9091555050600d5460405163a9059cbb60e01b8152336004820152602481018490526001600160a01b039091169063a9059cbb906044016020604051808303816000875af115801561079d573d6000803e3d6000fd5b505050506040513d601f19601f820116820180604052508101906107c191906113ea565b50919050565b6000336104a88185856107da8383610bd1565b6107e4919061144e565b610c8c565b60006107f433610fcf565b905090565b6000811161083c5760405162461bcd60e51b815260206004820152601060248201526f063616e6e6f74207265616c697a6520360841b60448201526064016104de565b600754604080516349b1e40960e11b815290516000926001600160a01b031691639363c8129160048083019260209291908290030181865afa158015610886573d6000803e3d6000fd5b505050506040513d601f19601f820116820180604052508101906108aa919061140c565b90506108b6338361104e565b600554600c546001600160a01b03918216916323b872dd91339116670de0b6b3a76400006108e48688611461565b6108ee9190611478565b6040516001600160e01b031960e086901b1681526001600160a01b03938416600482015292909116602483015260448201526064016020604051808303816000875af1158015610942573d6000803e3d6000fd5b505050506040513d601f19601f8201168201806040525081019061096691906113ea565b506006546040516307d8bbb160e21b8152336004820152602481018490526001600160a01b0390911690631f62eec490604401600060405180830381600087803b1580156109b357600080fd5b505af11580156109c7573d6000803e3d6000fd5b505050505050565b60606004805461041790611393565b600033816109ec8286610bd1565b905083811015610a4c5760405162461bcd60e51b815260206004820152602560248201527f45524332303a2064656372656173656420616c6c6f77616e63652062656c6f77604482015264207a65726f60d81b60648201526084016104de565b61057d8286868403610c8c565b60008111610a9d5760405162461bcd60e51b815260206004820152601160248201527063616e6e6f74207374616b65207a65726f60781b60448201526064016104de565b3360009081526009602052604090205415610abd57610abb33610fcf565b505b336000908152600a60209081526040808320429055600990915281208054839290610ae990849061144e565b9091555050600d546040516323b872dd60e01b8152336004820152306024820152604481018390526001600160a01b03909116906323b872dd9060640161051d565b6000336104a8818585610e2b565b600b546001600160a01b03163314610b635760405162461bcd60e51b81526004016104de906113c7565b600d80546001600160a01b0319166001600160a01b0392909216919091179055565b600b546001600160a01b03163314610baf5760405162461bcd60e51b81526004016104de906113c7565b600580546001600160a01b0319166001600160a01b0392909216919091179055565b6001600160a01b03918216600090815260016020908152604080832093909416825291909152205490565b600080610c0883611178565b6001600160a01b03841660009081526009602052604081205491925090610c319060c890611478565b90506000670de0b6b3a764000069124bc0ddd92e56000000610c538583611461565b610c6590670de0b6b3a7640000611461565b610c6f9190611478565b610c799084611461565b610c839190611478565b95945050505050565b6001600160a01b038316610cee5760405162461bcd60e51b8152602060048201526024808201527f45524332303a20617070726f76652066726f6d20746865207a65726f206164646044820152637265737360e01b60648201526084016104de565b6001600160a01b038216610d4f5760405162461bcd60e51b815260206004820152602260248201527f45524332303a20617070726f766520746f20746865207a65726f206164647265604482015261737360f01b60648201526084016104de565b6001600160a01b0383811660008181526001602090815260408083209487168084529482529182902085905590518481527f8c5be1e5ebec7d5bd14f71427d1e84f3dd0314c0f7b2291e5b200ac8c7c3b92591015b60405180910390a3505050565b6000610dbd8484610bd1565b90506000198114610e255781811015610e185760405162461bcd60e51b815260206004820152601d60248201527f45524332303a20696e73756666696369656e7420616c6c6f77616e636500000060448201526064016104de565b610e258484848403610c8c565b50505050565b6001600160a01b038316610e8f5760405162461bcd60e51b815260206004820152602560248201527f45524332303a207472616e736665722066726f6d20746865207a65726f206164604482015264647265737360d81b60648201526084016104de565b6001600160a01b038216610ef15760405162461bcd60e51b815260206004820152602360248201527f45524332303a207472616e7366657220746f20746865207a65726f206164647260448201526265737360e81b60648201526084016104de565b6001600160a01b03831660009081526020819052604090205481811015610f695760405162461bcd60e51b815260206004820152602660248201527f45524332303a207472616e7366657220616d6f756e7420657863656564732062604482015265616c616e636560d01b60648201526084016104de565b6001600160a01b03848116600081815260208181526040808320878703905593871680835291849020805487019055925185815290927fddf252ad1be2c89b69c2b068fc378daa952ba7f163c4a11628f55a4df523b3ef910160405180910390a3610e25565b6000610fda82610bfc565b9050600081116110245760405162461bcd60e51b81526020600482015260156024820152746e6f7468696e6720746f206469737472696275746560581b60448201526064016104de565b6001600160a01b0382166000908152600a60205260409020429055611049828261119b565b919050565b6001600160a01b0382166110ae5760405162461bcd60e51b815260206004820152602160248201527f45524332303a206275726e2066726f6d20746865207a65726f206164647265736044820152607360f81b60648201526084016104de565b6001600160a01b038216600090815260208190526040902054818110156111225760405162461bcd60e51b815260206004820152602260248201527f45524332303a206275726e20616d6f756e7420657863656564732062616c616e604482015261636560f01b60648201526084016104de565b6001600160a01b0383166000818152602081815260408083208686039055600280548790039055518581529192917fddf252ad1be2c89b69c2b068fc378daa952ba7f163c4a11628f55a4df523b3ef9101610da4565b6001600160a01b0381166000908152600a60205260408120546104ae904261143b565b6001600160a01b0382166111f15760405162461bcd60e51b815260206004820152601f60248201527f45524332303a206d696e7420746f20746865207a65726f20616464726573730060448201526064016104de565b8060026000828254611203919061144e565b90915550506001600160a01b038216600081815260208181526040808320805486019055518481527fddf252ad1be2c89b69c2b068fc378daa952ba7f163c4a11628f55a4df523b3ef910160405180910390a35050565b600060208083528351808285015260005b818110156112875785810183015185820160400152820161126b565b506000604082860101526040601f19601f8301168501019250505092915050565b80356001600160a01b038116811461104957600080fd5b600080604083850312156112d257600080fd5b6112db836112a8565b946020939093013593505050565b6000602082840312156112fb57600080fd5b611304826112a8565b9392505050565b60008060006060848603121561132057600080fd5b611329846112a8565b9250611337602085016112a8565b9150604084013590509250925092565b60006020828403121561135957600080fd5b5035919050565b6000806040838503121561137357600080fd5b61137c836112a8565b915061138a602084016112a8565b90509250929050565b600181811c908216806113a757607f821691505b6020821081036107c157634e487b7160e01b600052602260045260246000fd5b6020808252600990820152683737ba1030b236b4b760b91b604082015260600190565b6000602082840312156113fc57600080fd5b8151801515811461130457600080fd5b60006020828403121561141e57600080fd5b5051919050565b634e487b7160e01b600052601160045260246000fd5b818103818111156104ae576104ae611425565b808201808211156104ae576104ae611425565b80820281158282048414176104ae576104ae611425565b60008261149557634e487b7160e01b600052601260045260246000fd5b50049056fea2646970667358221220560e97648276095dd2f6ea52544ec5d1b54a3ba939de1f29eb97d7288b69c85464736f6c63430008130033",
    "linkReferences": {}
  },
  "methodIdentifiers": {
    "DAILY_EMISSISIONS()": "e86eee46",
    "DAYS_SECONDS()": "903d78fb",
    "_calculateYield(address)": "e7ed48be",
    "adminAddress()": "fc6f9468",
    "allowance(address,address)": "dd62ed3e",
    "ammAddress()": "4837e204",
    "approve(address,uint256)": "095ea7b3",
    "approveBorrowForLocks(address)": "1cef3fd9",
    "balanceOf(address)": "70a08231",
    "claim()": "4e71d92d",
    "decimals()": "313ce567",
    "decreaseAllowance(address,uint256)": "a457c2d7",
    "getStaked(address)": "399080ec",
    "increaseAllowance(address,uint256)": "39509351",
    "locksAddress()": "48757e84",
    "name()": "06fdde03",
    "realize(uint256)": "770fc860",
    "setHoneyAddress(address)": "db9ed213",
    "setLocksAddress(address)": "b44f9a42",
    "stake(uint256)": "a694fc3a",
    "stakeStartTime(address)": "6985e6d8",
    "staked(address)": "98807d84",
    "symbol()": "95d89b41",
    "totalSupply()": "18160ddd",
    "transfer(address,uint256)": "a9059cbb",
    "transferFrom(address,address,uint256)": "23b872dd",
    "unstake(uint256)": "2e17de78"
  },
  "id": 18
}