{
  "abi": [
    {
      "inputs": [
        {
          "internalType": "address",
          "name": "_bondbear",
          "type": "address"
        },
        {
          "internalType": "address",
          "name": "_bandbear",
          "type": "address"
        },
        {
          "internalType": "address",
          "name": "_honeycomb",
          "type": "address"
        },
        {
          "internalType": "address",
          "name": "_beradrome",
          "type": "address"
        },
        {
          "internalType": "address",
          "name": "_bera",
          "type": "address"
        }
      ],
      "stateMutability": "nonpayable",
      "type": "constructor"
    },
    {
      "inputs": [],
      "name": "bandbear",
      "outputs": [
        {
          "internalType": "address",
          "name": "",
          "type": "address"
        }
      ],
      "stateMutability": "view",
      "type": "function"
    },
    {
      "inputs": [],
      "name": "bera",
      "outputs": [
        {
          "internalType": "address",
          "name": "",
          "type": "address"
        }
      ],
      "stateMutability": "view",
      "type": "function"
    },
    {
      "inputs": [],
      "name": "beradrome",
      "outputs": [
        {
          "internalType": "address",
          "name": "",
          "type": "address"
        }
      ],
      "stateMutability": "view",
      "type": "function"
    },
    {
      "inputs": [],
      "name": "bondbear",
      "outputs": [
        {
          "internalType": "address",
          "name": "",
          "type": "address"
        }
      ],
      "stateMutability": "view",
      "type": "function"
    },
    {
      "inputs": [],
      "name": "drip",
      "outputs": [],
      "stateMutability": "nonpayable",
      "type": "function"
    },
    {
      "inputs": [],
      "name": "honeycomb",
      "outputs": [
        {
          "internalType": "address",
          "name": "",
          "type": "address"
        }
      ],
      "stateMutability": "view",
      "type": "function"
    }
  ],
  "bytecode": {
    "object": "0x608060405234801561001057600080fd5b5060405161042738038061042783398101604081905261002f916100ad565b600080546001600160a01b03199081166001600160a01b03978816179091556001805482169587169590951790945560028054851693861693909317909255600380548416918516919091179055600480549092169216919091179055610112565b80516001600160a01b03811681146100a857600080fd5b919050565b600080600080600060a086880312156100c557600080fd5b6100ce86610091565b94506100dc60208701610091565b93506100ea60408701610091565b92506100f860608701610091565b915061010660808701610091565b90509295509295909350565b610306806101216000396000f3fe608060405234801561001057600080fd5b50600436106100625760003560e01c8063307579e6146100675780636ea12931146100965780638f0763c2146100a957806396d294bc146100bc5780639f678cca146100cf578063dc0efcd8146100d9575b600080fd5b60025461007a906001600160a01b031681565b6040516001600160a01b03909116815260200160405180910390f35b60045461007a906001600160a01b031681565b60035461007a906001600160a01b031681565b60005461007a906001600160a01b031681565b6100d76100ec565b005b60015461007a906001600160a01b031681565b6000546040516335313c2160e11b81523360048201526001600160a01b0390911690636a62784290602401600060405180830381600087803b15801561013157600080fd5b505af1158015610145573d6000803e3d6000fd5b50506001546040516335313c2160e11b81523360048201526001600160a01b039091169250636a6278429150602401600060405180830381600087803b15801561018e57600080fd5b505af11580156101a2573d6000803e3d6000fd5b50506002546040516335313c2160e11b81523360048201526001600160a01b039091169250636a6278429150602401600060405180830381600087803b1580156101eb57600080fd5b505af11580156101ff573d6000803e3d6000fd5b50506003546040516335313c2160e11b81523360048201526001600160a01b039091169250636a6278429150602401600060405180830381600087803b15801561024857600080fd5b505af115801561025c573d6000803e3d6000fd5b5050600480546040516340c10f1960e01b8152339281019290925269d3c21bcecceda100000060248301526001600160a01b031692506340c10f199150604401600060405180830381600087803b1580156102b657600080fd5b505af11580156102ca573d6000803e3d6000fd5b5050505056fea2646970667358221220f996023f34e54255c57edd5a78b6be4d7b5fd40d95d38eec4061855d5bab4d7864736f6c63430008130033",
    "linkReferences": {}
  },
  "methodIdentifiers": {
    "bandbear()": "dc0efcd8",
    "bera()": "6ea12931",
    "beradrome()": "8f0763c2",
    "bondbear()": "96d294bc",
    "drip()": "9f678cca",
    "honeycomb()": "307579e6"
  },
  "id": 32
}