{
  "abi": [
    {
      "inputs": [
        {
          "internalType": "address",
          "name": "_gammAddress",
          "type": "address"
        },
        {
          "internalType": "address",
          "name": "_honeyAddress",
          "type": "address"
        },
        {
          "internalType": "address",
          "name": "_adminAddress",
          "type": "address"
        }
      ],
      "stateMutability": "nonpayable",
      "type": "constructor"
    },
    {
      "inputs": [],
      "name": "ExcessiveRepay",
      "type": "error"
    },
    {
      "inputs": [],
      "name": "InsufficientBorrowLimit",
      "type": "error"
    },
    {
      "inputs": [],
      "name": "NotAdmin",
      "type": "error"
    },
    {
      "anonymous": false,
      "inputs": [
        {
          "indexed": true,
          "internalType": "address",
          "name": "user",
          "type": "address"
        },
        {
          "indexed": false,
          "internalType": "uint256",
          "name": "amount",
          "type": "uint256"
        }
      ],
      "name": "Borrowed",
      "type": "event"
    },
    {
      "anonymous": false,
      "inputs": [
        {
          "indexed": true,
          "internalType": "address",
          "name": "user",
          "type": "address"
        },
        {
          "indexed": false,
          "internalType": "uint256",
          "name": "amount",
          "type": "uint256"
        }
      ],
      "name": "Repaid",
      "type": "event"
    },
    {
      "inputs": [],
      "name": "adminAddress",
      "outputs": [
        {
          "internalType": "address",
          "name": "",
          "type": "address"
        }
      ],
      "stateMutability": "view",
      "type": "function"
    },
    {
      "inputs": [
        {
          "internalType": "uint256",
          "name": "amount",
          "type": "uint256"
        }
      ],
      "name": "borrow",
      "outputs": [],
      "stateMutability": "nonpayable",
      "type": "function"
    },
    {
      "inputs": [
        {
          "internalType": "address",
          "name": "user",
          "type": "address"
        }
      ],
      "name": "borrowLimit",
      "outputs": [
        {
          "internalType": "uint256",
          "name": "",
          "type": "uint256"
        }
      ],
      "stateMutability": "view",
      "type": "function"
    },
    {
      "inputs": [
        {
          "internalType": "address",
          "name": "",
          "type": "address"
        }
      ],
      "name": "borrowedHoney",
      "outputs": [
        {
          "internalType": "uint256",
          "name": "",
          "type": "uint256"
        }
      ],
      "stateMutability": "view",
      "type": "function"
    },
    {
      "inputs": [],
      "name": "gammAddress",
      "outputs": [
        {
          "internalType": "address",
          "name": "",
          "type": "address"
        }
      ],
      "stateMutability": "view",
      "type": "function"
    },
    {
      "inputs": [
        {
          "internalType": "address",
          "name": "user",
          "type": "address"
        }
      ],
      "name": "getBorrowed",
      "outputs": [
        {
          "internalType": "uint256",
          "name": "",
          "type": "uint256"
        }
      ],
      "stateMutability": "view",
      "type": "function"
    },
    {
      "inputs": [
        {
          "internalType": "address",
          "name": "user",
          "type": "address"
        }
      ],
      "name": "getLocked",
      "outputs": [
        {
          "internalType": "uint256",
          "name": "",
          "type": "uint256"
        }
      ],
      "stateMutability": "view",
      "type": "function"
    },
    {
      "inputs": [],
      "name": "honeyAddress",
      "outputs": [
        {
          "internalType": "address",
          "name": "",
          "type": "address"
        }
      ],
      "stateMutability": "view",
      "type": "function"
    },
    {
      "inputs": [
        {
          "internalType": "address",
          "name": "",
          "type": "address"
        }
      ],
      "name": "lockedLocks",
      "outputs": [
        {
          "internalType": "uint256",
          "name": "",
          "type": "uint256"
        }
      ],
      "stateMutability": "view",
      "type": "function"
    },
    {
      "inputs": [],
      "name": "porridgeAddress",
      "outputs": [
        {
          "internalType": "address",
          "name": "",
          "type": "address"
        }
      ],
      "stateMutability": "view",
      "type": "function"
    },
    {
      "inputs": [
        {
          "internalType": "uint256",
          "name": "amount",
          "type": "uint256"
        }
      ],
      "name": "repay",
      "outputs": [],
      "stateMutability": "nonpayable",
      "type": "function"
    },
    {
      "inputs": [
        {
          "internalType": "address",
          "name": "_porridgeAddress",
          "type": "address"
        }
      ],
      "name": "setPorridgeAddress",
      "outputs": [],
      "stateMutability": "nonpayable",
      "type": "function"
    }
  ],
  "bytecode": {
    "object": "0x608060405234801561001057600080fd5b5060405161092d38038061092d83398101604081905261002f9161008d565b600480546001600160a01b039485166001600160a01b0319918216179091556002805493851693821693909317909255600380549190931691161790556100d0565b80516001600160a01b038116811461008857600080fd5b919050565b6000806000606084860312156100a257600080fd5b6100ab84610071565b92506100b960208501610071565b91506100c760408501610071565b90509250925092565b61084e806100df6000396000f3fe608060405234801561001057600080fd5b50600436106100b45760003560e01c80638c2c622c116100715780638c2c622c14610188578063b3d8d0791461019b578063bc22fd1b146101ae578063c5ebeaec146101d7578063f2934a97146101ea578063fc6f9468146101fd57600080fd5b80631373df08146100b957806328f5f502146100e9578063371fd8e61461010a5780633a2c92ab1461011f5780636011163e1461013f5780637efd59c914610168575b600080fd5b6004546100cc906001600160a01b031681565b6040516001600160a01b0390911681526020015b60405180910390f35b6100fc6100f7366004610748565b610210565b6040519081526020016100e0565b61011d610118366004610771565b610290565b005b6100fc61012d366004610748565b60016020526000908152604090205481565b6100fc61014d366004610748565b6001600160a01b031660009081526001602052604090205490565b6100fc610176366004610748565b60006020819052908152604090205481565b61011d610196366004610748565b610370565b6002546100cc906001600160a01b031681565b6100fc6101bc366004610748565b6001600160a01b031660009081526020819052604090205490565b61011d6101e5366004610771565b6103bd565b6005546100cc906001600160a01b031681565b6003546100cc906001600160a01b031681565b60048054604080516349b1e40960e11b8152905160009384936001600160a01b031692639363c81292818301926020928290030181865afa158015610259573d6000803e3d6000fd5b505050506040513d601f19601f8201168201806040525081019061027d919061078a565b90506102898382610568565b9392505050565b336000908152600160205260409020548111156102c057604051637bc3c3ef60e01b815260040160405180910390fd5b60006102cb82610612565b336000908152602081905260408120805492935083929091906102ef9084906107b9565b909155505033600090815260016020526040812080548492906103139084906107b9565b9091555050600254600454610337916001600160a01b03908116913391168561064c565b60405182815233907f0516911bcc3a0a7412a44601057c0a0a1ec628bde049a84284bc4288665344889060200160405180910390a25050565b6003546001600160a01b0316331461039b57604051637bfa4b9f60e01b815260040160405180910390fd5b600580546001600160a01b0319166001600160a01b0392909216919091179055565b6000600460009054906101000a90046001600160a01b03166001600160a01b0316639363c8126040518163ffffffff1660e01b8152600401602060405180830381865afa158015610412573d6000803e3d6000fd5b505050506040513d601f19601f82011682018060405250810190610436919061078a565b9050610442828261069a565b61045f5760405163da39279760e01b815260040160405180910390fd5b61046982826106b3565b33600090815260208190526040812080549091906104889084906107cc565b909155505033600090815260016020526040812080548492906104ac9084906107cc565b90915550600090506104bd83610702565b60048054604051630750ca6f60e51b8152339281019290925260248201869052604482018390529192506001600160a01b039091169063ea194de090606401600060405180830381600087803b15801561051657600080fd5b505af115801561052a573d6000803e3d6000fd5b50506040518581523392507fac59582e5396aca512fa873a2047e7f4c80f8f55d4a06cb34a78a0187f62719f915060200160405180910390a2505050565b600554604051630e64203b60e21b81526001600160a01b038481166004830152600092839291169063399080ec90602401602060405180830381865afa1580156105b6573d6000803e3d6000fd5b505050506040513d601f19601f820116820180604052508101906105da919061078a565b6001600160a01b0385166000908152602081905260409020549091506106098461060483856107b9565b61071a565b95945050505050565b33600090815260016020526040812054610646906106319084906106b3565b3360009081526020819052604090205461071a565b92915050565b6040516323b872dd600052836020528260405281606052602060006064601c6000895af13d15600160005114171661068c57637939f4246000526004601cfd5b600060605260405250505050565b6000806106a73384610568565b93909310159392505050565b60007812725dd1d243aba0e75fe645cc4873f9e65afe688c928e1f218311670de0b6b3a7640000021582026106f057637c5f487d6000526004601cfd5b50670de0b6b3a7640000919091020490565b600061070f6064836107df565b610646906003610801565b6000816000190483118202156107385763bac65e5b6000526004601cfd5b50670de0b6b3a764000091020490565b60006020828403121561075a57600080fd5b81356001600160a01b038116811461028957600080fd5b60006020828403121561078357600080fd5b5035919050565b60006020828403121561079c57600080fd5b5051919050565b634e487b7160e01b600052601160045260246000fd5b81810381811115610646576106466107a3565b80820180821115610646576106466107a3565b6000826107fc57634e487b7160e01b600052601260045260246000fd5b500490565b8082028115828204841417610646576106466107a356fea26469706673582212205ce84f4ff7357344f904b69f4ba43717afe4b63ad42dba6872eff7801e207cc564736f6c63430008130033",
    "linkReferences": {}
  },
  "methodIdentifiers": {
    "adminAddress()": "fc6f9468",
    "borrow(uint256)": "c5ebeaec",
    "borrowLimit(address)": "28f5f502",
    "borrowedHoney(address)": "3a2c92ab",
    "gammAddress()": "1373df08",
    "getBorrowed(address)": "6011163e",
    "getLocked(address)": "bc22fd1b",
    "honeyAddress()": "b3d8d079",
    "lockedLocks(address)": "7efd59c9",
    "porridgeAddress()": "f2934a97",
    "repay(uint256)": "371fd8e6",
    "setPorridgeAddress(address)": "8c2c622c"
  },
  "id": 15
}