{
  "abi": [
    {
      "inputs": [
        {
          "internalType": "address",
          "name": "_gammAddress",
          "type": "address"
        },
        {
          "internalType": "address",
          "name": "_adminAddress",
          "type": "address"
        },
        {
          "internalType": "address",
          "name": "_honeyAddress",
          "type": "address"
        }
      ],
      "stateMutability": "nonpayable",
      "type": "constructor"
    },
    {
      "inputs": [],
      "name": "ExcessiveRepay",
      "type": "error"
    },
    {
      "inputs": [],
      "name": "InsufficientBorrowLimit",
      "type": "error"
    },
    {
      "inputs": [],
      "name": "NotAdmin",
      "type": "error"
    },
    {
      "anonymous": false,
      "inputs": [
        {
          "indexed": true,
          "internalType": "address",
          "name": "user",
          "type": "address"
        },
        {
          "indexed": false,
          "internalType": "uint256",
          "name": "amount",
          "type": "uint256"
        }
      ],
      "name": "Borrowed",
      "type": "event"
    },
    {
      "anonymous": false,
      "inputs": [
        {
          "indexed": true,
          "internalType": "address",
          "name": "user",
          "type": "address"
        },
        {
          "indexed": false,
          "internalType": "uint256",
          "name": "amount",
          "type": "uint256"
        }
      ],
      "name": "Repaid",
      "type": "event"
    },
    {
      "inputs": [],
      "name": "adminAddress",
      "outputs": [
        {
          "internalType": "address",
          "name": "",
          "type": "address"
        }
      ],
      "stateMutability": "view",
      "type": "function"
    },
    {
      "inputs": [
        {
          "internalType": "uint256",
          "name": "amount",
          "type": "uint256"
        }
      ],
      "name": "borrow",
      "outputs": [],
      "stateMutability": "nonpayable",
      "type": "function"
    },
    {
      "inputs": [
        {
          "internalType": "address",
          "name": "user",
          "type": "address"
        }
      ],
      "name": "borrowLimit",
      "outputs": [
        {
          "internalType": "uint256",
          "name": "",
          "type": "uint256"
        }
      ],
      "stateMutability": "view",
      "type": "function"
    },
    {
      "inputs": [
        {
          "internalType": "address",
          "name": "",
          "type": "address"
        }
      ],
      "name": "borrowedHoney",
      "outputs": [
        {
          "internalType": "uint256",
          "name": "",
          "type": "uint256"
        }
      ],
      "stateMutability": "view",
      "type": "function"
    },
    {
      "inputs": [],
      "name": "gammAddress",
      "outputs": [
        {
          "internalType": "address",
          "name": "",
          "type": "address"
        }
      ],
      "stateMutability": "view",
      "type": "function"
    },
    {
      "inputs": [
        {
          "internalType": "address",
          "name": "user",
          "type": "address"
        }
      ],
      "name": "getBorrowed",
      "outputs": [
        {
          "internalType": "uint256",
          "name": "",
          "type": "uint256"
        }
      ],
      "stateMutability": "view",
      "type": "function"
    },
    {
      "inputs": [
        {
          "internalType": "address",
          "name": "user",
          "type": "address"
        }
      ],
      "name": "getLocked",
      "outputs": [
        {
          "internalType": "uint256",
          "name": "",
          "type": "uint256"
        }
      ],
      "stateMutability": "view",
      "type": "function"
    },
    {
      "inputs": [],
      "name": "honeyAddress",
      "outputs": [
        {
          "internalType": "address",
          "name": "",
          "type": "address"
        }
      ],
      "stateMutability": "view",
      "type": "function"
    },
    {
      "inputs": [
        {
          "internalType": "address",
          "name": "",
          "type": "address"
        }
      ],
      "name": "lockedLocks",
      "outputs": [
        {
          "internalType": "uint256",
          "name": "",
          "type": "uint256"
        }
      ],
      "stateMutability": "view",
      "type": "function"
    },
    {
      "inputs": [],
      "name": "porridgeAddress",
      "outputs": [
        {
          "internalType": "address",
          "name": "",
          "type": "address"
        }
      ],
      "stateMutability": "view",
      "type": "function"
    },
    {
      "inputs": [
        {
          "internalType": "uint256",
          "name": "amount",
          "type": "uint256"
        }
      ],
      "name": "repay",
      "outputs": [],
      "stateMutability": "nonpayable",
      "type": "function"
    },
    {
      "inputs": [
        {
          "internalType": "address",
          "name": "_porridgeAddress",
          "type": "address"
        }
      ],
      "name": "setPorridgeAddress",
      "outputs": [],
      "stateMutability": "nonpayable",
      "type": "function"
    }
  ],
  "bytecode": {
    "object": "0x608060405234801561001057600080fd5b5060405161092a38038061092a83398101604081905261002f9161008d565b600280546001600160a01b039485166001600160a01b0319918216179091556004805493851693821693909317909255600580549190931691161790556100d0565b80516001600160a01b038116811461008857600080fd5b919050565b6000806000606084860312156100a257600080fd5b6100ab84610071565b92506100b960208501610071565b91506100c760408501610071565b90509250925092565b61084b806100df6000396000f3fe608060405234801561001057600080fd5b50600436106100b45760003560e01c80638c2c622c116100715780638c2c622c14610188578063b3d8d0791461019b578063bc22fd1b146101ae578063c5ebeaec146101d7578063f2934a97146101ea578063fc6f9468146101fd57600080fd5b80631373df08146100b957806328f5f502146100e9578063371fd8e61461010a5780633a2c92ab1461011f5780636011163e1461013f5780637efd59c914610168575b600080fd5b6002546100cc906001600160a01b031681565b6040516001600160a01b0390911681526020015b60405180910390f35b6100fc6100f7366004610745565b610210565b6040519081526020016100e0565b61011d61011836600461076e565b61029d565b005b6100fc61012d366004610745565b60016020526000908152604090205481565b6100fc61014d366004610745565b6001600160a01b031660009081526001602052604090205490565b6100fc610176366004610745565b60006020819052908152604090205481565b61011d610196366004610745565b61037d565b6005546100cc906001600160a01b031681565b6100fc6101bc366004610745565b6001600160a01b031660009081526020819052604090205490565b61011d6101e536600461076e565b6103ca565b6003546100cc906001600160a01b031681565b6004546100cc906001600160a01b031681565b600080600260009054906101000a90046001600160a01b03166001600160a01b0316639363c8126040518163ffffffff1660e01b8152600401602060405180830381865afa158015610266573d6000803e3d6000fd5b505050506040513d601f19601f8201168201806040525081019061028a9190610787565b90506102968382610565565b9392505050565b336000908152600160205260409020548111156102cd57604051637bc3c3ef60e01b815260040160405180910390fd5b60006102d88261060f565b336000908152602081905260408120805492935083929091906102fc9084906107b6565b909155505033600090815260016020526040812080548492906103209084906107b6565b9091555050600554600254610344916001600160a01b039081169133911685610649565b60405182815233907f0516911bcc3a0a7412a44601057c0a0a1ec628bde049a84284bc4288665344889060200160405180910390a25050565b6004546001600160a01b031633146103a857604051637bfa4b9f60e01b815260040160405180910390fd5b600380546001600160a01b0319166001600160a01b0392909216919091179055565b600254604080516349b1e40960e11b815290516000926001600160a01b031691639363c8129160048083019260209291908290030181865afa158015610414573d6000803e3d6000fd5b505050506040513d601f19601f820116820180604052508101906104389190610787565b90506104448282610697565b6104615760405163da39279760e01b815260040160405180910390fd5b61046b82826106b0565b336000908152602081905260408120805490919061048a9084906107c9565b909155505033600090815260016020526040812080548492906104ae9084906107c9565b90915550600090506104bf836106ff565b600254604051630750ca6f60e51b815233600482015260248101869052604481018390529192506001600160a01b03169063ea194de090606401600060405180830381600087803b15801561051357600080fd5b505af1158015610527573d6000803e3d6000fd5b50506040518581523392507fac59582e5396aca512fa873a2047e7f4c80f8f55d4a06cb34a78a0187f62719f915060200160405180910390a2505050565b600354604051630e64203b60e21b81526001600160a01b038481166004830152600092839291169063399080ec90602401602060405180830381865afa1580156105b3573d6000803e3d6000fd5b505050506040513d601f19601f820116820180604052508101906105d79190610787565b6001600160a01b0385166000908152602081905260409020549091506106068461060183856107b6565b610717565b95945050505050565b336000908152600160205260408120546106439061062e9084906106b0565b33600090815260208190526040902054610717565b92915050565b6040516323b872dd600052836020528260405281606052602060006064601c6000895af13d15600160005114171661068957637939f4246000526004601cfd5b600060605260405250505050565b6000806106a43384610565565b93909310159392505050565b60007812725dd1d243aba0e75fe645cc4873f9e65afe688c928e1f218311670de0b6b3a7640000021582026106ed57637c5f487d6000526004601cfd5b50670de0b6b3a7640000919091020490565b600061070c6064836107dc565b6106439060036107fe565b6000816000190483118202156107355763bac65e5b6000526004601cfd5b50670de0b6b3a764000091020490565b60006020828403121561075757600080fd5b81356001600160a01b038116811461029657600080fd5b60006020828403121561078057600080fd5b5035919050565b60006020828403121561079957600080fd5b5051919050565b634e487b7160e01b600052601160045260246000fd5b81810381811115610643576106436107a0565b80820180821115610643576106436107a0565b6000826107f957634e487b7160e01b600052601260045260246000fd5b500490565b8082028115828204841417610643576106436107a056fea2646970667358221220efbc737347a8dae8e23e37eb7bf19fca07b187060d2a025b6bb0a15845c2eb8364736f6c63430008130033",
    "linkReferences": {}
  },
  "methodIdentifiers": {
    "adminAddress()": "fc6f9468",
    "borrow(uint256)": "c5ebeaec",
    "borrowLimit(address)": "28f5f502",
    "borrowedHoney(address)": "3a2c92ab",
    "gammAddress()": "1373df08",
    "getBorrowed(address)": "6011163e",
    "getLocked(address)": "bc22fd1b",
    "honeyAddress()": "b3d8d079",
    "lockedLocks(address)": "7efd59c9",
    "porridgeAddress()": "f2934a97",
    "repay(uint256)": "371fd8e6",
    "setPorridgeAddress(address)": "8c2c622c"
  },
  "id": 28
}