{
  "abi": [
    {
      "inputs": [
        {
          "internalType": "address",
          "name": "_adminAddress",
          "type": "address"
        },
        {
          "internalType": "address",
          "name": "_honeyAddress",
          "type": "address"
        }
      ],
      "stateMutability": "nonpayable",
      "type": "constructor"
    },
    {
      "inputs": [],
      "name": "ExcessiveSlippage",
      "type": "error"
    },
    {
      "inputs": [],
      "name": "NotAdmin",
      "type": "error"
    },
    {
      "inputs": [],
      "name": "NotBorrow",
      "type": "error"
    },
    {
      "inputs": [],
      "name": "NotPorridge",
      "type": "error"
    },
    {
      "anonymous": false,
      "inputs": [
        {
          "indexed": true,
          "internalType": "address",
          "name": "owner",
          "type": "address"
        },
        {
          "indexed": true,
          "internalType": "address",
          "name": "spender",
          "type": "address"
        },
        {
          "indexed": false,
          "internalType": "uint256",
          "name": "value",
          "type": "uint256"
        }
      ],
      "name": "Approval",
      "type": "event"
    },
    {
      "anonymous": false,
      "inputs": [
        {
          "indexed": true,
          "internalType": "address",
          "name": "user",
          "type": "address"
        },
        {
          "indexed": false,
          "internalType": "uint256",
          "name": "amount",
          "type": "uint256"
        }
      ],
      "name": "Buy",
      "type": "event"
    },
    {
      "anonymous": false,
      "inputs": [
        {
          "indexed": true,
          "internalType": "address",
          "name": "user",
          "type": "address"
        },
        {
          "indexed": false,
          "internalType": "uint256",
          "name": "amount",
          "type": "uint256"
        }
      ],
      "name": "Redeem",
      "type": "event"
    },
    {
      "anonymous": false,
      "inputs": [
        {
          "indexed": true,
          "internalType": "address",
          "name": "user",
          "type": "address"
        },
        {
          "indexed": false,
          "internalType": "uint256",
          "name": "amount",
          "type": "uint256"
        }
      ],
      "name": "Sale",
      "type": "event"
    },
    {
      "anonymous": false,
      "inputs": [
        {
          "indexed": true,
          "internalType": "address",
          "name": "from",
          "type": "address"
        },
        {
          "indexed": true,
          "internalType": "address",
          "name": "to",
          "type": "address"
        },
        {
          "indexed": false,
          "internalType": "uint256",
          "name": "value",
          "type": "uint256"
        }
      ],
      "name": "Transfer",
      "type": "event"
    },
    {
      "inputs": [],
      "name": "DAYS_SECONDS",
      "outputs": [
        {
          "internalType": "uint256",
          "name": "",
          "type": "uint256"
        }
      ],
      "stateMutability": "view",
      "type": "function"
    },
    {
      "inputs": [],
      "name": "MAX_FLOOR_REDUCE",
      "outputs": [
        {
          "internalType": "uint256",
          "name": "",
          "type": "uint256"
        }
      ],
      "stateMutability": "view",
      "type": "function"
    },
    {
      "inputs": [],
      "name": "adminAddress",
      "outputs": [
        {
          "internalType": "address",
          "name": "",
          "type": "address"
        }
      ],
      "stateMutability": "view",
      "type": "function"
    },
    {
      "inputs": [
        {
          "internalType": "address",
          "name": "owner",
          "type": "address"
        },
        {
          "internalType": "address",
          "name": "spender",
          "type": "address"
        }
      ],
      "name": "allowance",
      "outputs": [
        {
          "internalType": "uint256",
          "name": "",
          "type": "uint256"
        }
      ],
      "stateMutability": "view",
      "type": "function"
    },
    {
      "inputs": [
        {
          "internalType": "address",
          "name": "spender",
          "type": "address"
        },
        {
          "internalType": "uint256",
          "name": "amount",
          "type": "uint256"
        }
      ],
      "name": "approve",
      "outputs": [
        {
          "internalType": "bool",
          "name": "",
          "type": "bool"
        }
      ],
      "stateMutability": "nonpayable",
      "type": "function"
    },
    {
      "inputs": [
        {
          "internalType": "address",
          "name": "account",
          "type": "address"
        }
      ],
      "name": "balanceOf",
      "outputs": [
        {
          "internalType": "uint256",
          "name": "",
          "type": "uint256"
        }
      ],
      "stateMutability": "view",
      "type": "function"
    },
    {
      "inputs": [],
      "name": "borrowAddress",
      "outputs": [
        {
          "internalType": "address",
          "name": "",
          "type": "address"
        }
      ],
      "stateMutability": "view",
      "type": "function"
    },
    {
      "inputs": [
        {
          "internalType": "address",
          "name": "to",
          "type": "address"
        },
        {
          "internalType": "uint256",
          "name": "amount",
          "type": "uint256"
        },
        {
          "internalType": "uint256",
          "name": "fee",
          "type": "uint256"
        }
      ],
      "name": "borrowTransfer",
      "outputs": [],
      "stateMutability": "nonpayable",
      "type": "function"
    },
    {
      "inputs": [
        {
          "internalType": "uint256",
          "name": "amount",
          "type": "uint256"
        },
        {
          "internalType": "uint256",
          "name": "maxAmount",
          "type": "uint256"
        }
      ],
      "name": "buy",
      "outputs": [],
      "stateMutability": "nonpayable",
      "type": "function"
    },
    {
      "inputs": [],
      "name": "decimals",
      "outputs": [
        {
          "internalType": "uint8",
          "name": "",
          "type": "uint8"
        }
      ],
      "stateMutability": "view",
      "type": "function"
    },
    {
      "inputs": [
        {
          "internalType": "address",
          "name": "spender",
          "type": "address"
        },
        {
          "internalType": "uint256",
          "name": "subtractedValue",
          "type": "uint256"
        }
      ],
      "name": "decreaseAllowance",
      "outputs": [
        {
          "internalType": "bool",
          "name": "",
          "type": "bool"
        }
      ],
      "stateMutability": "nonpayable",
      "type": "function"
    },
    {
      "inputs": [],
      "name": "floorPrice",
      "outputs": [
        {
          "internalType": "uint256",
          "name": "",
          "type": "uint256"
        }
      ],
      "stateMutability": "view",
      "type": "function"
    },
    {
      "inputs": [],
      "name": "fsl",
      "outputs": [
        {
          "internalType": "uint256",
          "name": "",
          "type": "uint256"
        }
      ],
      "stateMutability": "view",
      "type": "function"
    },
    {
      "inputs": [],
      "name": "honeyAddress",
      "outputs": [
        {
          "internalType": "address",
          "name": "",
          "type": "address"
        }
      ],
      "stateMutability": "view",
      "type": "function"
    },
    {
      "inputs": [
        {
          "internalType": "address",
          "name": "spender",
          "type": "address"
        },
        {
          "internalType": "uint256",
          "name": "addedValue",
          "type": "uint256"
        }
      ],
      "name": "increaseAllowance",
      "outputs": [
        {
          "internalType": "bool",
          "name": "",
          "type": "bool"
        }
      ],
      "stateMutability": "nonpayable",
      "type": "function"
    },
    {
      "inputs": [
        {
          "internalType": "uint256",
          "name": "fslAddition",
          "type": "uint256"
        },
        {
          "internalType": "uint256",
          "name": "pslAddition",
          "type": "uint256"
        }
      ],
      "name": "injectLiquidity",
      "outputs": [],
      "stateMutability": "nonpayable",
      "type": "function"
    },
    {
      "inputs": [],
      "name": "lastFloorDecrease",
      "outputs": [
        {
          "internalType": "uint256",
          "name": "",
          "type": "uint256"
        }
      ],
      "stateMutability": "view",
      "type": "function"
    },
    {
      "inputs": [],
      "name": "lastFloorRaise",
      "outputs": [
        {
          "internalType": "uint256",
          "name": "",
          "type": "uint256"
        }
      ],
      "stateMutability": "view",
      "type": "function"
    },
    {
      "inputs": [],
      "name": "marketPrice",
      "outputs": [
        {
          "internalType": "uint256",
          "name": "",
          "type": "uint256"
        }
      ],
      "stateMutability": "view",
      "type": "function"
    },
    {
      "inputs": [],
      "name": "name",
      "outputs": [
        {
          "internalType": "string",
          "name": "",
          "type": "string"
        }
      ],
      "stateMutability": "view",
      "type": "function"
    },
    {
      "inputs": [],
      "name": "porridgeAddress",
      "outputs": [
        {
          "internalType": "address",
          "name": "",
          "type": "address"
        }
      ],
      "stateMutability": "view",
      "type": "function"
    },
    {
      "inputs": [
        {
          "internalType": "address",
          "name": "to",
          "type": "address"
        },
        {
          "internalType": "uint256",
          "name": "amount",
          "type": "uint256"
        }
      ],
      "name": "porridgeMint",
      "outputs": [],
      "stateMutability": "nonpayable",
      "type": "function"
    },
    {
      "inputs": [],
      "name": "psl",
      "outputs": [
        {
          "internalType": "uint256",
          "name": "",
          "type": "uint256"
        }
      ],
      "stateMutability": "view",
      "type": "function"
    },
    {
      "inputs": [
        {
          "internalType": "uint256",
          "name": "amount",
          "type": "uint256"
        }
      ],
      "name": "redeem",
      "outputs": [],
      "stateMutability": "nonpayable",
      "type": "function"
    },
    {
      "inputs": [
        {
          "internalType": "uint256",
          "name": "amount",
          "type": "uint256"
        },
        {
          "internalType": "uint256",
          "name": "minAmount",
          "type": "uint256"
        }
      ],
      "name": "sell",
      "outputs": [],
      "stateMutability": "nonpayable",
      "type": "function"
    },
    {
      "inputs": [
        {
          "internalType": "address",
          "name": "_borrowAddress",
          "type": "address"
        }
      ],
      "name": "setBorrowAddress",
      "outputs": [],
      "stateMutability": "nonpayable",
      "type": "function"
    },
    {
      "inputs": [
        {
          "internalType": "address",
          "name": "_porridgeAddress",
          "type": "address"
        }
      ],
      "name": "setPorridgeAddress",
      "outputs": [],
      "stateMutability": "nonpayable",
      "type": "function"
    },
    {
      "inputs": [],
      "name": "supply",
      "outputs": [
        {
          "internalType": "uint256",
          "name": "",
          "type": "uint256"
        }
      ],
      "stateMutability": "view",
      "type": "function"
    },
    {
      "inputs": [],
      "name": "symbol",
      "outputs": [
        {
          "internalType": "string",
          "name": "",
          "type": "string"
        }
      ],
      "stateMutability": "view",
      "type": "function"
    },
    {
      "inputs": [],
      "name": "targetRatio",
      "outputs": [
        {
          "internalType": "uint256",
          "name": "",
          "type": "uint256"
        }
      ],
      "stateMutability": "view",
      "type": "function"
    },
    {
      "inputs": [],
      "name": "totalSupply",
      "outputs": [
        {
          "internalType": "uint256",
          "name": "",
          "type": "uint256"
        }
      ],
      "stateMutability": "view",
      "type": "function"
    },
    {
      "inputs": [
        {
          "internalType": "address",
          "name": "to",
          "type": "address"
        },
        {
          "internalType": "uint256",
          "name": "amount",
          "type": "uint256"
        }
      ],
      "name": "transfer",
      "outputs": [
        {
          "internalType": "bool",
          "name": "",
          "type": "bool"
        }
      ],
      "stateMutability": "nonpayable",
      "type": "function"
    },
    {
      "inputs": [
        {
          "internalType": "address",
          "name": "from",
          "type": "address"
        },
        {
          "internalType": "address",
          "name": "to",
          "type": "address"
        },
        {
          "internalType": "uint256",
          "name": "amount",
          "type": "uint256"
        }
      ],
      "name": "transferFrom",
      "outputs": [
        {
          "internalType": "bool",
          "name": "",
          "type": "bool"
        }
      ],
      "stateMutability": "nonpayable",
      "type": "function"
    }
  ],
  "bytecode": {
    "object": "0x60c060405262015180608052674563918244f4000060a0526a01287626ee52197b0000006005556954b40b1f852bda00000060065569010f0cf064dd592000006007556704fefa17b72400006008553480156200005b57600080fd5b5060405162001bc838038062001bc88339810160408190526200007e916200013f565b6040518060400160405280600b81526020016a2637b1b5b9902a37b5b2b760a91b815250604051806040016040528060058152602001644c4f434b5360d81b8152508160039081620000d191906200021c565b506004620000e082826200021c565b5050600d80546001600160a01b039485166001600160a01b031991821617909155600e80549390941692169190911790915550426009819055600a55620002e8565b80516001600160a01b03811681146200013a57600080fd5b919050565b600080604083850312156200015357600080fd5b6200015e8362000122565b91506200016e6020840162000122565b90509250929050565b634e487b7160e01b600052604160045260246000fd5b600181811c90821680620001a257607f821691505b602082108103620001c357634e487b7160e01b600052602260045260246000fd5b50919050565b601f8211156200021757600081815260208120601f850160051c81016020861015620001f25750805b601f850160051c820191505b818110156200021357828155600101620001fe565b5050505b505050565b81516001600160401b0381111562000238576200023862000177565b62000250816200024984546200018d565b84620001c9565b602080601f8311600181146200028857600084156200026f5750858301515b600019600386901b1c1916600185901b17855562000213565b600085815260208120601f198616915b82811015620002b95788860151825594840194600190910190840162000298565b5085821015620002d85787850151600019600388901b60f8161c191681555b5050505050600190811b01905550565b60805160a05161189762000331600039600081816102590152818161132f015261136c01526000818161036f015281816112ac015281816112d7015261130701526118976000f3fe608060405234801561001057600080fd5b50600436106101fb5760003560e01c80638c2c622c1161011a578063d054a16f116100ad578063db006a751161007c578063db006a7514610425578063dd62ed3e14610438578063ea194de01461044b578063f2934a971461045e578063fc6f94681461047157600080fd5b8063d054a16f146103ed578063d2b478ed146103f6578063d6febde8146103ff578063d79875eb1461041257600080fd5b8063a457c2d7116100e9578063a457c2d7146103a1578063a9059cbb146103b4578063b3d8d079146103c7578063c1433f44146103da57600080fd5b80638c2c622c14610357578063903d78fb1461036a5780639363c8121461039157806395d89b411461039957600080fd5b806323b872dd116101925780635a08bd17116101615780635a08bd17146102f157806370a08231146102fa57806371b1803a14610323578063804688121461034e57600080fd5b806323b872dd146102b4578063313ce567146102c757806339509351146102d657806345a15388146102e957600080fd5b80630ee17d79116101ce5780630ee17d791461027b57806318160ddd146102905780631db77a4d146102985780631f62eec4146102a157600080fd5b8063047fc9aa1461020057806306fdde031461021c578063095ea7b3146102315780630b4e03bb14610254575b600080fd5b61020960075481565b6040519081526020015b60405180910390f35b610224610484565b6040516102139190611626565b61024461023f366004611690565b610516565b6040519015158152602001610213565b6102097f000000000000000000000000000000000000000000000000000000000000000081565b61028e6102893660046116ba565b610530565b005b600254610209565b61020960055481565b61028e6102af366004611690565b61057d565b6102446102c23660046116d5565b6105b6565b60405160128152602001610213565b6102446102e4366004611690565b6105da565b6102096105fc565b61020960085481565b6102096103083660046116ba565b6001600160a01b031660009081526020819052604090205490565b600c54610336906001600160a01b031681565b6040516001600160a01b039091168152602001610213565b61020960065481565b61028e6103653660046116ba565b610614565b6102097f000000000000000000000000000000000000000000000000000000000000000081565b610209610661565b610224610671565b6102446103af366004611690565b610680565b6102446103c2366004611690565b610700565b600e54610336906001600160a01b031681565b61028e6103e8366004611711565b61070e565b610209600a5481565b61020960095481565b61028e61040d366004611711565b61078a565b61028e610420366004611711565b61087a565b61028e610433366004611733565b61097c565b61020961044636600461174c565b610a2a565b61028e61045936600461177f565b610a55565b600b54610336906001600160a01b031681565b600d54610336906001600160a01b031681565b606060038054610493906117b2565b80601f01602080910402602001604051908101604052809291908181526020018280546104bf906117b2565b801561050c5780601f106104e15761010080835404028352916020019161050c565b820191906000526020600020905b8154815290600101906020018083116104ef57829003601f168201915b5050505050905090565b600033610524818585610abd565b60019150505b92915050565b600d546001600160a01b0316331461055b57604051637bfa4b9f60e01b815260040160405180910390fd5b600c80546001600160a01b0319166001600160a01b0392909216919091179055565b600b546001600160a01b031633146105a857604051630da7dbfb60e01b815260040160405180910390fd5b6105b28282610be1565b5050565b6000336105c4858285610ca0565b6105cf858585610d1a565b506001949350505050565b6000336105248185856105ed8383610a2a565b6105f79190611802565b610abd565b600061060f600554600654600754610ebe565b905090565b600d546001600160a01b0316331461063f57604051637bfa4b9f60e01b815260040160405180910390fd5b600b80546001600160a01b0319166001600160a01b0392909216919091179055565b600061060f600554600754610f06565b606060048054610493906117b2565b6000338161068e8286610a2a565b9050838110156106f35760405162461bcd60e51b815260206004820152602560248201527f45524332303a2064656372656173656420616c6c6f77616e63652062656c6f77604482015264207a65726f60d81b60648201526084015b60405180910390fd5b6105cf8286868403610abd565b600033610524818585610d1a565b600d546001600160a01b0316331461073957604051637bfa4b9f60e01b815260040160405180910390fd5b816005600082825461074b9190611802565b9250508190555080600660008282546107649190611802565b9091555050600e546105b2906001600160a01b031633306107858587611802565b610f19565b60075460055460065460008080806107a48587898c610f67565b935093509350935060006103e8826107bc9190611815565b6107c7906003611837565b9050886107d48284611802565b11156107f3576040516397c7f53760e01b815260040160405180910390fd5b6107fd8185611802565b600555600685905560078390556108126110e0565b600e5461082e906001600160a01b031633306107858587611802565b610838338b610be1565b6040518a815233907fe3d4187f6ca4248660cc0ac8b8056515bac4a8132be2eca31d6d0cc170722a7e906020015b60405180910390a250505050505050505050565b60075460055460065460008080806108948587898c611177565b935093509350935060006103e8826108ac9190611815565b6108b7906035611837565b9050886108c4828461184e565b10156108e3576040516397c7f53760e01b815260040160405180910390fd5b6108ee600282611815565b6108f89085611802565b600555610906600282611815565b6109109086611802565b6006556007839055610920611286565b61092a338b6113d4565b600e5461094a906001600160a01b031633610945848661184e565b611506565b6040518a815233907fc6851889326b4ff916523ef06f539b4cf0b81d78fc6e0f97c30e6223d183199090602001610866565b600061099582610990600554600754610f06565b61154f565b905081600760008282546109a9919061184e565b9250508190555080600560008282546109c2919061184e565b909155506109d090506110e0565b6109da33836113d4565b600e546109f1906001600160a01b03163383611506565b60405182815233907f222838db2794d11532d940e8dec38ae307ed0b63cd97c233322e221f998767a69060200160405180910390a25050565b6001600160a01b03918216600090815260016020908152604080832093909416825291909152205490565b600c546001600160a01b03163314610a8057604051635a2d193d60e01b815260040160405180910390fd5b600e54610a9b906001600160a01b031684610945848661184e565b600e54600d54610ab8916001600160a01b03908116911683611506565b505050565b6001600160a01b038316610b1f5760405162461bcd60e51b8152602060048201526024808201527f45524332303a20617070726f76652066726f6d20746865207a65726f206164646044820152637265737360e01b60648201526084016106ea565b6001600160a01b038216610b805760405162461bcd60e51b815260206004820152602260248201527f45524332303a20617070726f766520746f20746865207a65726f206164647265604482015261737360f01b60648201526084016106ea565b6001600160a01b0383811660008181526001602090815260408083209487168084529482529182902085905590518481527f8c5be1e5ebec7d5bd14f71427d1e84f3dd0314c0f7b2291e5b200ac8c7c3b925910160405180910390a3505050565b6001600160a01b038216610c375760405162461bcd60e51b815260206004820152601f60248201527f45524332303a206d696e7420746f20746865207a65726f20616464726573730060448201526064016106ea565b8060026000828254610c499190611802565b90915550506001600160a01b038216600081815260208181526040808320805486019055518481527fddf252ad1be2c89b69c2b068fc378daa952ba7f163c4a11628f55a4df523b3ef910160405180910390a35050565b6000610cac8484610a2a565b90506000198114610d145781811015610d075760405162461bcd60e51b815260206004820152601d60248201527f45524332303a20696e73756666696369656e7420616c6c6f77616e636500000060448201526064016106ea565b610d148484848403610abd565b50505050565b6001600160a01b038316610d7e5760405162461bcd60e51b815260206004820152602560248201527f45524332303a207472616e736665722066726f6d20746865207a65726f206164604482015264647265737360d81b60648201526084016106ea565b6001600160a01b038216610de05760405162461bcd60e51b815260206004820152602360248201527f45524332303a207472616e7366657220746f20746865207a65726f206164647260448201526265737360e81b60648201526084016106ea565b6001600160a01b03831660009081526020819052604090205481811015610e585760405162461bcd60e51b815260206004820152602660248201527f45524332303a207472616e7366657220616d6f756e7420657863656564732062604482015265616c616e636560d01b60648201526084016106ea565b6001600160a01b03848116600081815260208181526040808320878703905593871680835291849020805487019055925185815290927fddf252ad1be2c89b69c2b068fc378daa952ba7f163c4a11628f55a4df523b3ef910160405180910390a3610d14565b6000610eea610ecd848461157d565b610990610ee3610edd8888611802565b8861157d565b60056115cc565b610ef4858461157d565b610efe9190611802565b949350505050565b6000610f12838361157d565b9392505050565b6040516323b872dd600052836020528260405281606052602060006064601c6000895af13d156001600051141716610f5957637939f4246000526004601cfd5b600060605260405250505050565b60008060008060008060005b670de0b6b3a7640000881061102357610f8d8a8c8b610ebe565b9250610f998a8a610f06565b9150610fa58382611802565b9050610fb9670de0b6b3a76400008a611802565b9850610fc68a6032611837565b610fd18c6064611837565b10610fe757610fe0838b611802565b995061100a565b610ff1828461184e565b610ffb908c611802565b9a50611007828b611802565b99505b61101c670de0b6b3a76400008961184e565b9750610f73565b87156110d0576110348a8c8b610ebe565b92506110408a8a610f06565b915061104c838961154f565b6110569082611802565b9050611062888a611802565b985061106f8a6032611837565b61107a8c6064611837565b1061109a57611089838961154f565b611093908b611802565b99506110d0565b6110ad6110a7838561184e565b8961154f565b6110b7908c611802565b9a506110c3828961154f565b6110cd908b611802565b99505b999a989997989650505050505050565b6008546110f160065460055461157d565b1061117557600061111861110960065460055461157d565b60206006546109909190611815565b9050806006600082825461112c919061184e565b9250508190555080600560008282546111459190611802565b909155505060085461115990603290611815565b6008600082825461116a9190611802565b909155505042600955505b565b60008060008060008060005b670de0b6b3a764000088106112065761119d8a8c8b610ebe565b92506111a98a8a610f06565b91506111b58382611802565b90506111c1828461184e565b6111cb908c61184e565b9a506111d7828b61184e565b99506111eb670de0b6b3a76400008a61184e565b98506111ff670de0b6b3a76400008961184e565b9750611183565b87156110d0576112178a8c8b610ebe565b92506112238a8a610f06565b915061122f838961154f565b6112399082611802565b90506112486110a7838561184e565b611252908c61184e565b9a5061125e828961154f565b611268908b61184e565b9950611274888a61184e565b9a9b999a999098509650505050505050565b600060095442611296919061184e565b90506000600a54426112a8919061184e565b90507f000000000000000000000000000000000000000000000000000000000000000082101580156112fa57507f00000000000000000000000000000000000000000000000000000000000000008110155b156105b257600061132b837f000000000000000000000000000000000000000000000000000000000000000061157d565b90507f00000000000000000000000000000000000000000000000000000000000000008111156113a25761139a60646008546113679190611815565b6109907f000000000000000000000000000000000000000000000000000000000000000068056bc75e2d6310000061184e565b6008556113cb565b6113c760646008546113b49190611815565b6109908368056bc75e2d6310000061184e565b6008555b5042600a555050565b6001600160a01b0382166114345760405162461bcd60e51b815260206004820152602160248201527f45524332303a206275726e2066726f6d20746865207a65726f206164647265736044820152607360f81b60648201526084016106ea565b6001600160a01b038216600090815260208190526040902054818110156114a85760405162461bcd60e51b815260206004820152602260248201527f45524332303a206275726e20616d6f756e7420657863656564732062616c616e604482015261636560f01b60648201526084016106ea565b6001600160a01b0383166000818152602081815260408083208686039055600280548790039055518581529192917fddf252ad1be2c89b69c2b068fc378daa952ba7f163c4a11628f55a4df523b3ef910160405180910390a3505050565b81601a5280603a5269a9059cbb00000000000060005260206000604460166000875af13d156001600051141716611545576390b8ec186000526004601cfd5b6000603a52505050565b60008160001904831182021561156d5763bac65e5b6000526004601cfd5b50670de0b6b3a764000091020490565b60007812725dd1d243aba0e75fe645cc4873f9e65afe688c928e1f218311670de0b6b3a7640000021582026115ba57637c5f487d6000526004601cfd5b50670de0b6b3a7640000919091020490565b60008082600116116115e657670de0b6b3a76400006115e8565b825b9050600182901c91505b811561052a57611602838461154f565b9250600182161561161a57611617818461154f565b90505b600182901c91506115f2565b600060208083528351808285015260005b8181101561165357858101830151858201604001528201611637565b506000604082860101526040601f19601f8301168501019250505092915050565b80356001600160a01b038116811461168b57600080fd5b919050565b600080604083850312156116a357600080fd5b6116ac83611674565b946020939093013593505050565b6000602082840312156116cc57600080fd5b610f1282611674565b6000806000606084860312156116ea57600080fd5b6116f384611674565b925061170160208501611674565b9150604084013590509250925092565b6000806040838503121561172457600080fd5b50508035926020909101359150565b60006020828403121561174557600080fd5b5035919050565b6000806040838503121561175f57600080fd5b61176883611674565b915061177660208401611674565b90509250929050565b60008060006060848603121561179457600080fd5b61179d84611674565b95602085013595506040909401359392505050565b600181811c908216806117c657607f821691505b6020821081036117e657634e487b7160e01b600052602260045260246000fd5b50919050565b634e487b7160e01b600052601160045260246000fd5b8082018082111561052a5761052a6117ec565b60008261183257634e487b7160e01b600052601260045260246000fd5b500490565b808202811582820484141761052a5761052a6117ec565b8181038181111561052a5761052a6117ec56fea26469706673582212202bda24e1fcf342c8070aaa04f20f47fc0b3bf45c5bf60140c41578ad9a17f69b64736f6c63430008130033",
    "linkReferences": {}
  },
  "methodIdentifiers": {
    "DAYS_SECONDS()": "903d78fb",
    "MAX_FLOOR_REDUCE()": "0b4e03bb",
    "adminAddress()": "fc6f9468",
    "allowance(address,address)": "dd62ed3e",
    "approve(address,uint256)": "095ea7b3",
    "balanceOf(address)": "70a08231",
    "borrowAddress()": "71b1803a",
    "borrowTransfer(address,uint256,uint256)": "ea194de0",
    "buy(uint256,uint256)": "d6febde8",
    "decimals()": "313ce567",
    "decreaseAllowance(address,uint256)": "a457c2d7",
    "floorPrice()": "9363c812",
    "fsl()": "1db77a4d",
    "honeyAddress()": "b3d8d079",
    "increaseAllowance(address,uint256)": "39509351",
    "injectLiquidity(uint256,uint256)": "c1433f44",
    "lastFloorDecrease()": "d054a16f",
    "lastFloorRaise()": "d2b478ed",
    "marketPrice()": "45a15388",
    "name()": "06fdde03",
    "porridgeAddress()": "f2934a97",
    "porridgeMint(address,uint256)": "1f62eec4",
    "psl()": "80468812",
    "redeem(uint256)": "db006a75",
    "sell(uint256,uint256)": "d79875eb",
    "setBorrowAddress(address)": "0ee17d79",
    "setPorridgeAddress(address)": "8c2c622c",
    "supply()": "047fc9aa",
    "symbol()": "95d89b41",
    "targetRatio()": "5a08bd17",
    "totalSupply()": "18160ddd",
    "transfer(address,uint256)": "a9059cbb",
    "transferFrom(address,address,uint256)": "23b872dd"
  },
  "id": 29
}