{
  "abi": [
    {
      "inputs": [
        {
          "internalType": "address",
          "name": "_honeyAddress",
          "type": "address"
        },
        {
          "internalType": "address",
          "name": "_adminAddress",
          "type": "address"
        }
      ],
      "stateMutability": "nonpayable",
      "type": "constructor"
    },
    {
      "inputs": [],
      "name": "ExcessiveSlippage",
      "type": "error"
    },
    {
      "inputs": [],
      "name": "NotAdmin",
      "type": "error"
    },
    {
      "inputs": [],
      "name": "NotBorrow",
      "type": "error"
    },
    {
      "inputs": [],
      "name": "NotPorridge",
      "type": "error"
    },
    {
      "anonymous": false,
      "inputs": [
        {
          "indexed": true,
          "internalType": "address",
          "name": "owner",
          "type": "address"
        },
        {
          "indexed": true,
          "internalType": "address",
          "name": "spender",
          "type": "address"
        },
        {
          "indexed": false,
          "internalType": "uint256",
          "name": "value",
          "type": "uint256"
        }
      ],
      "name": "Approval",
      "type": "event"
    },
    {
      "anonymous": false,
      "inputs": [
        {
          "indexed": true,
          "internalType": "address",
          "name": "user",
          "type": "address"
        },
        {
          "indexed": false,
          "internalType": "uint256",
          "name": "amount",
          "type": "uint256"
        }
      ],
      "name": "Buy",
      "type": "event"
    },
    {
      "anonymous": false,
      "inputs": [
        {
          "indexed": true,
          "internalType": "address",
          "name": "user",
          "type": "address"
        },
        {
          "indexed": false,
          "internalType": "uint256",
          "name": "amount",
          "type": "uint256"
        }
      ],
      "name": "Redeem",
      "type": "event"
    },
    {
      "anonymous": false,
      "inputs": [
        {
          "indexed": true,
          "internalType": "address",
          "name": "user",
          "type": "address"
        },
        {
          "indexed": false,
          "internalType": "uint256",
          "name": "amount",
          "type": "uint256"
        }
      ],
      "name": "Sale",
      "type": "event"
    },
    {
      "anonymous": false,
      "inputs": [
        {
          "indexed": true,
          "internalType": "address",
          "name": "from",
          "type": "address"
        },
        {
          "indexed": true,
          "internalType": "address",
          "name": "to",
          "type": "address"
        },
        {
          "indexed": false,
          "internalType": "uint256",
          "name": "value",
          "type": "uint256"
        }
      ],
      "name": "Transfer",
      "type": "event"
    },
    {
      "inputs": [],
      "name": "DAYS_SECONDS",
      "outputs": [
        {
          "internalType": "uint256",
          "name": "",
          "type": "uint256"
        }
      ],
      "stateMutability": "view",
      "type": "function"
    },
    {
      "inputs": [],
      "name": "adminAddress",
      "outputs": [
        {
          "internalType": "address",
          "name": "",
          "type": "address"
        }
      ],
      "stateMutability": "view",
      "type": "function"
    },
    {
      "inputs": [
        {
          "internalType": "address",
          "name": "owner",
          "type": "address"
        },
        {
          "internalType": "address",
          "name": "spender",
          "type": "address"
        }
      ],
      "name": "allowance",
      "outputs": [
        {
          "internalType": "uint256",
          "name": "",
          "type": "uint256"
        }
      ],
      "stateMutability": "view",
      "type": "function"
    },
    {
      "inputs": [
        {
          "internalType": "address",
          "name": "spender",
          "type": "address"
        },
        {
          "internalType": "uint256",
          "name": "amount",
          "type": "uint256"
        }
      ],
      "name": "approve",
      "outputs": [
        {
          "internalType": "bool",
          "name": "",
          "type": "bool"
        }
      ],
      "stateMutability": "nonpayable",
      "type": "function"
    },
    {
      "inputs": [
        {
          "internalType": "address",
          "name": "account",
          "type": "address"
        }
      ],
      "name": "balanceOf",
      "outputs": [
        {
          "internalType": "uint256",
          "name": "",
          "type": "uint256"
        }
      ],
      "stateMutability": "view",
      "type": "function"
    },
    {
      "inputs": [],
      "name": "borrowAddress",
      "outputs": [
        {
          "internalType": "address",
          "name": "",
          "type": "address"
        }
      ],
      "stateMutability": "view",
      "type": "function"
    },
    {
      "inputs": [
        {
          "internalType": "address",
          "name": "to",
          "type": "address"
        },
        {
          "internalType": "uint256",
          "name": "amount",
          "type": "uint256"
        },
        {
          "internalType": "uint256",
          "name": "fee",
          "type": "uint256"
        }
      ],
      "name": "borrowTransfer",
      "outputs": [],
      "stateMutability": "nonpayable",
      "type": "function"
    },
    {
      "inputs": [
        {
          "internalType": "uint256",
          "name": "amount",
          "type": "uint256"
        },
        {
          "internalType": "uint256",
          "name": "maxAmount",
          "type": "uint256"
        }
      ],
      "name": "buy",
      "outputs": [],
      "stateMutability": "nonpayable",
      "type": "function"
    },
    {
      "inputs": [],
      "name": "decimals",
      "outputs": [
        {
          "internalType": "uint8",
          "name": "",
          "type": "uint8"
        }
      ],
      "stateMutability": "view",
      "type": "function"
    },
    {
      "inputs": [
        {
          "internalType": "address",
          "name": "spender",
          "type": "address"
        },
        {
          "internalType": "uint256",
          "name": "subtractedValue",
          "type": "uint256"
        }
      ],
      "name": "decreaseAllowance",
      "outputs": [
        {
          "internalType": "bool",
          "name": "",
          "type": "bool"
        }
      ],
      "stateMutability": "nonpayable",
      "type": "function"
    },
    {
      "inputs": [],
      "name": "floorPrice",
      "outputs": [
        {
          "internalType": "uint256",
          "name": "",
          "type": "uint256"
        }
      ],
      "stateMutability": "view",
      "type": "function"
    },
    {
      "inputs": [],
      "name": "fsl",
      "outputs": [
        {
          "internalType": "uint256",
          "name": "",
          "type": "uint256"
        }
      ],
      "stateMutability": "view",
      "type": "function"
    },
    {
      "inputs": [],
      "name": "honeyAddress",
      "outputs": [
        {
          "internalType": "address",
          "name": "",
          "type": "address"
        }
      ],
      "stateMutability": "view",
      "type": "function"
    },
    {
      "inputs": [
        {
          "internalType": "address",
          "name": "spender",
          "type": "address"
        },
        {
          "internalType": "uint256",
          "name": "addedValue",
          "type": "uint256"
        }
      ],
      "name": "increaseAllowance",
      "outputs": [
        {
          "internalType": "bool",
          "name": "",
          "type": "bool"
        }
      ],
      "stateMutability": "nonpayable",
      "type": "function"
    },
    {
      "inputs": [],
      "name": "lastFloorDecrease",
      "outputs": [
        {
          "internalType": "uint256",
          "name": "",
          "type": "uint256"
        }
      ],
      "stateMutability": "view",
      "type": "function"
    },
    {
      "inputs": [],
      "name": "lastFloorRaise",
      "outputs": [
        {
          "internalType": "uint256",
          "name": "",
          "type": "uint256"
        }
      ],
      "stateMutability": "view",
      "type": "function"
    },
    {
      "inputs": [],
      "name": "marketPrice",
      "outputs": [
        {
          "internalType": "uint256",
          "name": "",
          "type": "uint256"
        }
      ],
      "stateMutability": "view",
      "type": "function"
    },
    {
      "inputs": [],
      "name": "name",
      "outputs": [
        {
          "internalType": "string",
          "name": "",
          "type": "string"
        }
      ],
      "stateMutability": "view",
      "type": "function"
    },
    {
      "inputs": [],
      "name": "porridgeAddress",
      "outputs": [
        {
          "internalType": "address",
          "name": "",
          "type": "address"
        }
      ],
      "stateMutability": "view",
      "type": "function"
    },
    {
      "inputs": [
        {
          "internalType": "address",
          "name": "_to",
          "type": "address"
        },
        {
          "internalType": "uint256",
          "name": "_amount",
          "type": "uint256"
        }
      ],
      "name": "porridgeMint",
      "outputs": [],
      "stateMutability": "nonpayable",
      "type": "function"
    },
    {
      "inputs": [],
      "name": "psl",
      "outputs": [
        {
          "internalType": "uint256",
          "name": "",
          "type": "uint256"
        }
      ],
      "stateMutability": "view",
      "type": "function"
    },
    {
      "inputs": [
        {
          "internalType": "uint256",
          "name": "amount",
          "type": "uint256"
        }
      ],
      "name": "redeem",
      "outputs": [],
      "stateMutability": "nonpayable",
      "type": "function"
    },
    {
      "inputs": [
        {
          "internalType": "uint256",
          "name": "amount",
          "type": "uint256"
        },
        {
          "internalType": "uint256",
          "name": "minAmount",
          "type": "uint256"
        }
      ],
      "name": "sell",
      "outputs": [],
      "stateMutability": "nonpayable",
      "type": "function"
    },
    {
      "inputs": [
        {
          "internalType": "address",
          "name": "_borrowAddress",
          "type": "address"
        }
      ],
      "name": "setBorrowAddress",
      "outputs": [],
      "stateMutability": "nonpayable",
      "type": "function"
    },
    {
      "inputs": [
        {
          "internalType": "address",
          "name": "_porridgeAddress",
          "type": "address"
        }
      ],
      "name": "setPorridgeAddress",
      "outputs": [],
      "stateMutability": "nonpayable",
      "type": "function"
    },
    {
      "inputs": [],
      "name": "supply",
      "outputs": [
        {
          "internalType": "uint256",
          "name": "",
          "type": "uint256"
        }
      ],
      "stateMutability": "view",
      "type": "function"
    },
    {
      "inputs": [],
      "name": "symbol",
      "outputs": [
        {
          "internalType": "string",
          "name": "",
          "type": "string"
        }
      ],
      "stateMutability": "view",
      "type": "function"
    },
    {
      "inputs": [],
      "name": "targetRatio",
      "outputs": [
        {
          "internalType": "uint256",
          "name": "",
          "type": "uint256"
        }
      ],
      "stateMutability": "view",
      "type": "function"
    },
    {
      "inputs": [],
      "name": "totalSupply",
      "outputs": [
        {
          "internalType": "uint256",
          "name": "",
          "type": "uint256"
        }
      ],
      "stateMutability": "view",
      "type": "function"
    },
    {
      "inputs": [
        {
          "internalType": "address",
          "name": "to",
          "type": "address"
        },
        {
          "internalType": "uint256",
          "name": "amount",
          "type": "uint256"
        }
      ],
      "name": "transfer",
      "outputs": [
        {
          "internalType": "bool",
          "name": "",
          "type": "bool"
        }
      ],
      "stateMutability": "nonpayable",
      "type": "function"
    },
    {
      "inputs": [
        {
          "internalType": "address",
          "name": "from",
          "type": "address"
        },
        {
          "internalType": "address",
          "name": "to",
          "type": "address"
        },
        {
          "internalType": "uint256",
          "name": "amount",
          "type": "uint256"
        }
      ],
      "name": "transferFrom",
      "outputs": [
        {
          "internalType": "bool",
          "name": "",
          "type": "bool"
        }
      ],
      "stateMutability": "nonpayable",
      "type": "function"
    }
  ],
  "bytecode": {
    "object": "0x60a06040526a01287626ee52197b0000006005556954b40b1f852bda00000060065569010f0cf064dd592000006007556704fefa17b7240000600855620151806080523480156200004f57600080fd5b5060405162001a4038038062001a4083398101604081905262000072916200012e565b6040518060400160405280600b81526020016a2637b1b5b9902a37b5b2b760a91b815250604051806040016040528060058152602001644c4f434b5360d81b8152508160039081620000c591906200020b565b506004620000d482826200020b565b5050600d80546001600160a01b039485166001600160a01b031991821617909155600e8054939094169216919091179091555042600955620002d7565b80516001600160a01b03811681146200012957600080fd5b919050565b600080604083850312156200014257600080fd5b6200014d8362000111565b91506200015d6020840162000111565b90509250929050565b634e487b7160e01b600052604160045260246000fd5b600181811c908216806200019157607f821691505b602082108103620001b257634e487b7160e01b600052602260045260246000fd5b50919050565b601f8211156200020657600081815260208120601f850160051c81016020861015620001e15750805b601f850160051c820191505b818110156200020257828155600101620001ed565b5050505b505050565b81516001600160401b0381111562000227576200022762000166565b6200023f816200023884546200017c565b84620001b8565b602080601f8311600181146200027757600084156200025e5750858301515b600019600386901b1c1916600185901b17855562000202565b600085815260208120601f198616915b82811015620002a85788860151825594840194600190910190840162000287565b5085821015620002c75787850151600019600388901b60f8161c191681555b5050505050600190811b01905550565b6080516117386200030860003960008181610332015281816111c7015281816111f2015261122101526117386000f3fe608060405234801561001057600080fd5b50600436106101e55760003560e01c80638c2c622c1161010f578063d2b478ed116100a2578063dd62ed3e11610071578063dd62ed3e146103e8578063ea194de0146103fb578063f2934a971461040e578063fc6f94681461042157600080fd5b8063d2b478ed146103a6578063d6febde8146103af578063d79875eb146103c2578063db006a75146103d557600080fd5b8063a457c2d7116100de578063a457c2d714610364578063a9059cbb14610377578063b3d8d0791461038a578063d054a16f1461039d57600080fd5b80638c2c622c1461031a578063903d78fb1461032d5780639363c8121461035457806395d89b411461035c57600080fd5b806323b872dd116101875780635a08bd17116101565780635a08bd17146102b457806370a08231146102bd57806371b1803a146102e6578063804688121461031157600080fd5b806323b872dd14610277578063313ce5671461028a578063395093511461029957806345a15388146102ac57600080fd5b80630ee17d79116101c35780630ee17d791461023e57806318160ddd146102535780631db77a4d1461025b5780631f62eec41461026457600080fd5b8063047fc9aa146101ea57806306fdde0314610206578063095ea7b31461021b575b600080fd5b6101f360075481565b6040519081526020015b60405180910390f35b61020e610434565b6040516101fd91906114c7565b61022e610229366004611531565b6104c6565b60405190151581526020016101fd565b61025161024c36600461155b565b6104e0565b005b6002546101f3565b6101f360055481565b610251610272366004611531565b61052d565b61022e610285366004611576565b610566565b604051601281526020016101fd565b61022e6102a7366004611531565b61058a565b6101f36105ac565b6101f360085481565b6101f36102cb36600461155b565b6001600160a01b031660009081526020819052604090205490565b600c546102f9906001600160a01b031681565b6040516001600160a01b0390911681526020016101fd565b6101f360065481565b61025161032836600461155b565b6105c4565b6101f37f000000000000000000000000000000000000000000000000000000000000000081565b6101f3610611565b61020e610621565b61022e610372366004611531565b610630565b61022e610385366004611531565b6106b0565b600d546102f9906001600160a01b031681565b6101f3600a5481565b6101f360095481565b6102516103bd3660046115b2565b6106be565b6102516103d03660046115b2565b6107b3565b6102516103e33660046115d4565b610897565b6101f36103f63660046115ed565b610945565b610251610409366004611620565b610970565b600b546102f9906001600160a01b031681565b600e546102f9906001600160a01b031681565b60606003805461044390611653565b80601f016020809104026020016040519081016040528092919081815260200182805461046f90611653565b80156104bc5780601f10610491576101008083540402835291602001916104bc565b820191906000526020600020905b81548152906001019060200180831161049f57829003601f168201915b5050505050905090565b6000336104d48185856109d8565b60019150505b92915050565b600e546001600160a01b0316331461050b57604051637bfa4b9f60e01b815260040160405180910390fd5b600c80546001600160a01b0319166001600160a01b0392909216919091179055565b600b546001600160a01b0316331461055857604051630da7dbfb60e01b815260040160405180910390fd5b6105628282610afc565b5050565b600033610574858285610bbb565b61057f858585610c35565b506001949350505050565b6000336104d481858561059d8383610945565b6105a791906116a3565b6109d8565b60006105bf600554600654600754610dd9565b905090565b600e546001600160a01b031633146105ef57604051637bfa4b9f60e01b815260040160405180910390fd5b600b80546001600160a01b0319166001600160a01b0392909216919091179055565b60006105bf600554600754610e21565b60606004805461044390611653565b6000338161063e8286610945565b9050838110156106a35760405162461bcd60e51b815260206004820152602560248201527f45524332303a2064656372656173656420616c6c6f77616e63652062656c6f77604482015264207a65726f60d81b60648201526084015b60405180910390fd5b61057f82868684036109d8565b6000336104d4818585610c35565b60075460055460065460008080806106d88587898c610e34565b935093509350935060006103e8826106f091906116b6565b6106fb9060036116d8565b905061070781856116a3565b600555600685905560078390558861071f82846116a3565b111561073e576040516397c7f53760e01b815260040160405180910390fd5b610746610fad565b600d54610767906001600160a01b0316333061076285876116a3565b611044565b610771338b610afc565b6040518a815233907fe3d4187f6ca4248660cc0ac8b8056515bac4a8132be2eca31d6d0cc170722a7e906020015b60405180910390a250505050505050505050565b60075460055460065460008080806107cd8587898c611092565b935093509350935060006103e8826107e591906116b6565b6107f09060356116d8565b90506107fc81856116a3565b600555600685905560078390558861081482846116ef565b1015610833576040516397c7f53760e01b815260040160405180910390fd5b61083b6111a1565b610845338b611275565b600d54610865906001600160a01b03163361086084866116ef565b6113a7565b6040518a815233907fc6851889326b4ff916523ef06f539b4cf0b81d78fc6e0f97c30e6223d18319909060200161079f565b60006108b0826108ab600554600754610e21565b6113f0565b905081600760008282546108c491906116ef565b9250508190555080600560008282546108dd91906116ef565b909155506108eb9050610fad565b6108f53383611275565b600d5461090c906001600160a01b031633836113a7565b60405182815233907f222838db2794d11532d940e8dec38ae307ed0b63cd97c233322e221f998767a69060200160405180910390a25050565b6001600160a01b03918216600090815260016020908152604080832093909416825291909152205490565b600c546001600160a01b0316331461099b57604051635a2d193d60e01b815260040160405180910390fd5b600d546109b6906001600160a01b03168461086084866116ef565b600d54600e546109d3916001600160a01b039081169116836113a7565b505050565b6001600160a01b038316610a3a5760405162461bcd60e51b8152602060048201526024808201527f45524332303a20617070726f76652066726f6d20746865207a65726f206164646044820152637265737360e01b606482015260840161069a565b6001600160a01b038216610a9b5760405162461bcd60e51b815260206004820152602260248201527f45524332303a20617070726f766520746f20746865207a65726f206164647265604482015261737360f01b606482015260840161069a565b6001600160a01b0383811660008181526001602090815260408083209487168084529482529182902085905590518481527f8c5be1e5ebec7d5bd14f71427d1e84f3dd0314c0f7b2291e5b200ac8c7c3b925910160405180910390a3505050565b6001600160a01b038216610b525760405162461bcd60e51b815260206004820152601f60248201527f45524332303a206d696e7420746f20746865207a65726f206164647265737300604482015260640161069a565b8060026000828254610b6491906116a3565b90915550506001600160a01b038216600081815260208181526040808320805486019055518481527fddf252ad1be2c89b69c2b068fc378daa952ba7f163c4a11628f55a4df523b3ef910160405180910390a35050565b6000610bc78484610945565b90506000198114610c2f5781811015610c225760405162461bcd60e51b815260206004820152601d60248201527f45524332303a20696e73756666696369656e7420616c6c6f77616e6365000000604482015260640161069a565b610c2f84848484036109d8565b50505050565b6001600160a01b038316610c995760405162461bcd60e51b815260206004820152602560248201527f45524332303a207472616e736665722066726f6d20746865207a65726f206164604482015264647265737360d81b606482015260840161069a565b6001600160a01b038216610cfb5760405162461bcd60e51b815260206004820152602360248201527f45524332303a207472616e7366657220746f20746865207a65726f206164647260448201526265737360e81b606482015260840161069a565b6001600160a01b03831660009081526020819052604090205481811015610d735760405162461bcd60e51b815260206004820152602660248201527f45524332303a207472616e7366657220616d6f756e7420657863656564732062604482015265616c616e636560d01b606482015260840161069a565b6001600160a01b03848116600081815260208181526040808320878703905593871680835291849020805487019055925185815290927fddf252ad1be2c89b69c2b068fc378daa952ba7f163c4a11628f55a4df523b3ef910160405180910390a3610c2f565b6000610e05610de8848461141e565b6108ab610dfe610df888886116a3565b8861141e565b600561146d565b610e0f858461141e565b610e1991906116a3565b949350505050565b6000610e2d838361141e565b9392505050565b60008060008060008060005b670de0b6b3a76400008810610ef057610e5a8a8c8b610dd9565b9250610e668a8a610e21565b9150610e7283826116a3565b9050610e86670de0b6b3a76400008a6116a3565b9850610e938a60326116d8565b610e9e8c60646116d8565b10610eb457610ead838b6116a3565b9950610ed7565b610ebe82846116ef565b610ec8908c6116a3565b9a50610ed4828b6116a3565b99505b610ee9670de0b6b3a7640000896116ef565b9750610e40565b8715610f9d57610f018a8c8b610dd9565b9250610f0d8a8a610e21565b9150610f1983896113f0565b610f2390826116a3565b9050610f2f888a6116a3565b9850610f3c8a60326116d8565b610f478c60646116d8565b10610f6757610f5683896113f0565b610f60908b6116a3565b9950610f9d565b610f7a610f7483856116ef565b896113f0565b610f84908c6116a3565b9a50610f9082896113f0565b610f9a908b6116a3565b99505b999a989997989650505050505050565b600854610fbe60065460055461141e565b10611042576000610fe5610fd660065460055461141e565b60206006546108ab91906116b6565b90508060066000828254610ff991906116ef565b92505081905550806005600082825461101291906116a3565b9091555050600854611026906032906116b6565b6008600082825461103791906116a3565b909155505042600955505b565b6040516323b872dd600052836020528260405281606052602060006064601c6000895af13d15600160005114171661108457637939f4246000526004601cfd5b600060605260405250505050565b60008060008060008060005b670de0b6b3a76400008810611121576110b88a8c8b610dd9565b92506110c48a8a610e21565b91506110d083826116a3565b90506110dc82846116ef565b6110e6908c6116ef565b9a506110f2828b6116ef565b9950611106670de0b6b3a76400008a6116ef565b985061111a670de0b6b3a7640000896116ef565b975061109e565b8715610f9d576111328a8c8b610dd9565b925061113e8a8a610e21565b915061114a83896113f0565b61115490826116a3565b9050611163610f7483856116ef565b61116d908c6116ef565b9a5061117982896113f0565b611183908b6116ef565b995061118f888a6116ef565b9a9b999a999098509650505050505050565b6000600954426111b191906116ef565b90506000600a54426111c391906116ef565b90507f0000000000000000000000000000000000000000000000000000000000000000821015801561121557507f00000000000000000000000000000000000000000000000000000000000000008110155b156105625760006112467f0000000000000000000000000000000000000000000000000000000000000000846116b6565b90508060085461125691906116d8565b6008600082825461126791906116ef565b909155505042600a55505050565b6001600160a01b0382166112d55760405162461bcd60e51b815260206004820152602160248201527f45524332303a206275726e2066726f6d20746865207a65726f206164647265736044820152607360f81b606482015260840161069a565b6001600160a01b038216600090815260208190526040902054818110156113495760405162461bcd60e51b815260206004820152602260248201527f45524332303a206275726e20616d6f756e7420657863656564732062616c616e604482015261636560f01b606482015260840161069a565b6001600160a01b0383166000818152602081815260408083208686039055600280548790039055518581529192917fddf252ad1be2c89b69c2b068fc378daa952ba7f163c4a11628f55a4df523b3ef910160405180910390a3505050565b81601a5280603a5269a9059cbb00000000000060005260206000604460166000875af13d1560016000511417166113e6576390b8ec186000526004601cfd5b6000603a52505050565b60008160001904831182021561140e5763bac65e5b6000526004601cfd5b50670de0b6b3a764000091020490565b60007812725dd1d243aba0e75fe645cc4873f9e65afe688c928e1f218311670de0b6b3a76400000215820261145b57637c5f487d6000526004601cfd5b50670de0b6b3a7640000919091020490565b600080826001161161148757670de0b6b3a7640000611489565b825b9050600182901c91505b81156104da576114a383846113f0565b925060018216156114bb576114b881846113f0565b90505b600182901c9150611493565b600060208083528351808285015260005b818110156114f4578581018301518582016040015282016114d8565b506000604082860101526040601f19601f8301168501019250505092915050565b80356001600160a01b038116811461152c57600080fd5b919050565b6000806040838503121561154457600080fd5b61154d83611515565b946020939093013593505050565b60006020828403121561156d57600080fd5b610e2d82611515565b60008060006060848603121561158b57600080fd5b61159484611515565b92506115a260208501611515565b9150604084013590509250925092565b600080604083850312156115c557600080fd5b50508035926020909101359150565b6000602082840312156115e657600080fd5b5035919050565b6000806040838503121561160057600080fd5b61160983611515565b915061161760208401611515565b90509250929050565b60008060006060848603121561163557600080fd5b61163e84611515565b95602085013595506040909401359392505050565b600181811c9082168061166757607f821691505b60208210810361168757634e487b7160e01b600052602260045260246000fd5b50919050565b634e487b7160e01b600052601160045260246000fd5b808201808211156104da576104da61168d565b6000826116d357634e487b7160e01b600052601260045260246000fd5b500490565b80820281158282048414176104da576104da61168d565b818103818111156104da576104da61168d56fea2646970667358221220c4f629f5ad57d0fbf9b8398555c528f4c4db1535af9fbeb57ba2076233150cb564736f6c63430008130033",
    "linkReferences": {}
  },
  "methodIdentifiers": {
    "DAYS_SECONDS()": "903d78fb",
    "adminAddress()": "fc6f9468",
    "allowance(address,address)": "dd62ed3e",
    "approve(address,uint256)": "095ea7b3",
    "balanceOf(address)": "70a08231",
    "borrowAddress()": "71b1803a",
    "borrowTransfer(address,uint256,uint256)": "ea194de0",
    "buy(uint256,uint256)": "d6febde8",
    "decimals()": "313ce567",
    "decreaseAllowance(address,uint256)": "a457c2d7",
    "floorPrice()": "9363c812",
    "fsl()": "1db77a4d",
    "honeyAddress()": "b3d8d079",
    "increaseAllowance(address,uint256)": "39509351",
    "lastFloorDecrease()": "d054a16f",
    "lastFloorRaise()": "d2b478ed",
    "marketPrice()": "45a15388",
    "name()": "06fdde03",
    "porridgeAddress()": "f2934a97",
    "porridgeMint(address,uint256)": "1f62eec4",
    "psl()": "80468812",
    "redeem(uint256)": "db006a75",
    "sell(uint256,uint256)": "d79875eb",
    "setBorrowAddress(address)": "0ee17d79",
    "setPorridgeAddress(address)": "8c2c622c",
    "supply()": "047fc9aa",
    "symbol()": "95d89b41",
    "targetRatio()": "5a08bd17",
    "totalSupply()": "18160ddd",
    "transfer(address,uint256)": "a9059cbb",
    "transferFrom(address,address,uint256)": "23b872dd"
  },
  "id": 15
}