{
  "abi": [
    {
      "inputs": [
        {
          "internalType": "uint256",
          "name": "_startingPoolSize",
          "type": "uint256"
        },
        {
          "internalType": "uint256",
          "name": "_protocolInterestRate",
          "type": "uint256"
        },
        {
          "internalType": "uint256",
          "name": "_porridgeMultiple",
          "type": "uint256"
        },
        {
          "internalType": "address",
          "name": "_porridgeAddress",
          "type": "address"
        },
        {
          "internalType": "address",
          "name": "_adminAddress",
          "type": "address"
        },
        {
          "internalType": "address",
          "name": "_beraAddress",
          "type": "address"
        },
        {
          "internalType": "address",
          "name": "_vaultAddress",
          "type": "address"
        },
        {
          "internalType": "address[]",
          "name": "_partnerNFTs",
          "type": "address[]"
        },
        {
          "internalType": "uint8[]",
          "name": "_partnerNFTBoosts",
          "type": "uint8[]"
        }
      ],
      "stateMutability": "nonpayable",
      "type": "constructor"
    },
    {
      "inputs": [],
      "name": "ArrayMismatch",
      "type": "error"
    },
    {
      "inputs": [],
      "name": "BoostNotExpired",
      "type": "error"
    },
    {
      "inputs": [],
      "name": "BorrowLimitExceeded",
      "type": "error"
    },
    {
      "inputs": [],
      "name": "ExcessiveRepay",
      "type": "error"
    },
    {
      "inputs": [],
      "name": "InvalidBoost",
      "type": "error"
    },
    {
      "inputs": [],
      "name": "InvalidBoostNFT",
      "type": "error"
    },
    {
      "inputs": [],
      "name": "InvalidCollateral",
      "type": "error"
    },
    {
      "inputs": [],
      "name": "InvalidLoanAmount",
      "type": "error"
    },
    {
      "inputs": [],
      "name": "InvalidLoanDuration",
      "type": "error"
    },
    {
      "inputs": [],
      "name": "InvalidUnstake",
      "type": "error"
    },
    {
      "inputs": [],
      "name": "LoanExpired",
      "type": "error"
    },
    {
      "inputs": [],
      "name": "LoanNotFound",
      "type": "error"
    },
    {
      "inputs": [],
      "name": "NotAdmin",
      "type": "error"
    },
    {
      "inputs": [],
      "name": "ShortExpiration",
      "type": "error"
    },
    {
      "inputs": [],
      "name": "Unliquidatable",
      "type": "error"
    },
    {
      "anonymous": false,
      "inputs": [
        {
          "indexed": true,
          "internalType": "address",
          "name": "owner",
          "type": "address"
        },
        {
          "indexed": true,
          "internalType": "address",
          "name": "spender",
          "type": "address"
        },
        {
          "indexed": false,
          "internalType": "uint256",
          "name": "value",
          "type": "uint256"
        }
      ],
      "name": "Approval",
      "type": "event"
    },
    {
      "anonymous": false,
      "inputs": [
        {
          "indexed": true,
          "internalType": "address",
          "name": "user",
          "type": "address"
        },
        {
          "indexed": false,
          "internalType": "uint256",
          "name": "amount",
          "type": "uint256"
        }
      ],
      "name": "BeraLock",
      "type": "event"
    },
    {
      "anonymous": false,
      "inputs": [
        {
          "indexed": true,
          "internalType": "address",
          "name": "user",
          "type": "address"
        },
        {
          "indexed": false,
          "internalType": "uint256",
          "name": "amount",
          "type": "uint256"
        }
      ],
      "name": "Borrow",
      "type": "event"
    },
    {
      "anonymous": false,
      "inputs": [
        {
          "indexed": true,
          "internalType": "address",
          "name": "borrower",
          "type": "address"
        },
        {
          "indexed": true,
          "internalType": "address",
          "name": "liquidator",
          "type": "address"
        },
        {
          "indexed": false,
          "internalType": "uint256",
          "name": "amount",
          "type": "uint256"
        }
      ],
      "name": "Liquidation",
      "type": "event"
    },
    {
      "anonymous": false,
      "inputs": [
        {
          "indexed": true,
          "internalType": "address",
          "name": "user",
          "type": "address"
        },
        {
          "indexed": false,
          "internalType": "uint256",
          "name": "amount",
          "type": "uint256"
        }
      ],
      "name": "Repay",
      "type": "event"
    },
    {
      "anonymous": false,
      "inputs": [
        {
          "indexed": true,
          "internalType": "address",
          "name": "from",
          "type": "address"
        },
        {
          "indexed": true,
          "internalType": "address",
          "name": "to",
          "type": "address"
        },
        {
          "indexed": false,
          "internalType": "uint256",
          "name": "value",
          "type": "uint256"
        }
      ],
      "name": "Transfer",
      "type": "event"
    },
    {
      "anonymous": false,
      "inputs": [
        {
          "indexed": true,
          "internalType": "address",
          "name": "user",
          "type": "address"
        },
        {
          "indexed": false,
          "internalType": "uint256",
          "name": "amount",
          "type": "uint256"
        }
      ],
      "name": "gBeraStake",
      "type": "event"
    },
    {
      "inputs": [],
      "name": "DAYS_SECONDS",
      "outputs": [
        {
          "internalType": "uint32",
          "name": "",
          "type": "uint32"
        }
      ],
      "stateMutability": "view",
      "type": "function"
    },
    {
      "inputs": [],
      "name": "FORTNITE",
      "outputs": [
        {
          "internalType": "uint32",
          "name": "",
          "type": "uint32"
        }
      ],
      "stateMutability": "view",
      "type": "function"
    },
    {
      "inputs": [],
      "name": "MONTH_DAYS",
      "outputs": [
        {
          "internalType": "uint32",
          "name": "",
          "type": "uint32"
        }
      ],
      "stateMutability": "view",
      "type": "function"
    },
    {
      "inputs": [],
      "name": "ONE_YEAR",
      "outputs": [
        {
          "internalType": "uint32",
          "name": "",
          "type": "uint32"
        }
      ],
      "stateMutability": "view",
      "type": "function"
    },
    {
      "inputs": [],
      "name": "SIX_MONTHS",
      "outputs": [
        {
          "internalType": "uint32",
          "name": "",
          "type": "uint32"
        }
      ],
      "stateMutability": "view",
      "type": "function"
    },
    {
      "inputs": [],
      "name": "adminAddress",
      "outputs": [
        {
          "internalType": "address",
          "name": "",
          "type": "address"
        }
      ],
      "stateMutability": "view",
      "type": "function"
    },
    {
      "inputs": [
        {
          "internalType": "address",
          "name": "owner",
          "type": "address"
        },
        {
          "internalType": "address",
          "name": "spender",
          "type": "address"
        }
      ],
      "name": "allowance",
      "outputs": [
        {
          "internalType": "uint256",
          "name": "",
          "type": "uint256"
        }
      ],
      "stateMutability": "view",
      "type": "function"
    },
    {
      "inputs": [
        {
          "internalType": "address",
          "name": "spender",
          "type": "address"
        },
        {
          "internalType": "uint256",
          "name": "amount",
          "type": "uint256"
        }
      ],
      "name": "approve",
      "outputs": [
        {
          "internalType": "bool",
          "name": "",
          "type": "bool"
        }
      ],
      "stateMutability": "nonpayable",
      "type": "function"
    },
    {
      "inputs": [
        {
          "internalType": "address",
          "name": "account",
          "type": "address"
        }
      ],
      "name": "balanceOf",
      "outputs": [
        {
          "internalType": "uint256",
          "name": "",
          "type": "uint256"
        }
      ],
      "stateMutability": "view",
      "type": "function"
    },
    {
      "inputs": [],
      "name": "beraAddress",
      "outputs": [
        {
          "internalType": "address",
          "name": "",
          "type": "address"
        }
      ],
      "stateMutability": "view",
      "type": "function"
    },
    {
      "inputs": [
        {
          "internalType": "address",
          "name": "partnerNFT",
          "type": "address"
        },
        {
          "internalType": "uint256",
          "name": "partnerNFTId",
          "type": "uint256"
        },
        {
          "internalType": "uint256",
          "name": "expiry",
          "type": "uint256"
        }
      ],
      "name": "boost",
      "outputs": [],
      "stateMutability": "nonpayable",
      "type": "function"
    },
    {
      "inputs": [
        {
          "internalType": "address[]",
          "name": "partnerNFTs",
          "type": "address[]"
        },
        {
          "internalType": "uint256[]",
          "name": "partnerNFTIds",
          "type": "uint256[]"
        },
        {
          "internalType": "uint256",
          "name": "expiry",
          "type": "uint256"
        }
      ],
      "name": "boost",
      "outputs": [],
      "stateMutability": "nonpayable",
      "type": "function"
    },
    {
      "inputs": [
        {
          "internalType": "address",
          "name": "",
          "type": "address"
        }
      ],
      "name": "boosts",
      "outputs": [
        {
          "internalType": "uint256",
          "name": "expiry",
          "type": "uint256"
        },
        {
          "internalType": "uint256",
          "name": "boostMagnitude",
          "type": "uint256"
        }
      ],
      "stateMutability": "view",
      "type": "function"
    },
    {
      "inputs": [
        {
          "internalType": "uint256",
          "name": "borrowAmount",
          "type": "uint256"
        },
        {
          "internalType": "uint256",
          "name": "duration",
          "type": "uint256"
        },
        {
          "internalType": "address[]",
          "name": "collateralNFTs",
          "type": "address[]"
        },
        {
          "internalType": "uint256[]",
          "name": "collateralNFTIds",
          "type": "uint256[]"
        }
      ],
      "name": "borrow",
      "outputs": [],
      "stateMutability": "nonpayable",
      "type": "function"
    },
    {
      "inputs": [
        {
          "internalType": "uint256",
          "name": "borrowAmount",
          "type": "uint256"
        },
        {
          "internalType": "uint256",
          "name": "duration",
          "type": "uint256"
        },
        {
          "internalType": "address",
          "name": "collateralNFT",
          "type": "address"
        },
        {
          "internalType": "uint256",
          "name": "collateralNFTId",
          "type": "uint256"
        }
      ],
      "name": "borrow",
      "outputs": [],
      "stateMutability": "nonpayable",
      "type": "function"
    },
    {
      "inputs": [],
      "name": "claim",
      "outputs": [],
      "stateMutability": "nonpayable",
      "type": "function"
    },
    {
      "inputs": [],
      "name": "decimals",
      "outputs": [
        {
          "internalType": "uint8",
          "name": "",
          "type": "uint8"
        }
      ],
      "stateMutability": "view",
      "type": "function"
    },
    {
      "inputs": [
        {
          "internalType": "address",
          "name": "spender",
          "type": "address"
        },
        {
          "internalType": "uint256",
          "name": "subtractedValue",
          "type": "uint256"
        }
      ],
      "name": "decreaseAllowance",
      "outputs": [
        {
          "internalType": "bool",
          "name": "",
          "type": "bool"
        }
      ],
      "stateMutability": "nonpayable",
      "type": "function"
    },
    {
      "inputs": [],
      "name": "emergencyWithdraw",
      "outputs": [],
      "stateMutability": "nonpayable",
      "type": "function"
    },
    {
      "inputs": [],
      "name": "emissionsStart",
      "outputs": [
        {
          "internalType": "uint256",
          "name": "",
          "type": "uint256"
        }
      ],
      "stateMutability": "view",
      "type": "function"
    },
    {
      "inputs": [
        {
          "internalType": "uint256",
          "name": "newExpiry",
          "type": "uint256"
        }
      ],
      "name": "extendBoost",
      "outputs": [],
      "stateMutability": "nonpayable",
      "type": "function"
    },
    {
      "inputs": [
        {
          "internalType": "address",
          "name": "user",
          "type": "address"
        }
      ],
      "name": "getClaimable",
      "outputs": [
        {
          "internalType": "uint256",
          "name": "",
          "type": "uint256"
        }
      ],
      "stateMutability": "view",
      "type": "function"
    },
    {
      "inputs": [
        {
          "internalType": "address[]",
          "name": "collateralNFTs",
          "type": "address[]"
        }
      ],
      "name": "getFairValues",
      "outputs": [
        {
          "internalType": "uint256",
          "name": "",
          "type": "uint256"
        }
      ],
      "stateMutability": "view",
      "type": "function"
    },
    {
      "inputs": [],
      "name": "getgBERARatio",
      "outputs": [
        {
          "internalType": "uint256",
          "name": "",
          "type": "uint256"
        }
      ],
      "stateMutability": "view",
      "type": "function"
    },
    {
      "inputs": [
        {
          "internalType": "address",
          "name": "spender",
          "type": "address"
        },
        {
          "internalType": "uint256",
          "name": "addedValue",
          "type": "uint256"
        }
      ],
      "name": "increaseAllowance",
      "outputs": [
        {
          "internalType": "bool",
          "name": "",
          "type": "bool"
        }
      ],
      "stateMutability": "nonpayable",
      "type": "function"
    },
    {
      "inputs": [
        {
          "internalType": "address",
          "name": "user",
          "type": "address"
        },
        {
          "internalType": "uint256",
          "name": "userLoanId",
          "type": "uint256"
        }
      ],
      "name": "liquidate",
      "outputs": [],
      "stateMutability": "nonpayable",
      "type": "function"
    },
    {
      "inputs": [
        {
          "internalType": "address",
          "name": "",
          "type": "address"
        },
        {
          "internalType": "uint256",
          "name": "",
          "type": "uint256"
        }
      ],
      "name": "loans",
      "outputs": [
        {
          "internalType": "uint256",
          "name": "borrowedAmount",
          "type": "uint256"
        },
        {
          "internalType": "uint256",
          "name": "interest",
          "type": "uint256"
        },
        {
          "internalType": "uint256",
          "name": "duration",
          "type": "uint256"
        },
        {
          "internalType": "uint256",
          "name": "endDate",
          "type": "uint256"
        },
        {
          "internalType": "uint256",
          "name": "loanId",
          "type": "uint256"
        },
        {
          "internalType": "bool",
          "name": "liquidated",
          "type": "bool"
        }
      ],
      "stateMutability": "view",
      "type": "function"
    },
    {
      "inputs": [
        {
          "internalType": "uint256",
          "name": "lockAmount",
          "type": "uint256"
        }
      ],
      "name": "lock",
      "outputs": [],
      "stateMutability": "nonpayable",
      "type": "function"
    },
    {
      "inputs": [
        {
          "internalType": "address",
          "name": "user",
          "type": "address"
        }
      ],
      "name": "lookupBoost",
      "outputs": [
        {
          "components": [
            {
              "internalType": "address[]",
              "name": "partnerNFTs",
              "type": "address[]"
            },
            {
              "internalType": "uint256[]",
              "name": "partnerNFTIds",
              "type": "uint256[]"
            },
            {
              "internalType": "uint256",
              "name": "expiry",
              "type": "uint256"
            },
            {
              "internalType": "uint256",
              "name": "boostMagnitude",
              "type": "uint256"
            }
          ],
          "internalType": "struct Goldilend.Boost",
          "name": "userBoost",
          "type": "tuple"
        }
      ],
      "stateMutability": "view",
      "type": "function"
    },
    {
      "inputs": [
        {
          "internalType": "address",
          "name": "user",
          "type": "address"
        },
        {
          "internalType": "uint256",
          "name": "userLoanId",
          "type": "uint256"
        }
      ],
      "name": "lookupLoan",
      "outputs": [
        {
          "components": [
            {
              "internalType": "address[]",
              "name": "collateralNFTs",
              "type": "address[]"
            },
            {
              "internalType": "uint256[]",
              "name": "collateralNFTIds",
              "type": "uint256[]"
            },
            {
              "internalType": "uint256",
              "name": "borrowedAmount",
              "type": "uint256"
            },
            {
              "internalType": "uint256",
              "name": "interest",
              "type": "uint256"
            },
            {
              "internalType": "uint256",
              "name": "duration",
              "type": "uint256"
            },
            {
              "internalType": "uint256",
              "name": "endDate",
              "type": "uint256"
            },
            {
              "internalType": "uint256",
              "name": "loanId",
              "type": "uint256"
            },
            {
              "internalType": "bool",
              "name": "liquidated",
              "type": "bool"
            }
          ],
          "internalType": "struct Goldilend.Loan",
          "name": "loan",
          "type": "tuple"
        }
      ],
      "stateMutability": "view",
      "type": "function"
    },
    {
      "inputs": [
        {
          "internalType": "address",
          "name": "user",
          "type": "address"
        }
      ],
      "name": "lookupLoans",
      "outputs": [
        {
          "components": [
            {
              "internalType": "address[]",
              "name": "collateralNFTs",
              "type": "address[]"
            },
            {
              "internalType": "uint256[]",
              "name": "collateralNFTIds",
              "type": "uint256[]"
            },
            {
              "internalType": "uint256",
              "name": "borrowedAmount",
              "type": "uint256"
            },
            {
              "internalType": "uint256",
              "name": "interest",
              "type": "uint256"
            },
            {
              "internalType": "uint256",
              "name": "duration",
              "type": "uint256"
            },
            {
              "internalType": "uint256",
              "name": "endDate",
              "type": "uint256"
            },
            {
              "internalType": "uint256",
              "name": "loanId",
              "type": "uint256"
            },
            {
              "internalType": "bool",
              "name": "liquidated",
              "type": "bool"
            }
          ],
          "internalType": "struct Goldilend.Loan[]",
          "name": "userLoans",
          "type": "tuple[]"
        }
      ],
      "stateMutability": "view",
      "type": "function"
    },
    {
      "inputs": [],
      "name": "name",
      "outputs": [
        {
          "internalType": "string",
          "name": "",
          "type": "string"
        }
      ],
      "stateMutability": "view",
      "type": "function"
    },
    {
      "inputs": [
        {
          "internalType": "address",
          "name": "",
          "type": "address"
        }
      ],
      "name": "nftFairValues",
      "outputs": [
        {
          "internalType": "uint256",
          "name": "",
          "type": "uint256"
        }
      ],
      "stateMutability": "view",
      "type": "function"
    },
    {
      "inputs": [
        {
          "internalType": "address",
          "name": "",
          "type": "address"
        },
        {
          "internalType": "address",
          "name": "",
          "type": "address"
        },
        {
          "internalType": "uint256",
          "name": "",
          "type": "uint256"
        },
        {
          "internalType": "bytes",
          "name": "",
          "type": "bytes"
        }
      ],
      "name": "onERC721Received",
      "outputs": [
        {
          "internalType": "bytes4",
          "name": "",
          "type": "bytes4"
        }
      ],
      "stateMutability": "nonpayable",
      "type": "function"
    },
    {
      "inputs": [],
      "name": "outstandingDebt",
      "outputs": [
        {
          "internalType": "uint256",
          "name": "",
          "type": "uint256"
        }
      ],
      "stateMutability": "view",
      "type": "function"
    },
    {
      "inputs": [
        {
          "internalType": "address",
          "name": "",
          "type": "address"
        }
      ],
      "name": "partnerNFTBoosts",
      "outputs": [
        {
          "internalType": "uint8",
          "name": "",
          "type": "uint8"
        }
      ],
      "stateMutability": "view",
      "type": "function"
    },
    {
      "inputs": [],
      "name": "poolSize",
      "outputs": [
        {
          "internalType": "uint256",
          "name": "",
          "type": "uint256"
        }
      ],
      "stateMutability": "view",
      "type": "function"
    },
    {
      "inputs": [],
      "name": "porridgeAddress",
      "outputs": [
        {
          "internalType": "address",
          "name": "",
          "type": "address"
        }
      ],
      "stateMutability": "view",
      "type": "function"
    },
    {
      "inputs": [],
      "name": "porridgeMultiple",
      "outputs": [
        {
          "internalType": "uint256",
          "name": "",
          "type": "uint256"
        }
      ],
      "stateMutability": "view",
      "type": "function"
    },
    {
      "inputs": [],
      "name": "protocolInterestRate",
      "outputs": [
        {
          "internalType": "uint256",
          "name": "",
          "type": "uint256"
        }
      ],
      "stateMutability": "view",
      "type": "function"
    },
    {
      "inputs": [
        {
          "internalType": "uint256",
          "name": "repayAmount",
          "type": "uint256"
        },
        {
          "internalType": "uint256",
          "name": "userLoanId",
          "type": "uint256"
        }
      ],
      "name": "repay",
      "outputs": [],
      "stateMutability": "nonpayable",
      "type": "function"
    },
    {
      "inputs": [
        {
          "internalType": "uint256",
          "name": "_protocolInterestRate",
          "type": "uint256"
        }
      ],
      "name": "setProtocolInterestRate",
      "outputs": [],
      "stateMutability": "nonpayable",
      "type": "function"
    },
    {
      "inputs": [
        {
          "internalType": "uint256",
          "name": "_totalValuation",
          "type": "uint256"
        },
        {
          "internalType": "address[]",
          "name": "_nfts",
          "type": "address[]"
        },
        {
          "internalType": "uint256[]",
          "name": "_nftFairValues",
          "type": "uint256[]"
        }
      ],
      "name": "setValue",
      "outputs": [],
      "stateMutability": "nonpayable",
      "type": "function"
    },
    {
      "inputs": [
        {
          "internalType": "uint256",
          "name": "stakeAmount",
          "type": "uint256"
        }
      ],
      "name": "stake",
      "outputs": [],
      "stateMutability": "nonpayable",
      "type": "function"
    },
    {
      "inputs": [
        {
          "internalType": "address",
          "name": "",
          "type": "address"
        }
      ],
      "name": "stakes",
      "outputs": [
        {
          "internalType": "uint256",
          "name": "lastClaim",
          "type": "uint256"
        },
        {
          "internalType": "uint256",
          "name": "stakedBalance",
          "type": "uint256"
        }
      ],
      "stateMutability": "view",
      "type": "function"
    },
    {
      "inputs": [],
      "name": "symbol",
      "outputs": [
        {
          "internalType": "string",
          "name": "",
          "type": "string"
        }
      ],
      "stateMutability": "view",
      "type": "function"
    },
    {
      "inputs": [],
      "name": "totalSupply",
      "outputs": [
        {
          "internalType": "uint256",
          "name": "",
          "type": "uint256"
        }
      ],
      "stateMutability": "view",
      "type": "function"
    },
    {
      "inputs": [],
      "name": "totalValuation",
      "outputs": [
        {
          "internalType": "uint256",
          "name": "",
          "type": "uint256"
        }
      ],
      "stateMutability": "view",
      "type": "function"
    },
    {
      "inputs": [
        {
          "internalType": "address",
          "name": "to",
          "type": "address"
        },
        {
          "internalType": "uint256",
          "name": "amount",
          "type": "uint256"
        }
      ],
      "name": "transfer",
      "outputs": [
        {
          "internalType": "bool",
          "name": "",
          "type": "bool"
        }
      ],
      "stateMutability": "nonpayable",
      "type": "function"
    },
    {
      "inputs": [
        {
          "internalType": "address",
          "name": "from",
          "type": "address"
        },
        {
          "internalType": "address",
          "name": "to",
          "type": "address"
        },
        {
          "internalType": "uint256",
          "name": "amount",
          "type": "uint256"
        }
      ],
      "name": "transferFrom",
      "outputs": [
        {
          "internalType": "bool",
          "name": "",
          "type": "bool"
        }
      ],
      "stateMutability": "nonpayable",
      "type": "function"
    },
    {
      "inputs": [
        {
          "internalType": "uint256",
          "name": "unstakeAmount",
          "type": "uint256"
        }
      ],
      "name": "unstake",
      "outputs": [],
      "stateMutability": "nonpayable",
      "type": "function"
    },
    {
      "inputs": [],
      "name": "vaultAddress",
      "outputs": [
        {
          "internalType": "address",
          "name": "",
          "type": "address"
        }
      ],
      "stateMutability": "view",
      "type": "function"
    },
    {
      "inputs": [],
      "name": "withdrawBoost",
      "outputs": [],
      "stateMutability": "nonpayable",
      "type": "function"
    }
  ],
  "bytecode": {
    "object": "0x60806040523480156200001157600080fd5b5060405162004746380380620047468339810160408190526200003491620002b8565b6040518060400160405280600b81526020016a33a122a920902a37b5b2b760a91b81525060405180604001604052806005815260200164674245524160d81b815250816003908162000087919062000485565b50600462000096828262000485565b505050601289905560108890556013879055600580546001600160a01b038089166001600160a01b0319928316179092556006805488841690831617905560078054878416908316179055600880549286169290911691909117905542600e5560005b82518160ff1610156200019857818160ff16815181106200011e576200011e62000551565b6020026020010151600c6000858460ff168151811062000142576200014262000551565b60200260200101516001600160a01b03166001600160a01b0316815260200190815260200160002060006101000a81548160ff021916908360ff16021790555080806200018f9062000567565b915050620000f9565b5050505050505050505062000595565b80516001600160a01b0381168114620001c057600080fd5b919050565b634e487b7160e01b600052604160045260246000fd5b604051601f8201601f191681016001600160401b0381118282101715620002065762000206620001c5565b604052919050565b60006001600160401b038211156200022a576200022a620001c5565b5060051b60200190565b600082601f8301126200024657600080fd5b815160206200025f62000259836200020e565b620001db565b82815260059290921b840181019181810190868411156200027f57600080fd5b8286015b84811015620002ad57805160ff811681146200029f5760008081fd5b835291830191830162000283565b509695505050505050565b60008060008060008060008060006101208a8c031215620002d857600080fd5b8951985060208a0151975060408a01519650620002f860608b01620001a8565b95506200030860808b01620001a8565b94506200031860a08b01620001a8565b93506200032860c08b01620001a8565b60e08b01519093506001600160401b03808211156200034657600080fd5b818c0191508c601f8301126200035b57600080fd5b81516200036c62000259826200020e565b8082825260208201915060208360051b86010192508f8311156200038f57600080fd5b6020850194505b82851015620003bc57620003aa85620001a8565b82526020948501949091019062000396565b6101008f01519096509350505080821115620003d757600080fd5b50620003e68c828d0162000234565b9150509295985092959850929598565b600181811c908216806200040b57607f821691505b6020821081036200042c57634e487b7160e01b600052602260045260246000fd5b50919050565b601f8211156200048057600081815260208120601f850160051c810160208610156200045b5750805b601f850160051c820191505b818110156200047c5782815560010162000467565b5050505b505050565b81516001600160401b03811115620004a157620004a1620001c5565b620004b981620004b28454620003f6565b8462000432565b602080601f831160018114620004f15760008415620004d85750858301515b600019600386901b1c1916600185901b1785556200047c565b600085815260208120601f198616915b82811015620005225788860151825594840194600190910190840162000501565b5085821015620005415787850151600019600388901b60f8161c191681555b5050505050600190811b01905550565b634e487b7160e01b600052603260045260246000fd5b600060ff821660ff81036200058c57634e487b7160e01b600052601160045260246000fd5b60010192915050565b6141a180620005a56000396000f3fe608060405234801561001057600080fd5b50600436106103265760003560e01c8063822782ac116101b8578063a9059cbb11610104578063dd467064116100a2578063f2934a971161007c578063f2934a9714610752578063fc3b72b114610765578063fc6f94681461076e578063fdabc9861461078157600080fd5b8063dd4670641461070c578063dd62ed3e1461071f578063eac293011461073257600080fd5b8063ba579c74116100de578063ba579c74146106d6578063bcbaf487146106de578063d8aed145146106f1578063db2e21bc1461070457600080fd5b8063a9059cbb146106a8578063b38dadf7146106bb578063ba30f48c146106c357600080fd5b806397dae1fc11610171578063a3637f161161014b578063a3637f161461065c578063a457c2d71461066f578063a583024b14610682578063a694fc3a1461069557600080fd5b806397dae1fc146105f457806398c61c3714610607578063a2114cdb1461064957600080fd5b8063822782ac146105ab57806386f7521d146105b457806387c32202146105c7578063903d78fb146105cf578063955def1c146105d957806395d89b41146105ec57600080fd5b80632e17de78116102775780634ec18db9116102305780636324e7801161020a5780636324e7801461053957806370a082311461055957806373feac2a146105825780637ad3c5661461058b57600080fd5b80634ec18db9146104fa57806352f0e01a146105035780635a7322a71461051657600080fd5b80632e17de7814610479578063313ce5671461048c57806339509351146104a1578063430bf08a146104b4578063464b9355146104df5780634e71d92d146104f257600080fd5b806316934fc4116102e4578063222cda58116102be578063222cda581461044057806323b872dd1461044a578063268313031461045d578063295b93001461047057600080fd5b806316934fc4146103df57806316d3bfbb1461041b57806318160ddd1461043857600080fd5b8062ccb5001461032b57806306f94a0d1461034657806306fdde031461034f578063095ea7b314610364578063150b7a0214610387578063164b348b146103bf575b600080fd5b6103336107ab565b6040519081526020015b60405180910390f35b61033360115481565b6103576107ba565b60405161033d91906139cd565b610377610372366004613a37565b61084c565b604051901515815260200161033d565b6103a6610395366004613a61565b630a85bd0160e11b95945050505050565b6040516001600160e01b0319909116815260200161033d565b6103336103cd366004613afc565b600d6020526000908152604090205481565b6104066103ed366004613afc565b600a602052600090815260409020805460019091015482565b6040805192835260208301919091520161033d565b610423610866565b60405163ffffffff909116815260200161033d565b600254610333565b610448610882565b005b610377610458366004613b17565b610af2565b61044861046b366004613b98565b610b16565b610333600f5481565b610448610487366004613c12565b610bc9565b60125b60405160ff909116815260200161033d565b6103776104af366004613a37565b610c59565b6008546104c7906001600160a01b031681565b6040516001600160a01b03909116815260200161033d565b6007546104c7906001600160a01b031681565b610448610c7b565b61033360125481565b610448610511366004613c2b565b610c97565b61048f610524366004613afc565b600c6020526000908152604090205460ff1681565b61054c610547366004613afc565b611203565b60405161033d9190613d9d565b610333610567366004613afc565b6001600160a01b031660009081526020819052604090205490565b610333600e5481565b61059e610599366004613afc565b61137a565b60405161033d9190613dff565b61033360135481565b6104486105c2366004613c12565b611495565b61042361151a565b6104236201518081565b6104486105e7366004613c12565b611528565b610357611558565b610448610602366004613e59565b611567565b61061a610615366004613a37565b611a51565b6040805196875260208701959095529385019290925260608401526080830152151560a082015260c00161033d565b610448610657366004613e96565b611aab565b61044861066a366004613ec9565b611bec565b61037761067d366004613a37565b611e08565b610333610690366004613afc565b611e88565b6104486106a3366004613c12565b611ec3565b6103776106b6366004613a37565b611f7b565b610423611f89565b6103336106d1366004613f3d565b611f97565b610423611faa565b6104486106ec366004613a37565b611fc3565b6104486106ff366004613f7f565b61225c565b610448612529565b61044861071a366004613c12565b61257d565b61033361072d366004613fa1565b6125ff565b610745610740366004613a37565b61262a565b60405161033d9190613fd4565b6005546104c7906001600160a01b031681565b61033360105481565b6006546104c7906001600160a01b031681565b61040661078f366004613afc565b6009602052600090815260409020600281015460039091015482565b60006107b5612644565b905090565b6060600380546107c990613fe7565b80601f01602080910402602001604051908101604052809291908181526020018280546107f590613fe7565b80156108425780601f1061081757610100808354040283529160200191610842565b820191906000526020600020905b81548152906001019060200180831161082557829003601f168201915b5050505050905090565b60003361085a81858561265a565b60019150505b92915050565b61087462015180601e614037565b61087f90600c614037565b81565b3360009081526009602090815260408083208151815460a094810282018501909352608081018381529093919284928491908401828280156108ed57602002820191906000526020600020905b81546001600160a01b031681526001909101906020018083116108cf575b505050505081526020016001820180548060200260200160405190810160405280929190818152602001828054801561094557602002820191906000526020600020905b815481526020019060010190808311610931575b5050505050815260200160028201548152602001600382015481525050905080604001516000036109895760405163726180c360e11b815260040160405180910390fd5b42816040015111156109ae5760405163f2299d8160e01b815260040160405180910390fd5b6040805160808101825260608082526020808301829052600083850181905283830181905233815260098252939093208251805192948594938493926109f89284929101906138d1565b506020828101518051610a119260018501920190613936565b506040820151600282015560609091015160039091015560005b84515160ff82161015610aeb578451805160ff8316908110610a4f57610a4f61405f565b60200260200101516001600160a01b03166342842e0e303388602001518560ff1681518110610a8057610a8061405f565b60200260200101516040518463ffffffff1660e01b8152600401610aa693929190614075565b600060405180830381600087803b158015610ac057600080fd5b505af1158015610ad4573d6000803e3d6000fd5b505050508080610ae390614099565b915050610a2b565b5050505050565b600033610b0085828561277e565b610b0b8585856127f8565b506001949350505050565b6006546001600160a01b03163314610b4157604051637bfa4b9f60e01b815260040160405180910390fd5b600f85905560005b81811015610bc157828282818110610b6357610b6361405f565b90506020020135600d6000878785818110610b8057610b8061405f565b9050602002016020810190610b959190613afc565b6001600160a01b0316815260208101919091526040016000205580610bb9816140b8565b915050610b49565b505050505050565b336000908152600a602052604090206001015481811015610bfd576040516305019ec560e31b815260040160405180910390fd5b600060405180604001604052804281526020018484610c1c91906140d1565b90529050610c2861299c565b336000818152600a602090815260409091208351815590830151600190910155610c5490309085612a47565b505050565b60003361085a818585610c6c83836125ff565b610c7691906140e4565b61265a565b610c8361299c565b336000908152600a60205260409020429055565b838360005b81811015610d2257600d6000848484818110610cba57610cba61405f565b9050602002016020810190610ccf9190613afc565b6001600160a01b03166001600160a01b0316815260200190815260200160002054600003610d10576040516368f7a67560e11b815260040160405180910390fd5b80610d1a816140b8565b915050610c9c565b50610d3162015180600e614037565b63ffffffff16871080610d615750610d4d62015180601e614037565b610d5890600c614037565b63ffffffff1687115b15610d7f5760405163076ecd4f60e31b815260040160405180910390fd5b600a601254610d8e91906140f7565b881115610dae57604051635697666160e01b815260040160405180910390fd5b848314610dce5760405163b7c1140d60e01b815260040160405180910390fd5b6000610dda8787612a90565b601154909150818a1180610dfa575080601254610df791906140d1565b8a115b15610e1857604051632eb0ae9960e11b815260040160405180910390fd5b6000610e258b838c612b26565b3360009081526009602090815260408083208151815460a094810282018501909352608081018381529596509394909284928491840182828015610e9257602002820191906000526020600020905b81546001600160a01b03168152600190910190602001808311610e74575b5050505050815260200160018201805480602002602001604051908101604052809291908181526020018280548015610eea57602002820191906000526020600020905b815481526020019060010190808311610ed6575b5050509183525050600282015460208201526003909101546040909101529050610f148b426140e4565b81604001511115610f5b576060810151603290811115610f41576060820151610f3e9060646140d1565b90505b80610f4d6064856140f7565b610f579190614119565b9250505b610f658c846140e4565b6011556040805161012060208c02808301820190935261010082018c815260009383928f918f918291908601908490808284376000920191909152505050908252506040805160208c810282810182019093528c82529283019290918d918d918291850190849080828437600081840152601f19601f820116905080830192505050505050508152602001848f610ffc91906140e4565b81526020018481526020018d81526020018d4261101991906140e4565b8152336000908152600b602090815260409091205491019061103c9060016140e4565b815260006020918201819052338152600b825260408120805460018101825590825290829020835180519495508594600890930290910192611083928492909101906138d1565b50602082810151805161109c9260018501920190613936565b5060408201516002820155606082015160038201556080820151600482015560a0820151600582015560c0820151600682015560e0909101516007909101805460ff191691151591909117905560005b8a8110156111a7578b8b828181106111065761110661405f565b905060200201602081019061111b9190613afc565b6001600160a01b03166342842e0e33308d8d8681811061113d5761113d61405f565b905060200201356040518463ffffffff1660e01b815260040161116293929190614075565b600060405180830381600087803b15801561117c57600080fd5b505af1158015611190573d6000803e3d6000fd5b50505050808061119f906140b8565b9150506110ec565b506007546111bf906001600160a01b0316338f612a47565b6040518d815233907fcbc04eca7e9da35cb1393a6135a199ca52e450d5e9251cbd99f7847d33a367509060200160405180910390a250505050505050505050505050565b6001600160a01b0381166000908152600b60209081526040808320805482518185028101850190935280835260609492939192909184015b8282101561136f578382906000526020600020906008020160405180610100016040529081600082018054806020026020016040519081016040528092919081815260200182805480156112b857602002820191906000526020600020905b81546001600160a01b0316815260019091019060200180831161129a575b505050505081526020016001820180548060200260200160405190810160405280929190818152602001828054801561131057602002820191906000526020600020905b8154815260200190600101908083116112fc575b50505091835250506002820154602080830191909152600383015460408301526004830154606083015260058301546080830152600683015460a083015260079092015460ff16151560c090910152908252600192909201910161123b565b505050509050919050565b6113a56040518060800160405280606081526020016060815260200160008152602001600081525090565b6001600160a01b0382166000908152600960209081526040918290208251815460a09381028201840190945260808101848152909391928492849184018282801561141957602002820191906000526020600020905b81546001600160a01b031681526001909101906020018083116113fb575b505050505081526020016001820180548060200260200160405190810160405280929190818152602001828054801561147157602002820191906000526020600020905b81548152602001906001019080831161145d575b50505050508152602001600282015481526020016003820154815250509050919050565b3360009081526009602052604081206002015490036114c75760405163726180c360e11b815260040160405180910390fd5b6114d562015180601e614037565b6114e59063ffffffff16426140e4565b811015611505576040516307c6172560e31b815260040160405180910390fd5b33600090815260096020526040902060020155565b61087f62015180601e614037565b6006546001600160a01b0316331461155357604051637bfa4b9f60e01b815260040160405180910390fd5b601055565b6060600480546107c990613fe7565b61157562015180600e614037565b63ffffffff168310806115a5575061159162015180601e614037565b61159c90600c614037565b63ffffffff1683115b156115c35760405163076ecd4f60e31b815260040160405180910390fd5b600a6012546115d291906140f7565b8411156115f257604051635697666160e01b815260040160405180910390fd5b6001600160a01b0382166000908152600d6020526040812054900361162a576040516368f7a67560e11b815260040160405180910390fd5b600f546001600160a01b0383166000908152600d602052604081205490916064916116559190614119565b61165f91906140f7565b6011549091508186118061167f57508060125461167c91906140d1565b86115b1561169d57604051632eb0ae9960e11b815260040160405180910390fd5b60006116aa878388612b26565b3360009081526009602090815260408083208151815460a09481028201850190935260808101838152959650939490928492849184018282801561171757602002820191906000526020600020905b81546001600160a01b031681526001909101906020018083116116f9575b505050505081526020016001820180548060200260200160405190810160405280929190818152602001828054801561176f57602002820191906000526020600020905b81548152602001906001019080831161175b575b505050918352505060028201546020820152600390910154604090910152905061179987426140e4565b816040015111156117e05760608101516032908111156117c65760608201516117c39060646140d1565b90505b806117d26064856140f7565b6117dc9190614119565b9250505b6117ea88846140e4565b6011556040805160018082528183019092526000916020808301908036833701905050905086816000815181106118235761182361405f565b6001600160a01b03929092166020928302919091019091015260408051600180825281830190925260009181602001602082028036833701905050905086816000815181106118745761187461405f565b6020026020010181815250506000604051806101000160405280848152602001838152602001868d6118a691906140e4565b81526020018681526020018b81526020018b426118c391906140e4565b8152336000908152600b60209081526040909120549101906118e69060016140e4565b815260006020918201819052338152600b82526040812080546001810182559082529082902083518051949550859460089093029091019261192d928492909101906138d1565b5060208281015180516119469260018501920190613936565b50604082810151600283015560608301516003830155608083015160048084019190915560a0840151600584015560c0840151600684015560e0909301516007909201805460ff19169215159290921790915551632142170760e11b81526001600160a01b038b16916342842e0e916119c591339130918e9101614075565b600060405180830381600087803b1580156119df57600080fd5b505af11580156119f3573d6000803e3d6000fd5b5050600754611a0f92506001600160a01b03169050338d612a47565b6040518b815233907fcbc04eca7e9da35cb1393a6135a199ca52e450d5e9251cbd99f7847d33a367509060200160405180910390a25050505050505050505050565b600b6020528160005260406000208181548110611a6d57600080fd5b600091825260209091206008909102016002810154600382015460048301546005840154600685015460079095015493965091945092909160ff1686565b611ab962015180601e614037565b611ac99063ffffffff16426140e4565b811015611ae9576040516307c6172560e31b815260040160405180910390fd5b6001600160a01b0383166000908152600c602052604081205460ff169003611b24576040516338646c5360e01b815260040160405180910390fd5b611b2f838383612bc3565b336000908152600960209081526040909120825180519192611b56928492909101906138d1565b506020828101518051611b6f9260018501920190613936565b50604082810151600283015560609092015160039091015551632142170760e11b81526001600160a01b038416906342842e0e90611bb590339030908790600401614075565b600060405180830381600087803b158015611bcf57600080fd5b505af1158015611be3573d6000803e3d6000fd5b50505050505050565b848460005b81811015611c7457600c6000848484818110611c0f57611c0f61405f565b9050602002016020810190611c249190613afc565b6001600160a01b03168152602081019190915260400160009081205460ff169003611c62576040516338646c5360e01b815260040160405180910390fd5b80611c6c816140b8565b915050611bf1565b50611c8362015180601e614037565b611c939063ffffffff16426140e4565b831015611cb3576040516307c6172560e31b815260040160405180910390fd5b858414611cd35760405163b7c1140d60e01b815260040160405180910390fd5b611ce08787878787612e2e565b336000908152600960209081526040909120825180519192611d07928492909101906138d1565b506020828101518051611d209260018501920190613936565b506040820151600282015560609091015160039091015560005b60ff8116871115611dfe5787878260ff16818110611d5a57611d5a61405f565b9050602002016020810190611d6f9190613afc565b6001600160a01b03166342842e0e333089898660ff16818110611d9457611d9461405f565b905060200201356040518463ffffffff1660e01b8152600401611db993929190614075565b600060405180830381600087803b158015611dd357600080fd5b505af1158015611de7573d6000803e3d6000fd5b505050508080611df690614099565b915050611d3a565b5050505050505050565b60003381611e1682866125ff565b905083811015611e7b5760405162461bcd60e51b815260206004820152602560248201527f45524332303a2064656372656173656420616c6c6f77616e63652062656c6f77604482015264207a65726f60d81b60648201526084015b60405180910390fd5b610b0b828686840361265a565b6001600160a01b0381166000908152600a60209081526040808320815180830190925280548252600101549181019190915261086090613158565b336000908152600a602052604090205415611ee057611ee061299c565b604080518082018252428152336000908152600a6020908152928120600101549092820190611f109085906140e4565b9052336000818152600a602090815260409091208351815590830151600190910155909150611f42903090818561331e565b60405182815233907fe699aa72122ae0e7f00e63c8fe6271cf1aa90defd9f5c492cef4125a31db9b2c9060200160405180910390a25050565b60003361085a8185856127f8565b61087f62015180600e614037565b6000611fa38383612a90565b9392505050565b611fb862015180601e614037565b61087f906006614037565b600080611fd0848461336c565b915091508160a00151421080611fe757508160e001515b15612005576040516313d9479960e01b815260040160405180910390fd5b6001600160a01b0384166000908152600b60205260409020805460019190839081106120335761203361405f565b60009182526020808320600892909202909101600701805460ff1916931515939093179092556001600160a01b0386168152600b909152604081208054839081106120805761208061405f565b906000526020600020906008020160020181905550606482606001516120a691906140f7565b6120b190605f614119565b601260008282546120c291906140e4565b9091555050606082015160408301516120db91906140d1565b601160008282546120ec91906140d1565b90915550600090505b8251518110156121ac5782518051829081106121135761211361405f565b60200260200101516001600160a01b03166342842e0e3033866020015185815181106121415761214161405f565b60200260200101516040518463ffffffff1660e01b815260040161216793929190614075565b600060405180830381600087803b15801561218157600080fd5b505af1158015612195573d6000803e3d6000fd5b5050505080806121a4906140b8565b9150506120f5565b5060075460065460608401516121e6926001600160a01b039081169216906121d6906064906140f7565b6121e1906005614119565b612a47565b6007546040830151612205916001600160a01b0316903390309061331e565b836001600160a01b0316336001600160a01b03167fb6ed19cdf32fe732da504f7525ffbec01e43cf56a407bdcda3ab1120d756a259846040015160405161224e91815260200190565b60405180910390a350505050565b600080612269338461336c565b91509150838260400151101561229257604051637bc3c3ef60e01b815260040160405180910390fd5b8160a001514211156122b757604051632ee48ce560e11b815260040160405180910390fd5b606082015160408301516000916122d8916122d39082906140d1565b61355d565b905060006122f58460600151876122ef91906140d1565b836135ac565b905061230181876140d1565b6011600082825461231291906140d1565b9091555050336000908152600b6020526040902080548791908590811061233b5761233b61405f565b9060005260206000209060080201600201600082825461235b91906140d1565b9091555050336000908152600b602052604090208054829190859081106123845761238461405f565b906000526020600020906008020160030160008282546123a491906140d1565b909155506123b590506064826140f7565b6123c090605f614119565b601260008282546123d191906140e4565b909155505060408401516123e69087906140d1565b6000036124a95760005b8451518110156124a757845180518290811061240e5761240e61405f565b60200260200101516001600160a01b03166342842e0e30338860200151858151811061243c5761243c61405f565b60200260200101516040518463ffffffff1660e01b815260040161246293929190614075565b600060405180830381600087803b15801561247c57600080fd5b505af1158015612490573d6000803e3d6000fd5b50505050808061249f906140b8565b9150506123f0565b505b6124b2866135da565b6007546006546124d4916001600160a01b0390811691166121d66064856140f7565b6007546124ec906001600160a01b031633308961331e565b60405186815233907f5c16de4f8b59bd9caf0f49a545f25819a895ed223294290b408242e72a5942319060200160405180910390a2505050505050565b6006546001600160a01b0316331461255457604051637bfa4b9f60e01b815260040160405180910390fd5b60075460065460115460125461257b936001600160a01b039081169316916121e1916140d1565b565b806012600082825461258f91906140e4565b90915550506007546125ac906001600160a01b031633308461331e565b6125b5816135da565b6125c7336125c2836136e1565b61370e565b60405181815233907f2f71cce35bad4d80643e7a2541a85230d63b36cbab8523285111013a3db54d409060200160405180910390a250565b6001600160a01b03918216600090815260016020908152604080832093909416825291909152205490565b612632613971565b61263c838361336c565b509392505050565b60006107b561265260025490565b60125461355d565b6001600160a01b0383166126bc5760405162461bcd60e51b8152602060048201526024808201527f45524332303a20617070726f76652066726f6d20746865207a65726f206164646044820152637265737360e01b6064820152608401611e72565b6001600160a01b03821661271d5760405162461bcd60e51b815260206004820152602260248201527f45524332303a20617070726f766520746f20746865207a65726f206164647265604482015261737360f01b6064820152608401611e72565b6001600160a01b0383811660008181526001602090815260408083209487168084529482529182902085905590518481527f8c5be1e5ebec7d5bd14f71427d1e84f3dd0314c0f7b2291e5b200ac8c7c3b925910160405180910390a3505050565b600061278a84846125ff565b905060001981146127f257818110156127e55760405162461bcd60e51b815260206004820152601d60248201527f45524332303a20696e73756666696369656e7420616c6c6f77616e63650000006044820152606401611e72565b6127f2848484840361265a565b50505050565b6001600160a01b03831661285c5760405162461bcd60e51b815260206004820152602560248201527f45524332303a207472616e736665722066726f6d20746865207a65726f206164604482015264647265737360d81b6064820152608401611e72565b6001600160a01b0382166128be5760405162461bcd60e51b815260206004820152602360248201527f45524332303a207472616e7366657220746f20746865207a65726f206164647260448201526265737360e81b6064820152608401611e72565b6001600160a01b038316600090815260208190526040902054818110156129365760405162461bcd60e51b815260206004820152602660248201527f45524332303a207472616e7366657220616d6f756e7420657863656564732062604482015265616c616e636560d01b6064820152608401611e72565b6001600160a01b03848116600081815260208181526040808320878703905593871680835291849020805487019055925185815290927fddf252ad1be2c89b69c2b068fc378daa952ba7f163c4a11628f55a4df523b3ef910160405180910390a36127f2565b336000908152600a602090815260408083208151808301909252805482526001015491810191909152906129cf82613158565b336000818152600a602052604090819020429055600554905163714b00c360e01b81526004810192909252602482018390529192506001600160a01b039091169063714b00c390604401600060405180830381600087803b158015612a3357600080fd5b505af1158015610bc1573d6000803e3d6000fd5b81601a5280603a5269a9059cbb00000000000060005260206000604460166000875af13d156001600051141716612a86576390b8ec186000526004601cfd5b6000603a52505050565b6000805b82811015612b1f57600d6000858584818110612ab257612ab261405f565b9050602002016020810190612ac79190613afc565b6001600160a01b03166001600160a01b03168152602001908152602001600020546064600f54612af791906140f7565b612b019190614119565b612b0b90836140e4565b915080612b17816140b8565b915050612a94565b5092915050565b60105460009081612b3a61265287876140e4565b612b4c906706f05b59d3b200006140e4565b90506000612b8d612b5e84600a614119565b612b88848189612b7262015180601e614037565b612b7d90600c614037565b63ffffffff1661355d565b6135ac565b612b9790846140e4565b9050612bb8612ba682896135ac565b612b8887612b7262015180601e614037565b979650505050505050565b612bee6040518060800160405280606081526020016060815260200160008152602001600081525090565b33600090815260096020526040812060028101548203612ce4576001600160a01b0386166000908152600c6020526040808220548151600180825281840190935260ff9091169450908160200160208202803683370190505090508681600081518110612c5d57612c5d61405f565b6001600160a01b0392909216602092830291909101909101526040805160018082528183019092526000918160200160208202803683370190505090508681600081518110612cae57612cae61405f565b60200260200101818152505060405180608001604052808381526020018281526020018781526020018581525094505050612e25565b60038101546001600160a01b0387166000908152600c602052604090205490925081906001820190612d199060ff16856140e4565b8254600181810185556000858152602080822090930180546001600160a01b038e166001600160a01b0319909116179055845491820185558481528290200189905560408051855460a0938102820184019092526080810182815293975092839290918691840182828015612db757602002820191906000526020600020905b81546001600160a01b03168152600190910190602001808311612d99575b5050505050815260200182805480602002602001604051908101604052809291908181526020018280548015612e0c57602002820191906000526020600020905b815481526020019060010190808311612df8575b5050505050815260200187815260200185815250945050505b50509392505050565b612e596040518060800160405280606081526020016060815260200160008152602001600081525090565b33600090815260096020526040812060028101548203612f785760005b60ff8116881115612eea57600c60008a8a8460ff16818110612e9a57612e9a61405f565b9050602002016020810190612eaf9190613afc565b6001600160a01b03168152602081019190915260400160002054612ed69060ff16846140e4565b925080612ee281614099565b915050612e76565b50604051806080016040528089898080602002602001604051908101604052809392919081815260200183836020028082843760009201919091525050509082525060408051602089810282810182019093528982529283019290918a918a91829185019084908082843760009201919091525050509082525060208101869052604001839052925061314d565b60038101549150806001810160005b8981101561308457600c60008c8c84818110612fa557612fa561405f565b9050602002016020810190612fba9190613afc565b6001600160a01b03168152602081019190915260400160002054612fe19060ff16866140e4565b9450828b8b83818110612ff657612ff661405f565b905060200201602081019061300b9190613afc565b81546001810183556000928352602090922090910180546001600160a01b0319166001600160a01b03909216919091179055818989838181106130505761305061405f565b835460018101855560009485526020948590209190940292909201359190920155508061307c816140b8565b915050612f87565b5060408051835460a0602082028301810190935260808201818152919283929186918401828280156130df57602002820191906000526020600020905b81546001600160a01b031681526001909101906020018083116130c1575b505050505081526020018280548060200260200160405190810160405280929190818152602001828054801561313457602002820191906000526020600020905b815481526020019060010190808311613120575b5050505050815260200187815260200185815250945050505b505095945050505050565b60008061316962015180601e614037565b613174906006614037565b63ffffffff1683600001514261318a91906140d1565b116131a057825161319b90426140d1565b6131c0565b6131ae62015180601e614037565b6131b9906006614037565b63ffffffff165b905060006131d184600001516137cd565b905083602001516131e283836135ac565b6131ec9190614119565b3360009081526009602090815260408083208151815460a09481028201850190935260808101838152959850939490928492849184018282801561325957602002820191906000526020600020905b81546001600160a01b0316815260019091019060200180831161323b575b50505050508152602001600182018054806020026020016040519081016040528092919081815260200182805480156132b157602002820191906000526020600020905b81548152602001906001019080831161329d575b5050505050815260200160028201548152602001600382015481525050905042816040015111156133165760608101516032908111156132f2575060608101515b6132fd8160646140e4565b6133086064876140f7565b6133129190614119565b9450505b505050919050565b6040516323b872dd600052836020528260405281606052602060006064601c6000895af13d15600160005114171661335e57637939f4246000526004601cfd5b600060605260405250505050565b613374613971565b6000805b6001600160a01b0385166000908152600b602052604090205481101561353c576001600160a01b0385166000908152600b602052604090208054859190839081106133c5576133c561405f565b9060005260206000209060080201600601540361352a576001600160a01b0385166000908152600b602052604090208054829081106134065761340661405f565b90600052602060002090600802018181604051806101000160405290816000820180548060200260200160405190810160405280929190818152602001828054801561347b57602002820191906000526020600020905b81546001600160a01b0316815260019091019060200180831161345d575b50505050508152602001600182018054806020026020016040519081016040528092919081815260200182805480156134d357602002820191906000526020600020905b8154815260200190600101908083116134bf575b505050918352505060028201546020820152600382015460408201526004820154606082015260058201546080820152600682015460a082015260079091015460ff16151560c09091015294509250613556915050565b80613534816140b8565b915050613378565b50604051630e7e621d60e01b815260040160405180910390fd5b9250929050565b60007812725dd1d243aba0e75fe645cc4873f9e65afe688c928e1f218311670de0b6b3a76400000215820261359a57637c5f487d6000526004601cfd5b50670de0b6b3a7640000919091020490565b6000816000190483118202156135ca5763bac65e5b6000526004601cfd5b50670de0b6b3a764000091020490565b60075460085460405163095ea7b360e01b81526001600160a01b0391821660048201526024810184905291169063095ea7b3906044016020604051808303816000875af115801561362f573d6000803e3d6000fd5b505050506040513d601f19601f820116820180604052508101906136539190614130565b5060085460405163b6b55f2560e01b8152600481018390526000916001600160a01b03169063b6b55f25906024016020604051808303816000875af11580156136a0573d6000803e3d6000fd5b505050506040513d601f19601f820116820180604052508101906136c49190614152565b905080601260008282546136d891906140e4565b90915550505050565b6000806136ec612644565b905060006136f960025490565b116137045782611fa3565b611fa383826135ac565b6001600160a01b0382166137645760405162461bcd60e51b815260206004820152601f60248201527f45524332303a206d696e7420746f20746865207a65726f2061646472657373006044820152606401611e72565b806002600082825461377691906140e4565b90915550506001600160a01b038216600081815260208181526040808320805486019055518481527fddf252ad1be2c89b69c2b068fc378daa952ba7f163c4a11628f55a4df523b3ef910160405180910390a35050565b600080600e54426137de91906140d1565b90506137ee62015180601e614037565b6137f9906006614037565b63ffffffff168111156138285761381462015180601e614037565b61381f906006614037565b63ffffffff1690505b60006002600e548561383a91906140d1565b61384490846140e4565b61384e91906140f7565b905061385e62015180601e614037565b613869906006614037565b63ffffffff168111156138985761388462015180601e614037565b61388f906006614037565b63ffffffff1690505b6013546138bc90612b88836138b162015180601e614037565b612b7d906006614037565b6013546138c991906140d1565b949350505050565b828054828255906000526020600020908101928215613926579160200282015b8281111561392657825182546001600160a01b0319166001600160a01b039091161782556020909201916001909101906138f1565b506139329291506139b8565b5090565b828054828255906000526020600020908101928215613926579160200282015b82811115613926578251825591602001919060010190613956565b604051806101000160405280606081526020016060815260200160008152602001600081526020016000815260200160008152602001600081526020016000151581525090565b5b8082111561393257600081556001016139b9565b600060208083528351808285015260005b818110156139fa578581018301518582016040015282016139de565b506000604082860101526040601f19601f8301168501019250505092915050565b80356001600160a01b0381168114613a3257600080fd5b919050565b60008060408385031215613a4a57600080fd5b613a5383613a1b565b946020939093013593505050565b600080600080600060808688031215613a7957600080fd5b613a8286613a1b565b9450613a9060208701613a1b565b935060408601359250606086013567ffffffffffffffff80821115613ab457600080fd5b818801915088601f830112613ac857600080fd5b813581811115613ad757600080fd5b896020828501011115613ae957600080fd5b9699959850939650602001949392505050565b600060208284031215613b0e57600080fd5b611fa382613a1b565b600080600060608486031215613b2c57600080fd5b613b3584613a1b565b9250613b4360208501613a1b565b9150604084013590509250925092565b60008083601f840112613b6557600080fd5b50813567ffffffffffffffff811115613b7d57600080fd5b6020830191508360208260051b850101111561355657600080fd5b600080600080600060608688031215613bb057600080fd5b85359450602086013567ffffffffffffffff80821115613bcf57600080fd5b613bdb89838a01613b53565b90965094506040880135915080821115613bf457600080fd5b50613c0188828901613b53565b969995985093965092949392505050565b600060208284031215613c2457600080fd5b5035919050565b60008060008060008060808789031215613c4457600080fd5b8635955060208701359450604087013567ffffffffffffffff80821115613c6a57600080fd5b613c768a838b01613b53565b90965094506060890135915080821115613c8f57600080fd5b50613c9c89828a01613b53565b979a9699509497509295939492505050565b600081518084526020808501945080840160005b83811015613ce75781516001600160a01b031687529582019590820190600101613cc2565b509495945050505050565b600081518084526020808501945080840160005b83811015613ce757815187529582019590820190600101613d06565b60006101008251818552613d3882860182613cae565b91505060208301518482036020860152613d528282613cf2565b91505060408301516040850152606083015160608501526080830151608085015260a083015160a085015260c083015160c085015260e0830151151560e08501528091505092915050565b6000602080830181845280855180835260408601915060408160051b870101925083870160005b82811015613df257603f19888603018452613de0858351613d22565b94509285019290850190600101613dc4565b5092979650505050505050565b602081526000825160806020840152613e1b60a0840182613cae565b90506020840151601f19848303016040850152613e388282613cf2565b91505060408401516060840152606084015160808401528091505092915050565b60008060008060808587031215613e6f57600080fd5b8435935060208501359250613e8660408601613a1b565b9396929550929360600135925050565b600080600060608486031215613eab57600080fd5b613eb484613a1b565b95602085013595506040909401359392505050565b600080600080600060608688031215613ee157600080fd5b853567ffffffffffffffff80821115613ef957600080fd5b613f0589838a01613b53565b90975095506020880135915080821115613f1e57600080fd5b50613f2b88828901613b53565b96999598509660400135949350505050565b60008060208385031215613f5057600080fd5b823567ffffffffffffffff811115613f6757600080fd5b613f7385828601613b53565b90969095509350505050565b60008060408385031215613f9257600080fd5b50508035926020909101359150565b60008060408385031215613fb457600080fd5b613fbd83613a1b565b9150613fcb60208401613a1b565b90509250929050565b602081526000611fa36020830184613d22565b600181811c90821680613ffb57607f821691505b60208210810361401b57634e487b7160e01b600052602260045260246000fd5b50919050565b634e487b7160e01b600052601160045260246000fd5b63ffffffff81811683821602808216919082811461405757614057614021565b505092915050565b634e487b7160e01b600052603260045260246000fd5b6001600160a01b039384168152919092166020820152604081019190915260600190565b600060ff821660ff81036140af576140af614021565b60010192915050565b6000600182016140ca576140ca614021565b5060010190565b8181038181111561086057610860614021565b8082018082111561086057610860614021565b60008261411457634e487b7160e01b600052601260045260246000fd5b500490565b808202811582820484141761086057610860614021565b60006020828403121561414257600080fd5b81518015158114611fa357600080fd5b60006020828403121561416457600080fd5b505191905056fea2646970667358221220eaff2d8c84c984073fef0a0ca00026f507bcd781d9e35f98d648b8112e6263e064736f6c63430008130033",
    "linkReferences": {}
  },
  "methodIdentifiers": {
    "DAYS_SECONDS()": "903d78fb",
    "FORTNITE()": "b38dadf7",
    "MONTH_DAYS()": "87c32202",
    "ONE_YEAR()": "16d3bfbb",
    "SIX_MONTHS()": "ba579c74",
    "adminAddress()": "fc6f9468",
    "allowance(address,address)": "dd62ed3e",
    "approve(address,uint256)": "095ea7b3",
    "balanceOf(address)": "70a08231",
    "beraAddress()": "464b9355",
    "boost(address,uint256,uint256)": "a2114cdb",
    "boost(address[],uint256[],uint256)": "a3637f16",
    "boosts(address)": "fdabc986",
    "borrow(uint256,uint256,address,uint256)": "97dae1fc",
    "borrow(uint256,uint256,address[],uint256[])": "52f0e01a",
    "claim()": "4e71d92d",
    "decimals()": "313ce567",
    "decreaseAllowance(address,uint256)": "a457c2d7",
    "emergencyWithdraw()": "db2e21bc",
    "emissionsStart()": "73feac2a",
    "extendBoost(uint256)": "86f7521d",
    "getClaimable(address)": "a583024b",
    "getFairValues(address[])": "ba30f48c",
    "getgBERARatio()": "00ccb500",
    "increaseAllowance(address,uint256)": "39509351",
    "liquidate(address,uint256)": "bcbaf487",
    "loans(address,uint256)": "98c61c37",
    "lock(uint256)": "dd467064",
    "lookupBoost(address)": "7ad3c566",
    "lookupLoan(address,uint256)": "eac29301",
    "lookupLoans(address)": "6324e780",
    "name()": "06fdde03",
    "nftFairValues(address)": "164b348b",
    "onERC721Received(address,address,uint256,bytes)": "150b7a02",
    "outstandingDebt()": "06f94a0d",
    "partnerNFTBoosts(address)": "5a7322a7",
    "poolSize()": "4ec18db9",
    "porridgeAddress()": "f2934a97",
    "porridgeMultiple()": "822782ac",
    "protocolInterestRate()": "fc3b72b1",
    "repay(uint256,uint256)": "d8aed145",
    "setProtocolInterestRate(uint256)": "955def1c",
    "setValue(uint256,address[],uint256[])": "26831303",
    "stake(uint256)": "a694fc3a",
    "stakes(address)": "16934fc4",
    "symbol()": "95d89b41",
    "totalSupply()": "18160ddd",
    "totalValuation()": "295b9300",
    "transfer(address,uint256)": "a9059cbb",
    "transferFrom(address,address,uint256)": "23b872dd",
    "unstake(uint256)": "2e17de78",
    "vaultAddress()": "430bf08a",
    "withdrawBoost()": "222cda58"
  },
  "id": 26
}