{
  "abi": [
    {
      "inputs": [
        {
          "internalType": "address",
          "name": "_gammAddress",
          "type": "address"
        },
        {
          "internalType": "address",
          "name": "_borrowAddress",
          "type": "address"
        },
        {
          "internalType": "address",
          "name": "_adminAddress",
          "type": "address"
        },
        {
          "internalType": "address",
          "name": "_honeyAddress",
          "type": "address"
        }
      ],
      "stateMutability": "nonpayable",
      "type": "constructor"
    },
    {
      "inputs": [],
      "name": "InvalidUnstake",
      "type": "error"
    },
    {
      "inputs": [],
      "name": "LocksBorrowedAgainst",
      "type": "error"
    },
    {
      "inputs": [],
      "name": "NotAdmin",
      "type": "error"
    },
    {
      "inputs": [],
      "name": "NotGoldilend",
      "type": "error"
    },
    {
      "anonymous": false,
      "inputs": [
        {
          "indexed": true,
          "internalType": "address",
          "name": "owner",
          "type": "address"
        },
        {
          "indexed": true,
          "internalType": "address",
          "name": "spender",
          "type": "address"
        },
        {
          "indexed": false,
          "internalType": "uint256",
          "name": "value",
          "type": "uint256"
        }
      ],
      "name": "Approval",
      "type": "event"
    },
    {
      "anonymous": false,
      "inputs": [
        {
          "indexed": true,
          "internalType": "address",
          "name": "user",
          "type": "address"
        },
        {
          "indexed": false,
          "internalType": "uint256",
          "name": "amount",
          "type": "uint256"
        }
      ],
      "name": "Claimed",
      "type": "event"
    },
    {
      "anonymous": false,
      "inputs": [
        {
          "indexed": true,
          "internalType": "address",
          "name": "user",
          "type": "address"
        },
        {
          "indexed": false,
          "internalType": "uint256",
          "name": "amount",
          "type": "uint256"
        }
      ],
      "name": "Realized",
      "type": "event"
    },
    {
      "anonymous": false,
      "inputs": [
        {
          "indexed": true,
          "internalType": "address",
          "name": "user",
          "type": "address"
        },
        {
          "indexed": false,
          "internalType": "uint256",
          "name": "amount",
          "type": "uint256"
        }
      ],
      "name": "Staked",
      "type": "event"
    },
    {
      "anonymous": false,
      "inputs": [
        {
          "indexed": true,
          "internalType": "address",
          "name": "from",
          "type": "address"
        },
        {
          "indexed": true,
          "internalType": "address",
          "name": "to",
          "type": "address"
        },
        {
          "indexed": false,
          "internalType": "uint256",
          "name": "value",
          "type": "uint256"
        }
      ],
      "name": "Transfer",
      "type": "event"
    },
    {
      "anonymous": false,
      "inputs": [
        {
          "indexed": true,
          "internalType": "address",
          "name": "user",
          "type": "address"
        },
        {
          "indexed": false,
          "internalType": "uint256",
          "name": "amount",
          "type": "uint256"
        }
      ],
      "name": "Unstaked",
      "type": "event"
    },
    {
      "inputs": [],
      "name": "DAILY_EMISSISION_RATE",
      "outputs": [
        {
          "internalType": "uint8",
          "name": "",
          "type": "uint8"
        }
      ],
      "stateMutability": "view",
      "type": "function"
    },
    {
      "inputs": [],
      "name": "DAYS_SECONDS",
      "outputs": [
        {
          "internalType": "uint32",
          "name": "",
          "type": "uint32"
        }
      ],
      "stateMutability": "view",
      "type": "function"
    },
    {
      "inputs": [],
      "name": "adminAddress",
      "outputs": [
        {
          "internalType": "address",
          "name": "",
          "type": "address"
        }
      ],
      "stateMutability": "view",
      "type": "function"
    },
    {
      "inputs": [
        {
          "internalType": "address",
          "name": "owner",
          "type": "address"
        },
        {
          "internalType": "address",
          "name": "spender",
          "type": "address"
        }
      ],
      "name": "allowance",
      "outputs": [
        {
          "internalType": "uint256",
          "name": "",
          "type": "uint256"
        }
      ],
      "stateMutability": "view",
      "type": "function"
    },
    {
      "inputs": [
        {
          "internalType": "address",
          "name": "spender",
          "type": "address"
        },
        {
          "internalType": "uint256",
          "name": "amount",
          "type": "uint256"
        }
      ],
      "name": "approve",
      "outputs": [
        {
          "internalType": "bool",
          "name": "",
          "type": "bool"
        }
      ],
      "stateMutability": "nonpayable",
      "type": "function"
    },
    {
      "inputs": [
        {
          "internalType": "address",
          "name": "account",
          "type": "address"
        }
      ],
      "name": "balanceOf",
      "outputs": [
        {
          "internalType": "uint256",
          "name": "",
          "type": "uint256"
        }
      ],
      "stateMutability": "view",
      "type": "function"
    },
    {
      "inputs": [],
      "name": "borrowAddress",
      "outputs": [
        {
          "internalType": "address",
          "name": "",
          "type": "address"
        }
      ],
      "stateMutability": "view",
      "type": "function"
    },
    {
      "inputs": [],
      "name": "claim",
      "outputs": [],
      "stateMutability": "nonpayable",
      "type": "function"
    },
    {
      "inputs": [],
      "name": "decimals",
      "outputs": [
        {
          "internalType": "uint8",
          "name": "",
          "type": "uint8"
        }
      ],
      "stateMutability": "view",
      "type": "function"
    },
    {
      "inputs": [
        {
          "internalType": "address",
          "name": "spender",
          "type": "address"
        },
        {
          "internalType": "uint256",
          "name": "subtractedValue",
          "type": "uint256"
        }
      ],
      "name": "decreaseAllowance",
      "outputs": [
        {
          "internalType": "bool",
          "name": "",
          "type": "bool"
        }
      ],
      "stateMutability": "nonpayable",
      "type": "function"
    },
    {
      "inputs": [],
      "name": "gammAddress",
      "outputs": [
        {
          "internalType": "address",
          "name": "",
          "type": "address"
        }
      ],
      "stateMutability": "view",
      "type": "function"
    },
    {
      "inputs": [
        {
          "internalType": "address",
          "name": "user",
          "type": "address"
        }
      ],
      "name": "getClaimable",
      "outputs": [
        {
          "internalType": "uint256",
          "name": "",
          "type": "uint256"
        }
      ],
      "stateMutability": "view",
      "type": "function"
    },
    {
      "inputs": [
        {
          "internalType": "address",
          "name": "user",
          "type": "address"
        }
      ],
      "name": "getStakeStartTime",
      "outputs": [
        {
          "internalType": "uint256",
          "name": "",
          "type": "uint256"
        }
      ],
      "stateMutability": "view",
      "type": "function"
    },
    {
      "inputs": [
        {
          "internalType": "address",
          "name": "user",
          "type": "address"
        }
      ],
      "name": "getStaked",
      "outputs": [
        {
          "internalType": "uint256",
          "name": "",
          "type": "uint256"
        }
      ],
      "stateMutability": "view",
      "type": "function"
    },
    {
      "inputs": [],
      "name": "goldilendAddress",
      "outputs": [
        {
          "internalType": "address",
          "name": "",
          "type": "address"
        }
      ],
      "stateMutability": "view",
      "type": "function"
    },
    {
      "inputs": [
        {
          "internalType": "address",
          "name": "to",
          "type": "address"
        },
        {
          "internalType": "uint256",
          "name": "amount",
          "type": "uint256"
        }
      ],
      "name": "goldilendMint",
      "outputs": [],
      "stateMutability": "nonpayable",
      "type": "function"
    },
    {
      "inputs": [],
      "name": "honeyAddress",
      "outputs": [
        {
          "internalType": "address",
          "name": "",
          "type": "address"
        }
      ],
      "stateMutability": "view",
      "type": "function"
    },
    {
      "inputs": [
        {
          "internalType": "address",
          "name": "spender",
          "type": "address"
        },
        {
          "internalType": "uint256",
          "name": "addedValue",
          "type": "uint256"
        }
      ],
      "name": "increaseAllowance",
      "outputs": [
        {
          "internalType": "bool",
          "name": "",
          "type": "bool"
        }
      ],
      "stateMutability": "nonpayable",
      "type": "function"
    },
    {
      "inputs": [],
      "name": "name",
      "outputs": [
        {
          "internalType": "string",
          "name": "",
          "type": "string"
        }
      ],
      "stateMutability": "view",
      "type": "function"
    },
    {
      "inputs": [
        {
          "internalType": "uint256",
          "name": "amount",
          "type": "uint256"
        }
      ],
      "name": "realize",
      "outputs": [],
      "stateMutability": "nonpayable",
      "type": "function"
    },
    {
      "inputs": [
        {
          "internalType": "address",
          "name": "_goldilendAddress",
          "type": "address"
        }
      ],
      "name": "setGoldilendAddress",
      "outputs": [],
      "stateMutability": "nonpayable",
      "type": "function"
    },
    {
      "inputs": [
        {
          "internalType": "uint256",
          "name": "amount",
          "type": "uint256"
        }
      ],
      "name": "stake",
      "outputs": [],
      "stateMutability": "nonpayable",
      "type": "function"
    },
    {
      "inputs": [
        {
          "internalType": "address",
          "name": "",
          "type": "address"
        }
      ],
      "name": "stakeStartTime",
      "outputs": [
        {
          "internalType": "uint256",
          "name": "",
          "type": "uint256"
        }
      ],
      "stateMutability": "view",
      "type": "function"
    },
    {
      "inputs": [
        {
          "internalType": "address",
          "name": "",
          "type": "address"
        }
      ],
      "name": "staked",
      "outputs": [
        {
          "internalType": "uint256",
          "name": "",
          "type": "uint256"
        }
      ],
      "stateMutability": "view",
      "type": "function"
    },
    {
      "inputs": [],
      "name": "symbol",
      "outputs": [
        {
          "internalType": "string",
          "name": "",
          "type": "string"
        }
      ],
      "stateMutability": "view",
      "type": "function"
    },
    {
      "inputs": [],
      "name": "totalSupply",
      "outputs": [
        {
          "internalType": "uint256",
          "name": "",
          "type": "uint256"
        }
      ],
      "stateMutability": "view",
      "type": "function"
    },
    {
      "inputs": [
        {
          "internalType": "address",
          "name": "to",
          "type": "address"
        },
        {
          "internalType": "uint256",
          "name": "amount",
          "type": "uint256"
        }
      ],
      "name": "transfer",
      "outputs": [
        {
          "internalType": "bool",
          "name": "",
          "type": "bool"
        }
      ],
      "stateMutability": "nonpayable",
      "type": "function"
    },
    {
      "inputs": [
        {
          "internalType": "address",
          "name": "from",
          "type": "address"
        },
        {
          "internalType": "address",
          "name": "to",
          "type": "address"
        },
        {
          "internalType": "uint256",
          "name": "amount",
          "type": "uint256"
        }
      ],
      "name": "transferFrom",
      "outputs": [
        {
          "internalType": "bool",
          "name": "",
          "type": "bool"
        }
      ],
      "stateMutability": "nonpayable",
      "type": "function"
    },
    {
      "inputs": [
        {
          "internalType": "uint256",
          "name": "amount",
          "type": "uint256"
        }
      ],
      "name": "unstake",
      "outputs": [],
      "stateMutability": "nonpayable",
      "type": "function"
    }
  ],
  "bytecode": {
    "object": "0x60c06040526201518060805260c860a0523480156200001d57600080fd5b50604051620017a1380380620017a183398101604081905262000040916200011c565b6040518060400160405280600e81526020016d2837b93934b233b2902a37b5b2b760911b8152506040518060400160405280600381526020016250524760e81b81525081600390816200009491906200021e565b506004620000a382826200021e565b5050600160055550600880546001600160a01b039586166001600160a01b0319918216179091556009805494861694821694909417909355600b805492851692841692909217909155600c8054919093169116179055620002ea565b80516001600160a01b03811681146200011757600080fd5b919050565b600080600080608085870312156200013357600080fd5b6200013e85620000ff565b93506200014e60208601620000ff565b92506200015e60408601620000ff565b91506200016e60608601620000ff565b905092959194509250565b634e487b7160e01b600052604160045260246000fd5b600181811c90821680620001a457607f821691505b602082108103620001c557634e487b7160e01b600052602260045260246000fd5b50919050565b601f8211156200021957600081815260208120601f850160051c81016020861015620001f45750805b601f850160051c820191505b81811015620002155782815560010162000200565b5050505b505050565b81516001600160401b038111156200023a576200023a62000179565b62000252816200024b84546200018f565b84620001cb565b602080601f8311600181146200028a5760008415620002715750858301515b600019600386901b1c1916600185901b17855562000215565b600085815260208120601f198616915b82811015620002bb578886015182559484019460019091019084016200029a565b5085821015620002da5787850151600019600388901b60f8161c191681555b5050505050600190811b01905550565b60805160a0516114836200031e6000396000818161044a0152611161015260008181610387015261119301526114836000f3fe608060405234801561001057600080fd5b50600436106101cf5760003560e01c806371b1803a11610104578063a694fc3a116100a2578063dd62ed3e11610071578063dd62ed3e1461046c578063e9e910af1461047f578063f3a2950314610492578063fc6f9468146104a557600080fd5b8063a694fc3a1461040c578063a9059cbb1461041f578063b3d8d07914610432578063cb8ba58c1461044557600080fd5b806395d89b41116100de57806395d89b41146103be57806398807d84146103c6578063a457c2d7146103e6578063a583024b146103f957600080fd5b806371b1803a1461035c578063770fc8601461036f578063903d78fb1461038257600080fd5b8063313ce567116101715780634e71d92d1161014b5780634e71d92d146102f85780636985e6d81461030057806370a0823114610320578063714b00c31461034957600080fd5b8063313ce567146102a757806339509351146102bc578063399080ec146102cf57600080fd5b80631373df08116101ad5780631373df081461024c57806318160ddd1461027757806323b872dd1461027f5780632e17de781461029257600080fd5b806306fdde03146101d4578063095ea7b3146101f25780630eeea36714610215575b600080fd5b6101dc6104b8565b6040516101e99190611265565b60405180910390f35b6102056102003660046112cf565b61054a565b60405190151581526020016101e9565b61023e6102233660046112f9565b6001600160a01b031660009081526007602052604090205490565b6040519081526020016101e9565b60085461025f906001600160a01b031681565b6040516001600160a01b0390911681526020016101e9565b60025461023e565b61020561028d366004611314565b610564565b6102a56102a0366004611350565b610588565b005b60125b60405160ff90911681526020016101e9565b6102056102ca3660046112cf565b6106ee565b61023e6102dd3660046112f9565b6001600160a01b031660009081526006602052604090205490565b6102a5610710565b61023e61030e3660046112f9565b60076020526000908152604090205481565b61023e61032e3660046112f9565b6001600160a01b031660009081526020819052604090205490565b6102a56103573660046112cf565b61073e565b60095461025f906001600160a01b031681565b6102a561037d366004611350565b610777565b6103a97f000000000000000000000000000000000000000000000000000000000000000081565b60405163ffffffff90911681526020016101e9565b6101dc6108b8565b61023e6103d43660046112f9565b60066020526000908152604090205481565b6102056103f43660046112cf565b6108c7565b61023e6104073660046112f9565b610947565b6102a561041a366004611350565b610971565b61020561042d3660046112cf565b610a11565b600c5461025f906001600160a01b031681565b6102aa7f000000000000000000000000000000000000000000000000000000000000000081565b61023e61047a366004611369565b610a1f565b600a5461025f906001600160a01b031681565b6102a56104a03660046112f9565b610a4a565b600b5461025f906001600160a01b031681565b6060600380546104c79061139c565b80601f01602080910402602001604051908101604052809291908181526020018280546104f39061139c565b80156105405780601f1061051557610100808354040283529160200191610540565b820191906000526020600020905b81548152906001019060200180831161052357829003601f168201915b5050505050905090565b600033610558818585610a97565b60019150505b92915050565b600033610572858285610bbc565b61057d858585610c36565b506001949350505050565b610590610dda565b336000908152600660205260409020548111156105c0576040516305019ec560e31b815260040160405180910390fd5b60095460405163bc22fd1b60e01b81523360048201526001600160a01b039091169063bc22fd1b90602401602060405180830381865afa158015610608573d6000803e3d6000fd5b505050506040513d601f19601f8201168201806040525081019061062c91906113d6565b336000908152600660205260409020546106469190611405565b811115610666576040516315aff59960e31b815260040160405180910390fd5b3360009081526006602052604081208054918391906106858385611405565b90915550610694905081610e33565b6008546106ab906001600160a01b03163384610e9c565b60405182815233907f0f5bb82176feb1b5e747e28471aa92156a04d9f3ab9f45f28e2d704232b93f759060200160405180910390a2506106eb6001600555565b50565b6000336105588185856107018383610a1f565b61070b9190611418565b610a97565b610718610dda565b3360009081526006602052604090205461073181610e33565b5061073c6001600555565b565b600a546001600160a01b0316331461076957604051633207547760e21b815260040160405180910390fd5b6107738282610ee5565b5050565b61077f610dda565b6107893382610fa4565b600c54600854604080516349b1e40960e11b81529051610814936001600160a01b0390811693339391169161080f9187918491639363c8129160048083019260209291908290030181865afa1580156107e6573d6000803e3d6000fd5b505050506040513d601f19601f8201168201806040525081019061080a91906113d6565b6110ce565b6110fc565b6008546040516307d8bbb160e21b8152336004820152602481018390526001600160a01b0390911690631f62eec490604401600060405180830381600087803b15801561086057600080fd5b505af1158015610874573d6000803e3d6000fd5b50506040518381523392507fb0538f3e3eda189dc2c2fc8e918f8023cbfc3e2a5495babec9898fe86a60a5bf91506020015b60405180910390a26106eb6001600555565b6060600480546104c79061139c565b600033816108d58286610a1f565b90508381101561093a5760405162461bcd60e51b815260206004820152602560248201527f45524332303a2064656372656173656420616c6c6f77616e63652062656c6f77604482015264207a65726f60d81b60648201526084015b60405180910390fd5b61057d8286868403610a97565b6001600160a01b03811660009081526006602052604081205461096a838261114a565b9392505050565b610979610dda565b3360009081526006602052604090205415610996576109966111c6565b3360009081526007602090815260408083204290556006909152812080548392906109c2908490611418565b90915550506008546109df906001600160a01b03163330846110fc565b60405181815233907f9e71bc8eea02a63969f509818f2dafb9254532904319f9dbda79b67bd34a5f3d906020016108a6565b600033610558818585610c36565b6001600160a01b03918216600090815260016020908152604080832093909416825291909152205490565b600b546001600160a01b03163314610a7557604051637bfa4b9f60e01b815260040160405180910390fd5b600a80546001600160a01b0319166001600160a01b0392909216919091179055565b6001600160a01b038316610af95760405162461bcd60e51b8152602060048201526024808201527f45524332303a20617070726f76652066726f6d20746865207a65726f206164646044820152637265737360e01b6064820152608401610931565b6001600160a01b038216610b5a5760405162461bcd60e51b815260206004820152602260248201527f45524332303a20617070726f766520746f20746865207a65726f206164647265604482015261737360f01b6064820152608401610931565b6001600160a01b0383811660008181526001602090815260408083209487168084529482529182902085905590518481527f8c5be1e5ebec7d5bd14f71427d1e84f3dd0314c0f7b2291e5b200ac8c7c3b92591015b60405180910390a3505050565b6000610bc88484610a1f565b90506000198114610c305781811015610c235760405162461bcd60e51b815260206004820152601d60248201527f45524332303a20696e73756666696369656e7420616c6c6f77616e63650000006044820152606401610931565b610c308484848403610a97565b50505050565b6001600160a01b038316610c9a5760405162461bcd60e51b815260206004820152602560248201527f45524332303a207472616e736665722066726f6d20746865207a65726f206164604482015264647265737360d81b6064820152608401610931565b6001600160a01b038216610cfc5760405162461bcd60e51b815260206004820152602360248201527f45524332303a207472616e7366657220746f20746865207a65726f206164647260448201526265737360e81b6064820152608401610931565b6001600160a01b03831660009081526020819052604090205481811015610d745760405162461bcd60e51b815260206004820152602660248201527f45524332303a207472616e7366657220616d6f756e7420657863656564732062604482015265616c616e636560d01b6064820152608401610931565b6001600160a01b03848116600081815260208181526040808320878703905593871680835291849020805487019055925185815290927fddf252ad1be2c89b69c2b068fc378daa952ba7f163c4a11628f55a4df523b3ef910160405180910390a3610c30565b600260055403610e2c5760405162461bcd60e51b815260206004820152601f60248201527f5265656e7472616e637947756172643a207265656e7472616e742063616c6c006044820152606401610931565b6002600555565b6000610e3f338361114a565b9050801561077357336000818152600760205260409020429055610e639082610ee5565b60405181815233907fd8138f8a3f377c5259ca548e70e4c2de94f129f5a11036a15b69513cba2b426a9060200160405180910390a25050565b81601a5280603a5269a9059cbb00000000000060005260206000604460166000875af13d156001600051141716610edb576390b8ec186000526004601cfd5b6000603a52505050565b6001600160a01b038216610f3b5760405162461bcd60e51b815260206004820152601f60248201527f45524332303a206d696e7420746f20746865207a65726f2061646472657373006044820152606401610931565b8060026000828254610f4d9190611418565b90915550506001600160a01b038216600081815260208181526040808320805486019055518481527fddf252ad1be2c89b69c2b068fc378daa952ba7f163c4a11628f55a4df523b3ef910160405180910390a35050565b6001600160a01b0382166110045760405162461bcd60e51b815260206004820152602160248201527f45524332303a206275726e2066726f6d20746865207a65726f206164647265736044820152607360f81b6064820152608401610931565b6001600160a01b038216600090815260208190526040902054818110156110785760405162461bcd60e51b815260206004820152602260248201527f45524332303a206275726e20616d6f756e7420657863656564732062616c616e604482015261636560f01b6064820152608401610931565b6001600160a01b0383166000818152602081815260408083208686039055600280548790039055518581529192917fddf252ad1be2c89b69c2b068fc378daa952ba7f163c4a11628f55a4df523b3ef9101610baf565b6000816000190483118202156110ec5763bac65e5b6000526004601cfd5b50670de0b6b3a764000091020490565b6040516323b872dd600052836020528260405281606052602060006064601c6000895af13d15600160005114171661113c57637939f4246000526004601cfd5b600060605260405250505050565b600080611156846111f3565b9050600061118760ff7f0000000000000000000000000000000000000000000000000000000000000000168561142b565b90506111bd8161080a847f000000000000000000000000000000000000000000000000000000000000000063ffffffff16611216565b95945050505050565b33600081815260066020526040812054916111e1908361114a565b9050801561077357610e633382610ee5565b6001600160a01b03811660009081526007602052604081205461055e9042611405565b60007812725dd1d243aba0e75fe645cc4873f9e65afe688c928e1f218311670de0b6b3a76400000215820261125357637c5f487d6000526004601cfd5b50670de0b6b3a7640000919091020490565b600060208083528351808285015260005b8181101561129257858101830151858201604001528201611276565b506000604082860101526040601f19601f8301168501019250505092915050565b80356001600160a01b03811681146112ca57600080fd5b919050565b600080604083850312156112e257600080fd5b6112eb836112b3565b946020939093013593505050565b60006020828403121561130b57600080fd5b61096a826112b3565b60008060006060848603121561132957600080fd5b611332846112b3565b9250611340602085016112b3565b9150604084013590509250925092565b60006020828403121561136257600080fd5b5035919050565b6000806040838503121561137c57600080fd5b611385836112b3565b9150611393602084016112b3565b90509250929050565b600181811c908216806113b057607f821691505b6020821081036113d057634e487b7160e01b600052602260045260246000fd5b50919050565b6000602082840312156113e857600080fd5b5051919050565b634e487b7160e01b600052601160045260246000fd5b8181038181111561055e5761055e6113ef565b8082018082111561055e5761055e6113ef565b60008261144857634e487b7160e01b600052601260045260246000fd5b50049056fea2646970667358221220cb4979f27dfcf88affe87c5ba1676a55ed33537f2247dcd8e581e52f90cde39164736f6c63430008130033",
    "linkReferences": {}
  },
  "methodIdentifiers": {
    "DAILY_EMISSISION_RATE()": "cb8ba58c",
    "DAYS_SECONDS()": "903d78fb",
    "adminAddress()": "fc6f9468",
    "allowance(address,address)": "dd62ed3e",
    "approve(address,uint256)": "095ea7b3",
    "balanceOf(address)": "70a08231",
    "borrowAddress()": "71b1803a",
    "claim()": "4e71d92d",
    "decimals()": "313ce567",
    "decreaseAllowance(address,uint256)": "a457c2d7",
    "gammAddress()": "1373df08",
    "getClaimable(address)": "a583024b",
    "getStakeStartTime(address)": "0eeea367",
    "getStaked(address)": "399080ec",
    "goldilendAddress()": "e9e910af",
    "goldilendMint(address,uint256)": "714b00c3",
    "honeyAddress()": "b3d8d079",
    "increaseAllowance(address,uint256)": "39509351",
    "name()": "06fdde03",
    "realize(uint256)": "770fc860",
    "setGoldilendAddress(address)": "f3a29503",
    "stake(uint256)": "a694fc3a",
    "stakeStartTime(address)": "6985e6d8",
    "staked(address)": "98807d84",
    "symbol()": "95d89b41",
    "totalSupply()": "18160ddd",
    "transfer(address,uint256)": "a9059cbb",
    "transferFrom(address,address,uint256)": "23b872dd",
    "unstake(uint256)": "2e17de78"
  },
  "id": 31
}