{
  "abi": [
    {
      "inputs": [
        {
          "internalType": "address",
          "name": "_gammAddress",
          "type": "address"
        },
        {
          "internalType": "address",
          "name": "_borrowAddress",
          "type": "address"
        },
        {
          "internalType": "address",
          "name": "_honeyAddress",
          "type": "address"
        }
      ],
      "stateMutability": "nonpayable",
      "type": "constructor"
    },
    {
      "inputs": [],
      "name": "InvalidUnstake",
      "type": "error"
    },
    {
      "inputs": [],
      "name": "LocksBorrowedAgainst",
      "type": "error"
    },
    {
      "inputs": [],
      "name": "NoClaimablePRG",
      "type": "error"
    },
    {
      "anonymous": false,
      "inputs": [
        {
          "indexed": true,
          "internalType": "address",
          "name": "owner",
          "type": "address"
        },
        {
          "indexed": true,
          "internalType": "address",
          "name": "spender",
          "type": "address"
        },
        {
          "indexed": false,
          "internalType": "uint256",
          "name": "value",
          "type": "uint256"
        }
      ],
      "name": "Approval",
      "type": "event"
    },
    {
      "anonymous": false,
      "inputs": [
        {
          "indexed": true,
          "internalType": "address",
          "name": "user",
          "type": "address"
        },
        {
          "indexed": false,
          "internalType": "uint256",
          "name": "amount",
          "type": "uint256"
        }
      ],
      "name": "Claimed",
      "type": "event"
    },
    {
      "anonymous": false,
      "inputs": [
        {
          "indexed": true,
          "internalType": "address",
          "name": "user",
          "type": "address"
        },
        {
          "indexed": false,
          "internalType": "uint256",
          "name": "amount",
          "type": "uint256"
        }
      ],
      "name": "Realized",
      "type": "event"
    },
    {
      "anonymous": false,
      "inputs": [
        {
          "indexed": true,
          "internalType": "address",
          "name": "user",
          "type": "address"
        },
        {
          "indexed": false,
          "internalType": "uint256",
          "name": "amount",
          "type": "uint256"
        }
      ],
      "name": "Staked",
      "type": "event"
    },
    {
      "anonymous": false,
      "inputs": [
        {
          "indexed": true,
          "internalType": "address",
          "name": "from",
          "type": "address"
        },
        {
          "indexed": true,
          "internalType": "address",
          "name": "to",
          "type": "address"
        },
        {
          "indexed": false,
          "internalType": "uint256",
          "name": "value",
          "type": "uint256"
        }
      ],
      "name": "Transfer",
      "type": "event"
    },
    {
      "anonymous": false,
      "inputs": [
        {
          "indexed": true,
          "internalType": "address",
          "name": "user",
          "type": "address"
        },
        {
          "indexed": false,
          "internalType": "uint256",
          "name": "amount",
          "type": "uint256"
        }
      ],
      "name": "Unstaked",
      "type": "event"
    },
    {
      "inputs": [],
      "name": "DAILY_EMISSISION_RATE",
      "outputs": [
        {
          "internalType": "uint8",
          "name": "",
          "type": "uint8"
        }
      ],
      "stateMutability": "view",
      "type": "function"
    },
    {
      "inputs": [],
      "name": "DAYS_SECONDS",
      "outputs": [
        {
          "internalType": "uint32",
          "name": "",
          "type": "uint32"
        }
      ],
      "stateMutability": "view",
      "type": "function"
    },
    {
      "inputs": [
        {
          "internalType": "address",
          "name": "owner",
          "type": "address"
        },
        {
          "internalType": "address",
          "name": "spender",
          "type": "address"
        }
      ],
      "name": "allowance",
      "outputs": [
        {
          "internalType": "uint256",
          "name": "",
          "type": "uint256"
        }
      ],
      "stateMutability": "view",
      "type": "function"
    },
    {
      "inputs": [
        {
          "internalType": "address",
          "name": "spender",
          "type": "address"
        },
        {
          "internalType": "uint256",
          "name": "amount",
          "type": "uint256"
        }
      ],
      "name": "approve",
      "outputs": [
        {
          "internalType": "bool",
          "name": "",
          "type": "bool"
        }
      ],
      "stateMutability": "nonpayable",
      "type": "function"
    },
    {
      "inputs": [
        {
          "internalType": "address",
          "name": "account",
          "type": "address"
        }
      ],
      "name": "balanceOf",
      "outputs": [
        {
          "internalType": "uint256",
          "name": "",
          "type": "uint256"
        }
      ],
      "stateMutability": "view",
      "type": "function"
    },
    {
      "inputs": [],
      "name": "borrowAddress",
      "outputs": [
        {
          "internalType": "address",
          "name": "",
          "type": "address"
        }
      ],
      "stateMutability": "view",
      "type": "function"
    },
    {
      "inputs": [],
      "name": "claim",
      "outputs": [],
      "stateMutability": "nonpayable",
      "type": "function"
    },
    {
      "inputs": [],
      "name": "decimals",
      "outputs": [
        {
          "internalType": "uint8",
          "name": "",
          "type": "uint8"
        }
      ],
      "stateMutability": "view",
      "type": "function"
    },
    {
      "inputs": [
        {
          "internalType": "address",
          "name": "spender",
          "type": "address"
        },
        {
          "internalType": "uint256",
          "name": "subtractedValue",
          "type": "uint256"
        }
      ],
      "name": "decreaseAllowance",
      "outputs": [
        {
          "internalType": "bool",
          "name": "",
          "type": "bool"
        }
      ],
      "stateMutability": "nonpayable",
      "type": "function"
    },
    {
      "inputs": [],
      "name": "gammAddress",
      "outputs": [
        {
          "internalType": "address",
          "name": "",
          "type": "address"
        }
      ],
      "stateMutability": "view",
      "type": "function"
    },
    {
      "inputs": [
        {
          "internalType": "address",
          "name": "user",
          "type": "address"
        }
      ],
      "name": "getClaimable",
      "outputs": [
        {
          "internalType": "uint256",
          "name": "",
          "type": "uint256"
        }
      ],
      "stateMutability": "view",
      "type": "function"
    },
    {
      "inputs": [
        {
          "internalType": "address",
          "name": "user",
          "type": "address"
        }
      ],
      "name": "getStakeStartTime",
      "outputs": [
        {
          "internalType": "uint256",
          "name": "",
          "type": "uint256"
        }
      ],
      "stateMutability": "view",
      "type": "function"
    },
    {
      "inputs": [
        {
          "internalType": "address",
          "name": "user",
          "type": "address"
        }
      ],
      "name": "getStaked",
      "outputs": [
        {
          "internalType": "uint256",
          "name": "",
          "type": "uint256"
        }
      ],
      "stateMutability": "view",
      "type": "function"
    },
    {
      "inputs": [],
      "name": "honeyAddress",
      "outputs": [
        {
          "internalType": "address",
          "name": "",
          "type": "address"
        }
      ],
      "stateMutability": "view",
      "type": "function"
    },
    {
      "inputs": [
        {
          "internalType": "address",
          "name": "spender",
          "type": "address"
        },
        {
          "internalType": "uint256",
          "name": "addedValue",
          "type": "uint256"
        }
      ],
      "name": "increaseAllowance",
      "outputs": [
        {
          "internalType": "bool",
          "name": "",
          "type": "bool"
        }
      ],
      "stateMutability": "nonpayable",
      "type": "function"
    },
    {
      "inputs": [],
      "name": "name",
      "outputs": [
        {
          "internalType": "string",
          "name": "",
          "type": "string"
        }
      ],
      "stateMutability": "view",
      "type": "function"
    },
    {
      "inputs": [
        {
          "internalType": "uint256",
          "name": "amount",
          "type": "uint256"
        }
      ],
      "name": "realize",
      "outputs": [],
      "stateMutability": "nonpayable",
      "type": "function"
    },
    {
      "inputs": [
        {
          "internalType": "uint256",
          "name": "amount",
          "type": "uint256"
        }
      ],
      "name": "stake",
      "outputs": [],
      "stateMutability": "nonpayable",
      "type": "function"
    },
    {
      "inputs": [
        {
          "internalType": "address",
          "name": "",
          "type": "address"
        }
      ],
      "name": "stakeStartTime",
      "outputs": [
        {
          "internalType": "uint256",
          "name": "",
          "type": "uint256"
        }
      ],
      "stateMutability": "view",
      "type": "function"
    },
    {
      "inputs": [
        {
          "internalType": "address",
          "name": "",
          "type": "address"
        }
      ],
      "name": "staked",
      "outputs": [
        {
          "internalType": "uint256",
          "name": "",
          "type": "uint256"
        }
      ],
      "stateMutability": "view",
      "type": "function"
    },
    {
      "inputs": [],
      "name": "symbol",
      "outputs": [
        {
          "internalType": "string",
          "name": "",
          "type": "string"
        }
      ],
      "stateMutability": "view",
      "type": "function"
    },
    {
      "inputs": [],
      "name": "totalSupply",
      "outputs": [
        {
          "internalType": "uint256",
          "name": "",
          "type": "uint256"
        }
      ],
      "stateMutability": "view",
      "type": "function"
    },
    {
      "inputs": [
        {
          "internalType": "address",
          "name": "to",
          "type": "address"
        },
        {
          "internalType": "uint256",
          "name": "amount",
          "type": "uint256"
        }
      ],
      "name": "transfer",
      "outputs": [
        {
          "internalType": "bool",
          "name": "",
          "type": "bool"
        }
      ],
      "stateMutability": "nonpayable",
      "type": "function"
    },
    {
      "inputs": [
        {
          "internalType": "address",
          "name": "from",
          "type": "address"
        },
        {
          "internalType": "address",
          "name": "to",
          "type": "address"
        },
        {
          "internalType": "uint256",
          "name": "amount",
          "type": "uint256"
        }
      ],
      "name": "transferFrom",
      "outputs": [
        {
          "internalType": "bool",
          "name": "",
          "type": "bool"
        }
      ],
      "stateMutability": "nonpayable",
      "type": "function"
    },
    {
      "inputs": [
        {
          "internalType": "uint256",
          "name": "amount",
          "type": "uint256"
        }
      ],
      "name": "unstake",
      "outputs": [],
      "stateMutability": "nonpayable",
      "type": "function"
    }
  ],
  "bytecode": {
    "object": "0x60c06040526201518060805260c860a0523480156200001d57600080fd5b50604051620016253803806200162583398101604081905262000040916200010b565b6040518060400160405280600e81526020016d2837b93934b233b2902a37b5b2b760911b8152506040518060400160405280600381526020016250524760e81b8152508160039081620000949190620001fa565b506004620000a38282620001fa565b5050600160055550600880546001600160a01b039485166001600160a01b0319918216179091556009805493851693821693909317909255600a8054919093169116179055620002c6565b80516001600160a01b03811681146200010657600080fd5b919050565b6000806000606084860312156200012157600080fd5b6200012c84620000ee565b92506200013c60208501620000ee565b91506200014c60408501620000ee565b90509250925092565b634e487b7160e01b600052604160045260246000fd5b600181811c908216806200018057607f821691505b602082108103620001a157634e487b7160e01b600052602260045260246000fd5b50919050565b601f821115620001f557600081815260208120601f850160051c81016020861015620001d05750805b601f850160051c820191505b81811015620001f157828155600101620001dc565b5050505b505050565b81516001600160401b0381111562000216576200021662000155565b6200022e816200022784546200016b565b84620001a7565b602080601f8311600181146200026657600084156200024d5750858301515b600019600386901b1c1916600185901b178555620001f1565b600085815260208120601f198616915b82811015620002975788860151825594840194600190910190840162000276565b5085821015620002b65787850151600019600388901b60f8161c191681555b5050505050600190811b01905550565b60805160a05161132b620002fa600039600081816103db0152610f860152600081816103180152610fb8015261132b6000f3fe608060405234801561001057600080fd5b50600436106101735760003560e01c806370a08231116100de578063a457c2d711610097578063a9059cbb11610071578063a9059cbb146103b0578063b3d8d079146103c3578063cb8ba58c146103d6578063dd62ed3e146103fd57600080fd5b8063a457c2d714610377578063a583024b1461038a578063a694fc3a1461039d57600080fd5b806370a08231146102c457806371b1803a146102ed578063770fc86014610300578063903d78fb1461031357806395d89b411461034f57806398807d841461035757600080fd5b80632e17de78116101305780632e17de7814610236578063313ce5671461024b5780633950935114610260578063399080ec146102735780634e71d92d1461029c5780636985e6d8146102a457600080fd5b806306fdde0314610178578063095ea7b3146101965780630eeea367146101b95780631373df08146101f057806318160ddd1461021b57806323b872dd14610223575b600080fd5b610180610410565b60405161018d91906110f6565b60405180910390f35b6101a96101a4366004611160565b6104a2565b604051901515815260200161018d565b6101e26101c736600461118a565b6001600160a01b031660009081526007602052604090205490565b60405190815260200161018d565b600854610203906001600160a01b031681565b6040516001600160a01b03909116815260200161018d565b6002546101e2565b6101a96102313660046111a5565b6104bc565b6102496102443660046111e1565b6104e0565b005b60125b60405160ff909116815260200161018d565b6101a961026e366004611160565b610646565b6101e261028136600461118a565b6001600160a01b031660009081526006602052604090205490565b610249610668565b6101e26102b236600461118a565b60076020526000908152604090205481565b6101e26102d236600461118a565b6001600160a01b031660009081526020819052604090205490565b600954610203906001600160a01b031681565b61024961030e3660046111e1565b610696565b61033a7f000000000000000000000000000000000000000000000000000000000000000081565b60405163ffffffff909116815260200161018d565b6101806107d7565b6101e261036536600461118a565b60066020526000908152604090205481565b6101a9610385366004611160565b6107e6565b6101e261039836600461118a565b610866565b6102496103ab3660046111e1565b610887565b6101a96103be366004611160565b610927565b600a54610203906001600160a01b031681565b61024e7f000000000000000000000000000000000000000000000000000000000000000081565b6101e261040b3660046111fa565b610935565b60606003805461041f9061122d565b80601f016020809104026020016040519081016040528092919081815260200182805461044b9061122d565b80156104985780601f1061046d57610100808354040283529160200191610498565b820191906000526020600020905b81548152906001019060200180831161047b57829003601f168201915b5050505050905090565b6000336104b0818585610960565b60019150505b92915050565b6000336104ca858285610a85565b6104d5858585610aff565b506001949350505050565b6104e8610ca3565b33600090815260066020526040902054811115610518576040516305019ec560e31b815260040160405180910390fd5b60095460405163bc22fd1b60e01b81523360048201526001600160a01b039091169063bc22fd1b90602401602060405180830381865afa158015610560573d6000803e3d6000fd5b505050506040513d601f19601f820116820180604052508101906105849190611267565b3360009081526006602052604090205461059e9190611296565b8111156105be576040516315aff59960e31b815260040160405180910390fd5b3360009081526006602052604081208054918391906105dd8385611296565b909155506105ec905081610cfc565b600854610603906001600160a01b03163384610d80565b60405182815233907f0f5bb82176feb1b5e747e28471aa92156a04d9f3ab9f45f28e2d704232b93f759060200160405180910390a2506106436001600555565b50565b6000336104b08185856106598383610935565b61066391906112a9565b610960565b610670610ca3565b3360009081526006602052604090205461068981610cfc565b506106946001600555565b565b61069e610ca3565b6106a83382610dc9565b600a54600854604080516349b1e40960e11b81529051610733936001600160a01b0390811693339391169161072e9187918491639363c8129160048083019260209291908290030181865afa158015610705573d6000803e3d6000fd5b505050506040513d601f19601f820116820180604052508101906107299190611267565b610ef3565b610f21565b6008546040516307d8bbb160e21b8152336004820152602481018390526001600160a01b0390911690631f62eec490604401600060405180830381600087803b15801561077f57600080fd5b505af1158015610793573d6000803e3d6000fd5b50506040518381523392507fb0538f3e3eda189dc2c2fc8e918f8023cbfc3e2a5495babec9898fe86a60a5bf91506020015b60405180910390a26106436001600555565b60606004805461041f9061122d565b600033816107f48286610935565b9050838110156108595760405162461bcd60e51b815260206004820152602560248201527f45524332303a2064656372656173656420616c6c6f77616e63652062656c6f77604482015264207a65726f60d81b60648201526084015b60405180910390fd5b6104d58286868403610960565b336000908152600660205260408120546108808382610f6f565b9392505050565b61088f610ca3565b33600090815260066020526040902054156108ac576108ac610ff1565b3360009081526007602090815260408083204290556006909152812080548392906108d89084906112a9565b90915550506008546108f5906001600160a01b0316333084610f21565b60405181815233907f9e71bc8eea02a63969f509818f2dafb9254532904319f9dbda79b67bd34a5f3d906020016107c5565b6000336104b0818585610aff565b6001600160a01b03918216600090815260016020908152604080832093909416825291909152205490565b6001600160a01b0383166109c25760405162461bcd60e51b8152602060048201526024808201527f45524332303a20617070726f76652066726f6d20746865207a65726f206164646044820152637265737360e01b6064820152608401610850565b6001600160a01b038216610a235760405162461bcd60e51b815260206004820152602260248201527f45524332303a20617070726f766520746f20746865207a65726f206164647265604482015261737360f01b6064820152608401610850565b6001600160a01b0383811660008181526001602090815260408083209487168084529482529182902085905590518481527f8c5be1e5ebec7d5bd14f71427d1e84f3dd0314c0f7b2291e5b200ac8c7c3b92591015b60405180910390a3505050565b6000610a918484610935565b90506000198114610af95781811015610aec5760405162461bcd60e51b815260206004820152601d60248201527f45524332303a20696e73756666696369656e7420616c6c6f77616e63650000006044820152606401610850565b610af98484848403610960565b50505050565b6001600160a01b038316610b635760405162461bcd60e51b815260206004820152602560248201527f45524332303a207472616e736665722066726f6d20746865207a65726f206164604482015264647265737360d81b6064820152608401610850565b6001600160a01b038216610bc55760405162461bcd60e51b815260206004820152602360248201527f45524332303a207472616e7366657220746f20746865207a65726f206164647260448201526265737360e81b6064820152608401610850565b6001600160a01b03831660009081526020819052604090205481811015610c3d5760405162461bcd60e51b815260206004820152602660248201527f45524332303a207472616e7366657220616d6f756e7420657863656564732062604482015265616c616e636560d01b6064820152608401610850565b6001600160a01b03848116600081815260208181526040808320878703905593871680835291849020805487019055925185815290927fddf252ad1be2c89b69c2b068fc378daa952ba7f163c4a11628f55a4df523b3ef910160405180910390a3610af9565b600260055403610cf55760405162461bcd60e51b815260206004820152601f60248201527f5265656e7472616e637947756172643a207265656e7472616e742063616c6c006044820152606401610850565b6002600555565b6000610d083383610f6f565b905080600003610d2b5760405163018bb28760e01b815260040160405180910390fd5b336000818152600760205260409020429055610d479082611014565b60405181815233907fd8138f8a3f377c5259ca548e70e4c2de94f129f5a11036a15b69513cba2b426a9060200160405180910390a25050565b81601a5280603a5269a9059cbb00000000000060005260206000604460166000875af13d156001600051141716610dbf576390b8ec186000526004601cfd5b6000603a52505050565b6001600160a01b038216610e295760405162461bcd60e51b815260206004820152602160248201527f45524332303a206275726e2066726f6d20746865207a65726f206164647265736044820152607360f81b6064820152608401610850565b6001600160a01b03821660009081526020819052604090205481811015610e9d5760405162461bcd60e51b815260206004820152602260248201527f45524332303a206275726e20616d6f756e7420657863656564732062616c616e604482015261636560f01b6064820152608401610850565b6001600160a01b0383166000818152602081815260408083208686039055600280548790039055518581529192917fddf252ad1be2c89b69c2b068fc378daa952ba7f163c4a11628f55a4df523b3ef9101610a78565b600081600019048311820215610f115763bac65e5b6000526004601cfd5b50670de0b6b3a764000091020490565b6040516323b872dd600052836020528260405281606052602060006064601c6000895af13d156001600051141716610f6157637939f4246000526004601cfd5b600060605260405250505050565b600080610f7b846110d3565b90506000610fac60ff7f000000000000000000000000000000000000000000000000000000000000000016856112bc565b9050610fde63ffffffff7f000000000000000000000000000000000000000000000000000000000000000016836112bc565b610fe890826112de565b95945050505050565b336000818152600660205260408120549161100c9083610f6f565b9050610d4733825b6001600160a01b03821661106a5760405162461bcd60e51b815260206004820152601f60248201527f45524332303a206d696e7420746f20746865207a65726f2061646472657373006044820152606401610850565b806002600082825461107c91906112a9565b90915550506001600160a01b038216600081815260208181526040808320805486019055518481527fddf252ad1be2c89b69c2b068fc378daa952ba7f163c4a11628f55a4df523b3ef910160405180910390a35050565b6001600160a01b0381166000908152600760205260408120546104b69042611296565b600060208083528351808285015260005b8181101561112357858101830151858201604001528201611107565b506000604082860101526040601f19601f8301168501019250505092915050565b80356001600160a01b038116811461115b57600080fd5b919050565b6000806040838503121561117357600080fd5b61117c83611144565b946020939093013593505050565b60006020828403121561119c57600080fd5b61088082611144565b6000806000606084860312156111ba57600080fd5b6111c384611144565b92506111d160208501611144565b9150604084013590509250925092565b6000602082840312156111f357600080fd5b5035919050565b6000806040838503121561120d57600080fd5b61121683611144565b915061122460208401611144565b90509250929050565b600181811c9082168061124157607f821691505b60208210810361126157634e487b7160e01b600052602260045260246000fd5b50919050565b60006020828403121561127957600080fd5b5051919050565b634e487b7160e01b600052601160045260246000fd5b818103818111156104b6576104b6611280565b808201808211156104b6576104b6611280565b6000826112d957634e487b7160e01b600052601260045260246000fd5b500490565b80820281158282048414176104b6576104b661128056fea26469706673582212201263da81da5d6ea2f8d1f09e2c0c086fff14c35bc361bb8bf33b3e735bb20ecb64736f6c63430008130033",
    "linkReferences": {}
  },
  "methodIdentifiers": {
    "DAILY_EMISSISION_RATE()": "cb8ba58c",
    "DAYS_SECONDS()": "903d78fb",
    "allowance(address,address)": "dd62ed3e",
    "approve(address,uint256)": "095ea7b3",
    "balanceOf(address)": "70a08231",
    "borrowAddress()": "71b1803a",
    "claim()": "4e71d92d",
    "decimals()": "313ce567",
    "decreaseAllowance(address,uint256)": "a457c2d7",
    "gammAddress()": "1373df08",
    "getClaimable(address)": "a583024b",
    "getStakeStartTime(address)": "0eeea367",
    "getStaked(address)": "399080ec",
    "honeyAddress()": "b3d8d079",
    "increaseAllowance(address,uint256)": "39509351",
    "name()": "06fdde03",
    "realize(uint256)": "770fc860",
    "stake(uint256)": "a694fc3a",
    "stakeStartTime(address)": "6985e6d8",
    "staked(address)": "98807d84",
    "symbol()": "95d89b41",
    "totalSupply()": "18160ddd",
    "transfer(address,uint256)": "a9059cbb",
    "transferFrom(address,address,uint256)": "23b872dd",
    "unstake(uint256)": "2e17de78"
  },
  "id": 18
}