{
  "abi": [
    {
      "inputs": [
        {
          "internalType": "address",
          "name": "_locksAddress",
          "type": "address"
        },
        {
          "internalType": "address",
          "name": "_adminAddress",
          "type": "address"
        }
      ],
      "stateMutability": "nonpayable",
      "type": "constructor"
    },
    {
      "anonymous": false,
      "inputs": [
        {
          "indexed": true,
          "internalType": "address",
          "name": "user",
          "type": "address"
        },
        {
          "indexed": false,
          "internalType": "uint256",
          "name": "amount",
          "type": "uint256"
        }
      ],
      "name": "Buy",
      "type": "event"
    },
    {
      "anonymous": false,
      "inputs": [
        {
          "indexed": true,
          "internalType": "address",
          "name": "user",
          "type": "address"
        },
        {
          "indexed": false,
          "internalType": "uint256",
          "name": "amount",
          "type": "uint256"
        }
      ],
      "name": "Redeem",
      "type": "event"
    },
    {
      "anonymous": false,
      "inputs": [
        {
          "indexed": true,
          "internalType": "address",
          "name": "user",
          "type": "address"
        },
        {
          "indexed": false,
          "internalType": "uint256",
          "name": "amount",
          "type": "uint256"
        }
      ],
      "name": "Sale",
      "type": "event"
    },
    {
      "inputs": [
        {
          "internalType": "uint256",
          "name": "_fsl",
          "type": "uint256"
        },
        {
          "internalType": "uint256",
          "name": "_supply",
          "type": "uint256"
        }
      ],
      "name": "_floorPrice",
      "outputs": [
        {
          "internalType": "uint256",
          "name": "",
          "type": "uint256"
        }
      ],
      "stateMutability": "pure",
      "type": "function"
    },
    {
      "inputs": [
        {
          "internalType": "uint256",
          "name": "_fsl",
          "type": "uint256"
        },
        {
          "internalType": "uint256",
          "name": "_psl",
          "type": "uint256"
        },
        {
          "internalType": "uint256",
          "name": "_supply",
          "type": "uint256"
        }
      ],
      "name": "_marketPrice",
      "outputs": [
        {
          "internalType": "uint256",
          "name": "",
          "type": "uint256"
        }
      ],
      "stateMutability": "pure",
      "type": "function"
    },
    {
      "inputs": [],
      "name": "adminAddress",
      "outputs": [
        {
          "internalType": "address",
          "name": "",
          "type": "address"
        }
      ],
      "stateMutability": "view",
      "type": "function"
    },
    {
      "inputs": [
        {
          "internalType": "uint256",
          "name": "_amount",
          "type": "uint256"
        },
        {
          "internalType": "uint256",
          "name": "_maxAmount",
          "type": "uint256"
        }
      ],
      "name": "buy",
      "outputs": [
        {
          "internalType": "uint256",
          "name": "",
          "type": "uint256"
        },
        {
          "internalType": "uint256",
          "name": "",
          "type": "uint256"
        }
      ],
      "stateMutability": "nonpayable",
      "type": "function"
    },
    {
      "inputs": [],
      "name": "floorPrice",
      "outputs": [
        {
          "internalType": "uint256",
          "name": "",
          "type": "uint256"
        }
      ],
      "stateMutability": "view",
      "type": "function"
    },
    {
      "inputs": [],
      "name": "fsl",
      "outputs": [
        {
          "internalType": "uint256",
          "name": "",
          "type": "uint256"
        }
      ],
      "stateMutability": "view",
      "type": "function"
    },
    {
      "inputs": [
        {
          "internalType": "uint256",
          "name": "_fsl",
          "type": "uint256"
        },
        {
          "internalType": "uint256",
          "name": "_psl",
          "type": "uint256"
        }
      ],
      "name": "initialize",
      "outputs": [],
      "stateMutability": "nonpayable",
      "type": "function"
    },
    {
      "inputs": [],
      "name": "lastFloorDecrease",
      "outputs": [
        {
          "internalType": "uint256",
          "name": "",
          "type": "uint256"
        }
      ],
      "stateMutability": "view",
      "type": "function"
    },
    {
      "inputs": [],
      "name": "lastFloorRaise",
      "outputs": [
        {
          "internalType": "uint256",
          "name": "",
          "type": "uint256"
        }
      ],
      "stateMutability": "view",
      "type": "function"
    },
    {
      "inputs": [],
      "name": "locksAddress",
      "outputs": [
        {
          "internalType": "address",
          "name": "",
          "type": "address"
        }
      ],
      "stateMutability": "view",
      "type": "function"
    },
    {
      "inputs": [],
      "name": "psl",
      "outputs": [
        {
          "internalType": "uint256",
          "name": "",
          "type": "uint256"
        }
      ],
      "stateMutability": "view",
      "type": "function"
    },
    {
      "inputs": [
        {
          "internalType": "uint256",
          "name": "_amount",
          "type": "uint256"
        }
      ],
      "name": "redeem",
      "outputs": [],
      "stateMutability": "nonpayable",
      "type": "function"
    },
    {
      "inputs": [
        {
          "internalType": "uint256",
          "name": "_amount",
          "type": "uint256"
        },
        {
          "internalType": "uint256",
          "name": "_minAmount",
          "type": "uint256"
        }
      ],
      "name": "sell",
      "outputs": [
        {
          "internalType": "uint256",
          "name": "",
          "type": "uint256"
        },
        {
          "internalType": "uint256",
          "name": "",
          "type": "uint256"
        }
      ],
      "stateMutability": "nonpayable",
      "type": "function"
    },
    {
      "inputs": [
        {
          "internalType": "address",
          "name": "_honeyAddress",
          "type": "address"
        }
      ],
      "name": "setHoneyAddress",
      "outputs": [],
      "stateMutability": "nonpayable",
      "type": "function"
    },
    {
      "inputs": [],
      "name": "supply",
      "outputs": [
        {
          "internalType": "uint256",
          "name": "",
          "type": "uint256"
        }
      ],
      "stateMutability": "view",
      "type": "function"
    },
    {
      "inputs": [],
      "name": "targetRatio",
      "outputs": [
        {
          "internalType": "uint256",
          "name": "",
          "type": "uint256"
        }
      ],
      "stateMutability": "view",
      "type": "function"
    }
  ],
  "bytecode": {
    "object": "0x608060405267039bb49f599a0000600255600160055534801561002157600080fd5b50604051610e56380380610e56833981016040819052610040916100a3565b600180546001600160a01b039384166001600160a01b03199182168117909255600880549390941692811692909217909255600980549091169091179055426006556100d6565b80516001600160a01b038116811461009e57600080fd5b919050565b600080604083850312156100b657600080fd5b6100bf83610087565b91506100cd60208401610087565b90509250929050565b610d71806100e56000396000f3fe608060405234801561001057600080fd5b50600436106101005760003560e01c8063d054a16f11610097578063db006a7511610066578063db006a75146101e2578063db9ed213146101f7578063e4a301161461020a578063fc6f94681461021d57600080fd5b8063d054a16f14610195578063d2b478ed1461019e578063d6febde8146101a7578063d79875eb146101cf57600080fd5b80635a08bd17116100d35780635a08bd171461016857806380468812146101715780639363c8121461017a5780639fa393fb1461018257600080fd5b8063047fc9aa146101055780631db77a4d1461012157806329d2e6871461012a57806348757e841461013d575b600080fd5b61010e60055481565b6040519081526020015b60405180910390f35b61010e60035481565b61010e610138366004610b1b565b610230565b600954610150906001600160a01b031681565b6040516001600160a01b039091168152602001610118565b61010e60025481565b61010e60045481565b61010e6102d8565b61010e610190366004610b47565b610302565b61010e60075481565b61010e60065481565b6101ba6101b5366004610b47565b61032a565b60408051928352602083019190915201610118565b6101ba6101dd366004610b47565b6105e0565b6101f56101f0366004610b69565b6107dd565b005b6101f5610205366004610b82565b610989565b6101f5610218366004610b47565b6109f1565b600854610150906001600160a01b031681565b60008082610243856402540be400610bc8565b61024d9190610be7565b905060008561025c8187610c09565b61026990620186a0610bc8565b6102739190610be7565b90506000610282600583610d00565b905060008561029989670de0b6b3a7640000610bc8565b6102a39190610be7565b905067016345785d8a00006102b88386610bc8565b6102c29190610be7565b6102cc9082610c09565b98975050505050505050565b6000600554600354670de0b6b3a76400006102f39190610bc8565b6102fd9190610be7565b905090565b60008161031784670de0b6b3a7640000610bc8565b6103219190610be7565b90505b92915050565b600554600354600454600092839290918691908480805b670de0b6b3a764000086106103f15761035b858589610230565b92506103678588610302565b91506103738382610c09565b9050610387670de0b6b3a764000088610c09565b9650610394856024610bc8565b61039f856064610bc8565b106103b5576103ae8386610c09565b94506103d8565b6103bf8284610d0f565b6103c99085610c09565b93506103d58286610c09565b94505b6103ea670de0b6b3a764000087610d0f565b9550610341565b85156104ec57610402858589610230565b925061040e8588610302565b9150670de0b6b3a76400006104238785610bc8565b61042d9190610be7565b6104379082610c09565b90506104438688610c09565b9650610450856024610bc8565b61045b856064610bc8565b1061048e57670de0b6b3a76400006104738785610bc8565b61047d9190610be7565b6104879086610c09565b94506104ec565b670de0b6b3a7640000866104a28486610d0f565b6104ac9190610bc8565b6104b69190610be7565b6104c09085610c09565b9350670de0b6b3a76400006104d58784610bc8565b6104df9190610be7565b6104e99086610c09565b94505b60006104fa6103e883610be7565b610505906003610bc8565b90506105118187610c09565b600355600485905560058890558a6105298284610c09565b11156105705760405162461bcd60e51b8152602060048201526011602482015270746f6f206d75636820736c69707061676560781b60448201526064015b60405180910390fd5b610578610a42565b6040518c815233907fe3d4187f6ca4248660cc0ac8b8056515bac4a8132be2eca31d6d0cc170722a7e906020015b60405180910390a26105bf600354600454600554610230565b6105cd600354600554610302565b9950995050505050505050509250929050565b600554600354600454600092839290918691908480805b670de0b6b3a7640000861061067a57610611858589610230565b915061061d8588610302565b90506106298284610c09565b92506106358183610d0f565b61063f9085610d0f565b935061064b8186610d0f565b945061065f670de0b6b3a764000088610d0f565b9650610673670de0b6b3a764000087610d0f565b95506105f7565b851561072c5761068b858589610230565b91506106978588610302565b9050670de0b6b3a76400006106ac8784610bc8565b6106b69190610be7565b6106c09084610c09565b9250670de0b6b3a7640000866106d68385610d0f565b6106e09190610bc8565b6106ea9190610be7565b6106f49085610d0f565b9350670de0b6b3a76400006107098783610bc8565b6107139190610be7565b61071d9086610d0f565b94506107298688610d0f565b96505b600061073a6103e885610be7565b610745906035610bc8565b90508a6107528286610c09565b10156107945760405162461bcd60e51b8152602060048201526011602482015270746f6f206d75636820736c69707061676560781b6044820152606401610567565b61079e8187610c09565b600355600485905560058890556040518c815233907fc6851889326b4ff916523ef06f539b4cf0b81d78fc6e0f97c30e6223d1831990906020016105a6565b600081116108225760405162461bcd60e51b815260206004820152601260248201527163616e6e6f742072656465656d207a65726f60701b6044820152606401610567565b6009546040516370a0823160e01b815233600482015282916001600160a01b0316906370a0823190602401602060405180830381865afa15801561086a573d6000803e3d6000fd5b505050506040513d601f19601f8201168201806040525081019061088e9190610d22565b10156108d35760405162461bcd60e51b8152602060048201526014602482015273696e73756666696369656e742062616c616e636560601b6044820152606401610567565b6000670de0b6b3a7640000600554600354670de0b6b3a76400006108f79190610bc8565b6109019190610be7565b61090b9084610bc8565b6109159190610be7565b905081600560008282546109299190610d0f565b9250508190555080600360008282546109429190610d0f565b909155506109509050610a42565b60405182815233907f222838db2794d11532d940e8dec38ae307ed0b63cd97c233322e221f998767a69060200160405180910390a25050565b6008546001600160a01b031633146109cf5760405162461bcd60e51b81526020600482015260096024820152683737ba1030b236b4b760b91b6044820152606401610567565b600080546001600160a01b0319166001600160a01b0392909216919091179055565b6009546001600160a01b03163314610a375760405162461bcd60e51b81526020600482015260096024820152686e6f74206c6f636b7360b81b6044820152606401610567565b600391909155600455565b600254600354600454610a5d90670de0b6b3a7640000610bc8565b610a679190610be7565b10610b19576000670de0b6b3a76400006020600454610a869190610be7565b600354600454610a9e90670de0b6b3a7640000610bc8565b610aa89190610be7565b610ab29190610bc8565b610abc9190610be7565b90508060046000828254610ad09190610d0f565b925050819055508060036000828254610ae99190610c09565b9091555050600254610afd90603290610be7565b60026000828254610b0e9190610c09565b909155505042600655505b565b600080600060608486031215610b3057600080fd5b505081359360208301359350604090920135919050565b60008060408385031215610b5a57600080fd5b50508035926020909101359150565b600060208284031215610b7b57600080fd5b5035919050565b600060208284031215610b9457600080fd5b81356001600160a01b0381168114610bab57600080fd5b9392505050565b634e487b7160e01b600052601160045260246000fd5b6000816000190483118215151615610be257610be2610bb2565b500290565b600082610c0457634e487b7160e01b600052601260045260246000fd5b500490565b8082018082111561032457610324610bb2565b600181815b80851115610c57578160001904821115610c3d57610c3d610bb2565b80851615610c4a57918102915b93841c9390800290610c21565b509250929050565b600082610c6e57506001610324565b81610c7b57506000610324565b8160018114610c915760028114610c9b57610cb7565b6001915050610324565b60ff841115610cac57610cac610bb2565b50506001821b610324565b5060208310610133831016604e8410600b8410161715610cda575081810a610324565b610ce48383610c1c565b8060001904821115610cf857610cf8610bb2565b029392505050565b600061032160ff841683610c5f565b8181038181111561032457610324610bb2565b600060208284031215610d3457600080fd5b505191905056fea264697066735822122087bdd5bfb3bffb6d4d0e2de2af9757d03b127dc90e76cb278c23591480b0fc5d64736f6c63430008100033",
    "linkReferences": {}
  },
  "methodIdentifiers": {
    "_floorPrice(uint256,uint256)": "9fa393fb",
    "_marketPrice(uint256,uint256,uint256)": "29d2e687",
    "adminAddress()": "fc6f9468",
    "buy(uint256,uint256)": "d6febde8",
    "floorPrice()": "9363c812",
    "fsl()": "1db77a4d",
    "initialize(uint256,uint256)": "e4a30116",
    "lastFloorDecrease()": "d054a16f",
    "lastFloorRaise()": "d2b478ed",
    "locksAddress()": "48757e84",
    "psl()": "80468812",
    "redeem(uint256)": "db006a75",
    "sell(uint256,uint256)": "d79875eb",
    "setHoneyAddress(address)": "db9ed213",
    "supply()": "047fc9aa",
    "targetRatio()": "5a08bd17"
  },
  "id": 12
}