{
  "abi": [
    {
      "inputs": [
        {
          "internalType": "address",
          "name": "_locksAddress",
          "type": "address"
        }
      ],
      "stateMutability": "nonpayable",
      "type": "constructor"
    },
    {
      "inputs": [],
      "name": "ammBalance",
      "outputs": [
        {
          "internalType": "uint256",
          "name": "",
          "type": "uint256"
        }
      ],
      "stateMutability": "view",
      "type": "function"
    },
    {
      "inputs": [],
      "name": "exponent",
      "outputs": [
        {
          "internalType": "uint256",
          "name": "",
          "type": "uint256"
        }
      ],
      "stateMutability": "view",
      "type": "function"
    },
    {
      "inputs": [],
      "name": "floorPrice",
      "outputs": [
        {
          "internalType": "uint256",
          "name": "",
          "type": "uint256"
        }
      ],
      "stateMutability": "view",
      "type": "function"
    },
    {
      "inputs": [],
      "name": "floorRaise",
      "outputs": [],
      "stateMutability": "nonpayable",
      "type": "function"
    },
    {
      "inputs": [],
      "name": "fsl",
      "outputs": [
        {
          "internalType": "uint256",
          "name": "",
          "type": "uint256"
        }
      ],
      "stateMutability": "view",
      "type": "function"
    },
    {
      "inputs": [],
      "name": "lastFloorRaise",
      "outputs": [
        {
          "internalType": "uint256",
          "name": "",
          "type": "uint256"
        }
      ],
      "stateMutability": "view",
      "type": "function"
    },
    {
      "inputs": [],
      "name": "marketPrice",
      "outputs": [
        {
          "internalType": "uint256",
          "name": "",
          "type": "uint256"
        }
      ],
      "stateMutability": "view",
      "type": "function"
    },
    {
      "inputs": [
        {
          "internalType": "uint256",
          "name": "_fsl",
          "type": "uint256"
        },
        {
          "internalType": "uint256",
          "name": "_supply",
          "type": "uint256"
        }
      ],
      "name": "oldFloorPrice",
      "outputs": [
        {
          "internalType": "uint256",
          "name": "",
          "type": "uint256"
        }
      ],
      "stateMutability": "pure",
      "type": "function"
    },
    {
      "inputs": [
        {
          "internalType": "uint256",
          "name": "_fsl",
          "type": "uint256"
        },
        {
          "internalType": "uint256",
          "name": "_psl",
          "type": "uint256"
        },
        {
          "internalType": "uint256",
          "name": "_supply",
          "type": "uint256"
        }
      ],
      "name": "oldMarketPrice",
      "outputs": [
        {
          "internalType": "uint256",
          "name": "",
          "type": "uint256"
        }
      ],
      "stateMutability": "pure",
      "type": "function"
    },
    {
      "inputs": [],
      "name": "psl",
      "outputs": [
        {
          "internalType": "uint256",
          "name": "",
          "type": "uint256"
        }
      ],
      "stateMutability": "view",
      "type": "function"
    },
    {
      "inputs": [
        {
          "internalType": "uint256",
          "name": "_amount",
          "type": "uint256"
        }
      ],
      "name": "purchase",
      "outputs": [],
      "stateMutability": "nonpayable",
      "type": "function"
    },
    {
      "inputs": [
        {
          "internalType": "uint256",
          "name": "_amount",
          "type": "uint256"
        }
      ],
      "name": "purchase1",
      "outputs": [],
      "stateMutability": "nonpayable",
      "type": "function"
    },
    {
      "inputs": [
        {
          "internalType": "uint256",
          "name": "_amount",
          "type": "uint256"
        }
      ],
      "name": "redeem",
      "outputs": [],
      "stateMutability": "nonpayable",
      "type": "function"
    },
    {
      "inputs": [
        {
          "internalType": "uint256",
          "name": "_amount",
          "type": "uint256"
        }
      ],
      "name": "sale",
      "outputs": [],
      "stateMutability": "nonpayable",
      "type": "function"
    },
    {
      "inputs": [
        {
          "internalType": "uint256",
          "name": "_amount",
          "type": "uint256"
        }
      ],
      "name": "sale1",
      "outputs": [],
      "stateMutability": "nonpayable",
      "type": "function"
    },
    {
      "inputs": [],
      "name": "targetRatio",
      "outputs": [
        {
          "internalType": "uint256",
          "name": "",
          "type": "uint256"
        }
      ],
      "stateMutability": "view",
      "type": "function"
    },
    {
      "inputs": [],
      "name": "updatePools",
      "outputs": [],
      "stateMutability": "nonpayable",
      "type": "function"
    }
  ],
  "bytecode": {
    "object": "0x60806040526e4d0985cb1d3608ae1e3fa0000000006002556f02167210311aa6dc37f1d9660000000060035534801561003757600080fd5b506040516115773803806115778339810160408190526100569161009c565b600180546001600160a01b039092166001600160a01b03199283161790556000805490911673a0b86991c6218b36c1d19d4a2e9eb0ce3606eb48179055426006556100cc565b6000602082840312156100ae57600080fd5b81516001600160a01b03811681146100c557600080fd5b9392505050565b61149c806100db6000396000f3fe608060405234801561001057600080fd5b506004361061010b5760003560e01c806380468812116100a2578063c75b2a8911610071578063c75b2a89146101a9578063d2b478ed146101bc578063d95fc1c8146101c5578063db006a75146101d8578063efef39a1146101eb57600080fd5b8063804688121461017d5780639363c81214610186578063960327021461018e578063bb3b7c7c146101a157600080fd5b806357770bee116100de57806357770bee146101515780635a08bd17146101595780636ae7b7c114610162578063727e048f1461017557600080fd5b80630bcad8a5146101105780631db77a4d1461012557806345a153881461014057806352f6ee5814610148575b600080fd5b61012361011e366004611250565b6101fe565b005b61012e60045481565b60405190815260200160405180910390f35b61012e61048d565b61012e60035481565b61012361055e565b61012e60025481565b61012e610170366004611269565b61059d565b6101236105b2565b61012e60055481565b61012e61064b565b61012361019c366004611250565b6106c6565b61012e6109e9565b61012e6101b736600461128b565b610a56565b61012e60065481565b6101236101d3366004611250565b610a94565b6101236101e6366004611250565b610d3f565b6101236101f9366004611250565b610f4f565b61020661055e565b600081116102525760405162461bcd60e51b815260206004820152601460248201527363616e6e6f74207075726368617365207a65726f60601b60448201526064015b60405180910390fd5b600061025c61048d565b61026690836112cd565b6000546040516370a0823160e01b815233600482015291925082916001600160a01b03909116906370a0823190602401602060405180830381865afa1580156102b3573d6000803e3d6000fd5b505050506040513d601f19601f820116820180604052508101906102d791906112ec565b101580156103555750600054604051636eb1769f60e11b815233600482015230602482015282916001600160a01b03169063dd62ed3e90604401602060405180830381865afa15801561032e573d6000803e3d6000fd5b505050506040513d601f19601f8201168201806040525081019061035291906112ec565b10155b6103a15760405162461bcd60e51b815260206004820152601c60248201527f696e73756666696369656e742066756e64732f616c6c6f77616e6365000000006044820152606401610249565b6000546040516323b872dd60e01b8152336004820152306024820152604481018390526001600160a01b03909116906323b872dd906064016020604051808303816000875af11580156103f8573d6000803e3d6000fd5b505050506040513d601f19601f8201168201806040525081019061041c9190611305565b506001546040516340c10f1960e01b8152336004820152602481018490526001600160a01b03909116906340c10f1990604401600060405180830381600087803b15801561046957600080fd5b505af115801561047d573d6000803e3d6000fd5b505050506104896105b2565b5050565b60006003546004546004546005546104a5919061132e565b6104af9190611341565b6104b99190611447565b600160009054906101000a90046001600160a01b03166001600160a01b03166318160ddd6040518163ffffffff1660e01b8152600401602060405180830381865afa15801561050c573d6000803e3d6000fd5b505050506040513d601f19601f8201168201806040525081019061053091906112ec565b60055461053d9190611341565b61054791906112cd565b61054f61064b565b610559919061132e565b905090565b620186a061056a6109e9565b6105779062016a6f6112cd565b6105819190611341565b600481905561058e6109e9565b6105989190611453565b600555565b60006105a98284611341565b90505b92915050565b6002546004546005546105c690829061132e565b6105d09190611341565b106106495760146005546105e49190611341565b600560008282546105f59190611453565b909155505060055461060990601490611341565b6004600082825461061a919061132e565b909155505060025461062e90601090611341565b6002600082825461063f919061132e565b9091555050426006555b565b600154604080516318160ddd60e01b815290516000926001600160a01b0316916318160ddd9160048083019260209291908290030181865afa158015610695573d6000803e3d6000fd5b505050506040513d601f19601f820116820180604052508101906106b991906112ec565b6004546105599190611341565b6001546040516370a0823160e01b815233600482015282916001600160a01b0316906370a0823190602401602060405180830381865afa15801561070e573d6000803e3d6000fd5b505050506040513d601f19601f8201168201806040525081019061073291906112ec565b10156107805760405162461bcd60e51b815260206004820152601a60248201527f696e73756666696369656e74206c6f636b732062616c616e63650000000000006044820152606401610249565b60048054600554600154604080516318160ddd60e01b81529051939492936000936001600160a01b03909316926318160ddd928082019260209290918290030181865afa1580156107d5573d6000803e3d6000fd5b505050506040513d601f19601f820116820180604052508101906107f991906112ec565b90506000610807848361059d565b90506000806000805b8884116108a2576000610824898989610a56565b9050610830818561132e565b935061083c868461132e565b92506108488682611453565b610852908361132e565b915061085f600188611453565b965061086b868a611453565b98506108778682611453565b6108819089611453565b975061088d878a611341565b955061089a60018661132e565b945050610810565b60006108af601485611341565b6000549091506001600160a01b031663a9059cbb336108ce8488611453565b6040516001600160e01b031960e085901b1681526001600160a01b03909216600483015260248201526044016020604051808303816000875af1158015610919573d6000803e3d6000fd5b505050506040513d601f19601f8201168201806040525081019061093d9190611305565b50600154604051632770a7eb60e21b8152336004820152602481018c90526001600160a01b0390911690639dc29fac90604401600060405180830381600087803b15801561098a57600080fd5b505af115801561099e573d6000803e3d6000fd5b5050505080836109ae9190611453565b600460008282546109bf9190611453565b9250508190555081600560008282546109d89190611453565b909155505050505050505050505050565b600080546040516370a0823160e01b81523060048201526001600160a01b03909116906370a0823190602401602060405180830381865afa158015610a32573d6000803e3d6000fd5b505050506040513d601f19601f8201168201806040525081019061055991906112ec565b600083610a63848261132e565b610a6d9190611341565b82610a78858761132e565b610a829190611341565b610a8c91906112cd565b949350505050565b610a9c61055e565b60008111610ae35760405162461bcd60e51b815260206004820152601460248201527363616e6e6f74207075726368617365207a65726f60601b6044820152606401610249565b6000610aed61048d565b610af790836112cd565b6001546040516370a0823160e01b815233600482015291925083916001600160a01b03909116906370a0823190602401602060405180830381865afa158015610b44573d6000803e3d6000fd5b505050506040513d601f19601f82011682018060405250810190610b6891906112ec565b10158015610be65750600154604051636eb1769f60e11b815233600482015230602482015283916001600160a01b03169063dd62ed3e90604401602060405180830381865afa158015610bbf573d6000803e3d6000fd5b505050506040513d601f19601f82011682018060405250810190610be391906112ec565b10155b610c325760405162461bcd60e51b815260206004820152601c60248201527f696e73756666696369656e742066756e64732f616c6c6f77616e6365000000006044820152606401610249565b6000610c3f601483611341565b6000549091506001600160a01b031663a9059cbb33610c5e8486611453565b6040516001600160e01b031960e085901b1681526001600160a01b03909216600483015260248201526044016020604051808303816000875af1158015610ca9573d6000803e3d6000fd5b505050506040513d601f19601f82011682018060405250810190610ccd9190611305565b50600154604051632770a7eb60e21b8152336004820152602481018590526001600160a01b0390911690639dc29fac90604401600060405180830381600087803b158015610d1a57600080fd5b505af1158015610d2e573d6000803e3d6000fd5b50505050610d3a6105b2565b505050565b610d4761055e565b60008111610d8c5760405162461bcd60e51b815260206004820152601260248201527163616e6e6f742072656465656d207a65726f60701b6044820152606401610249565b6001546040516370a0823160e01b815233600482015282916001600160a01b0316906370a0823190602401602060405180830381865afa158015610dd4573d6000803e3d6000fd5b505050506040513d601f19601f82011682018060405250810190610df891906112ec565b1015610e3d5760405162461bcd60e51b8152602060048201526014602482015273696e73756666696369656e742062616c616e636560601b6044820152606401610249565b6000610e4761064b565b610e5190836112cd565b600154604051632770a7eb60e21b8152336004820152602481018590529192506001600160a01b031690639dc29fac90604401600060405180830381600087803b158015610e9e57600080fd5b505af1158015610eb2573d6000803e3d6000fd5b50506000546001600160a01b0316915063a9059cbb905033610ed784620f42406112cd565b6040516001600160e01b031960e085901b1681526001600160a01b03909216600483015260248201526044016020604051808303816000875af1158015610f22573d6000803e3d6000fd5b505050506040513d601f19601f82011682018060405250810190610f469190611305565b506104896105b2565b60048054600554600154604080516318160ddd60e01b81529051939492936000936001600160a01b03909316926318160ddd928082019260209290918290030181865afa158015610fa4573d6000803e3d6000fd5b505050506040513d601f19601f82011682018060405250810190610fc891906112ec565b90506000610fd6848361059d565b90506000806000805b88841015611072576000610ff4898989610a56565b9050611000818561132e565b935061100c868461132e565b92506110188682611453565b611022908361132e565b915061102f60018861132e565b965061103b868a61132e565b98506110478682611453565b611051908961132e565b975061105d878a611341565b955061106a60018661132e565b945050610fdf565b6000546040516370a0823160e01b815233600482015284916001600160a01b0316906370a0823190602401602060405180830381865afa1580156110ba573d6000803e3d6000fd5b505050506040513d601f19601f820116820180604052508101906110de91906112ec565b101561112c5760405162461bcd60e51b815260206004820152601960248201527f696e73756666696369656e7420757364632062616c616e6365000000000000006044820152606401610249565b6000546040516323b872dd60e01b8152336004820152306024820152604481018590526001600160a01b03909116906323b872dd906064016020604051808303816000875af1158015611183573d6000803e3d6000fd5b505050506040513d601f19601f820116820180604052508101906111a79190611305565b506001546040516340c10f1960e01b8152336004820152602481018b90526001600160a01b03909116906340c10f1990604401600060405180830381600087803b1580156111f457600080fd5b505af1158015611208573d6000803e3d6000fd5b50505050816004600082825461121e919061132e565b925050819055508060056000828254611237919061132e565b9091555061124590506105b2565b505050505050505050565b60006020828403121561126257600080fd5b5035919050565b6000806040838503121561127c57600080fd5b50508035926020909101359150565b6000806000606084860312156112a057600080fd5b505081359360208301359350604090920135919050565b634e487b7160e01b600052601160045260246000fd5b60008160001904831182151516156112e7576112e76112b7565b500290565b6000602082840312156112fe57600080fd5b5051919050565b60006020828403121561131757600080fd5b8151801515811461132757600080fd5b9392505050565b808201808211156105ac576105ac6112b7565b60008261135e57634e487b7160e01b600052601260045260246000fd5b500490565b600181815b8085111561139e578160001904821115611384576113846112b7565b8085161561139157918102915b93841c9390800290611368565b509250929050565b6000826113b5575060016105ac565b816113c2575060006105ac565b81600181146113d857600281146113e2576113fe565b60019150506105ac565b60ff8411156113f3576113f36112b7565b50506001821b6105ac565b5060208310610133831016604e8410600b8410161715611421575081810a6105ac565b61142b8383611363565b806000190482111561143f5761143f6112b7565b029392505050565b60006105a983836113a6565b818103818111156105ac576105ac6112b756fea2646970667358221220f0d0c0eed3ecea5be3c86456dfe843806846338ad1b1e34c2986ed706b0ac66564736f6c63430008100033",
    "linkReferences": {}
  },
  "methodIdentifiers": {
    "ammBalance()": "bb3b7c7c",
    "exponent()": "52f6ee58",
    "floorPrice()": "9363c812",
    "floorRaise()": "727e048f",
    "fsl()": "1db77a4d",
    "lastFloorRaise()": "d2b478ed",
    "marketPrice()": "45a15388",
    "oldFloorPrice(uint256,uint256)": "6ae7b7c1",
    "oldMarketPrice(uint256,uint256,uint256)": "c75b2a89",
    "psl()": "80468812",
    "purchase(uint256)": "efef39a1",
    "purchase1(uint256)": "0bcad8a5",
    "redeem(uint256)": "db006a75",
    "sale(uint256)": "96032702",
    "sale1(uint256)": "d95fc1c8",
    "targetRatio()": "5a08bd17",
    "updatePools()": "57770bee"
  },
  "id": 15
}