{
  "abi": [
    {
      "inputs": [
        {
          "internalType": "address",
          "name": "_locksAddress",
          "type": "address"
        },
        {
          "internalType": "address",
          "name": "_adminAddress",
          "type": "address"
        }
      ],
      "stateMutability": "nonpayable",
      "type": "constructor"
    },
    {
      "anonymous": false,
      "inputs": [
        {
          "indexed": true,
          "internalType": "address",
          "name": "user",
          "type": "address"
        },
        {
          "indexed": false,
          "internalType": "uint256",
          "name": "amount",
          "type": "uint256"
        }
      ],
      "name": "Buy",
      "type": "event"
    },
    {
      "anonymous": false,
      "inputs": [
        {
          "indexed": true,
          "internalType": "address",
          "name": "user",
          "type": "address"
        },
        {
          "indexed": false,
          "internalType": "uint256",
          "name": "amount",
          "type": "uint256"
        }
      ],
      "name": "Redeem",
      "type": "event"
    },
    {
      "anonymous": false,
      "inputs": [
        {
          "indexed": true,
          "internalType": "address",
          "name": "user",
          "type": "address"
        },
        {
          "indexed": false,
          "internalType": "uint256",
          "name": "amount",
          "type": "uint256"
        }
      ],
      "name": "Sale",
      "type": "event"
    },
    {
      "inputs": [
        {
          "internalType": "uint256",
          "name": "_fsl",
          "type": "uint256"
        },
        {
          "internalType": "uint256",
          "name": "_supply",
          "type": "uint256"
        }
      ],
      "name": "_floorPrice",
      "outputs": [
        {
          "internalType": "uint256",
          "name": "",
          "type": "uint256"
        }
      ],
      "stateMutability": "pure",
      "type": "function"
    },
    {
      "inputs": [
        {
          "internalType": "uint256",
          "name": "_fsl",
          "type": "uint256"
        },
        {
          "internalType": "uint256",
          "name": "_psl",
          "type": "uint256"
        },
        {
          "internalType": "uint256",
          "name": "_supply",
          "type": "uint256"
        }
      ],
      "name": "_marketPrice",
      "outputs": [
        {
          "internalType": "uint256",
          "name": "",
          "type": "uint256"
        }
      ],
      "stateMutability": "pure",
      "type": "function"
    },
    {
      "inputs": [],
      "name": "adminAddress",
      "outputs": [
        {
          "internalType": "address",
          "name": "",
          "type": "address"
        }
      ],
      "stateMutability": "view",
      "type": "function"
    },
    {
      "inputs": [
        {
          "internalType": "uint256",
          "name": "_amount",
          "type": "uint256"
        },
        {
          "internalType": "uint256",
          "name": "_maxAmount",
          "type": "uint256"
        }
      ],
      "name": "buy",
      "outputs": [
        {
          "internalType": "uint256",
          "name": "",
          "type": "uint256"
        },
        {
          "internalType": "uint256",
          "name": "",
          "type": "uint256"
        }
      ],
      "stateMutability": "nonpayable",
      "type": "function"
    },
    {
      "inputs": [],
      "name": "floorPrice",
      "outputs": [
        {
          "internalType": "uint256",
          "name": "",
          "type": "uint256"
        }
      ],
      "stateMutability": "view",
      "type": "function"
    },
    {
      "inputs": [],
      "name": "fsl",
      "outputs": [
        {
          "internalType": "uint256",
          "name": "",
          "type": "uint256"
        }
      ],
      "stateMutability": "view",
      "type": "function"
    },
    {
      "inputs": [
        {
          "internalType": "uint256",
          "name": "_fsl",
          "type": "uint256"
        },
        {
          "internalType": "uint256",
          "name": "_psl",
          "type": "uint256"
        }
      ],
      "name": "initialize",
      "outputs": [],
      "stateMutability": "nonpayable",
      "type": "function"
    },
    {
      "inputs": [],
      "name": "lastFloorDecrease",
      "outputs": [
        {
          "internalType": "uint256",
          "name": "",
          "type": "uint256"
        }
      ],
      "stateMutability": "view",
      "type": "function"
    },
    {
      "inputs": [],
      "name": "lastFloorRaise",
      "outputs": [
        {
          "internalType": "uint256",
          "name": "",
          "type": "uint256"
        }
      ],
      "stateMutability": "view",
      "type": "function"
    },
    {
      "inputs": [],
      "name": "locksAddress",
      "outputs": [
        {
          "internalType": "address",
          "name": "",
          "type": "address"
        }
      ],
      "stateMutability": "view",
      "type": "function"
    },
    {
      "inputs": [],
      "name": "psl",
      "outputs": [
        {
          "internalType": "uint256",
          "name": "",
          "type": "uint256"
        }
      ],
      "stateMutability": "view",
      "type": "function"
    },
    {
      "inputs": [
        {
          "internalType": "uint256",
          "name": "_amount",
          "type": "uint256"
        }
      ],
      "name": "redeem",
      "outputs": [],
      "stateMutability": "nonpayable",
      "type": "function"
    },
    {
      "inputs": [
        {
          "internalType": "uint256",
          "name": "_amount",
          "type": "uint256"
        },
        {
          "internalType": "uint256",
          "name": "_minAmount",
          "type": "uint256"
        }
      ],
      "name": "sell",
      "outputs": [
        {
          "internalType": "uint256",
          "name": "",
          "type": "uint256"
        },
        {
          "internalType": "uint256",
          "name": "",
          "type": "uint256"
        }
      ],
      "stateMutability": "nonpayable",
      "type": "function"
    },
    {
      "inputs": [
        {
          "internalType": "address",
          "name": "_honeyAddress",
          "type": "address"
        }
      ],
      "name": "setHoneyAddress",
      "outputs": [],
      "stateMutability": "nonpayable",
      "type": "function"
    },
    {
      "inputs": [],
      "name": "supply",
      "outputs": [
        {
          "internalType": "uint256",
          "name": "",
          "type": "uint256"
        }
      ],
      "stateMutability": "view",
      "type": "function"
    },
    {
      "inputs": [],
      "name": "targetRatio",
      "outputs": [
        {
          "internalType": "uint256",
          "name": "",
          "type": "uint256"
        }
      ],
      "stateMutability": "view",
      "type": "function"
    }
  ],
  "bytecode": {
    "object": "0x608060405267039bb49f599a0000600255670de0b6b3a764000060055534801561002857600080fd5b50604051611144380380611144833981016040819052610047916100aa565b600180546001600160a01b039384166001600160a01b03199182168117909255600880549390941692811692909217909255600980549091169091179055426006556100dd565b80516001600160a01b03811681146100a557600080fd5b919050565b600080604083850312156100bd57600080fd5b6100c68361008e565b91506100d46020840161008e565b90509250929050565b611058806100ec6000396000f3fe608060405234801561001057600080fd5b50600436106101005760003560e01c8063d054a16f11610097578063db006a7511610066578063db006a75146101e2578063db9ed213146101f7578063e4a301161461020a578063fc6f94681461021d57600080fd5b8063d054a16f14610195578063d2b478ed1461019e578063d6febde8146101a7578063d79875eb146101cf57600080fd5b80635a08bd17116100d35780635a08bd171461016857806380468812146101715780639363c8121461017a5780639fa393fb1461018257600080fd5b8063047fc9aa146101055780631db77a4d1461012157806329d2e6871461012a57806348757e841461013d575b600080fd5b61010e60055481565b6040519081526020015b60405180910390f35b61010e60035481565b61010e610138366004610de0565b610230565b600954610150906001600160a01b031681565b6040516001600160a01b039091168152602001610118565b61010e60025481565b61010e60045481565b61010e6102d8565b61010e610190366004610e0c565b610302565b61010e60075481565b61010e60065481565b6101ba6101b5366004610e0c565b61032a565b60408051928352602083019190915201610118565b6101ba6101dd366004610e0c565b6106da565b6101f56101f0366004610e2e565b6109c9565b005b6101f5610205366004610e47565b610c4e565b6101f5610218366004610e0c565b610cb6565b600854610150906001600160a01b031681565b60008082610243856402540be400610e8d565b61024d9190610eac565b905060008561025c8187610ece565b61026990620186a0610e8d565b6102739190610eac565b90506000610282600583610fc5565b905060008561029989670de0b6b3a7640000610e8d565b6102a39190610eac565b905067016345785d8a00006102b88386610e8d565b6102c29190610eac565b6102cc9082610ece565b98975050505050505050565b6000600554600354670de0b6b3a76400006102f39190610e8d565b6102fd9190610eac565b905090565b60008161031784670de0b6b3a7640000610e8d565b6103219190610eac565b90505b92915050565b600554600354600454600092839290918691908480805b670de0b6b3a764000086106103f15761035b858589610230565b92506103678588610302565b91506103738382610ece565b9050610387670de0b6b3a764000088610ece565b9650610394856024610e8d565b61039f856064610e8d565b106103b5576103ae8386610ece565b94506103d8565b6103bf8284610fd4565b6103c99085610ece565b93506103d58286610ece565b94505b6103ea670de0b6b3a764000087610fd4565b9550610341565b85156104ec57610402858589610230565b925061040e8588610302565b9150670de0b6b3a76400006104238785610e8d565b61042d9190610eac565b6104379082610ece565b90506104438688610ece565b9650610450856024610e8d565b61045b856064610e8d565b1061048e57670de0b6b3a76400006104738785610e8d565b61047d9190610eac565b6104879086610ece565b94506104ec565b670de0b6b3a7640000866104a28486610fd4565b6104ac9190610e8d565b6104b69190610eac565b6104c09085610ece565b9350670de0b6b3a76400006104d58784610e8d565b6104df9190610eac565b6104e99086610ece565b94505b60006104fa6103e883610eac565b610505906003610e8d565b90506105118187610ece565b600355600485905560058890558a6105298284610ece565b11156105705760405162461bcd60e51b8152602060048201526011602482015270746f6f206d75636820736c69707061676560781b60448201526064015b60405180910390fd5b6000546001600160a01b03166323b872dd333061058d8587610ece565b6040516001600160e01b031960e086901b1681526001600160a01b03938416600482015292909116602483015260448201526064016020604051808303816000875af11580156105e1573d6000803e3d6000fd5b505050506040513d601f19601f820116820180604052508101906106059190610fe7565b506001546040516309949e1960e11b8152336004820152602481018e90526001600160a01b03909116906313293c3290604401600060405180830381600087803b15801561065257600080fd5b505af1158015610666573d6000803e3d6000fd5b50505050610672610d07565b6040518c815233907fe3d4187f6ca4248660cc0ac8b8056515bac4a8132be2eca31d6d0cc170722a7e906020015b60405180910390a26106b9600354600454600554610230565b6106c7600354600554610302565b9950995050505050505050509250929050565b600554600354600454600092839290918691908480805b670de0b6b3a764000086106107745761070b858589610230565b91506107178588610302565b90506107238284610ece565b925061072f8183610fd4565b6107399085610fd4565b93506107458186610fd4565b9450610759670de0b6b3a764000088610fd4565b965061076d670de0b6b3a764000087610fd4565b95506106f1565b851561082657610785858589610230565b91506107918588610302565b9050670de0b6b3a76400006107a68784610e8d565b6107b09190610eac565b6107ba9084610ece565b9250670de0b6b3a7640000866107d08385610fd4565b6107da9190610e8d565b6107e49190610eac565b6107ee9085610fd4565b9350670de0b6b3a76400006108038783610e8d565b61080d9190610eac565b6108179086610fd4565b94506108238688610fd4565b96505b60006108346103e885610eac565b61083f906035610e8d565b90508a61084c8286610ece565b101561088e5760405162461bcd60e51b8152602060048201526011602482015270746f6f206d75636820736c69707061676560781b6044820152606401610567565b6000546001600160a01b031663a9059cbb336108aa8488610ece565b6040516001600160e01b031960e085901b1681526001600160a01b03909216600483015260248201526044016020604051808303816000875af11580156108f5573d6000803e3d6000fd5b505050506040513d601f19601f820116820180604052508101906109199190610fe7565b506001546040516302c3371760e61b8152336004820152602481018e90526001600160a01b039091169063b0cdc5c090604401600060405180830381600087803b15801561096657600080fd5b505af115801561097a573d6000803e3d6000fd5b50505050808661098a9190610ece565b600355600485905560058890556040518c815233907fc6851889326b4ff916523ef06f539b4cf0b81d78fc6e0f97c30e6223d1831990906020016106a0565b60008111610a0e5760405162461bcd60e51b815260206004820152601260248201527163616e6e6f742072656465656d207a65726f60701b6044820152606401610567565b6009546040516370a0823160e01b815233600482015282916001600160a01b0316906370a0823190602401602060405180830381865afa158015610a56573d6000803e3d6000fd5b505050506040513d601f19601f82011682018060405250810190610a7a9190611009565b1015610abf5760405162461bcd60e51b8152602060048201526014602482015273696e73756666696369656e742062616c616e636560601b6044820152606401610567565b6000670de0b6b3a7640000600554600354670de0b6b3a7640000610ae39190610e8d565b610aed9190610eac565b610af79084610e8d565b610b019190610eac565b6001546040516302c3371760e61b8152336004820152602481018590529192506001600160a01b03169063b0cdc5c090604401600060405180830381600087803b158015610b4e57600080fd5b505af1158015610b62573d6000803e3d6000fd5b505060005460405163a9059cbb60e01b8152336004820152602481018590526001600160a01b03909116925063a9059cbb91506044016020604051808303816000875af1158015610bb7573d6000803e3d6000fd5b505050506040513d601f19601f82011682018060405250810190610bdb9190610fe7565b508160056000828254610bee9190610fd4565b925050819055508060036000828254610c079190610fd4565b90915550610c159050610d07565b60405182815233907f222838db2794d11532d940e8dec38ae307ed0b63cd97c233322e221f998767a69060200160405180910390a25050565b6008546001600160a01b03163314610c945760405162461bcd60e51b81526020600482015260096024820152683737ba1030b236b4b760b91b6044820152606401610567565b600080546001600160a01b0319166001600160a01b0392909216919091179055565b6009546001600160a01b03163314610cfc5760405162461bcd60e51b81526020600482015260096024820152686e6f74206c6f636b7360b81b6044820152606401610567565b600391909155600455565b600254600354600454610d2290670de0b6b3a7640000610e8d565b610d2c9190610eac565b10610dde576000670de0b6b3a76400006020600454610d4b9190610eac565b600354600454610d6390670de0b6b3a7640000610e8d565b610d6d9190610eac565b610d779190610e8d565b610d819190610eac565b90508060046000828254610d959190610fd4565b925050819055508060036000828254610dae9190610ece565b9091555050600254610dc290603290610eac565b60026000828254610dd39190610ece565b909155505042600655505b565b600080600060608486031215610df557600080fd5b505081359360208301359350604090920135919050565b60008060408385031215610e1f57600080fd5b50508035926020909101359150565b600060208284031215610e4057600080fd5b5035919050565b600060208284031215610e5957600080fd5b81356001600160a01b0381168114610e7057600080fd5b9392505050565b634e487b7160e01b600052601160045260246000fd5b6000816000190483118215151615610ea757610ea7610e77565b500290565b600082610ec957634e487b7160e01b600052601260045260246000fd5b500490565b8082018082111561032457610324610e77565b600181815b80851115610f1c578160001904821115610f0257610f02610e77565b80851615610f0f57918102915b93841c9390800290610ee6565b509250929050565b600082610f3357506001610324565b81610f4057506000610324565b8160018114610f565760028114610f6057610f7c565b6001915050610324565b60ff841115610f7157610f71610e77565b50506001821b610324565b5060208310610133831016604e8410600b8410161715610f9f575081810a610324565b610fa98383610ee1565b8060001904821115610fbd57610fbd610e77565b029392505050565b600061032160ff841683610f24565b8181038181111561032457610324610e77565b600060208284031215610ff957600080fd5b81518015158114610e7057600080fd5b60006020828403121561101b57600080fd5b505191905056fea26469706673582212206cffeeb411f2aef2dbd4d27a70f0dd66b0bade2dc3be9e9dab99d64dbe5ac5f264736f6c63430008100033",
    "linkReferences": {}
  },
  "methodIdentifiers": {
    "_floorPrice(uint256,uint256)": "9fa393fb",
    "_marketPrice(uint256,uint256,uint256)": "29d2e687",
    "adminAddress()": "fc6f9468",
    "buy(uint256,uint256)": "d6febde8",
    "floorPrice()": "9363c812",
    "fsl()": "1db77a4d",
    "initialize(uint256,uint256)": "e4a30116",
    "lastFloorDecrease()": "d054a16f",
    "lastFloorRaise()": "d2b478ed",
    "locksAddress()": "48757e84",
    "psl()": "80468812",
    "redeem(uint256)": "db006a75",
    "sell(uint256,uint256)": "d79875eb",
    "setHoneyAddress(address)": "db9ed213",
    "supply()": "047fc9aa",
    "targetRatio()": "5a08bd17"
  },
  "id": 12
}