{
  "abi": [
    {
      "inputs": [
        {
          "internalType": "address",
          "name": "_locksAddress",
          "type": "address"
        }
      ],
      "stateMutability": "nonpayable",
      "type": "constructor"
    },
    {
      "inputs": [],
      "name": "ammBalance",
      "outputs": [
        {
          "internalType": "uint256",
          "name": "",
          "type": "uint256"
        }
      ],
      "stateMutability": "view",
      "type": "function"
    },
    {
      "inputs": [],
      "name": "floorPrice",
      "outputs": [
        {
          "internalType": "uint256",
          "name": "",
          "type": "uint256"
        }
      ],
      "stateMutability": "view",
      "type": "function"
    },
    {
      "inputs": [],
      "name": "floorRaise",
      "outputs": [],
      "stateMutability": "nonpayable",
      "type": "function"
    },
    {
      "inputs": [],
      "name": "fsl",
      "outputs": [
        {
          "internalType": "uint256",
          "name": "",
          "type": "uint256"
        }
      ],
      "stateMutability": "view",
      "type": "function"
    },
    {
      "inputs": [],
      "name": "lastFloorRaise",
      "outputs": [
        {
          "internalType": "uint256",
          "name": "",
          "type": "uint256"
        }
      ],
      "stateMutability": "view",
      "type": "function"
    },
    {
      "inputs": [],
      "name": "marketPrice",
      "outputs": [
        {
          "internalType": "uint256",
          "name": "",
          "type": "uint256"
        }
      ],
      "stateMutability": "view",
      "type": "function"
    },
    {
      "inputs": [
        {
          "internalType": "uint256",
          "name": "_fsl",
          "type": "uint256"
        },
        {
          "internalType": "uint256",
          "name": "_supply",
          "type": "uint256"
        }
      ],
      "name": "oldFloorPrice",
      "outputs": [
        {
          "internalType": "uint256",
          "name": "",
          "type": "uint256"
        }
      ],
      "stateMutability": "pure",
      "type": "function"
    },
    {
      "inputs": [
        {
          "internalType": "uint256",
          "name": "_fsl",
          "type": "uint256"
        },
        {
          "internalType": "uint256",
          "name": "_psl",
          "type": "uint256"
        },
        {
          "internalType": "uint256",
          "name": "_supply",
          "type": "uint256"
        }
      ],
      "name": "oldMarketPrice",
      "outputs": [
        {
          "internalType": "uint256",
          "name": "",
          "type": "uint256"
        }
      ],
      "stateMutability": "pure",
      "type": "function"
    },
    {
      "inputs": [],
      "name": "psl",
      "outputs": [
        {
          "internalType": "uint256",
          "name": "",
          "type": "uint256"
        }
      ],
      "stateMutability": "view",
      "type": "function"
    },
    {
      "inputs": [
        {
          "internalType": "uint256",
          "name": "_amount",
          "type": "uint256"
        }
      ],
      "name": "purchase",
      "outputs": [],
      "stateMutability": "nonpayable",
      "type": "function"
    },
    {
      "inputs": [
        {
          "internalType": "uint256",
          "name": "_amount",
          "type": "uint256"
        }
      ],
      "name": "purchase1",
      "outputs": [],
      "stateMutability": "nonpayable",
      "type": "function"
    },
    {
      "inputs": [
        {
          "internalType": "uint256",
          "name": "_amount",
          "type": "uint256"
        }
      ],
      "name": "redeem",
      "outputs": [],
      "stateMutability": "nonpayable",
      "type": "function"
    },
    {
      "inputs": [
        {
          "internalType": "uint256",
          "name": "_amount",
          "type": "uint256"
        }
      ],
      "name": "sale",
      "outputs": [],
      "stateMutability": "nonpayable",
      "type": "function"
    },
    {
      "inputs": [
        {
          "internalType": "uint256",
          "name": "_amount",
          "type": "uint256"
        }
      ],
      "name": "sale1",
      "outputs": [],
      "stateMutability": "nonpayable",
      "type": "function"
    },
    {
      "inputs": [],
      "name": "targetRatio",
      "outputs": [
        {
          "internalType": "uint256",
          "name": "",
          "type": "uint256"
        }
      ],
      "stateMutability": "view",
      "type": "function"
    },
    {
      "inputs": [],
      "name": "updatePools",
      "outputs": [],
      "stateMutability": "nonpayable",
      "type": "function"
    }
  ],
  "bytecode": {
    "object": "0x60806040526f0120e3b5b9ad8aa08cf16e980000000060025534801561002457600080fd5b506040516114a63803806114a683398101604081905261004391610089565b600180546001600160a01b039092166001600160a01b03199283161790556000805490911673a0b86991c6218b36c1d19d4a2e9eb0ce3606eb48179055426005556100b9565b60006020828403121561009b57600080fd5b81516001600160a01b03811681146100b257600080fd5b9392505050565b6113de806100c86000396000f3fe608060405234801561001057600080fd5b50600436106101005760003560e01c80639363c81211610097578063d2b478ed11610066578063d2b478ed146101a8578063d95fc1c8146101b1578063db006a75146101c4578063efef39a1146101d757600080fd5b80639363c81214610172578063960327021461017a578063bb3b7c7c1461018d578063c75b2a891461019557600080fd5b80635a08bd17116100d35780635a08bd17146101455780636ae7b7c11461014e578063727e048f14610161578063804688121461016957600080fd5b80630bcad8a5146101055780631db77a4d1461011a57806345a153881461013557806357770bee1461013d575b600080fd5b610118610113366004611282565b6101ea565b005b61012360035481565b60405190815260200160405180910390f35b610123610479565b610118610538565b61012360025481565b61012361015c36600461129b565b610577565b61011861058c565b61012360045481565b610123610625565b610118610188366004611282565b6106a0565b6101236109d1565b6101236101a33660046112bd565b610a3e565b61012360055481565b6101186101bf366004611282565b610a7c565b6101186101d2366004611282565b610d27565b6101186101e5366004611282565b610f7c565b6101f2610538565b6000811161023e5760405162461bcd60e51b815260206004820152601460248201527363616e6e6f74207075726368617365207a65726f60601b60448201526064015b60405180910390fd5b6000610248610479565b61025290836112ff565b6000546040516370a0823160e01b815233600482015291925082916001600160a01b03909116906370a0823190602401602060405180830381865afa15801561029f573d6000803e3d6000fd5b505050506040513d601f19601f820116820180604052508101906102c3919061131e565b101580156103415750600054604051636eb1769f60e11b815233600482015230602482015282916001600160a01b03169063dd62ed3e90604401602060405180830381865afa15801561031a573d6000803e3d6000fd5b505050506040513d601f19601f8201168201806040525081019061033e919061131e565b10155b61038d5760405162461bcd60e51b815260206004820152601c60248201527f696e73756666696369656e742066756e64732f616c6c6f77616e6365000000006044820152606401610235565b6000546040516323b872dd60e01b8152336004820152306024820152604481018390526001600160a01b03909116906323b872dd906064016020604051808303816000875af11580156103e4573d6000803e3d6000fd5b505050506040513d601f19601f820116820180604052508101906104089190611337565b506001546040516340c10f1960e01b8152336004820152602481018490526001600160a01b03909116906340c10f1990604401600060405180830381600087803b15801561045557600080fd5b505af1158015610469573d6000803e3d6000fd5b5050505061047561058c565b5050565b600060035460045460035461048e9190611360565b6104989190611373565b600160009054906101000a90046001600160a01b03166001600160a01b03166318160ddd6040518163ffffffff1660e01b8152600401602060405180830381865afa1580156104eb573d6000803e3d6000fd5b505050506040513d601f19601f8201168201806040525081019061050f919061131e565b60045460035461051f9190611360565b6105299190611373565b61053391906112ff565b905090565b620186a06105446109d1565b6105519062016a6f6112ff565b61055b9190611373565b60038190556105686109d1565b6105729190611395565b600455565b60006105838284611373565b90505b92915050565b6002546003546004546105a0908290611360565b6105aa9190611373565b1061062357600a6004546105be9190611373565b600460008282546105cf9190611395565b90915550506004546105e390600a90611373565b600360008282546105f49190611360565b909155505060025461060890600a90611373565b600260008282546106199190611360565b9091555050426005555b565b600154604080516318160ddd60e01b815290516000926001600160a01b0316916318160ddd9160048083019260209291908290030181865afa15801561066f573d6000803e3d6000fd5b505050506040513d601f19601f82011682018060405250810190610693919061131e565b6003546105339190611373565b6106a8610538565b6001546040516370a0823160e01b815233600482015282916001600160a01b0316906370a0823190602401602060405180830381865afa1580156106f0573d6000803e3d6000fd5b505050506040513d601f19601f82011682018060405250810190610714919061131e565b10156107625760405162461bcd60e51b815260206004820152601a60248201527f696e73756666696369656e74206c6f636b732062616c616e63650000000000006044820152606401610235565b60035460048054600154604080516318160ddd60e01b8152905192936000936001600160a01b03909316926318160ddd9280830192602092918290030181865afa1580156107b4573d6000803e3d6000fd5b505050506040513d601f19601f820116820180604052508101906107d8919061131e565b905060006107e68483610577565b90506000806000805b888411610881576000610803898989610a3e565b905061080f8185611360565b935061081b8684611360565b92506108278682611395565b6108319083611360565b915061083e600188611395565b965061084a868a611395565b98506108568682611395565b6108609089611395565b975061086c878a611373565b9550610879600186611360565b9450506107ef565b600061088e601485611373565b6000549091506001600160a01b031663a9059cbb336108ad8488611395565b6040516001600160e01b031960e085901b1681526001600160a01b03909216600483015260248201526044016020604051808303816000875af11580156108f8573d6000803e3d6000fd5b505050506040513d601f19601f8201168201806040525081019061091c9190611337565b50600154604051632770a7eb60e21b8152336004820152602481018c90526001600160a01b0390911690639dc29fac90604401600060405180830381600087803b15801561096957600080fd5b505af115801561097d573d6000803e3d6000fd5b50505050808361098d9190611395565b6003600082825461099e9190611395565b9250508190555081600460008282546109b79190611395565b909155506109c5905061058c565b50505050505050505050565b600080546040516370a0823160e01b81523060048201526001600160a01b03909116906370a0823190602401602060405180830381865afa158015610a1a573d6000803e3d6000fd5b505050506040513d601f19601f82011682018060405250810190610533919061131e565b600083610a4b8482611360565b610a559190611373565b82610a608587611360565b610a6a9190611373565b610a7491906112ff565b949350505050565b610a84610538565b60008111610acb5760405162461bcd60e51b815260206004820152601460248201527363616e6e6f74207075726368617365207a65726f60601b6044820152606401610235565b6000610ad5610479565b610adf90836112ff565b6001546040516370a0823160e01b815233600482015291925083916001600160a01b03909116906370a0823190602401602060405180830381865afa158015610b2c573d6000803e3d6000fd5b505050506040513d601f19601f82011682018060405250810190610b50919061131e565b10158015610bce5750600154604051636eb1769f60e11b815233600482015230602482015283916001600160a01b03169063dd62ed3e90604401602060405180830381865afa158015610ba7573d6000803e3d6000fd5b505050506040513d601f19601f82011682018060405250810190610bcb919061131e565b10155b610c1a5760405162461bcd60e51b815260206004820152601c60248201527f696e73756666696369656e742066756e64732f616c6c6f77616e6365000000006044820152606401610235565b6000610c27601483611373565b6000549091506001600160a01b031663a9059cbb33610c468486611395565b6040516001600160e01b031960e085901b1681526001600160a01b03909216600483015260248201526044016020604051808303816000875af1158015610c91573d6000803e3d6000fd5b505050506040513d601f19601f82011682018060405250810190610cb59190611337565b50600154604051632770a7eb60e21b8152336004820152602481018590526001600160a01b0390911690639dc29fac90604401600060405180830381600087803b158015610d0257600080fd5b505af1158015610d16573d6000803e3d6000fd5b50505050610d2261058c565b505050565b610d2f610538565b60008111610d745760405162461bcd60e51b815260206004820152601260248201527163616e6e6f742072656465656d207a65726f60701b6044820152606401610235565b6001546040516370a0823160e01b815233600482015282916001600160a01b0316906370a0823190602401602060405180830381865afa158015610dbc573d6000803e3d6000fd5b505050506040513d601f19601f82011682018060405250810190610de0919061131e565b1015610e255760405162461bcd60e51b8152602060048201526014602482015273696e73756666696369656e742062616c616e636560601b6044820152606401610235565b6000610e2f610625565b610e3990836112ff565b90506000610e48606483611373565b610e539060036112ff565b600154604051632770a7eb60e21b8152336004820152602481018690529192506001600160a01b031690639dc29fac90604401600060405180830381600087803b158015610ea057600080fd5b505af1158015610eb4573d6000803e3d6000fd5b50506000546001600160a01b0316915063a9059cbb905033610ed68486611395565b610ee390620f42406112ff565b6040516001600160e01b031960e085901b1681526001600160a01b03909216600483015260248201526044016020604051808303816000875af1158015610f2e573d6000803e3d6000fd5b505050506040513d601f19601f82011682018060405250810190610f529190611337565b50610f5d8183611395565b60036000828254610f6e9190611395565b90915550610d22905061058c565b610f84610538565b60035460048054600154604080516318160ddd60e01b8152905192936000936001600160a01b03909316926318160ddd9280830192602092918290030181865afa158015610fd6573d6000803e3d6000fd5b505050506040513d601f19601f82011682018060405250810190610ffa919061131e565b905060006110088483610577565b90506000806000805b888410156110a4576000611026898989610a3e565b90506110328185611360565b935061103e8684611360565b925061104a8682611395565b6110549083611360565b9150611061600188611360565b965061106d868a611360565b98506110798682611395565b6110839089611360565b975061108f878a611373565b955061109c600186611360565b945050611011565b6000546040516370a0823160e01b815233600482015284916001600160a01b0316906370a0823190602401602060405180830381865afa1580156110ec573d6000803e3d6000fd5b505050506040513d601f19601f82011682018060405250810190611110919061131e565b101561115e5760405162461bcd60e51b815260206004820152601960248201527f696e73756666696369656e7420757364632062616c616e6365000000000000006044820152606401610235565b6000546040516323b872dd60e01b8152336004820152306024820152604481018590526001600160a01b03909116906323b872dd906064016020604051808303816000875af11580156111b5573d6000803e3d6000fd5b505050506040513d601f19601f820116820180604052508101906111d99190611337565b506001546040516340c10f1960e01b8152336004820152602481018b90526001600160a01b03909116906340c10f1990604401600060405180830381600087803b15801561122657600080fd5b505af115801561123a573d6000803e3d6000fd5b5050505081600360008282546112509190611360565b9250508190555080600460008282546112699190611360565b90915550611277905061058c565b505050505050505050565b60006020828403121561129457600080fd5b5035919050565b600080604083850312156112ae57600080fd5b50508035926020909101359150565b6000806000606084860312156112d257600080fd5b505081359360208301359350604090920135919050565b634e487b7160e01b600052601160045260246000fd5b6000816000190483118215151615611319576113196112e9565b500290565b60006020828403121561133057600080fd5b5051919050565b60006020828403121561134957600080fd5b8151801515811461135957600080fd5b9392505050565b80820180821115610586576105866112e9565b60008261139057634e487b7160e01b600052601260045260246000fd5b500490565b81810381811115610586576105866112e956fea2646970667358221220419e83264c5ddcdd4852a96b0937e45937f6c7f30a47cf65f3d99e43a3e00adf64736f6c63430008100033",
    "linkReferences": {}
  },
  "methodIdentifiers": {
    "ammBalance()": "bb3b7c7c",
    "floorPrice()": "9363c812",
    "floorRaise()": "727e048f",
    "fsl()": "1db77a4d",
    "lastFloorRaise()": "d2b478ed",
    "marketPrice()": "45a15388",
    "oldFloorPrice(uint256,uint256)": "6ae7b7c1",
    "oldMarketPrice(uint256,uint256,uint256)": "c75b2a89",
    "psl()": "80468812",
    "purchase(uint256)": "efef39a1",
    "purchase1(uint256)": "0bcad8a5",
    "redeem(uint256)": "db006a75",
    "sale(uint256)": "96032702",
    "sale1(uint256)": "d95fc1c8",
    "targetRatio()": "5a08bd17",
    "updatePools()": "57770bee"
  },
  "id": 12
}