{
  "abi": [
    {
      "inputs": [
        {
          "internalType": "address",
          "name": "_ammAddress",
          "type": "address"
        },
        {
          "internalType": "address",
          "name": "_locksAddress",
          "type": "address"
        },
        {
          "internalType": "address",
          "name": "_adminAddress",
          "type": "address"
        }
      ],
      "stateMutability": "nonpayable",
      "type": "constructor"
    },
    {
      "inputs": [],
      "name": "adminAddress",
      "outputs": [
        {
          "internalType": "address",
          "name": "",
          "type": "address"
        }
      ],
      "stateMutability": "view",
      "type": "function"
    },
    {
      "inputs": [],
      "name": "ammAddress",
      "outputs": [
        {
          "internalType": "address",
          "name": "",
          "type": "address"
        }
      ],
      "stateMutability": "view",
      "type": "function"
    },
    {
      "inputs": [
        {
          "internalType": "uint256",
          "name": "_amount",
          "type": "uint256"
        }
      ],
      "name": "borrow",
      "outputs": [
        {
          "internalType": "uint256",
          "name": "",
          "type": "uint256"
        }
      ],
      "stateMutability": "nonpayable",
      "type": "function"
    },
    {
      "inputs": [
        {
          "internalType": "address",
          "name": "",
          "type": "address"
        }
      ],
      "name": "borrowedHoney",
      "outputs": [
        {
          "internalType": "uint256",
          "name": "",
          "type": "uint256"
        }
      ],
      "stateMutability": "view",
      "type": "function"
    },
    {
      "inputs": [
        {
          "internalType": "address",
          "name": "_user",
          "type": "address"
        }
      ],
      "name": "getBorrowed",
      "outputs": [
        {
          "internalType": "uint256",
          "name": "",
          "type": "uint256"
        }
      ],
      "stateMutability": "view",
      "type": "function"
    },
    {
      "inputs": [
        {
          "internalType": "address",
          "name": "_user",
          "type": "address"
        }
      ],
      "name": "getLocked",
      "outputs": [
        {
          "internalType": "uint256",
          "name": "",
          "type": "uint256"
        }
      ],
      "stateMutability": "view",
      "type": "function"
    },
    {
      "inputs": [
        {
          "internalType": "address",
          "name": "",
          "type": "address"
        }
      ],
      "name": "lockedLocks",
      "outputs": [
        {
          "internalType": "uint256",
          "name": "",
          "type": "uint256"
        }
      ],
      "stateMutability": "view",
      "type": "function"
    },
    {
      "inputs": [],
      "name": "locksAddress",
      "outputs": [
        {
          "internalType": "address",
          "name": "",
          "type": "address"
        }
      ],
      "stateMutability": "view",
      "type": "function"
    },
    {
      "inputs": [],
      "name": "porridgeAddress",
      "outputs": [
        {
          "internalType": "address",
          "name": "",
          "type": "address"
        }
      ],
      "stateMutability": "view",
      "type": "function"
    },
    {
      "inputs": [
        {
          "internalType": "uint256",
          "name": "_amount",
          "type": "uint256"
        }
      ],
      "name": "repay",
      "outputs": [],
      "stateMutability": "nonpayable",
      "type": "function"
    },
    {
      "inputs": [
        {
          "internalType": "address",
          "name": "_honeyAddress",
          "type": "address"
        }
      ],
      "name": "setHoneyAddress",
      "outputs": [],
      "stateMutability": "nonpayable",
      "type": "function"
    },
    {
      "inputs": [
        {
          "internalType": "address",
          "name": "_porridgeAddress",
          "type": "address"
        }
      ],
      "name": "setPorridge",
      "outputs": [],
      "stateMutability": "nonpayable",
      "type": "function"
    }
  ],
  "bytecode": {
    "object": "0x608060405234801561001057600080fd5b50604051610b4f380380610b4f83398101604081905261002f9161009c565b600080546001600160a01b03199081166001600160a01b03958616908117909255600380548216938616939093179092556005805483169390941692909217909255600480549092161790556100df565b80516001600160a01b038116811461009757600080fd5b919050565b6000806000606084860312156100b157600080fd5b6100ba84610080565b92506100c860208501610080565b91506100d660408501610080565b90509250925092565b610a61806100ee6000396000f3fe608060405234801561001057600080fd5b50600436106100b45760003560e01c80637efd59c9116100715780637efd59c91461017b578063bc22fd1b1461019b578063c5ebeaec146101c4578063db9ed213146101d7578063f2934a97146101ea578063fc6f9468146101fd57600080fd5b8063371fd8e6146100b95780633a2c92ab146100ce5780634837e2041461010157806348757e841461012c57806358ab715a1461013f5780636011163e14610152575b600080fd5b6100cc6100c7366004610908565b610210565b005b6100ee6100dc366004610921565b60086020526000908152604090205481565b6040519081526020015b60405180910390f35b600454610114906001600160a01b031681565b6040516001600160a01b0390911681526020016100f8565b600554610114906001600160a01b031681565b6100cc61014d366004610921565b610440565b6100ee610160366004610921565b6001600160a01b031660009081526008602052604090205490565b6100ee610189366004610921565b60076020526000908152604090205481565b6100ee6101a9366004610921565b6001600160a01b031660009081526007602052604090205490565b6100ee6101d2366004610908565b6104b2565b6100cc6101e5366004610921565b6108a0565b600654610114906001600160a01b031681565b600354610114906001600160a01b031681565b600081116102595760405162461bcd60e51b815260206004820152601160248201527063616e6e6f74207265706179207a65726f60781b60448201526064015b60405180910390fd5b336000908152600860205260409020548111156102ac5760405162461bcd60e51b81526020600482015260116024820152700e4cae0c2f2d2dcce40e8dede40daeac6d607b1b6044820152606401610250565b336000908152600760209081526040808320546008909252822054670de0b6b3a764000091906102dc8584610967565b6102e69190610984565b6102f09190610967565b6102fa9190610984565b3360009081526007602052604081208054929350839290919061031e9084906109a6565b909155505033600090815260086020526040812080548492906103429084906109a6565b9091555050600254600480546040516323b872dd60e01b81526001600160a01b03938416936323b872dd9361037e9333939216918891016109b9565b6020604051808303816000875af115801561039d573d6000803e3d6000fd5b505050506040513d601f19601f820116820180604052508101906103c191906109dd565b5060055460065460405163a9059cbb60e01b81526001600160a01b0391821660048201526024810184905291169063a9059cbb906044016020604051808303816000875af1158015610417573d6000803e3d6000fd5b505050506040513d601f19601f8201168201806040525081019061043b91906109dd565b505050565b6003546001600160a01b031633146104865760405162461bcd60e51b81526020600482015260096024820152683737ba1030b236b4b760b91b6044820152606401610250565b600180546001600160a01b039092166001600160a01b0319928316811790915560068054909216179055565b60008082116104f85760405162461bcd60e51b815260206004820152601260248201527163616e6e6f7420626f72726f77207a65726f60701b6044820152606401610250565b60008060009054906101000a90046001600160a01b03166001600160a01b0316639363c8126040518163ffffffff1660e01b8152600401602060405180830381865afa15801561054c573d6000803e3d6000fd5b505050506040513d601f19601f8201168201806040525081019061057091906109ff565b600154604051630e64203b60e21b81523360048201529192506000916001600160a01b039091169063399080ec90602401602060405180830381865afa1580156105be573d6000803e3d6000fd5b505050506040513d601f19601f820116820180604052508101906105e291906109ff565b336000908152600760205260409020549091508490670de0b6b3a76400009061060b90846109a6565b6106159085610967565b61061f9190610984565b101561066d5760405162461bcd60e51b815260206004820152601960248201527f696e73756666696369656e7420626f72726f77206c696d6974000000000000006044820152606401610250565b8161068085670de0b6b3a7640000610967565b61068a9190610984565b33600090815260076020526040812080549091906106a9908490610a18565b909155505033600090815260086020526040812080548692906106cd908490610a18565b90915550600090506106e0606486610984565b6106eb906003610967565b6005546006549192506001600160a01b03908116916323b872dd9116308661071b8a670de0b6b3a7640000610967565b6107259190610984565b6040518463ffffffff1660e01b8152600401610743939291906109b9565b6020604051808303816000875af1158015610762573d6000803e3d6000fd5b505050506040513d601f19601f8201168201806040525081019061078691906109dd565b506002546004546001600160a01b03918216916323b872dd9116336107ab858a6109a6565b6040518463ffffffff1660e01b81526004016107c9939291906109b9565b6020604051808303816000875af11580156107e8573d6000803e3d6000fd5b505050506040513d601f19601f8201168201806040525081019061080c91906109dd565b50600254600480546003546040516323b872dd60e01b81526001600160a01b03948516946323b872dd9461084994821693909116918791016109b9565b6020604051808303816000875af1158015610868573d6000803e3d6000fd5b505050506040513d601f19601f8201168201806040525081019061088c91906109dd565b5061089781866109a6565b95945050505050565b6003546001600160a01b031633146108e65760405162461bcd60e51b81526020600482015260096024820152683737ba1030b236b4b760b91b6044820152606401610250565b600280546001600160a01b0319166001600160a01b0392909216919091179055565b60006020828403121561091a57600080fd5b5035919050565b60006020828403121561093357600080fd5b81356001600160a01b038116811461094a57600080fd5b9392505050565b634e487b7160e01b600052601160045260246000fd5b808202811582820484141761097e5761097e610951565b92915050565b6000826109a157634e487b7160e01b600052601260045260246000fd5b500490565b8181038181111561097e5761097e610951565b6001600160a01b039384168152919092166020820152604081019190915260600190565b6000602082840312156109ef57600080fd5b8151801515811461094a57600080fd5b600060208284031215610a1157600080fd5b5051919050565b8082018082111561097e5761097e61095156fea2646970667358221220e74c1f29f1bebadbaafa856021305e4c8f58c619a6ef637fe37debd83273efe064736f6c63430008110033",
    "linkReferences": {}
  },
  "methodIdentifiers": {
    "adminAddress()": "fc6f9468",
    "ammAddress()": "4837e204",
    "borrow(uint256)": "c5ebeaec",
    "borrowedHoney(address)": "3a2c92ab",
    "getBorrowed(address)": "6011163e",
    "getLocked(address)": "bc22fd1b",
    "lockedLocks(address)": "7efd59c9",
    "locksAddress()": "48757e84",
    "porridgeAddress()": "f2934a97",
    "repay(uint256)": "371fd8e6",
    "setHoneyAddress(address)": "db9ed213",
    "setPorridge(address)": "58ab715a"
  },
  "id": 13
}