{
  "abi": [
    {
      "inputs": [
        {
          "internalType": "address",
          "name": "_ammAddress",
          "type": "address"
        },
        {
          "internalType": "address",
          "name": "_locksAddress",
          "type": "address"
        },
        {
          "internalType": "address",
          "name": "_prgAddress",
          "type": "address"
        },
        {
          "internalType": "address",
          "name": "_devAddress",
          "type": "address"
        }
      ],
      "stateMutability": "nonpayable",
      "type": "constructor"
    },
    {
      "inputs": [
        {
          "internalType": "uint256",
          "name": "_amount",
          "type": "uint256"
        }
      ],
      "name": "borrow",
      "outputs": [],
      "stateMutability": "nonpayable",
      "type": "function"
    },
    {
      "inputs": [
        {
          "internalType": "address",
          "name": "",
          "type": "address"
        }
      ],
      "name": "borrowedUsdc",
      "outputs": [
        {
          "internalType": "uint256",
          "name": "",
          "type": "uint256"
        }
      ],
      "stateMutability": "view",
      "type": "function"
    },
    {
      "inputs": [],
      "name": "dev",
      "outputs": [
        {
          "internalType": "address",
          "name": "",
          "type": "address"
        }
      ],
      "stateMutability": "view",
      "type": "function"
    },
    {
      "inputs": [
        {
          "internalType": "address",
          "name": "_user",
          "type": "address"
        }
      ],
      "name": "getBorrowed",
      "outputs": [
        {
          "internalType": "uint256",
          "name": "",
          "type": "uint256"
        }
      ],
      "stateMutability": "view",
      "type": "function"
    },
    {
      "inputs": [
        {
          "internalType": "address",
          "name": "_user",
          "type": "address"
        }
      ],
      "name": "getLocked",
      "outputs": [
        {
          "internalType": "uint256",
          "name": "",
          "type": "uint256"
        }
      ],
      "stateMutability": "view",
      "type": "function"
    },
    {
      "inputs": [
        {
          "internalType": "address",
          "name": "",
          "type": "address"
        }
      ],
      "name": "lockedLocks",
      "outputs": [
        {
          "internalType": "uint256",
          "name": "",
          "type": "uint256"
        }
      ],
      "stateMutability": "view",
      "type": "function"
    },
    {
      "inputs": [
        {
          "internalType": "uint256",
          "name": "_amount",
          "type": "uint256"
        }
      ],
      "name": "repay",
      "outputs": [],
      "stateMutability": "nonpayable",
      "type": "function"
    }
  ],
  "bytecode": {
    "object": "0x608060405234801561001057600080fd5b50604051610c56380380610c5683398101604081905261002f916100be565b600080546001600160a01b03199081166001600160a01b0396871617909155600180548216948616949094179093556002805484169285169290921790915560048054831691909316179091556003805473a0b86991c6218b36c1d19d4a2e9eb0ce3606eb489216919091179055610112565b80516001600160a01b03811681146100b957600080fd5b919050565b600080600080608085870312156100d457600080fd5b6100dd856100a2565b93506100eb602086016100a2565b92506100f9604086016100a2565b9150610107606086016100a2565b905092959194509250565b610b35806101216000396000f3fe608060405234801561001057600080fd5b506004361061007d5760003560e01c8063804d76301161005b578063804d7630146100f357806391cca3db14610113578063bc22fd1b1461013e578063c5ebeaec1461016757600080fd5b8063371fd8e6146100825780636011163e146100975780637efd59c9146100d3575b600080fd5b6100956100903660046109d4565b61017a565b005b6100c06100a53660046109ed565b6001600160a01b031660009081526006602052604090205490565b6040519081526020015b60405180910390f35b6100c06100e13660046109ed565b60056020526000908152604090205481565b6100c06101013660046109ed565b60066020526000908152604090205481565b600454610126906001600160a01b031681565b6040516001600160a01b0390911681526020016100ca565b6100c061014c3660046109ed565b6001600160a01b031660009081526005602052604090205490565b6100956101753660046109d4565b6105d4565b600081116101c35760405162461bcd60e51b815260206004820152601160248201527063616e6e6f74207265706179207a65726f60781b60448201526064015b60405180910390fd5b6101d081620f4240610a33565b6003546040516370a0823160e01b81523360048201526001600160a01b03909116906370a0823190602401602060405180830381865afa158015610218573d6000803e3d6000fd5b505050506040513d601f19601f8201168201806040525081019061023c9190610a52565b101580156102c7575061025281620f4240610a33565b600354604051636eb1769f60e11b81523360048201523060248201526001600160a01b039091169063dd62ed3e90604401602060405180830381865afa1580156102a0573d6000803e3d6000fd5b505050506040513d601f19601f820116820180604052508101906102c49190610a52565b10155b6103135760405162461bcd60e51b815260206004820152601c60248201527f696e73756666696369656e742066756e64732f616c6c6f77616e63650000000060448201526064016101ba565b600154604080516318160ddd60e01b815290516000926001600160a01b0316916318160ddd9160048083019260209291908290030181865afa15801561035d573d6000803e3d6000fd5b505050506040513d601f19601f820116820180604052508101906103819190610a52565b60008054906101000a90046001600160a01b03166001600160a01b0316631db77a4d6040518163ffffffff1660e01b8152600401602060405180830381865afa1580156103d2573d6000803e3d6000fd5b505050506040513d601f19601f820116820180604052508101906103f69190610a52565b6104009190610a6b565b3360009081526005602052604090205490915061041e908290610a33565b82101561046d5760405162461bcd60e51b815260206004820152601c60248201527f696e73756666696369656e7420626f72726f77656420616d6f756e740000000060448201526064016101ba565b6104778183610a6b565b3360009081526005602052604081208054909190610496908490610a8d565b909155505033600090815260066020526040812080548492906104ba908490610a8d565b90915550506003546000546001600160a01b03918216916323b872dd913391166104e786620f4240610a33565b6040518463ffffffff1660e01b815260040161050593929190610aa6565b6020604051808303816000875af1158015610524573d6000803e3d6000fd5b505050506040513d601f19601f820116820180604052508101906105489190610aca565b506001546002546001600160a01b03918216916323b872dd9130911661056e8587610a6b565b6040518463ffffffff1660e01b815260040161058c93929190610aa6565b6020604051808303816000875af11580156105ab573d6000803e3d6000fd5b505050506040513d601f19601f820116820180604052508101906105cf9190610aca565b505050565b600081116106195760405162461bcd60e51b815260206004820152601260248201527163616e6e6f7420626f72726f77207a65726f60701b60448201526064016101ba565b600154604080516318160ddd60e01b815290516000926001600160a01b0316916318160ddd9160048083019260209291908290030181865afa158015610663573d6000803e3d6000fd5b505050506040513d601f19601f820116820180604052508101906106879190610a52565b60008054906101000a90046001600160a01b03166001600160a01b0316631db77a4d6040518163ffffffff1660e01b8152600401602060405180830381865afa1580156106d8573d6000803e3d6000fd5b505050506040513d601f19601f820116820180604052508101906106fc9190610a52565b6107069190610a6b565b600254604051630e64203b60e21b81523360048201529192506000916001600160a01b039091169063399080ec90602401602060405180830381865afa158015610754573d6000803e3d6000fd5b505050506040513d601f19601f820116820180604052508101906107789190610a52565b9050826107858284610a33565b10156107d35760405162461bcd60e51b815260206004820152601960248201527f696e73756666696369656e7420626f72726f77206c696d69740000000000000060448201526064016101ba565b6107dd8284610a6b565b33600090815260056020526040812080549091906107fc908490610aec565b90915550503360009081526006602052604081208054859290610820908490610aec565b9091555060009050610833606485610a6b565b61083e906003610a33565b6001546002549192506001600160a01b03908116916323b872dd9116306108658789610a6b565b6040518463ffffffff1660e01b815260040161088393929190610aa6565b6020604051808303816000875af11580156108a2573d6000803e3d6000fd5b505050506040513d601f19601f820116820180604052508101906108c69190610aca565b506003546000546001600160a01b03918216916323b872dd9116336108eb8589610a8d565b6040518463ffffffff1660e01b815260040161090993929190610aa6565b6020604051808303816000875af1158015610928573d6000803e3d6000fd5b505050506040513d601f19601f8201168201806040525081019061094c9190610aca565b50600354600054600480546040516323b872dd60e01b81526001600160a01b03948516946323b872dd9461098a949082169390911691879101610aa6565b6020604051808303816000875af11580156109a9573d6000803e3d6000fd5b505050506040513d601f19601f820116820180604052508101906109cd9190610aca565b5050505050565b6000602082840312156109e657600080fd5b5035919050565b6000602082840312156109ff57600080fd5b81356001600160a01b0381168114610a1657600080fd5b9392505050565b634e487b7160e01b600052601160045260246000fd5b6000816000190483118215151615610a4d57610a4d610a1d565b500290565b600060208284031215610a6457600080fd5b5051919050565b600082610a8857634e487b7160e01b600052601260045260246000fd5b500490565b81810381811115610aa057610aa0610a1d565b92915050565b6001600160a01b039384168152919092166020820152604081019190915260600190565b600060208284031215610adc57600080fd5b81518015158114610a1657600080fd5b80820180821115610aa057610aa0610a1d56fea2646970667358221220c0760a13cc67c988df386b10abf8f1d868ccc3c1ae252d1996901cfe26c9af7864736f6c63430008100033",
    "linkReferences": {}
  },
  "methodIdentifiers": {
    "borrow(uint256)": "c5ebeaec",
    "borrowedUsdc(address)": "804d7630",
    "dev()": "91cca3db",
    "getBorrowed(address)": "6011163e",
    "getLocked(address)": "bc22fd1b",
    "lockedLocks(address)": "7efd59c9",
    "repay(uint256)": "371fd8e6"
  },
  "id": 16
}