{
  "abi": [
    {
      "inputs": [],
      "stateMutability": "nonpayable",
      "type": "constructor"
    },
    {
      "anonymous": false,
      "inputs": [
        {
          "indexed": true,
          "internalType": "address",
          "name": "owner",
          "type": "address"
        },
        {
          "indexed": true,
          "internalType": "address",
          "name": "spender",
          "type": "address"
        },
        {
          "indexed": false,
          "internalType": "uint256",
          "name": "value",
          "type": "uint256"
        }
      ],
      "name": "Approval",
      "type": "event"
    },
    {
      "anonymous": false,
      "inputs": [
        {
          "indexed": true,
          "internalType": "address",
          "name": "from",
          "type": "address"
        },
        {
          "indexed": true,
          "internalType": "address",
          "name": "to",
          "type": "address"
        },
        {
          "indexed": false,
          "internalType": "uint256",
          "name": "value",
          "type": "uint256"
        }
      ],
      "name": "Transfer",
      "type": "event"
    },
    {
      "inputs": [
        {
          "internalType": "address",
          "name": "",
          "type": "address"
        }
      ],
      "name": "allocations",
      "outputs": [
        {
          "internalType": "uint256",
          "name": "",
          "type": "uint256"
        }
      ],
      "stateMutability": "view",
      "type": "function"
    },
    {
      "inputs": [
        {
          "internalType": "address",
          "name": "owner",
          "type": "address"
        },
        {
          "internalType": "address",
          "name": "spender",
          "type": "address"
        }
      ],
      "name": "allowance",
      "outputs": [
        {
          "internalType": "uint256",
          "name": "",
          "type": "uint256"
        }
      ],
      "stateMutability": "view",
      "type": "function"
    },
    {
      "inputs": [
        {
          "internalType": "address",
          "name": "spender",
          "type": "address"
        },
        {
          "internalType": "uint256",
          "name": "amount",
          "type": "uint256"
        }
      ],
      "name": "approve",
      "outputs": [
        {
          "internalType": "bool",
          "name": "",
          "type": "bool"
        }
      ],
      "stateMutability": "nonpayable",
      "type": "function"
    },
    {
      "inputs": [
        {
          "internalType": "address",
          "name": "account",
          "type": "address"
        }
      ],
      "name": "balanceOf",
      "outputs": [
        {
          "internalType": "uint256",
          "name": "",
          "type": "uint256"
        }
      ],
      "stateMutability": "view",
      "type": "function"
    },
    {
      "inputs": [
        {
          "internalType": "address",
          "name": "_from",
          "type": "address"
        },
        {
          "internalType": "uint256",
          "name": "_amount",
          "type": "uint256"
        }
      ],
      "name": "burn",
      "outputs": [],
      "stateMutability": "nonpayable",
      "type": "function"
    },
    {
      "inputs": [
        {
          "internalType": "uint256",
          "name": "_amount",
          "type": "uint256"
        }
      ],
      "name": "contribute",
      "outputs": [],
      "stateMutability": "nonpayable",
      "type": "function"
    },
    {
      "inputs": [],
      "name": "decimals",
      "outputs": [
        {
          "internalType": "uint8",
          "name": "",
          "type": "uint8"
        }
      ],
      "stateMutability": "view",
      "type": "function"
    },
    {
      "inputs": [
        {
          "internalType": "address",
          "name": "spender",
          "type": "address"
        },
        {
          "internalType": "uint256",
          "name": "subtractedValue",
          "type": "uint256"
        }
      ],
      "name": "decreaseAllowance",
      "outputs": [
        {
          "internalType": "bool",
          "name": "",
          "type": "bool"
        }
      ],
      "stateMutability": "nonpayable",
      "type": "function"
    },
    {
      "inputs": [],
      "name": "getHardCap",
      "outputs": [
        {
          "internalType": "uint256",
          "name": "",
          "type": "uint256"
        }
      ],
      "stateMutability": "view",
      "type": "function"
    },
    {
      "inputs": [
        {
          "internalType": "address",
          "name": "spender",
          "type": "address"
        },
        {
          "internalType": "uint256",
          "name": "addedValue",
          "type": "uint256"
        }
      ],
      "name": "increaseAllowance",
      "outputs": [
        {
          "internalType": "bool",
          "name": "",
          "type": "bool"
        }
      ],
      "stateMutability": "nonpayable",
      "type": "function"
    },
    {
      "inputs": [
        {
          "internalType": "address",
          "name": "_to",
          "type": "address"
        },
        {
          "internalType": "uint256",
          "name": "_amount",
          "type": "uint256"
        }
      ],
      "name": "mint",
      "outputs": [],
      "stateMutability": "nonpayable",
      "type": "function"
    },
    {
      "inputs": [],
      "name": "name",
      "outputs": [
        {
          "internalType": "string",
          "name": "",
          "type": "string"
        }
      ],
      "stateMutability": "view",
      "type": "function"
    },
    {
      "inputs": [],
      "name": "setup",
      "outputs": [],
      "stateMutability": "nonpayable",
      "type": "function"
    },
    {
      "inputs": [],
      "name": "startTime",
      "outputs": [
        {
          "internalType": "uint256",
          "name": "",
          "type": "uint256"
        }
      ],
      "stateMutability": "view",
      "type": "function"
    },
    {
      "inputs": [],
      "name": "symbol",
      "outputs": [
        {
          "internalType": "string",
          "name": "",
          "type": "string"
        }
      ],
      "stateMutability": "view",
      "type": "function"
    },
    {
      "inputs": [],
      "name": "totalContribution",
      "outputs": [
        {
          "internalType": "uint256",
          "name": "",
          "type": "uint256"
        }
      ],
      "stateMutability": "view",
      "type": "function"
    },
    {
      "inputs": [],
      "name": "totalSupply",
      "outputs": [
        {
          "internalType": "uint256",
          "name": "",
          "type": "uint256"
        }
      ],
      "stateMutability": "view",
      "type": "function"
    },
    {
      "inputs": [
        {
          "internalType": "address",
          "name": "to",
          "type": "address"
        },
        {
          "internalType": "uint256",
          "name": "amount",
          "type": "uint256"
        }
      ],
      "name": "transfer",
      "outputs": [
        {
          "internalType": "bool",
          "name": "",
          "type": "bool"
        }
      ],
      "stateMutability": "nonpayable",
      "type": "function"
    },
    {
      "inputs": [
        {
          "internalType": "address",
          "name": "from",
          "type": "address"
        },
        {
          "internalType": "address",
          "name": "to",
          "type": "address"
        },
        {
          "internalType": "uint256",
          "name": "amount",
          "type": "uint256"
        }
      ],
      "name": "transferFrom",
      "outputs": [
        {
          "internalType": "bool",
          "name": "",
          "type": "bool"
        }
      ],
      "stateMutability": "nonpayable",
      "type": "function"
    }
  ],
  "bytecode": {
    "object": "0x6080604052620f4240600755600a6007546200001c9190620000be565b6008553480156200002c57600080fd5b506040518060400160405280600b81526020016a2637b1b5b9902a37b5b2b760a91b815250604051806040016040528060058152602001644c4f434b5360d81b815250816003908162000080919062000186565b5060046200008f828262000186565b5050600980546001600160a01b03191673a0b86991c6218b36c1d19d4a2e9eb0ce3606eb481790555062000252565b600082620000dc57634e487b7160e01b600052601260045260246000fd5b500490565b634e487b7160e01b600052604160045260246000fd5b600181811c908216806200010c57607f821691505b6020821081036200012d57634e487b7160e01b600052602260045260246000fd5b50919050565b601f8211156200018157600081815260208120601f850160051c810160208610156200015c5750805b601f850160051c820191505b818110156200017d5782815560010162000168565b5050505b505050565b81516001600160401b03811115620001a257620001a2620000e1565b620001ba81620001b38454620000f7565b8462000133565b602080601f831160018114620001f25760008415620001d95750858301515b600019600386901b1c1916600185901b1785556200017d565b600085815260208120601f198616915b82811015620002235788860151825594840194600190910190840162000202565b5085821015620002425787850151600019600388901b60f8161c191681555b5050505050600190811b01905550565b610fb780620002626000396000f3fe608060405234801561001057600080fd5b50600436106101215760003560e01c806370a08231116100ad578063a9059cbb11610071578063a9059cbb14610250578063ba0bba4014610263578063bf0a07bd1461026c578063c1cbbca714610274578063dd62ed3e1461028757600080fd5b806370a08231146101f057806378e979251461021957806395d89b41146102225780639dc29fac1461022a578063a457c2d71461023d57600080fd5b806323b872dd116100f457806323b872dd14610186578063313ce5671461019957806339509351146101a857806340c10f19146101bb57806352a9039c146101d057600080fd5b806306fdde0314610126578063095ea7b3146101445780630dcf4b8f1461016757806318160ddd1461017e575b600080fd5b61012e61029a565b60405161013b9190610d51565b60405180910390f35b610157610152366004610dbb565b61032c565b604051901515815260200161013b565b61017060065481565b60405190815260200161013b565b600254610170565b610157610194366004610de5565b610346565b6040516012815260200161013b565b6101576101b6366004610dbb565b61036a565b6101ce6101c9366004610dbb565b61038c565b005b6101706101de366004610e21565b600a6020526000908152604090205481565b6101706101fe366004610e21565b6001600160a01b031660009081526020819052604090205490565b61017060055481565b61012e610404565b6101ce610238366004610dbb565b610413565b61015761024b366004610dbb565b61041d565b61015761025e366004610dbb565b610498565b6101ce42600555565b600754610170565b6101ce610282366004610e43565b6104a6565b610170610295366004610e5c565b6107fa565b6060600380546102a990610e8f565b80601f01602080910402602001604051908101604052809291908181526020018280546102d590610e8f565b80156103225780601f106102f757610100808354040283529160200191610322565b820191906000526020600020905b81548152906001019060200180831161030557829003601f168201915b5050505050905090565b60003361033a818585610825565b60019150505b92915050565b60003361035485828561094a565b61035f8585856109c4565b506001949350505050565b60003361033a81858561037d83836107fa565b6103879190610edf565b610825565b6007548161039960025490565b6103a39190610edf565b11156103f65760405162461bcd60e51b815260206004820152601a60248201527f6d696e7420776f756c642065786365656420686172642063617000000000000060448201526064015b60405180910390fd5b6104008282610b68565b5050565b6060600480546102a990610e8f565b6104008282610c27565b6000338161042b82866107fa565b90508381101561048b5760405162461bcd60e51b815260206004820152602560248201527f45524332303a2064656372656173656420616c6c6f77616e63652062656c6f77604482015264207a65726f60d81b60648201526084016103ed565b61035f8286868403610825565b60003361033a8185856109c4565b336000908152600a60205260409020548111156105055760405162461bcd60e51b815260206004820152601860248201527f696e73756666696369656e7420616c6c6f636174696f6e73000000000000000060448201526064016103ed565b600754816006546105169190610edf565b11156105525760405162461bcd60e51b815260206004820152600b60248201526a1a185c9918d85c081a1a5d60aa1b60448201526064016103ed565b61055f81620f4240610ef2565b6009546040516370a0823160e01b81523360048201526001600160a01b03909116906370a0823190602401602060405180830381865afa1580156105a7573d6000803e3d6000fd5b505050506040513d601f19601f820116820180604052508101906105cb9190610f11565b1015801561065657506105e181620f4240610ef2565b600954604051636eb1769f60e11b81523360048201523060248201526001600160a01b039091169063dd62ed3e90604401602060405180830381865afa15801561062f573d6000803e3d6000fd5b505050506040513d601f19601f820116820180604052508101906106539190610f11565b10155b6106a25760405162461bcd60e51b815260206004820152601c60248201527f696e73756666696369656e742066756e64732f616c6c6f77616e63650000000060448201526064016103ed565b62015180600554426106b49190610f2a565b106107015760405162461bcd60e51b815260206004820152601d60248201527f70726573616c652068617320616c726561647920636f6e636c7564656400000060448201526064016103ed565b336000908152600a602052604081208054839290610720908490610f2a565b9250508190555080600660008282546107399190610edf565b90915550506009546001600160a01b03166323b872dd333061075e85620f4240610ef2565b6040516001600160e01b031960e086901b1681526001600160a01b03938416600482015292909116602483015260448201526064016020604051808303816000875af11580156107b2573d6000803e3d6000fd5b505050506040513d601f19601f820116820180604052508101906107d69190610f3d565b506107f733600a6107e8846009610ef2565b6107f29190610f5f565b610b68565b50565b6001600160a01b03918216600090815260016020908152604080832093909416825291909152205490565b6001600160a01b0383166108875760405162461bcd60e51b8152602060048201526024808201527f45524332303a20617070726f76652066726f6d20746865207a65726f206164646044820152637265737360e01b60648201526084016103ed565b6001600160a01b0382166108e85760405162461bcd60e51b815260206004820152602260248201527f45524332303a20617070726f766520746f20746865207a65726f206164647265604482015261737360f01b60648201526084016103ed565b6001600160a01b0383811660008181526001602090815260408083209487168084529482529182902085905590518481527f8c5be1e5ebec7d5bd14f71427d1e84f3dd0314c0f7b2291e5b200ac8c7c3b92591015b60405180910390a3505050565b600061095684846107fa565b905060001981146109be57818110156109b15760405162461bcd60e51b815260206004820152601d60248201527f45524332303a20696e73756666696369656e7420616c6c6f77616e636500000060448201526064016103ed565b6109be8484848403610825565b50505050565b6001600160a01b038316610a285760405162461bcd60e51b815260206004820152602560248201527f45524332303a207472616e736665722066726f6d20746865207a65726f206164604482015264647265737360d81b60648201526084016103ed565b6001600160a01b038216610a8a5760405162461bcd60e51b815260206004820152602360248201527f45524332303a207472616e7366657220746f20746865207a65726f206164647260448201526265737360e81b60648201526084016103ed565b6001600160a01b03831660009081526020819052604090205481811015610b025760405162461bcd60e51b815260206004820152602660248201527f45524332303a207472616e7366657220616d6f756e7420657863656564732062604482015265616c616e636560d01b60648201526084016103ed565b6001600160a01b03848116600081815260208181526040808320878703905593871680835291849020805487019055925185815290927fddf252ad1be2c89b69c2b068fc378daa952ba7f163c4a11628f55a4df523b3ef910160405180910390a36109be565b6001600160a01b038216610bbe5760405162461bcd60e51b815260206004820152601f60248201527f45524332303a206d696e7420746f20746865207a65726f20616464726573730060448201526064016103ed565b8060026000828254610bd09190610edf565b90915550506001600160a01b038216600081815260208181526040808320805486019055518481527fddf252ad1be2c89b69c2b068fc378daa952ba7f163c4a11628f55a4df523b3ef910160405180910390a35050565b6001600160a01b038216610c875760405162461bcd60e51b815260206004820152602160248201527f45524332303a206275726e2066726f6d20746865207a65726f206164647265736044820152607360f81b60648201526084016103ed565b6001600160a01b03821660009081526020819052604090205481811015610cfb5760405162461bcd60e51b815260206004820152602260248201527f45524332303a206275726e20616d6f756e7420657863656564732062616c616e604482015261636560f01b60648201526084016103ed565b6001600160a01b0383166000818152602081815260408083208686039055600280548790039055518581529192917fddf252ad1be2c89b69c2b068fc378daa952ba7f163c4a11628f55a4df523b3ef910161093d565b600060208083528351808285015260005b81811015610d7e57858101830151858201604001528201610d62565b506000604082860101526040601f19601f8301168501019250505092915050565b80356001600160a01b0381168114610db657600080fd5b919050565b60008060408385031215610dce57600080fd5b610dd783610d9f565b946020939093013593505050565b600080600060608486031215610dfa57600080fd5b610e0384610d9f565b9250610e1160208501610d9f565b9150604084013590509250925092565b600060208284031215610e3357600080fd5b610e3c82610d9f565b9392505050565b600060208284031215610e5557600080fd5b5035919050565b60008060408385031215610e6f57600080fd5b610e7883610d9f565b9150610e8660208401610d9f565b90509250929050565b600181811c90821680610ea357607f821691505b602082108103610ec357634e487b7160e01b600052602260045260246000fd5b50919050565b634e487b7160e01b600052601160045260246000fd5b8082018082111561034057610340610ec9565b6000816000190483118215151615610f0c57610f0c610ec9565b500290565b600060208284031215610f2357600080fd5b5051919050565b8181038181111561034057610340610ec9565b600060208284031215610f4f57600080fd5b81518015158114610e3c57600080fd5b600082610f7c57634e487b7160e01b600052601260045260246000fd5b50049056fea26469706673582212208538b8aee4a9035054f3f8a8d0dcd54c22321e8655d6d9a9ad20a101d21bb73864736f6c63430008100033",
    "linkReferences": {}
  },
  "methodIdentifiers": {
    "allocations(address)": "52a9039c",
    "allowance(address,address)": "dd62ed3e",
    "approve(address,uint256)": "095ea7b3",
    "balanceOf(address)": "70a08231",
    "burn(address,uint256)": "9dc29fac",
    "contribute(uint256)": "c1cbbca7",
    "decimals()": "313ce567",
    "decreaseAllowance(address,uint256)": "a457c2d7",
    "getHardCap()": "bf0a07bd",
    "increaseAllowance(address,uint256)": "39509351",
    "mint(address,uint256)": "40c10f19",
    "name()": "06fdde03",
    "setup()": "ba0bba40",
    "startTime()": "78e97925",
    "symbol()": "95d89b41",
    "totalContribution()": "0dcf4b8f",
    "totalSupply()": "18160ddd",
    "transfer(address,uint256)": "a9059cbb",
    "transferFrom(address,address,uint256)": "23b872dd"
  },
  "id": 15
}