{
  "abi": [
    {
      "inputs": [
        {
          "internalType": "address",
          "name": "_ammAddress",
          "type": "address"
        },
        {
          "internalType": "address",
          "name": "_locksAddress",
          "type": "address"
        },
        {
          "internalType": "address",
          "name": "_borrowAddress",
          "type": "address"
        }
      ],
      "stateMutability": "nonpayable",
      "type": "constructor"
    },
    {
      "anonymous": false,
      "inputs": [
        {
          "indexed": true,
          "internalType": "address",
          "name": "owner",
          "type": "address"
        },
        {
          "indexed": true,
          "internalType": "address",
          "name": "spender",
          "type": "address"
        },
        {
          "indexed": false,
          "internalType": "uint256",
          "name": "value",
          "type": "uint256"
        }
      ],
      "name": "Approval",
      "type": "event"
    },
    {
      "anonymous": false,
      "inputs": [
        {
          "indexed": true,
          "internalType": "address",
          "name": "from",
          "type": "address"
        },
        {
          "indexed": true,
          "internalType": "address",
          "name": "to",
          "type": "address"
        },
        {
          "indexed": false,
          "internalType": "uint256",
          "name": "value",
          "type": "uint256"
        }
      ],
      "name": "Transfer",
      "type": "event"
    },
    {
      "inputs": [],
      "name": "DAILY_EMISSISIONS",
      "outputs": [
        {
          "internalType": "uint8",
          "name": "",
          "type": "uint8"
        }
      ],
      "stateMutability": "view",
      "type": "function"
    },
    {
      "inputs": [],
      "name": "DAYS_SECONDS",
      "outputs": [
        {
          "internalType": "uint32",
          "name": "",
          "type": "uint32"
        }
      ],
      "stateMutability": "view",
      "type": "function"
    },
    {
      "inputs": [
        {
          "internalType": "address",
          "name": "owner",
          "type": "address"
        },
        {
          "internalType": "address",
          "name": "spender",
          "type": "address"
        }
      ],
      "name": "allowance",
      "outputs": [
        {
          "internalType": "uint256",
          "name": "",
          "type": "uint256"
        }
      ],
      "stateMutability": "view",
      "type": "function"
    },
    {
      "inputs": [
        {
          "internalType": "address",
          "name": "spender",
          "type": "address"
        },
        {
          "internalType": "uint256",
          "name": "amount",
          "type": "uint256"
        }
      ],
      "name": "approve",
      "outputs": [
        {
          "internalType": "bool",
          "name": "",
          "type": "bool"
        }
      ],
      "stateMutability": "nonpayable",
      "type": "function"
    },
    {
      "inputs": [
        {
          "internalType": "address",
          "name": "account",
          "type": "address"
        }
      ],
      "name": "balanceOf",
      "outputs": [
        {
          "internalType": "uint256",
          "name": "",
          "type": "uint256"
        }
      ],
      "stateMutability": "view",
      "type": "function"
    },
    {
      "inputs": [
        {
          "internalType": "address",
          "name": "_from",
          "type": "address"
        },
        {
          "internalType": "uint256",
          "name": "_amount",
          "type": "uint256"
        }
      ],
      "name": "burn",
      "outputs": [],
      "stateMutability": "nonpayable",
      "type": "function"
    },
    {
      "inputs": [
        {
          "internalType": "address",
          "name": "_user",
          "type": "address"
        }
      ],
      "name": "calculateYield",
      "outputs": [
        {
          "internalType": "uint256",
          "name": "",
          "type": "uint256"
        }
      ],
      "stateMutability": "view",
      "type": "function"
    },
    {
      "inputs": [],
      "name": "claim",
      "outputs": [],
      "stateMutability": "nonpayable",
      "type": "function"
    },
    {
      "inputs": [],
      "name": "decimals",
      "outputs": [
        {
          "internalType": "uint8",
          "name": "",
          "type": "uint8"
        }
      ],
      "stateMutability": "view",
      "type": "function"
    },
    {
      "inputs": [
        {
          "internalType": "address",
          "name": "spender",
          "type": "address"
        },
        {
          "internalType": "uint256",
          "name": "subtractedValue",
          "type": "uint256"
        }
      ],
      "name": "decreaseAllowance",
      "outputs": [
        {
          "internalType": "bool",
          "name": "",
          "type": "bool"
        }
      ],
      "stateMutability": "nonpayable",
      "type": "function"
    },
    {
      "inputs": [
        {
          "internalType": "address",
          "name": "_user",
          "type": "address"
        }
      ],
      "name": "getStaked",
      "outputs": [
        {
          "internalType": "uint256",
          "name": "",
          "type": "uint256"
        }
      ],
      "stateMutability": "view",
      "type": "function"
    },
    {
      "inputs": [
        {
          "internalType": "address",
          "name": "spender",
          "type": "address"
        },
        {
          "internalType": "uint256",
          "name": "addedValue",
          "type": "uint256"
        }
      ],
      "name": "increaseAllowance",
      "outputs": [
        {
          "internalType": "bool",
          "name": "",
          "type": "bool"
        }
      ],
      "stateMutability": "nonpayable",
      "type": "function"
    },
    {
      "inputs": [
        {
          "internalType": "address",
          "name": "_to",
          "type": "address"
        },
        {
          "internalType": "uint256",
          "name": "_amount",
          "type": "uint256"
        }
      ],
      "name": "mint",
      "outputs": [],
      "stateMutability": "nonpayable",
      "type": "function"
    },
    {
      "inputs": [],
      "name": "name",
      "outputs": [
        {
          "internalType": "string",
          "name": "",
          "type": "string"
        }
      ],
      "stateMutability": "view",
      "type": "function"
    },
    {
      "inputs": [
        {
          "internalType": "uint256",
          "name": "_amount",
          "type": "uint256"
        }
      ],
      "name": "realize",
      "outputs": [],
      "stateMutability": "nonpayable",
      "type": "function"
    },
    {
      "inputs": [
        {
          "internalType": "uint256",
          "name": "_amount",
          "type": "uint256"
        }
      ],
      "name": "stake",
      "outputs": [],
      "stateMutability": "nonpayable",
      "type": "function"
    },
    {
      "inputs": [
        {
          "internalType": "address",
          "name": "",
          "type": "address"
        }
      ],
      "name": "stakeStartTime",
      "outputs": [
        {
          "internalType": "uint256",
          "name": "",
          "type": "uint256"
        }
      ],
      "stateMutability": "view",
      "type": "function"
    },
    {
      "inputs": [
        {
          "internalType": "address",
          "name": "",
          "type": "address"
        }
      ],
      "name": "staked",
      "outputs": [
        {
          "internalType": "uint256",
          "name": "",
          "type": "uint256"
        }
      ],
      "stateMutability": "view",
      "type": "function"
    },
    {
      "inputs": [],
      "name": "symbol",
      "outputs": [
        {
          "internalType": "string",
          "name": "",
          "type": "string"
        }
      ],
      "stateMutability": "view",
      "type": "function"
    },
    {
      "inputs": [
        {
          "internalType": "address",
          "name": "_user",
          "type": "address"
        }
      ],
      "name": "timeStaked",
      "outputs": [
        {
          "internalType": "uint256",
          "name": "",
          "type": "uint256"
        }
      ],
      "stateMutability": "view",
      "type": "function"
    },
    {
      "inputs": [],
      "name": "totalSupply",
      "outputs": [
        {
          "internalType": "uint256",
          "name": "",
          "type": "uint256"
        }
      ],
      "stateMutability": "view",
      "type": "function"
    },
    {
      "inputs": [
        {
          "internalType": "address",
          "name": "to",
          "type": "address"
        },
        {
          "internalType": "uint256",
          "name": "amount",
          "type": "uint256"
        }
      ],
      "name": "transfer",
      "outputs": [
        {
          "internalType": "bool",
          "name": "",
          "type": "bool"
        }
      ],
      "stateMutability": "nonpayable",
      "type": "function"
    },
    {
      "inputs": [
        {
          "internalType": "address",
          "name": "from",
          "type": "address"
        },
        {
          "internalType": "address",
          "name": "to",
          "type": "address"
        },
        {
          "internalType": "uint256",
          "name": "amount",
          "type": "uint256"
        }
      ],
      "name": "transferFrom",
      "outputs": [
        {
          "internalType": "bool",
          "name": "",
          "type": "bool"
        }
      ],
      "stateMutability": "nonpayable",
      "type": "function"
    },
    {
      "inputs": [
        {
          "internalType": "uint256",
          "name": "_amount",
          "type": "uint256"
        }
      ],
      "name": "unstake",
      "outputs": [],
      "stateMutability": "nonpayable",
      "type": "function"
    }
  ],
  "bytecode": {
    "object": "0x60806040523480156200001157600080fd5b50604051620019023803806200190283398101604081905262000034916200011b565b6040518060400160405280600e81526020016d2837b93934b233b2902a37b5b2b760911b8152506040518060400160405280600381526020016250524760e81b81525081600390816200008891906200020a565b5060046200009782826200020a565b5050600780546001600160a01b039586166001600160a01b0319918216179091556006805494861694821694909417909355506008805491909316908216179091556005805490911673a0b86991c6218b36c1d19d4a2e9eb0ce3606eb48179055620002d6565b80516001600160a01b03811681146200011657600080fd5b919050565b6000806000606084860312156200013157600080fd5b6200013c84620000fe565b92506200014c60208501620000fe565b91506200015c60408501620000fe565b90509250925092565b634e487b7160e01b600052604160045260246000fd5b600181811c908216806200019057607f821691505b602082108103620001b157634e487b7160e01b600052602260045260246000fd5b50919050565b601f8211156200020557600081815260208120601f850160051c81016020861015620001e05750805b601f850160051c820191505b818110156200020157828155600101620001ec565b5050505b505050565b81516001600160401b0381111562000226576200022662000165565b6200023e816200023784546200017b565b84620001b7565b602080601f8311600181146200027657600084156200025d5750858301515b600019600386901b1c1916600185901b17855562000201565b600085815260208120601f198616915b82811015620002a75788860151825594840194600190910190840162000286565b5085821015620002c65787850151600019600388901b60f8161c191681555b5050505050600190811b01905550565b61161c80620002e66000396000f3fe608060405234801561001057600080fd5b50600436106101585760003560e01c806370a08231116100c35780639dc29fac1161007c5780639dc29fac1461030d578063a457c2d714610320578063a694fc3a14610333578063a9059cbb14610346578063dd62ed3e14610359578063e86eee461461036c57600080fd5b806370a0823114610277578063770fc860146102a0578063778f8cb0146102b3578063903d78fb146102c657806395d89b41146102e557806398807d84146102ed57600080fd5b8063395093511161011557806339509351146101ed578063399080ec1461020057806340c10f19146102295780634e71d92d1461023c578063567add64146102445780636985e6d81461025757600080fd5b806306fdde031461015d578063095ea7b31461017b57806318160ddd1461019e57806323b872dd146101b05780632e17de78146101c3578063313ce567146101d8575b600080fd5b610165610374565b60405161017291906113b6565b60405180910390f35b61018e610189366004611420565b610406565b6040519015158152602001610172565b6002545b604051908152602001610172565b61018e6101be36600461144a565b610420565b6101d66101d1366004611486565b610444565b005b60125b60405160ff9091168152602001610172565b61018e6101fb366004611420565b610681565b6101a261020e36600461149f565b6001600160a01b031660009081526009602052604090205490565b6101d6610237366004611420565b6106a3565b6101d66106ad565b6101a261025236600461149f565b6106b8565b6101a261026536600461149f565b600a6020526000908152604090205481565b6101a261028536600461149f565b6001600160a01b031660009081526020819052604090205490565b6101d66102ae366004611486565b610711565b6101a26102c136600461149f565b610b1f565b6102d06201518081565b60405163ffffffff9091168152602001610172565b610165610b42565b6101a26102fb36600461149f565b60096020526000908152604090205481565b6101d661031b366004611420565b610b51565b61018e61032e366004611420565b610b5b565b6101d6610341366004611486565b610bd6565b61018e610354366004611420565b610ddb565b6101a26103673660046114c1565b610de9565b6101db60c881565b606060038054610383906114f4565b80601f01602080910402602001604051908101604052809291908181526020018280546103af906114f4565b80156103fc5780601f106103d1576101008083540402835291602001916103fc565b820191906000526020600020905b8154815290600101906020018083116103df57829003601f168201915b5050505050905090565b600033610414818585610e14565b60019150505b92915050565b60003361042e858285610f39565b610439858585610fb3565b506001949350505050565b6000811161048f5760405162461bcd60e51b815260206004820152601360248201527263616e6e6f7420756e7374616b65207a65726f60681b60448201526064015b60405180910390fd5b336000908152600960205260409020548111156104ee5760405162461bcd60e51b815260206004820152601b60248201527f696e73756666696369656e74207374616b65642062616c616e636500000000006044820152606401610486565b60085460405163bc22fd1b60e01b81523360048201526001600160a01b039091169063bc22fd1b90602401602060405180830381865afa158015610536573d6000803e3d6000fd5b505050506040513d601f19601f8201168201806040525081019061055a919061152e565b33600090815260096020526040902054610574919061155d565b8111156105da5760405162461bcd60e51b815260206004820152602e60248201527f796f75206172652063757272656e746c7920626f72726f77696e67206167616960448201526d6e737420796f7572206c6f636b7360901b6064820152608401610486565b6105e333611157565b336000908152600960205260408120805483929061060290849061155d565b909155505060065460405163a9059cbb60e01b8152336004820152602481018390526001600160a01b039091169063a9059cbb906044015b6020604051808303816000875af1158015610659573d6000803e3d6000fd5b505050506040513d601f19601f8201168201806040525081019061067d9190611570565b5050565b6000336104148185856106948383610de9565b61069e9190611592565b610e14565b61067d82826111cd565b6106b633611157565b565b6000806106c483610b1f565b6001600160a01b038416600090815260096020526040812054919250906106ed9060c8906115a5565b905060006106fe62015180846115a5565b61070890836115c7565b95945050505050565b600081116107545760405162461bcd60e51b815260206004820152601060248201526f063616e6e6f74207265616c697a6520360841b6044820152606401610486565b336000908152602081905260409020548111156107aa5760405162461bcd60e51b8152602060048201526014602482015273696e73756666696369656e742062616c616e636560601b6044820152606401610486565b600654604080516318160ddd60e01b815290516000926001600160a01b0316916318160ddd9160048083019260209291908290030181865afa1580156107f4573d6000803e3d6000fd5b505050506040513d601f19601f82011682018060405250810190610818919061152e565b600760009054906101000a90046001600160a01b03166001600160a01b0316631db77a4d6040518163ffffffff1660e01b8152600401602060405180830381865afa15801561086b573d6000803e3d6000fd5b505050506040513d601f19601f8201168201806040525081019061088f919061152e565b61089991906115a5565b9050806108a983620f42406115c7565b6108b391906115c7565b6005546040516370a0823160e01b81523360048201526001600160a01b03909116906370a0823190602401602060405180830381865afa1580156108fb573d6000803e3d6000fd5b505050506040513d601f19601f8201168201806040525081019061091f919061152e565b101580156109b557508061093683620f42406115c7565b61094091906115c7565b600554604051636eb1769f60e11b81523360048201523060248201526001600160a01b039091169063dd62ed3e90604401602060405180830381865afa15801561098e573d6000803e3d6000fd5b505050506040513d601f19601f820116820180604052508101906109b2919061152e565b10155b610a015760405162461bcd60e51b815260206004820152601c60248201527f696e73756666696369656e742066756e64732f616c6c6f77616e6365000000006044820152606401610486565b610a0b338361128c565b6005546007546001600160a01b03918216916323b872dd9133911684610a3487620f42406115c7565b610a3e91906115c7565b6040516001600160e01b031960e086901b1681526001600160a01b03938416600482015292909116602483015260448201526064016020604051808303816000875af1158015610a92573d6000803e3d6000fd5b505050506040513d601f19601f82011682018060405250810190610ab69190611570565b506006546040516340c10f1960e01b8152336004820152602481018490526001600160a01b03909116906340c10f1990604401600060405180830381600087803b158015610b0357600080fd5b505af1158015610b17573d6000803e3d6000fd5b505050505050565b6001600160a01b0381166000908152600a602052604081205461041a904261155d565b606060048054610383906114f4565b61067d828261128c565b60003381610b698286610de9565b905083811015610bc95760405162461bcd60e51b815260206004820152602560248201527f45524332303a2064656372656173656420616c6c6f77616e63652062656c6f77604482015264207a65726f60d81b6064820152608401610486565b6104398286868403610e14565b60008111610c1a5760405162461bcd60e51b815260206004820152601160248201527063616e6e6f74207374616b65207a65726f60781b6044820152606401610486565b6006546040516370a0823160e01b815233600482015282916001600160a01b0316906370a0823190602401602060405180830381865afa158015610c62573d6000803e3d6000fd5b505050506040513d601f19601f82011682018060405250810190610c86919061152e565b10158015610d045750600654604051636eb1769f60e11b815233600482015230602482015282916001600160a01b03169063dd62ed3e90604401602060405180830381865afa158015610cdd573d6000803e3d6000fd5b505050506040513d601f19601f82011682018060405250810190610d01919061152e565b10155b610d5c5760405162461bcd60e51b8152602060048201526024808201527f696e73756666696369656e74206c6f636b732062616c616e63652f616c6c6f77604482015263616e636560e01b6064820152608401610486565b3360009081526009602052604090205415610d7a57610d7a33611157565b3360009081526009602052604081208054839290610d99908490611592565b90915550506006546040516323b872dd60e01b8152336004820152306024820152604481018390526001600160a01b03909116906323b872dd9060640161063a565b600033610414818585610fb3565b6001600160a01b03918216600090815260016020908152604080832093909416825291909152205490565b6001600160a01b038316610e765760405162461bcd60e51b8152602060048201526024808201527f45524332303a20617070726f76652066726f6d20746865207a65726f206164646044820152637265737360e01b6064820152608401610486565b6001600160a01b038216610ed75760405162461bcd60e51b815260206004820152602260248201527f45524332303a20617070726f766520746f20746865207a65726f206164647265604482015261737360f01b6064820152608401610486565b6001600160a01b0383811660008181526001602090815260408083209487168084529482529182902085905590518481527f8c5be1e5ebec7d5bd14f71427d1e84f3dd0314c0f7b2291e5b200ac8c7c3b92591015b60405180910390a3505050565b6000610f458484610de9565b90506000198114610fad5781811015610fa05760405162461bcd60e51b815260206004820152601d60248201527f45524332303a20696e73756666696369656e7420616c6c6f77616e63650000006044820152606401610486565b610fad8484848403610e14565b50505050565b6001600160a01b0383166110175760405162461bcd60e51b815260206004820152602560248201527f45524332303a207472616e736665722066726f6d20746865207a65726f206164604482015264647265737360d81b6064820152608401610486565b6001600160a01b0382166110795760405162461bcd60e51b815260206004820152602360248201527f45524332303a207472616e7366657220746f20746865207a65726f206164647260448201526265737360e81b6064820152608401610486565b6001600160a01b038316600090815260208190526040902054818110156110f15760405162461bcd60e51b815260206004820152602660248201527f45524332303a207472616e7366657220616d6f756e7420657863656564732062604482015265616c616e636560d01b6064820152608401610486565b6001600160a01b03848116600081815260208181526040808320878703905593871680835291849020805487019055925185815290927fddf252ad1be2c89b69c2b068fc378daa952ba7f163c4a11628f55a4df523b3ef910160405180910390a3610fad565b6000611162826106b8565b9050600081116111ac5760405162461bcd60e51b81526020600482015260156024820152746e6f7468696e6720746f206469737472696275746560581b6044820152606401610486565b6001600160a01b0382166000908152600a6020526040902042905561067d82825b6001600160a01b0382166112235760405162461bcd60e51b815260206004820152601f60248201527f45524332303a206d696e7420746f20746865207a65726f2061646472657373006044820152606401610486565b80600260008282546112359190611592565b90915550506001600160a01b038216600081815260208181526040808320805486019055518481527fddf252ad1be2c89b69c2b068fc378daa952ba7f163c4a11628f55a4df523b3ef910160405180910390a35050565b6001600160a01b0382166112ec5760405162461bcd60e51b815260206004820152602160248201527f45524332303a206275726e2066726f6d20746865207a65726f206164647265736044820152607360f81b6064820152608401610486565b6001600160a01b038216600090815260208190526040902054818110156113605760405162461bcd60e51b815260206004820152602260248201527f45524332303a206275726e20616d6f756e7420657863656564732062616c616e604482015261636560f01b6064820152608401610486565b6001600160a01b0383166000818152602081815260408083208686039055600280548790039055518581529192917fddf252ad1be2c89b69c2b068fc378daa952ba7f163c4a11628f55a4df523b3ef9101610f2c565b600060208083528351808285015260005b818110156113e3578581018301518582016040015282016113c7565b506000604082860101526040601f19601f8301168501019250505092915050565b80356001600160a01b038116811461141b57600080fd5b919050565b6000806040838503121561143357600080fd5b61143c83611404565b946020939093013593505050565b60008060006060848603121561145f57600080fd5b61146884611404565b925061147660208501611404565b9150604084013590509250925092565b60006020828403121561149857600080fd5b5035919050565b6000602082840312156114b157600080fd5b6114ba82611404565b9392505050565b600080604083850312156114d457600080fd5b6114dd83611404565b91506114eb60208401611404565b90509250929050565b600181811c9082168061150857607f821691505b60208210810361152857634e487b7160e01b600052602260045260246000fd5b50919050565b60006020828403121561154057600080fd5b5051919050565b634e487b7160e01b600052601160045260246000fd5b8181038181111561041a5761041a611547565b60006020828403121561158257600080fd5b815180151581146114ba57600080fd5b8082018082111561041a5761041a611547565b6000826115c257634e487b7160e01b600052601260045260246000fd5b500490565b60008160001904831182151516156115e1576115e1611547565b50029056fea26469706673582212204f10b7016558f6b9ed20f1d686ad08af14765552d2d81f0328649aa2e9cd04dc64736f6c63430008100033",
    "linkReferences": {}
  },
  "methodIdentifiers": {
    "DAILY_EMISSISIONS()": "e86eee46",
    "DAYS_SECONDS()": "903d78fb",
    "allowance(address,address)": "dd62ed3e",
    "approve(address,uint256)": "095ea7b3",
    "balanceOf(address)": "70a08231",
    "burn(address,uint256)": "9dc29fac",
    "calculateYield(address)": "567add64",
    "claim()": "4e71d92d",
    "decimals()": "313ce567",
    "decreaseAllowance(address,uint256)": "a457c2d7",
    "getStaked(address)": "399080ec",
    "increaseAllowance(address,uint256)": "39509351",
    "mint(address,uint256)": "40c10f19",
    "name()": "06fdde03",
    "realize(uint256)": "770fc860",
    "stake(uint256)": "a694fc3a",
    "stakeStartTime(address)": "6985e6d8",
    "staked(address)": "98807d84",
    "symbol()": "95d89b41",
    "timeStaked(address)": "778f8cb0",
    "totalSupply()": "18160ddd",
    "transfer(address,uint256)": "a9059cbb",
    "transferFrom(address,address,uint256)": "23b872dd",
    "unstake(uint256)": "2e17de78"
  },
  "id": 15
}