{
  "abi": [
    {
      "inputs": [
        {
          "internalType": "address",
          "name": "_ammAddress",
          "type": "address"
        },
        {
          "internalType": "address",
          "name": "_locksAddress",
          "type": "address"
        },
        {
          "internalType": "address",
          "name": "_borrowAddress",
          "type": "address"
        },
        {
          "internalType": "address",
          "name": "_adminAddress",
          "type": "address"
        }
      ],
      "stateMutability": "nonpayable",
      "type": "constructor"
    },
    {
      "anonymous": false,
      "inputs": [
        {
          "indexed": true,
          "internalType": "address",
          "name": "owner",
          "type": "address"
        },
        {
          "indexed": true,
          "internalType": "address",
          "name": "spender",
          "type": "address"
        },
        {
          "indexed": false,
          "internalType": "uint256",
          "name": "value",
          "type": "uint256"
        }
      ],
      "name": "Approval",
      "type": "event"
    },
    {
      "anonymous": false,
      "inputs": [
        {
          "indexed": true,
          "internalType": "address",
          "name": "from",
          "type": "address"
        },
        {
          "indexed": true,
          "internalType": "address",
          "name": "to",
          "type": "address"
        },
        {
          "indexed": false,
          "internalType": "uint256",
          "name": "value",
          "type": "uint256"
        }
      ],
      "name": "Transfer",
      "type": "event"
    },
    {
      "inputs": [],
      "name": "DAILY_EMISSISIONS",
      "outputs": [
        {
          "internalType": "uint8",
          "name": "",
          "type": "uint8"
        }
      ],
      "stateMutability": "view",
      "type": "function"
    },
    {
      "inputs": [],
      "name": "DAYS_SECONDS",
      "outputs": [
        {
          "internalType": "uint256",
          "name": "",
          "type": "uint256"
        }
      ],
      "stateMutability": "view",
      "type": "function"
    },
    {
      "inputs": [
        {
          "internalType": "address",
          "name": "_user",
          "type": "address"
        }
      ],
      "name": "_calculateYield",
      "outputs": [
        {
          "internalType": "uint256",
          "name": "",
          "type": "uint256"
        }
      ],
      "stateMutability": "view",
      "type": "function"
    },
    {
      "inputs": [],
      "name": "adminAddress",
      "outputs": [
        {
          "internalType": "address",
          "name": "",
          "type": "address"
        }
      ],
      "stateMutability": "view",
      "type": "function"
    },
    {
      "inputs": [
        {
          "internalType": "address",
          "name": "owner",
          "type": "address"
        },
        {
          "internalType": "address",
          "name": "spender",
          "type": "address"
        }
      ],
      "name": "allowance",
      "outputs": [
        {
          "internalType": "uint256",
          "name": "",
          "type": "uint256"
        }
      ],
      "stateMutability": "view",
      "type": "function"
    },
    {
      "inputs": [],
      "name": "ammAddress",
      "outputs": [
        {
          "internalType": "address",
          "name": "",
          "type": "address"
        }
      ],
      "stateMutability": "view",
      "type": "function"
    },
    {
      "inputs": [
        {
          "internalType": "address",
          "name": "spender",
          "type": "address"
        },
        {
          "internalType": "uint256",
          "name": "amount",
          "type": "uint256"
        }
      ],
      "name": "approve",
      "outputs": [
        {
          "internalType": "bool",
          "name": "",
          "type": "bool"
        }
      ],
      "stateMutability": "nonpayable",
      "type": "function"
    },
    {
      "inputs": [
        {
          "internalType": "address",
          "name": "account",
          "type": "address"
        }
      ],
      "name": "balanceOf",
      "outputs": [
        {
          "internalType": "uint256",
          "name": "",
          "type": "uint256"
        }
      ],
      "stateMutability": "view",
      "type": "function"
    },
    {
      "inputs": [],
      "name": "claim",
      "outputs": [
        {
          "internalType": "uint256",
          "name": "_yield",
          "type": "uint256"
        }
      ],
      "stateMutability": "nonpayable",
      "type": "function"
    },
    {
      "inputs": [],
      "name": "decimals",
      "outputs": [
        {
          "internalType": "uint8",
          "name": "",
          "type": "uint8"
        }
      ],
      "stateMutability": "view",
      "type": "function"
    },
    {
      "inputs": [
        {
          "internalType": "address",
          "name": "spender",
          "type": "address"
        },
        {
          "internalType": "uint256",
          "name": "subtractedValue",
          "type": "uint256"
        }
      ],
      "name": "decreaseAllowance",
      "outputs": [
        {
          "internalType": "bool",
          "name": "",
          "type": "bool"
        }
      ],
      "stateMutability": "nonpayable",
      "type": "function"
    },
    {
      "inputs": [
        {
          "internalType": "address",
          "name": "_user",
          "type": "address"
        }
      ],
      "name": "getStaked",
      "outputs": [
        {
          "internalType": "uint256",
          "name": "",
          "type": "uint256"
        }
      ],
      "stateMutability": "view",
      "type": "function"
    },
    {
      "inputs": [
        {
          "internalType": "address",
          "name": "spender",
          "type": "address"
        },
        {
          "internalType": "uint256",
          "name": "addedValue",
          "type": "uint256"
        }
      ],
      "name": "increaseAllowance",
      "outputs": [
        {
          "internalType": "bool",
          "name": "",
          "type": "bool"
        }
      ],
      "stateMutability": "nonpayable",
      "type": "function"
    },
    {
      "inputs": [],
      "name": "locksAddress",
      "outputs": [
        {
          "internalType": "address",
          "name": "",
          "type": "address"
        }
      ],
      "stateMutability": "view",
      "type": "function"
    },
    {
      "inputs": [],
      "name": "name",
      "outputs": [
        {
          "internalType": "string",
          "name": "",
          "type": "string"
        }
      ],
      "stateMutability": "view",
      "type": "function"
    },
    {
      "inputs": [
        {
          "internalType": "uint256",
          "name": "_amount",
          "type": "uint256"
        }
      ],
      "name": "realize",
      "outputs": [],
      "stateMutability": "nonpayable",
      "type": "function"
    },
    {
      "inputs": [
        {
          "internalType": "address",
          "name": "_honeyAddress",
          "type": "address"
        }
      ],
      "name": "setHoneyAddress",
      "outputs": [],
      "stateMutability": "nonpayable",
      "type": "function"
    },
    {
      "inputs": [
        {
          "internalType": "address",
          "name": "_locksAddress",
          "type": "address"
        }
      ],
      "name": "setLocksAddress",
      "outputs": [],
      "stateMutability": "nonpayable",
      "type": "function"
    },
    {
      "inputs": [
        {
          "internalType": "uint256",
          "name": "_amount",
          "type": "uint256"
        }
      ],
      "name": "stake",
      "outputs": [],
      "stateMutability": "nonpayable",
      "type": "function"
    },
    {
      "inputs": [
        {
          "internalType": "address",
          "name": "",
          "type": "address"
        }
      ],
      "name": "stakeStartTime",
      "outputs": [
        {
          "internalType": "uint256",
          "name": "",
          "type": "uint256"
        }
      ],
      "stateMutability": "view",
      "type": "function"
    },
    {
      "inputs": [
        {
          "internalType": "address",
          "name": "",
          "type": "address"
        }
      ],
      "name": "staked",
      "outputs": [
        {
          "internalType": "uint256",
          "name": "",
          "type": "uint256"
        }
      ],
      "stateMutability": "view",
      "type": "function"
    },
    {
      "inputs": [],
      "name": "symbol",
      "outputs": [
        {
          "internalType": "string",
          "name": "",
          "type": "string"
        }
      ],
      "stateMutability": "view",
      "type": "function"
    },
    {
      "inputs": [],
      "name": "totalSupply",
      "outputs": [
        {
          "internalType": "uint256",
          "name": "",
          "type": "uint256"
        }
      ],
      "stateMutability": "view",
      "type": "function"
    },
    {
      "inputs": [
        {
          "internalType": "address",
          "name": "to",
          "type": "address"
        },
        {
          "internalType": "uint256",
          "name": "amount",
          "type": "uint256"
        }
      ],
      "name": "transfer",
      "outputs": [
        {
          "internalType": "bool",
          "name": "",
          "type": "bool"
        }
      ],
      "stateMutability": "nonpayable",
      "type": "function"
    },
    {
      "inputs": [
        {
          "internalType": "address",
          "name": "from",
          "type": "address"
        },
        {
          "internalType": "address",
          "name": "to",
          "type": "address"
        },
        {
          "internalType": "uint256",
          "name": "amount",
          "type": "uint256"
        }
      ],
      "name": "transferFrom",
      "outputs": [
        {
          "internalType": "bool",
          "name": "",
          "type": "bool"
        }
      ],
      "stateMutability": "nonpayable",
      "type": "function"
    },
    {
      "inputs": [
        {
          "internalType": "uint256",
          "name": "_amount",
          "type": "uint256"
        }
      ],
      "name": "unstake",
      "outputs": [
        {
          "internalType": "uint256",
          "name": "_yield",
          "type": "uint256"
        }
      ],
      "stateMutability": "nonpayable",
      "type": "function"
    }
  ],
  "bytecode": {
    "object": "0x60806040523480156200001157600080fd5b506040516200179e3803806200179e833981016040819052620000349162000114565b6040518060400160405280600e81526020016d2837b93934b233b2902a37b5b2b760911b8152506040518060400160405280600381526020016250524760e81b815250816003908162000088919062000216565b50600462000097828262000216565b5050600680546001600160a01b03199081166001600160a01b039687161790915560078054821696861696871790556008805482169486169490941790935550600b805483169190931617909155600c80549091169091179055620002e2565b80516001600160a01b03811681146200010f57600080fd5b919050565b600080600080608085870312156200012b57600080fd5b6200013685620000f7565b93506200014660208601620000f7565b92506200015660408601620000f7565b91506200016660608601620000f7565b905092959194509250565b634e487b7160e01b600052604160045260246000fd5b600181811c908216806200019c57607f821691505b602082108103620001bd57634e487b7160e01b600052602260045260246000fd5b50919050565b601f8211156200021157600081815260208120601f850160051c81016020861015620001ec5750805b601f850160051c820191505b818110156200020d57828155600101620001f8565b5050505b505050565b81516001600160401b0381111562000232576200023262000171565b6200024a8162000243845462000187565b84620001c3565b602080601f831160018114620002825760008415620002695750858301515b600019600386901b1c1916600185901b1785556200020d565b600085815260208120601f198616915b82811015620002b35788860151825594840194600190910190840162000292565b5085821015620002d25787850151600019600388901b60f8161c191681555b5050505050600190811b01905550565b6114ac80620002f26000396000f3fe608060405234801561001057600080fd5b506004361061018e5760003560e01c8063770fc860116100de578063a9059cbb11610097578063dd62ed3e11610071578063dd62ed3e14610399578063e7ed48be146103ac578063e86eee46146103bf578063fc6f9468146103c757600080fd5b8063a9059cbb14610360578063b44f9a4214610373578063db9ed2131461038657600080fd5b8063770fc860146102ec578063903d78fb1461030157806395d89b411461031257806398807d841461031a578063a457c2d71461033a578063a694fc3a1461034d57600080fd5b8063395093511161014b57806348757e841161012557806348757e84146102885780634e71d92d1461029b5780636985e6d8146102a357806370a08231146102c357600080fd5b80633950935114610221578063399080ec146102345780634837e2041461025d57600080fd5b806306fdde0314610193578063095ea7b3146101b157806318160ddd146101d457806323b872dd146101e65780632e17de78146101f9578063313ce5671461020c575b600080fd5b61019b6103da565b6040516101a89190611251565b60405180910390f35b6101c46101bf3660046112b6565b61046c565b60405190151581526020016101a8565b6002545b6040519081526020016101a8565b6101c46101f43660046112e0565b610486565b6101d861020736600461131c565b6104aa565b60125b60405160ff90911681526020016101a8565b6101c461022f3660046112b6565b6106ee565b6101d8610242366004611335565b6001600160a01b031660009081526009602052604090205490565b600c54610270906001600160a01b031681565b6040516001600160a01b0390911681526020016101a8565b600d54610270906001600160a01b031681565b6101d8610710565b6101d86102b1366004611335565b600a6020526000908152604090205481565b6101d86102d1366004611335565b6001600160a01b031660009081526020819052604090205490565b6102ff6102fa36600461131c565b610720565b005b6101d869124bc0ddd92e5600000081565b61019b61094c565b6101d8610328366004611335565b60096020526000908152604090205481565b6101c46103483660046112b6565b61095b565b6102ff61035b36600461131c565b6109d6565b6101c461036e3660046112b6565b610aea565b6102ff610381366004611335565b610af8565b6102ff610394366004611335565b610b60565b6101d86103a7366004611357565b610bc8565b6101d86103ba366004611335565b610bf3565b61020f60c881565b600b54610270906001600160a01b031681565b6060600380546103e99061138a565b80601f01602080910402602001604051908101604052809291908181526020018280546104159061138a565b80156104625780601f1061043757610100808354040283529160200191610462565b820191906000526020600020905b81548152906001019060200180831161044557829003601f168201915b5050505050905090565b60003361047a818585610c83565b60019150505b92915050565b600033610494858285610da8565b61049f858585610e22565b506001949350505050565b60008082116104f65760405162461bcd60e51b815260206004820152601360248201527263616e6e6f7420756e7374616b65207a65726f60681b60448201526064015b60405180910390fd5b336000908152600960205260409020548211156105555760405162461bcd60e51b815260206004820152601b60248201527f696e73756666696369656e74207374616b65642062616c616e6365000000000060448201526064016104ed565b60085460405163bc22fd1b60e01b81523360048201526001600160a01b039091169063bc22fd1b90602401602060405180830381865afa15801561059d573d6000803e3d6000fd5b505050506040513d601f19601f820116820180604052508101906105c191906113be565b336000908152600960205260409020546105db91906113ed565b8211156106415760405162461bcd60e51b815260206004820152602e60248201527f796f75206172652063757272656e746c7920626f72726f77696e67206167616960448201526d6e737420796f7572206c6f636b7360901b60648201526084016104ed565b61064a33610fc6565b3360009081526009602052604081208054929350849290919061066e9084906113ed565b9091555050600d5460405163a9059cbb60e01b8152336004820152602481018490526001600160a01b039091169063a9059cbb906044016020604051808303816000875af11580156106c4573d6000803e3d6000fd5b505050506040513d601f19601f820116820180604052508101906106e89190611400565b50919050565b60003361047a8185856107018383610bc8565b61070b9190611422565b610c83565b600061071b33610fc6565b905090565b600081116107635760405162461bcd60e51b815260206004820152601060248201526f063616e6e6f74207265616c697a6520360841b60448201526064016104ed565b336000908152602081905260409020548111156107b95760405162461bcd60e51b8152602060048201526014602482015273696e73756666696369656e742062616c616e636560601b60448201526064016104ed565b600754604080516349b1e40960e11b815290516000926001600160a01b031691639363c8129160048083019260209291908290030181865afa158015610803573d6000803e3d6000fd5b505050506040513d601f19601f8201168201806040525081019061082791906113be565b90506108333383611045565b600554600c546001600160a01b03918216916323b872dd91339116670de0b6b3a76400006108618688611435565b61086b9190611454565b6040516001600160e01b031960e086901b1681526001600160a01b03938416600482015292909116602483015260448201526064016020604051808303816000875af11580156108bf573d6000803e3d6000fd5b505050506040513d601f19601f820116820180604052508101906108e39190611400565b506006546040516307d8bbb160e21b8152336004820152602481018490526001600160a01b0390911690631f62eec490604401600060405180830381600087803b15801561093057600080fd5b505af1158015610944573d6000803e3d6000fd5b505050505050565b6060600480546103e99061138a565b600033816109698286610bc8565b9050838110156109c95760405162461bcd60e51b815260206004820152602560248201527f45524332303a2064656372656173656420616c6c6f77616e63652062656c6f77604482015264207a65726f60d81b60648201526084016104ed565b61049f8286868403610c83565b60008111610a1a5760405162461bcd60e51b815260206004820152601160248201527063616e6e6f74207374616b65207a65726f60781b60448201526064016104ed565b3360009081526009602052604090205415610a3a57610a3833610fc6565b505b336000908152600a60209081526040808320429055600990915281208054839290610a66908490611422565b9091555050600d546040516323b872dd60e01b8152336004820152306024820152604481018390526001600160a01b03909116906323b872dd906064016020604051808303816000875af1158015610ac2573d6000803e3d6000fd5b505050506040513d601f19601f82011682018060405250810190610ae69190611400565b5050565b60003361047a818585610e22565b600b546001600160a01b03163314610b3e5760405162461bcd60e51b81526020600482015260096024820152683737ba1030b236b4b760b91b60448201526064016104ed565b600d80546001600160a01b0319166001600160a01b0392909216919091179055565b600b546001600160a01b03163314610ba65760405162461bcd60e51b81526020600482015260096024820152683737ba1030b236b4b760b91b60448201526064016104ed565b600580546001600160a01b0319166001600160a01b0392909216919091179055565b6001600160a01b03918216600090815260016020908152604080832093909416825291909152205490565b600080610bff8361116f565b6001600160a01b03841660009081526009602052604081205491925090610c289060c890611454565b90506000670de0b6b3a764000069124bc0ddd92e56000000610c4a8583611435565b610c5c90670de0b6b3a7640000611435565b610c669190611454565b610c709084611435565b610c7a9190611454565b95945050505050565b6001600160a01b038316610ce55760405162461bcd60e51b8152602060048201526024808201527f45524332303a20617070726f76652066726f6d20746865207a65726f206164646044820152637265737360e01b60648201526084016104ed565b6001600160a01b038216610d465760405162461bcd60e51b815260206004820152602260248201527f45524332303a20617070726f766520746f20746865207a65726f206164647265604482015261737360f01b60648201526084016104ed565b6001600160a01b0383811660008181526001602090815260408083209487168084529482529182902085905590518481527f8c5be1e5ebec7d5bd14f71427d1e84f3dd0314c0f7b2291e5b200ac8c7c3b92591015b60405180910390a3505050565b6000610db48484610bc8565b90506000198114610e1c5781811015610e0f5760405162461bcd60e51b815260206004820152601d60248201527f45524332303a20696e73756666696369656e7420616c6c6f77616e636500000060448201526064016104ed565b610e1c8484848403610c83565b50505050565b6001600160a01b038316610e865760405162461bcd60e51b815260206004820152602560248201527f45524332303a207472616e736665722066726f6d20746865207a65726f206164604482015264647265737360d81b60648201526084016104ed565b6001600160a01b038216610ee85760405162461bcd60e51b815260206004820152602360248201527f45524332303a207472616e7366657220746f20746865207a65726f206164647260448201526265737360e81b60648201526084016104ed565b6001600160a01b03831660009081526020819052604090205481811015610f605760405162461bcd60e51b815260206004820152602660248201527f45524332303a207472616e7366657220616d6f756e7420657863656564732062604482015265616c616e636560d01b60648201526084016104ed565b6001600160a01b03848116600081815260208181526040808320878703905593871680835291849020805487019055925185815290927fddf252ad1be2c89b69c2b068fc378daa952ba7f163c4a11628f55a4df523b3ef910160405180910390a3610e1c565b6000610fd182610bf3565b90506000811161101b5760405162461bcd60e51b81526020600482015260156024820152746e6f7468696e6720746f206469737472696275746560581b60448201526064016104ed565b6001600160a01b0382166000908152600a602052604090204290556110408282611192565b919050565b6001600160a01b0382166110a55760405162461bcd60e51b815260206004820152602160248201527f45524332303a206275726e2066726f6d20746865207a65726f206164647265736044820152607360f81b60648201526084016104ed565b6001600160a01b038216600090815260208190526040902054818110156111195760405162461bcd60e51b815260206004820152602260248201527f45524332303a206275726e20616d6f756e7420657863656564732062616c616e604482015261636560f01b60648201526084016104ed565b6001600160a01b0383166000818152602081815260408083208686039055600280548790039055518581529192917fddf252ad1be2c89b69c2b068fc378daa952ba7f163c4a11628f55a4df523b3ef9101610d9b565b6001600160a01b0381166000908152600a602052604081205461048090426113ed565b6001600160a01b0382166111e85760405162461bcd60e51b815260206004820152601f60248201527f45524332303a206d696e7420746f20746865207a65726f20616464726573730060448201526064016104ed565b80600260008282546111fa9190611422565b90915550506001600160a01b038216600081815260208181526040808320805486019055518481527fddf252ad1be2c89b69c2b068fc378daa952ba7f163c4a11628f55a4df523b3ef910160405180910390a35050565b600060208083528351808285015260005b8181101561127e57858101830151858201604001528201611262565b506000604082860101526040601f19601f8301168501019250505092915050565b80356001600160a01b038116811461104057600080fd5b600080604083850312156112c957600080fd5b6112d28361129f565b946020939093013593505050565b6000806000606084860312156112f557600080fd5b6112fe8461129f565b925061130c6020850161129f565b9150604084013590509250925092565b60006020828403121561132e57600080fd5b5035919050565b60006020828403121561134757600080fd5b6113508261129f565b9392505050565b6000806040838503121561136a57600080fd5b6113738361129f565b91506113816020840161129f565b90509250929050565b600181811c9082168061139e57607f821691505b6020821081036106e857634e487b7160e01b600052602260045260246000fd5b6000602082840312156113d057600080fd5b5051919050565b634e487b7160e01b600052601160045260246000fd5b81810381811115610480576104806113d7565b60006020828403121561141257600080fd5b8151801515811461135057600080fd5b80820180821115610480576104806113d7565b600081600019048311821515161561144f5761144f6113d7565b500290565b60008261147157634e487b7160e01b600052601260045260246000fd5b50049056fea2646970667358221220e399a355ad317ae31c05d7b2a0f8f7fcbaf24acef2e131c3f07cde78063f9bf964736f6c63430008100033",
    "linkReferences": {}
  },
  "methodIdentifiers": {
    "DAILY_EMISSISIONS()": "e86eee46",
    "DAYS_SECONDS()": "903d78fb",
    "_calculateYield(address)": "e7ed48be",
    "adminAddress()": "fc6f9468",
    "allowance(address,address)": "dd62ed3e",
    "ammAddress()": "4837e204",
    "approve(address,uint256)": "095ea7b3",
    "balanceOf(address)": "70a08231",
    "claim()": "4e71d92d",
    "decimals()": "313ce567",
    "decreaseAllowance(address,uint256)": "a457c2d7",
    "getStaked(address)": "399080ec",
    "increaseAllowance(address,uint256)": "39509351",
    "locksAddress()": "48757e84",
    "name()": "06fdde03",
    "realize(uint256)": "770fc860",
    "setHoneyAddress(address)": "db9ed213",
    "setLocksAddress(address)": "b44f9a42",
    "stake(uint256)": "a694fc3a",
    "stakeStartTime(address)": "6985e6d8",
    "staked(address)": "98807d84",
    "symbol()": "95d89b41",
    "totalSupply()": "18160ddd",
    "transfer(address,uint256)": "a9059cbb",
    "transferFrom(address,address,uint256)": "23b872dd",
    "unstake(uint256)": "2e17de78"
  },
  "id": 15
}