{
  "abi": [
    {
      "inputs": [
        {
          "internalType": "address",
          "name": "_locksAddress",
          "type": "address"
        }
      ],
      "stateMutability": "nonpayable",
      "type": "constructor"
    },
    {
      "inputs": [
        {
          "internalType": "uint256",
          "name": "_fsl",
          "type": "uint256"
        },
        {
          "internalType": "uint256",
          "name": "_supply",
          "type": "uint256"
        }
      ],
      "name": "floorPrice",
      "outputs": [
        {
          "internalType": "uint256",
          "name": "",
          "type": "uint256"
        }
      ],
      "stateMutability": "pure",
      "type": "function"
    },
    {
      "inputs": [],
      "name": "lastFloorRaise",
      "outputs": [
        {
          "internalType": "uint256",
          "name": "",
          "type": "uint256"
        }
      ],
      "stateMutability": "view",
      "type": "function"
    },
    {
      "inputs": [
        {
          "internalType": "uint256",
          "name": "_fsl",
          "type": "uint256"
        },
        {
          "internalType": "uint256",
          "name": "_psl",
          "type": "uint256"
        },
        {
          "internalType": "uint256",
          "name": "_supply",
          "type": "uint256"
        }
      ],
      "name": "marketPrice",
      "outputs": [
        {
          "internalType": "uint256",
          "name": "",
          "type": "uint256"
        }
      ],
      "stateMutability": "pure",
      "type": "function"
    },
    {
      "inputs": [],
      "name": "mfsl",
      "outputs": [
        {
          "internalType": "uint256",
          "name": "",
          "type": "uint256"
        }
      ],
      "stateMutability": "view",
      "type": "function"
    },
    {
      "inputs": [],
      "name": "mpsl",
      "outputs": [
        {
          "internalType": "uint256",
          "name": "",
          "type": "uint256"
        }
      ],
      "stateMutability": "view",
      "type": "function"
    },
    {
      "inputs": [
        {
          "internalType": "uint256",
          "name": "_amount",
          "type": "uint256"
        }
      ],
      "name": "mpurchase",
      "outputs": [
        {
          "internalType": "uint256",
          "name": "",
          "type": "uint256"
        }
      ],
      "stateMutability": "nonpayable",
      "type": "function"
    },
    {
      "inputs": [],
      "name": "msupply",
      "outputs": [
        {
          "internalType": "uint256",
          "name": "",
          "type": "uint256"
        }
      ],
      "stateMutability": "view",
      "type": "function"
    },
    {
      "inputs": [
        {
          "internalType": "uint256",
          "name": "_amount",
          "type": "uint256"
        }
      ],
      "name": "purchase",
      "outputs": [
        {
          "internalType": "uint256",
          "name": "",
          "type": "uint256"
        }
      ],
      "stateMutability": "nonpayable",
      "type": "function"
    }
  ],
  "bytecode": {
    "object": "0x6080604052680410d586a20a4c000060035568015af1d78b58c400006004556805f68e8131ecf80000600555680410d586a20a4c000060065568015af1d78b58c400006007556805f68e8131ecf8000060085534801561005e57600080fd5b5060405161076838038061076883398101604081905261007d916100c3565b600180546001600160a01b039092166001600160a01b03199283161790556000805490911673a0b86991c6218b36c1d19d4a2e9eb0ce3606eb48179055426002556100f3565b6000602082840312156100d557600080fd5b81516001600160a01b03811681146100ec57600080fd5b9392505050565b610666806101026000396000f3fe608060405234801561001057600080fd5b50600436106100885760003560e01c8063a6885cb91161005b578063a6885cb9146100d7578063c12da8ee146100ea578063d2b478ed146100f3578063efef39a1146100fc57600080fd5b8063013bf9091461008d57806340ffcaaf146100b257806347166218146100bb5780635f1c0b65146100ce575b600080fd5b6100a061009b36600461050a565b61010f565b60405190815260200160405180910390f35b6100a060075481565b6100a06100c9366004610536565b61018e565b6100a060065481565b6100a06100e536600461054f565b61034d565b6100a060085481565b6100a060025481565b6100a061010a366004610536565b610375565b6000670de0b6b3a7640000846101258186610587565b61013790670de0b6b3a764000061059a565b61014191906105b9565b8361015486670de0b6b3a764000061059a565b61015e91906105b9565b610168919061059a565b61017291906105b9565b61017c858461034d565b6101869190610587565b949350505050565b600654600754600854600092919083805b86811015610225576101b285858561010f565b6101bc9083610587565b91506101d0670de0b6b3a764000084610587565b92506101dc858461034d565b6101e69086610587565b94506101f2858461034d565b6101fd86868661010f565b61020791906105db565b6102119085610587565b93508061021d816105ee565b91505061019f565b506006849055600783905560088290556000546001600160a01b03166323b872dd3330610255620f4240866105b9565b6040516001600160e01b031960e086901b1681526001600160a01b03938416600482015292909116602483015260448201526064016020604051808303816000875af11580156102a9573d6000803e3d6000fd5b505050506040513d601f19601f820116820180604052508101906102cd9190610607565b506001546040516340c10f1960e01b8152336004820152602481018890526001600160a01b03909116906340c10f1990604401600060405180830381600087803b15801561031a57600080fd5b505af115801561032e573d6000803e3d6000fd5b5050505061034360065460075460085461010f565b9695505050505050565b60008161036284670de0b6b3a764000061059a565b61036c91906105b9565b90505b92915050565b60008060008060005b8581101561048b5761039760035460045460055461010f565b6103a19085610587565b93506103b160035460055461034d565b6103bb9084610587565b92506103cb60035460055461034d565b6103dc60035460045460055461010f565b6103e691906105db565b6103f09083610587565b9150670de0b6b3a76400006005600082825461040c9190610587565b9250508190555061042160035460055461034d565b600360008282546104329190610587565b9250508190555061044760035460055461034d565b61045860035460045460055461010f565b61046291906105db565b600460008282546104739190610587565b90915550819050610483816105ee565b91505061037e565b506001546040516340c10f1960e01b8152336004820152602481018790526001600160a01b03909116906340c10f1990604401600060405180830381600087803b1580156104d857600080fd5b505af11580156104ec573d6000803e3d6000fd5b5050505061050160035460045460055461010f565b95945050505050565b60008060006060848603121561051f57600080fd5b505081359360208301359350604090920135919050565b60006020828403121561054857600080fd5b5035919050565b6000806040838503121561056257600080fd5b50508035926020909101359150565b634e487b7160e01b600052601160045260246000fd5b8082018082111561036f5761036f610571565b60008160001904831182151516156105b4576105b4610571565b500290565b6000826105d657634e487b7160e01b600052601260045260246000fd5b500490565b8181038181111561036f5761036f610571565b60006001820161060057610600610571565b5060010190565b60006020828403121561061957600080fd5b8151801515811461062957600080fd5b939250505056fea2646970667358221220ebaaf2e59bc2e80270bbf3056b9e505970b709167c950b15b3761819e230518064736f6c63430008100033",
    "linkReferences": {}
  },
  "methodIdentifiers": {
    "floorPrice(uint256,uint256)": "a6885cb9",
    "lastFloorRaise()": "d2b478ed",
    "marketPrice(uint256,uint256,uint256)": "013bf909",
    "mfsl()": "5f1c0b65",
    "mpsl()": "40ffcaaf",
    "mpurchase(uint256)": "47166218",
    "msupply()": "c12da8ee",
    "purchase(uint256)": "efef39a1"
  },
  "id": 16
}