{
  "abi": [
    {
      "inputs": [
        {
          "internalType": "uint256",
          "name": "_something",
          "type": "uint256"
        }
      ],
      "name": "changeSomething",
      "outputs": [],
      "stateMutability": "nonpayable",
      "type": "function"
    },
    {
      "inputs": [],
      "name": "fsl",
      "outputs": [
        {
          "internalType": "uint256",
          "name": "",
          "type": "uint256"
        }
      ],
      "stateMutability": "view",
      "type": "function"
    },
    {
      "inputs": [],
      "name": "psl",
      "outputs": [
        {
          "internalType": "uint256",
          "name": "",
          "type": "uint256"
        }
      ],
      "stateMutability": "view",
      "type": "function"
    },
    {
      "inputs": [],
      "name": "something",
      "outputs": [
        {
          "internalType": "uint256",
          "name": "",
          "type": "uint256"
        }
      ],
      "stateMutability": "view",
      "type": "function"
    },
    {
      "inputs": [],
      "name": "supply",
      "outputs": [
        {
          "internalType": "uint256",
          "name": "",
          "type": "uint256"
        }
      ],
      "stateMutability": "view",
      "type": "function"
    },
    {
      "inputs": [],
      "name": "targetRatio",
      "outputs": [
        {
          "internalType": "uint256",
          "name": "",
          "type": "uint256"
        }
      ],
      "stateMutability": "view",
      "type": "function"
    }
  ],
  "bytecode": {
    "object": "0x608060405267039bb49f599a00006000556a0152d02c7e14af680000006001556954b40b1f852bda000000600255683635c9adc5dea00000600355604560045534801561004b57600080fd5b5060f98061005a6000396000f3fe6080604052348015600f57600080fd5b5060043610605a5760003560e01c8063047fc9aa14605f5780631db77a4d1460795780635a08bd1714608157806380468812146089578063a7a0d537146091578063b1aa6d74146099575b600080fd5b606760035481565b60405190815260200160405180910390f35b606760015481565b606760005481565b606760025481565b606760045481565b60a960a436600460ab565b600455565b005b60006020828403121560bc57600080fd5b503591905056fea2646970667358221220f856f87800fd9bd163a623a4db5bedb85c0af87004474aaaf453524ca4b6599e64736f6c63430008100033",
    "linkReferences": {}
  },
  "methodIdentifiers": {
    "changeSomething(uint256)": "b1aa6d74",
    "fsl()": "1db77a4d",
    "psl()": "80468812",
    "something()": "a7a0d537",
    "supply()": "047fc9aa",
    "targetRatio()": "5a08bd17"
  },
  "id": 6
}