{
  "abi": [
    {
      "inputs": [
        {
          "internalType": "address",
          "name": "_ammAddress",
          "type": "address"
        },
        {
          "internalType": "address",
          "name": "_locksAddress",
          "type": "address"
        },
        {
          "internalType": "address",
          "name": "_borrowAddress",
          "type": "address"
        },
        {
          "internalType": "address",
          "name": "_adminAddress",
          "type": "address"
        }
      ],
      "stateMutability": "nonpayable",
      "type": "constructor"
    },
    {
      "anonymous": false,
      "inputs": [
        {
          "indexed": true,
          "internalType": "address",
          "name": "owner",
          "type": "address"
        },
        {
          "indexed": true,
          "internalType": "address",
          "name": "spender",
          "type": "address"
        },
        {
          "indexed": false,
          "internalType": "uint256",
          "name": "value",
          "type": "uint256"
        }
      ],
      "name": "Approval",
      "type": "event"
    },
    {
      "anonymous": false,
      "inputs": [
        {
          "indexed": true,
          "internalType": "address",
          "name": "from",
          "type": "address"
        },
        {
          "indexed": true,
          "internalType": "address",
          "name": "to",
          "type": "address"
        },
        {
          "indexed": false,
          "internalType": "uint256",
          "name": "value",
          "type": "uint256"
        }
      ],
      "name": "Transfer",
      "type": "event"
    },
    {
      "inputs": [],
      "name": "DAILY_EMISSISIONS",
      "outputs": [
        {
          "internalType": "uint8",
          "name": "",
          "type": "uint8"
        }
      ],
      "stateMutability": "view",
      "type": "function"
    },
    {
      "inputs": [],
      "name": "DAYS_SECONDS",
      "outputs": [
        {
          "internalType": "uint256",
          "name": "",
          "type": "uint256"
        }
      ],
      "stateMutability": "view",
      "type": "function"
    },
    {
      "inputs": [
        {
          "internalType": "address",
          "name": "_user",
          "type": "address"
        }
      ],
      "name": "_calculateYield",
      "outputs": [
        {
          "internalType": "uint256",
          "name": "",
          "type": "uint256"
        }
      ],
      "stateMutability": "view",
      "type": "function"
    },
    {
      "inputs": [],
      "name": "adminAddress",
      "outputs": [
        {
          "internalType": "address",
          "name": "",
          "type": "address"
        }
      ],
      "stateMutability": "view",
      "type": "function"
    },
    {
      "inputs": [
        {
          "internalType": "address",
          "name": "owner",
          "type": "address"
        },
        {
          "internalType": "address",
          "name": "spender",
          "type": "address"
        }
      ],
      "name": "allowance",
      "outputs": [
        {
          "internalType": "uint256",
          "name": "",
          "type": "uint256"
        }
      ],
      "stateMutability": "view",
      "type": "function"
    },
    {
      "inputs": [],
      "name": "ammAddress",
      "outputs": [
        {
          "internalType": "address",
          "name": "",
          "type": "address"
        }
      ],
      "stateMutability": "view",
      "type": "function"
    },
    {
      "inputs": [
        {
          "internalType": "address",
          "name": "spender",
          "type": "address"
        },
        {
          "internalType": "uint256",
          "name": "amount",
          "type": "uint256"
        }
      ],
      "name": "approve",
      "outputs": [
        {
          "internalType": "bool",
          "name": "",
          "type": "bool"
        }
      ],
      "stateMutability": "nonpayable",
      "type": "function"
    },
    {
      "inputs": [
        {
          "internalType": "address",
          "name": "_borrowAddress",
          "type": "address"
        }
      ],
      "name": "approveBorrowForLocks",
      "outputs": [],
      "stateMutability": "nonpayable",
      "type": "function"
    },
    {
      "inputs": [
        {
          "internalType": "address",
          "name": "account",
          "type": "address"
        }
      ],
      "name": "balanceOf",
      "outputs": [
        {
          "internalType": "uint256",
          "name": "",
          "type": "uint256"
        }
      ],
      "stateMutability": "view",
      "type": "function"
    },
    {
      "inputs": [],
      "name": "claim",
      "outputs": [
        {
          "internalType": "uint256",
          "name": "_yield",
          "type": "uint256"
        }
      ],
      "stateMutability": "nonpayable",
      "type": "function"
    },
    {
      "inputs": [],
      "name": "decimals",
      "outputs": [
        {
          "internalType": "uint8",
          "name": "",
          "type": "uint8"
        }
      ],
      "stateMutability": "view",
      "type": "function"
    },
    {
      "inputs": [
        {
          "internalType": "address",
          "name": "spender",
          "type": "address"
        },
        {
          "internalType": "uint256",
          "name": "subtractedValue",
          "type": "uint256"
        }
      ],
      "name": "decreaseAllowance",
      "outputs": [
        {
          "internalType": "bool",
          "name": "",
          "type": "bool"
        }
      ],
      "stateMutability": "nonpayable",
      "type": "function"
    },
    {
      "inputs": [
        {
          "internalType": "address",
          "name": "_user",
          "type": "address"
        }
      ],
      "name": "getStaked",
      "outputs": [
        {
          "internalType": "uint256",
          "name": "",
          "type": "uint256"
        }
      ],
      "stateMutability": "view",
      "type": "function"
    },
    {
      "inputs": [
        {
          "internalType": "address",
          "name": "spender",
          "type": "address"
        },
        {
          "internalType": "uint256",
          "name": "addedValue",
          "type": "uint256"
        }
      ],
      "name": "increaseAllowance",
      "outputs": [
        {
          "internalType": "bool",
          "name": "",
          "type": "bool"
        }
      ],
      "stateMutability": "nonpayable",
      "type": "function"
    },
    {
      "inputs": [],
      "name": "locksAddress",
      "outputs": [
        {
          "internalType": "address",
          "name": "",
          "type": "address"
        }
      ],
      "stateMutability": "view",
      "type": "function"
    },
    {
      "inputs": [],
      "name": "name",
      "outputs": [
        {
          "internalType": "string",
          "name": "",
          "type": "string"
        }
      ],
      "stateMutability": "view",
      "type": "function"
    },
    {
      "inputs": [
        {
          "internalType": "uint256",
          "name": "_amount",
          "type": "uint256"
        }
      ],
      "name": "realize",
      "outputs": [],
      "stateMutability": "nonpayable",
      "type": "function"
    },
    {
      "inputs": [
        {
          "internalType": "address",
          "name": "_honeyAddress",
          "type": "address"
        }
      ],
      "name": "setHoneyAddress",
      "outputs": [],
      "stateMutability": "nonpayable",
      "type": "function"
    },
    {
      "inputs": [
        {
          "internalType": "address",
          "name": "_locksAddress",
          "type": "address"
        }
      ],
      "name": "setLocksAddress",
      "outputs": [],
      "stateMutability": "nonpayable",
      "type": "function"
    },
    {
      "inputs": [
        {
          "internalType": "uint256",
          "name": "_amount",
          "type": "uint256"
        }
      ],
      "name": "stake",
      "outputs": [],
      "stateMutability": "nonpayable",
      "type": "function"
    },
    {
      "inputs": [
        {
          "internalType": "address",
          "name": "",
          "type": "address"
        }
      ],
      "name": "stakeStartTime",
      "outputs": [
        {
          "internalType": "uint256",
          "name": "",
          "type": "uint256"
        }
      ],
      "stateMutability": "view",
      "type": "function"
    },
    {
      "inputs": [
        {
          "internalType": "address",
          "name": "",
          "type": "address"
        }
      ],
      "name": "staked",
      "outputs": [
        {
          "internalType": "uint256",
          "name": "",
          "type": "uint256"
        }
      ],
      "stateMutability": "view",
      "type": "function"
    },
    {
      "inputs": [],
      "name": "symbol",
      "outputs": [
        {
          "internalType": "string",
          "name": "",
          "type": "string"
        }
      ],
      "stateMutability": "view",
      "type": "function"
    },
    {
      "inputs": [],
      "name": "totalSupply",
      "outputs": [
        {
          "internalType": "uint256",
          "name": "",
          "type": "uint256"
        }
      ],
      "stateMutability": "view",
      "type": "function"
    },
    {
      "inputs": [
        {
          "internalType": "address",
          "name": "to",
          "type": "address"
        },
        {
          "internalType": "uint256",
          "name": "amount",
          "type": "uint256"
        }
      ],
      "name": "transfer",
      "outputs": [
        {
          "internalType": "bool",
          "name": "",
          "type": "bool"
        }
      ],
      "stateMutability": "nonpayable",
      "type": "function"
    },
    {
      "inputs": [
        {
          "internalType": "address",
          "name": "from",
          "type": "address"
        },
        {
          "internalType": "address",
          "name": "to",
          "type": "address"
        },
        {
          "internalType": "uint256",
          "name": "amount",
          "type": "uint256"
        }
      ],
      "name": "transferFrom",
      "outputs": [
        {
          "internalType": "bool",
          "name": "",
          "type": "bool"
        }
      ],
      "stateMutability": "nonpayable",
      "type": "function"
    },
    {
      "inputs": [
        {
          "internalType": "uint256",
          "name": "_amount",
          "type": "uint256"
        }
      ],
      "name": "unstake",
      "outputs": [
        {
          "internalType": "uint256",
          "name": "_yield",
          "type": "uint256"
        }
      ],
      "stateMutability": "nonpayable",
      "type": "function"
    }
  ],
  "bytecode": {
    "object": "0x60806040523480156200001157600080fd5b50604051620017cf380380620017cf833981016040819052620000349162000118565b6040518060400160405280600e81526020016d2837b93934b233b2902a37b5b2b760911b8152506040518060400160405280600381526020016250524760e81b81525081600390816200008891906200021a565b5060046200009782826200021a565b5050600780546001600160a01b03199081166001600160a01b03978816908117909255600680548216968816969096179095556008805486169487169490941790935550600b805484169190941617909255600c80549091169091179055620002e6565b80516001600160a01b03811681146200011357600080fd5b919050565b600080600080608085870312156200012f57600080fd5b6200013a85620000fb565b93506200014a60208601620000fb565b92506200015a60408601620000fb565b91506200016a60608601620000fb565b905092959194509250565b634e487b7160e01b600052604160045260246000fd5b600181811c90821680620001a057607f821691505b602082108103620001c157634e487b7160e01b600052602260045260246000fd5b50919050565b601f8211156200021557600081815260208120601f850160051c81016020861015620001f05750805b601f850160051c820191505b818110156200021157828155600101620001fc565b5050505b505050565b81516001600160401b0381111562000236576200023662000175565b6200024e816200024784546200018b565b84620001c7565b602080601f8311600181146200028657600084156200026d5750858301515b600019600386901b1c1916600185901b17855562000211565b600085815260208120601f198616915b82811015620002b75788860151825594840194600190910190840162000296565b5085821015620002d65787850151600019600388901b60f8161c191681555b5050505050600190811b01905550565b6114d980620002f66000396000f3fe608060405234801561001057600080fd5b50600436106101a95760003560e01c806370a08231116100f9578063a9059cbb11610097578063dd62ed3e11610071578063dd62ed3e146103c7578063e7ed48be146103da578063e86eee46146103ed578063fc6f9468146103f557600080fd5b8063a9059cbb1461038e578063b44f9a42146103a1578063db9ed213146103b457600080fd5b806395d89b41116100d357806395d89b411461034057806398807d8414610348578063a457c2d714610368578063a694fc3a1461037b57600080fd5b806370a08231146102f3578063770fc8601461031c578063903d78fb1461032f57600080fd5b8063313ce567116101665780634837e204116101405780634837e2041461028d57806348757e84146102b85780634e71d92d146102cb5780636985e6d8146102d357600080fd5b8063313ce5671461023c5780633950935114610251578063399080ec1461026457600080fd5b806306fdde03146101ae578063095ea7b3146101cc57806318160ddd146101ef5780631cef3fd91461020157806323b872dd146102165780632e17de7814610229575b600080fd5b6101b6610408565b6040516101c39190611263565b60405180910390f35b6101df6101da3660046112c8565b61049a565b60405190151581526020016101c3565b6002545b6040519081526020016101c3565b61021461020f3660046112f2565b6104b4565b005b6101df610224366004611314565b61056d565b6101f3610237366004611350565b610591565b60125b60405160ff90911681526020016101c3565b6101df61025f3660046112c8565b6107d0565b6101f36102723660046112f2565b6001600160a01b031660009081526009602052604090205490565b600c546102a0906001600160a01b031681565b6040516001600160a01b0390911681526020016101c3565b600d546102a0906001600160a01b031681565b6101f36107f2565b6101f36102e13660046112f2565b600a6020526000908152604090205481565b6101f36103013660046112f2565b6001600160a01b031660009081526020819052604090205490565b61021461032a366004611350565b610802565b6101f369124bc0ddd92e5600000081565b6101b66109d8565b6101f36103563660046112f2565b60096020526000908152604090205481565b6101df6103763660046112c8565b6109e7565b610214610389366004611350565b610a62565b6101df61039c3660046112c8565b610b34565b6102146103af3660046112f2565b610b42565b6102146103c23660046112f2565b610b8e565b6101f36103d5366004611369565b610bda565b6101f36103e83660046112f2565b610c05565b61023f60c881565b600b546102a0906001600160a01b031681565b6060600380546104179061139c565b80601f01602080910402602001604051908101604052809291908181526020018280546104439061139c565b80156104905780601f1061046557610100808354040283529160200191610490565b820191906000526020600020905b81548152906001019060200180831161047357829003601f168201915b5050505050905090565b6000336104a8818585610c95565b60019150505b92915050565b600b546001600160a01b031633146104e75760405162461bcd60e51b81526004016104de906113d0565b60405180910390fd5b600d5460405163095ea7b360e01b81526001600160a01b0383811660048301526a084595161401484a00000060248301529091169063095ea7b3906044015b6020604051808303816000875af1158015610545573d6000803e3d6000fd5b505050506040513d601f19601f8201168201806040525081019061056991906113f3565b5050565b60003361057b858285610dba565b610586858585610e34565b506001949350505050565b60008082116105d85760405162461bcd60e51b815260206004820152601360248201527263616e6e6f7420756e7374616b65207a65726f60681b60448201526064016104de565b336000908152600960205260409020548211156106375760405162461bcd60e51b815260206004820152601b60248201527f696e73756666696369656e74207374616b65642062616c616e6365000000000060448201526064016104de565b60085460405163bc22fd1b60e01b81523360048201526001600160a01b039091169063bc22fd1b90602401602060405180830381865afa15801561067f573d6000803e3d6000fd5b505050506040513d601f19601f820116820180604052508101906106a39190611415565b336000908152600960205260409020546106bd9190611444565b8211156107235760405162461bcd60e51b815260206004820152602e60248201527f796f75206172652063757272656e746c7920626f72726f77696e67206167616960448201526d6e737420796f7572206c6f636b7360901b60648201526084016104de565b61072c33610fd8565b33600090815260096020526040812080549293508492909190610750908490611444565b9091555050600d5460405163a9059cbb60e01b8152336004820152602481018490526001600160a01b039091169063a9059cbb906044016020604051808303816000875af11580156107a6573d6000803e3d6000fd5b505050506040513d601f19601f820116820180604052508101906107ca91906113f3565b50919050565b6000336104a88185856107e38383610bda565b6107ed9190611457565b610c95565b60006107fd33610fd8565b905090565b600081116108455760405162461bcd60e51b815260206004820152601060248201526f063616e6e6f74207265616c697a6520360841b60448201526064016104de565b600754604080516349b1e40960e11b815290516000926001600160a01b031691639363c8129160048083019260209291908290030181865afa15801561088f573d6000803e3d6000fd5b505050506040513d601f19601f820116820180604052508101906108b39190611415565b90506108bf3383611057565b600554600c546001600160a01b03918216916323b872dd91339116670de0b6b3a76400006108ed868861146a565b6108f79190611481565b6040516001600160e01b031960e086901b1681526001600160a01b03938416600482015292909116602483015260448201526064016020604051808303816000875af115801561094b573d6000803e3d6000fd5b505050506040513d601f19601f8201168201806040525081019061096f91906113f3565b506006546040516307d8bbb160e21b8152336004820152602481018490526001600160a01b0390911690631f62eec490604401600060405180830381600087803b1580156109bc57600080fd5b505af11580156109d0573d6000803e3d6000fd5b505050505050565b6060600480546104179061139c565b600033816109f58286610bda565b905083811015610a555760405162461bcd60e51b815260206004820152602560248201527f45524332303a2064656372656173656420616c6c6f77616e63652062656c6f77604482015264207a65726f60d81b60648201526084016104de565b6105868286868403610c95565b60008111610aa65760405162461bcd60e51b815260206004820152601160248201527063616e6e6f74207374616b65207a65726f60781b60448201526064016104de565b3360009081526009602052604090205415610ac657610ac433610fd8565b505b336000908152600a60209081526040808320429055600990915281208054839290610af2908490611457565b9091555050600d546040516323b872dd60e01b8152336004820152306024820152604481018390526001600160a01b03909116906323b872dd90606401610526565b6000336104a8818585610e34565b600b546001600160a01b03163314610b6c5760405162461bcd60e51b81526004016104de906113d0565b600d80546001600160a01b0319166001600160a01b0392909216919091179055565b600b546001600160a01b03163314610bb85760405162461bcd60e51b81526004016104de906113d0565b600580546001600160a01b0319166001600160a01b0392909216919091179055565b6001600160a01b03918216600090815260016020908152604080832093909416825291909152205490565b600080610c1183611181565b6001600160a01b03841660009081526009602052604081205491925090610c3a9060c890611481565b90506000670de0b6b3a764000069124bc0ddd92e56000000610c5c858361146a565b610c6e90670de0b6b3a764000061146a565b610c789190611481565b610c82908461146a565b610c8c9190611481565b95945050505050565b6001600160a01b038316610cf75760405162461bcd60e51b8152602060048201526024808201527f45524332303a20617070726f76652066726f6d20746865207a65726f206164646044820152637265737360e01b60648201526084016104de565b6001600160a01b038216610d585760405162461bcd60e51b815260206004820152602260248201527f45524332303a20617070726f766520746f20746865207a65726f206164647265604482015261737360f01b60648201526084016104de565b6001600160a01b0383811660008181526001602090815260408083209487168084529482529182902085905590518481527f8c5be1e5ebec7d5bd14f71427d1e84f3dd0314c0f7b2291e5b200ac8c7c3b92591015b60405180910390a3505050565b6000610dc68484610bda565b90506000198114610e2e5781811015610e215760405162461bcd60e51b815260206004820152601d60248201527f45524332303a20696e73756666696369656e7420616c6c6f77616e636500000060448201526064016104de565b610e2e8484848403610c95565b50505050565b6001600160a01b038316610e985760405162461bcd60e51b815260206004820152602560248201527f45524332303a207472616e736665722066726f6d20746865207a65726f206164604482015264647265737360d81b60648201526084016104de565b6001600160a01b038216610efa5760405162461bcd60e51b815260206004820152602360248201527f45524332303a207472616e7366657220746f20746865207a65726f206164647260448201526265737360e81b60648201526084016104de565b6001600160a01b03831660009081526020819052604090205481811015610f725760405162461bcd60e51b815260206004820152602660248201527f45524332303a207472616e7366657220616d6f756e7420657863656564732062604482015265616c616e636560d01b60648201526084016104de565b6001600160a01b03848116600081815260208181526040808320878703905593871680835291849020805487019055925185815290927fddf252ad1be2c89b69c2b068fc378daa952ba7f163c4a11628f55a4df523b3ef910160405180910390a3610e2e565b6000610fe382610c05565b90506000811161102d5760405162461bcd60e51b81526020600482015260156024820152746e6f7468696e6720746f206469737472696275746560581b60448201526064016104de565b6001600160a01b0382166000908152600a6020526040902042905561105282826111a4565b919050565b6001600160a01b0382166110b75760405162461bcd60e51b815260206004820152602160248201527f45524332303a206275726e2066726f6d20746865207a65726f206164647265736044820152607360f81b60648201526084016104de565b6001600160a01b0382166000908152602081905260409020548181101561112b5760405162461bcd60e51b815260206004820152602260248201527f45524332303a206275726e20616d6f756e7420657863656564732062616c616e604482015261636560f01b60648201526084016104de565b6001600160a01b0383166000818152602081815260408083208686039055600280548790039055518581529192917fddf252ad1be2c89b69c2b068fc378daa952ba7f163c4a11628f55a4df523b3ef9101610dad565b6001600160a01b0381166000908152600a60205260408120546104ae9042611444565b6001600160a01b0382166111fa5760405162461bcd60e51b815260206004820152601f60248201527f45524332303a206d696e7420746f20746865207a65726f20616464726573730060448201526064016104de565b806002600082825461120c9190611457565b90915550506001600160a01b038216600081815260208181526040808320805486019055518481527fddf252ad1be2c89b69c2b068fc378daa952ba7f163c4a11628f55a4df523b3ef910160405180910390a35050565b600060208083528351808285015260005b8181101561129057858101830151858201604001528201611274565b506000604082860101526040601f19601f8301168501019250505092915050565b80356001600160a01b038116811461105257600080fd5b600080604083850312156112db57600080fd5b6112e4836112b1565b946020939093013593505050565b60006020828403121561130457600080fd5b61130d826112b1565b9392505050565b60008060006060848603121561132957600080fd5b611332846112b1565b9250611340602085016112b1565b9150604084013590509250925092565b60006020828403121561136257600080fd5b5035919050565b6000806040838503121561137c57600080fd5b611385836112b1565b9150611393602084016112b1565b90509250929050565b600181811c908216806113b057607f821691505b6020821081036107ca57634e487b7160e01b600052602260045260246000fd5b6020808252600990820152683737ba1030b236b4b760b91b604082015260600190565b60006020828403121561140557600080fd5b8151801515811461130d57600080fd5b60006020828403121561142757600080fd5b5051919050565b634e487b7160e01b600052601160045260246000fd5b818103818111156104ae576104ae61142e565b808201808211156104ae576104ae61142e565b80820281158282048414176104ae576104ae61142e565b60008261149e57634e487b7160e01b600052601260045260246000fd5b50049056fea26469706673582212208229ec599af58c0be5b9bd85f3a0a20c9ae37ed5e79d707cfe063fa62033455c64736f6c63430008110033",
    "linkReferences": {}
  },
  "methodIdentifiers": {
    "DAILY_EMISSISIONS()": "e86eee46",
    "DAYS_SECONDS()": "903d78fb",
    "_calculateYield(address)": "e7ed48be",
    "adminAddress()": "fc6f9468",
    "allowance(address,address)": "dd62ed3e",
    "ammAddress()": "4837e204",
    "approve(address,uint256)": "095ea7b3",
    "approveBorrowForLocks(address)": "1cef3fd9",
    "balanceOf(address)": "70a08231",
    "claim()": "4e71d92d",
    "decimals()": "313ce567",
    "decreaseAllowance(address,uint256)": "a457c2d7",
    "getStaked(address)": "399080ec",
    "increaseAllowance(address,uint256)": "39509351",
    "locksAddress()": "48757e84",
    "name()": "06fdde03",
    "realize(uint256)": "770fc860",
    "setHoneyAddress(address)": "db9ed213",
    "setLocksAddress(address)": "b44f9a42",
    "stake(uint256)": "a694fc3a",
    "stakeStartTime(address)": "6985e6d8",
    "staked(address)": "98807d84",
    "symbol()": "95d89b41",
    "totalSupply()": "18160ddd",
    "transfer(address,uint256)": "a9059cbb",
    "transferFrom(address,address,uint256)": "23b872dd",
    "unstake(uint256)": "2e17de78"
  },
  "id": 15
}